
P3_SEMP.elf:     file format elf32-littlearm

Sections:
Idx Name          Size      VMA       LMA       File off  Algn
  0 .isr_vector   00000198  08000000  08000000  00010000  2**0
                  CONTENTS, ALLOC, LOAD, READONLY, DATA
  1 .text         0000714c  080001a0  080001a0  000101a0  2**4
                  CONTENTS, ALLOC, LOAD, READONLY, CODE
  2 .rodata       00000204  080072ec  080072ec  000172ec  2**2
                  CONTENTS, ALLOC, LOAD, READONLY, DATA
  3 .ARM.extab    00000000  080074f0  080074f0  000200e4  2**0
                  CONTENTS
  4 .ARM          00000008  080074f0  080074f0  000174f0  2**2
                  CONTENTS, ALLOC, LOAD, READONLY, DATA
  5 .preinit_array 00000000  080074f8  080074f8  000200e4  2**0
                  CONTENTS, ALLOC, LOAD, DATA
  6 .init_array   00000004  080074f8  080074f8  000174f8  2**2
                  CONTENTS, ALLOC, LOAD, DATA
  7 .fini_array   00000004  080074fc  080074fc  000174fc  2**2
                  CONTENTS, ALLOC, LOAD, DATA
  8 .data         000000e4  20000000  08007500  00020000  2**2
                  CONTENTS, ALLOC, LOAD, DATA
  9 .bss          00004f94  200000e4  080075e4  000200e4  2**2
                  ALLOC
 10 ._user_heap_stack 00000600  20005078  080075e4  00025078  2**0
                  ALLOC
 11 .ARM.attributes 00000030  00000000  00000000  000200e4  2**0
                  CONTENTS, READONLY
 12 .debug_info   00039f4e  00000000  00000000  00020114  2**0
                  CONTENTS, READONLY, DEBUGGING, OCTETS
 13 .debug_abbrev 00006f87  00000000  00000000  0005a062  2**0
                  CONTENTS, READONLY, DEBUGGING, OCTETS
 14 .debug_loc    00028039  00000000  00000000  00060fe9  2**0
                  CONTENTS, READONLY, DEBUGGING, OCTETS
 15 .debug_aranges 000018f8  00000000  00000000  00089028  2**3
                  CONTENTS, READONLY, DEBUGGING, OCTETS
 16 .debug_ranges 000051a8  00000000  00000000  0008a920  2**3
                  CONTENTS, READONLY, DEBUGGING, OCTETS
 17 .debug_macro  0001b9d2  00000000  00000000  0008fac8  2**0
                  CONTENTS, READONLY, DEBUGGING, OCTETS
 18 .debug_line   00035bcc  00000000  00000000  000ab49a  2**0
                  CONTENTS, READONLY, DEBUGGING, OCTETS
 19 .debug_str    000a603b  00000000  00000000  000e1066  2**0
                  CONTENTS, READONLY, DEBUGGING, OCTETS
 20 .comment      00000053  00000000  00000000  001870a1  2**0
                  CONTENTS, READONLY
 21 .debug_frame  00005e34  00000000  00000000  001870f4  2**2
                  CONTENTS, READONLY, DEBUGGING, OCTETS

Disassembly of section .text:

080001a0 <__do_global_dtors_aux>:
 80001a0:	b510      	push	{r4, lr}
 80001a2:	4c05      	ldr	r4, [pc, #20]	; (80001b8 <__do_global_dtors_aux+0x18>)
 80001a4:	7823      	ldrb	r3, [r4, #0]
 80001a6:	b933      	cbnz	r3, 80001b6 <__do_global_dtors_aux+0x16>
 80001a8:	4b04      	ldr	r3, [pc, #16]	; (80001bc <__do_global_dtors_aux+0x1c>)
 80001aa:	b113      	cbz	r3, 80001b2 <__do_global_dtors_aux+0x12>
 80001ac:	4804      	ldr	r0, [pc, #16]	; (80001c0 <__do_global_dtors_aux+0x20>)
 80001ae:	f3af 8000 	nop.w
 80001b2:	2301      	movs	r3, #1
 80001b4:	7023      	strb	r3, [r4, #0]
 80001b6:	bd10      	pop	{r4, pc}
 80001b8:	200000e4 	.word	0x200000e4
 80001bc:	00000000 	.word	0x00000000
 80001c0:	080072d4 	.word	0x080072d4

080001c4 <frame_dummy>:
 80001c4:	b508      	push	{r3, lr}
 80001c6:	4b03      	ldr	r3, [pc, #12]	; (80001d4 <frame_dummy+0x10>)
 80001c8:	b11b      	cbz	r3, 80001d2 <frame_dummy+0xe>
 80001ca:	4903      	ldr	r1, [pc, #12]	; (80001d8 <frame_dummy+0x14>)
 80001cc:	4803      	ldr	r0, [pc, #12]	; (80001dc <frame_dummy+0x18>)
 80001ce:	f3af 8000 	nop.w
 80001d2:	bd08      	pop	{r3, pc}
 80001d4:	00000000 	.word	0x00000000
 80001d8:	200000e8 	.word	0x200000e8
 80001dc:	080072d4 	.word	0x080072d4

080001e0 <__aeabi_uldivmod>:
 80001e0:	b953      	cbnz	r3, 80001f8 <__aeabi_uldivmod+0x18>
 80001e2:	b94a      	cbnz	r2, 80001f8 <__aeabi_uldivmod+0x18>
 80001e4:	2900      	cmp	r1, #0
 80001e6:	bf08      	it	eq
 80001e8:	2800      	cmpeq	r0, #0
 80001ea:	bf1c      	itt	ne
 80001ec:	f04f 31ff 	movne.w	r1, #4294967295
 80001f0:	f04f 30ff 	movne.w	r0, #4294967295
 80001f4:	f000 b96e 	b.w	80004d4 <__aeabi_idiv0>
 80001f8:	f1ad 0c08 	sub.w	ip, sp, #8
 80001fc:	e96d ce04 	strd	ip, lr, [sp, #-16]!
 8000200:	f000 f806 	bl	8000210 <__udivmoddi4>
 8000204:	f8dd e004 	ldr.w	lr, [sp, #4]
 8000208:	e9dd 2302 	ldrd	r2, r3, [sp, #8]
 800020c:	b004      	add	sp, #16
 800020e:	4770      	bx	lr

08000210 <__udivmoddi4>:
 8000210:	e92d 47f0 	stmdb	sp!, {r4, r5, r6, r7, r8, r9, sl, lr}
 8000214:	9d08      	ldr	r5, [sp, #32]
 8000216:	4604      	mov	r4, r0
 8000218:	468c      	mov	ip, r1
 800021a:	2b00      	cmp	r3, #0
 800021c:	f040 8083 	bne.w	8000326 <__udivmoddi4+0x116>
 8000220:	428a      	cmp	r2, r1
 8000222:	4617      	mov	r7, r2
 8000224:	d947      	bls.n	80002b6 <__udivmoddi4+0xa6>
 8000226:	fab2 f282 	clz	r2, r2
 800022a:	b142      	cbz	r2, 800023e <__udivmoddi4+0x2e>
 800022c:	f1c2 0020 	rsb	r0, r2, #32
 8000230:	fa24 f000 	lsr.w	r0, r4, r0
 8000234:	4091      	lsls	r1, r2
 8000236:	4097      	lsls	r7, r2
 8000238:	ea40 0c01 	orr.w	ip, r0, r1
 800023c:	4094      	lsls	r4, r2
 800023e:	ea4f 4817 	mov.w	r8, r7, lsr #16
 8000242:	0c23      	lsrs	r3, r4, #16
 8000244:	fbbc f6f8 	udiv	r6, ip, r8
 8000248:	fa1f fe87 	uxth.w	lr, r7
 800024c:	fb08 c116 	mls	r1, r8, r6, ip
 8000250:	ea43 4301 	orr.w	r3, r3, r1, lsl #16
 8000254:	fb06 f10e 	mul.w	r1, r6, lr
 8000258:	4299      	cmp	r1, r3
 800025a:	d909      	bls.n	8000270 <__udivmoddi4+0x60>
 800025c:	18fb      	adds	r3, r7, r3
 800025e:	f106 30ff 	add.w	r0, r6, #4294967295
 8000262:	f080 8119 	bcs.w	8000498 <__udivmoddi4+0x288>
 8000266:	4299      	cmp	r1, r3
 8000268:	f240 8116 	bls.w	8000498 <__udivmoddi4+0x288>
 800026c:	3e02      	subs	r6, #2
 800026e:	443b      	add	r3, r7
 8000270:	1a5b      	subs	r3, r3, r1
 8000272:	b2a4      	uxth	r4, r4
 8000274:	fbb3 f0f8 	udiv	r0, r3, r8
 8000278:	fb08 3310 	mls	r3, r8, r0, r3
 800027c:	ea44 4403 	orr.w	r4, r4, r3, lsl #16
 8000280:	fb00 fe0e 	mul.w	lr, r0, lr
 8000284:	45a6      	cmp	lr, r4
 8000286:	d909      	bls.n	800029c <__udivmoddi4+0x8c>
 8000288:	193c      	adds	r4, r7, r4
 800028a:	f100 33ff 	add.w	r3, r0, #4294967295
 800028e:	f080 8105 	bcs.w	800049c <__udivmoddi4+0x28c>
 8000292:	45a6      	cmp	lr, r4
 8000294:	f240 8102 	bls.w	800049c <__udivmoddi4+0x28c>
 8000298:	3802      	subs	r0, #2
 800029a:	443c      	add	r4, r7
 800029c:	ea40 4006 	orr.w	r0, r0, r6, lsl #16
 80002a0:	eba4 040e 	sub.w	r4, r4, lr
 80002a4:	2600      	movs	r6, #0
 80002a6:	b11d      	cbz	r5, 80002b0 <__udivmoddi4+0xa0>
 80002a8:	40d4      	lsrs	r4, r2
 80002aa:	2300      	movs	r3, #0
 80002ac:	e9c5 4300 	strd	r4, r3, [r5]
 80002b0:	4631      	mov	r1, r6
 80002b2:	e8bd 87f0 	ldmia.w	sp!, {r4, r5, r6, r7, r8, r9, sl, pc}
 80002b6:	b902      	cbnz	r2, 80002ba <__udivmoddi4+0xaa>
 80002b8:	deff      	udf	#255	; 0xff
 80002ba:	fab2 f282 	clz	r2, r2
 80002be:	2a00      	cmp	r2, #0
 80002c0:	d150      	bne.n	8000364 <__udivmoddi4+0x154>
 80002c2:	1bcb      	subs	r3, r1, r7
 80002c4:	ea4f 4e17 	mov.w	lr, r7, lsr #16
 80002c8:	fa1f f887 	uxth.w	r8, r7
 80002cc:	2601      	movs	r6, #1
 80002ce:	fbb3 fcfe 	udiv	ip, r3, lr
 80002d2:	0c21      	lsrs	r1, r4, #16
 80002d4:	fb0e 331c 	mls	r3, lr, ip, r3
 80002d8:	ea41 4103 	orr.w	r1, r1, r3, lsl #16
 80002dc:	fb08 f30c 	mul.w	r3, r8, ip
 80002e0:	428b      	cmp	r3, r1
 80002e2:	d907      	bls.n	80002f4 <__udivmoddi4+0xe4>
 80002e4:	1879      	adds	r1, r7, r1
 80002e6:	f10c 30ff 	add.w	r0, ip, #4294967295
 80002ea:	d202      	bcs.n	80002f2 <__udivmoddi4+0xe2>
 80002ec:	428b      	cmp	r3, r1
 80002ee:	f200 80e9 	bhi.w	80004c4 <__udivmoddi4+0x2b4>
 80002f2:	4684      	mov	ip, r0
 80002f4:	1ac9      	subs	r1, r1, r3
 80002f6:	b2a3      	uxth	r3, r4
 80002f8:	fbb1 f0fe 	udiv	r0, r1, lr
 80002fc:	fb0e 1110 	mls	r1, lr, r0, r1
 8000300:	ea43 4401 	orr.w	r4, r3, r1, lsl #16
 8000304:	fb08 f800 	mul.w	r8, r8, r0
 8000308:	45a0      	cmp	r8, r4
 800030a:	d907      	bls.n	800031c <__udivmoddi4+0x10c>
 800030c:	193c      	adds	r4, r7, r4
 800030e:	f100 33ff 	add.w	r3, r0, #4294967295
 8000312:	d202      	bcs.n	800031a <__udivmoddi4+0x10a>
 8000314:	45a0      	cmp	r8, r4
 8000316:	f200 80d9 	bhi.w	80004cc <__udivmoddi4+0x2bc>
 800031a:	4618      	mov	r0, r3
 800031c:	eba4 0408 	sub.w	r4, r4, r8
 8000320:	ea40 400c 	orr.w	r0, r0, ip, lsl #16
 8000324:	e7bf      	b.n	80002a6 <__udivmoddi4+0x96>
 8000326:	428b      	cmp	r3, r1
 8000328:	d909      	bls.n	800033e <__udivmoddi4+0x12e>
 800032a:	2d00      	cmp	r5, #0
 800032c:	f000 80b1 	beq.w	8000492 <__udivmoddi4+0x282>
 8000330:	2600      	movs	r6, #0
 8000332:	e9c5 0100 	strd	r0, r1, [r5]
 8000336:	4630      	mov	r0, r6
 8000338:	4631      	mov	r1, r6
 800033a:	e8bd 87f0 	ldmia.w	sp!, {r4, r5, r6, r7, r8, r9, sl, pc}
 800033e:	fab3 f683 	clz	r6, r3
 8000342:	2e00      	cmp	r6, #0
 8000344:	d14a      	bne.n	80003dc <__udivmoddi4+0x1cc>
 8000346:	428b      	cmp	r3, r1
 8000348:	d302      	bcc.n	8000350 <__udivmoddi4+0x140>
 800034a:	4282      	cmp	r2, r0
 800034c:	f200 80b8 	bhi.w	80004c0 <__udivmoddi4+0x2b0>
 8000350:	1a84      	subs	r4, r0, r2
 8000352:	eb61 0103 	sbc.w	r1, r1, r3
 8000356:	2001      	movs	r0, #1
 8000358:	468c      	mov	ip, r1
 800035a:	2d00      	cmp	r5, #0
 800035c:	d0a8      	beq.n	80002b0 <__udivmoddi4+0xa0>
 800035e:	e9c5 4c00 	strd	r4, ip, [r5]
 8000362:	e7a5      	b.n	80002b0 <__udivmoddi4+0xa0>
 8000364:	f1c2 0320 	rsb	r3, r2, #32
 8000368:	fa20 f603 	lsr.w	r6, r0, r3
 800036c:	4097      	lsls	r7, r2
 800036e:	fa01 f002 	lsl.w	r0, r1, r2
 8000372:	ea4f 4e17 	mov.w	lr, r7, lsr #16
 8000376:	40d9      	lsrs	r1, r3
 8000378:	4330      	orrs	r0, r6
 800037a:	0c03      	lsrs	r3, r0, #16
 800037c:	fbb1 f6fe 	udiv	r6, r1, lr
 8000380:	fa1f f887 	uxth.w	r8, r7
 8000384:	fb0e 1116 	mls	r1, lr, r6, r1
 8000388:	ea43 4301 	orr.w	r3, r3, r1, lsl #16
 800038c:	fb06 f108 	mul.w	r1, r6, r8
 8000390:	4299      	cmp	r1, r3
 8000392:	fa04 f402 	lsl.w	r4, r4, r2
 8000396:	d909      	bls.n	80003ac <__udivmoddi4+0x19c>
 8000398:	18fb      	adds	r3, r7, r3
 800039a:	f106 3cff 	add.w	ip, r6, #4294967295
 800039e:	f080 808d 	bcs.w	80004bc <__udivmoddi4+0x2ac>
 80003a2:	4299      	cmp	r1, r3
 80003a4:	f240 808a 	bls.w	80004bc <__udivmoddi4+0x2ac>
 80003a8:	3e02      	subs	r6, #2
 80003aa:	443b      	add	r3, r7
 80003ac:	1a5b      	subs	r3, r3, r1
 80003ae:	b281      	uxth	r1, r0
 80003b0:	fbb3 f0fe 	udiv	r0, r3, lr
 80003b4:	fb0e 3310 	mls	r3, lr, r0, r3
 80003b8:	ea41 4103 	orr.w	r1, r1, r3, lsl #16
 80003bc:	fb00 f308 	mul.w	r3, r0, r8
 80003c0:	428b      	cmp	r3, r1
 80003c2:	d907      	bls.n	80003d4 <__udivmoddi4+0x1c4>
 80003c4:	1879      	adds	r1, r7, r1
 80003c6:	f100 3cff 	add.w	ip, r0, #4294967295
 80003ca:	d273      	bcs.n	80004b4 <__udivmoddi4+0x2a4>
 80003cc:	428b      	cmp	r3, r1
 80003ce:	d971      	bls.n	80004b4 <__udivmoddi4+0x2a4>
 80003d0:	3802      	subs	r0, #2
 80003d2:	4439      	add	r1, r7
 80003d4:	1acb      	subs	r3, r1, r3
 80003d6:	ea40 4606 	orr.w	r6, r0, r6, lsl #16
 80003da:	e778      	b.n	80002ce <__udivmoddi4+0xbe>
 80003dc:	f1c6 0c20 	rsb	ip, r6, #32
 80003e0:	fa03 f406 	lsl.w	r4, r3, r6
 80003e4:	fa22 f30c 	lsr.w	r3, r2, ip
 80003e8:	431c      	orrs	r4, r3
 80003ea:	fa20 f70c 	lsr.w	r7, r0, ip
 80003ee:	fa01 f306 	lsl.w	r3, r1, r6
 80003f2:	ea4f 4e14 	mov.w	lr, r4, lsr #16
 80003f6:	fa21 f10c 	lsr.w	r1, r1, ip
 80003fa:	431f      	orrs	r7, r3
 80003fc:	0c3b      	lsrs	r3, r7, #16
 80003fe:	fbb1 f9fe 	udiv	r9, r1, lr
 8000402:	fa1f f884 	uxth.w	r8, r4
 8000406:	fb0e 1119 	mls	r1, lr, r9, r1
 800040a:	ea43 4101 	orr.w	r1, r3, r1, lsl #16
 800040e:	fb09 fa08 	mul.w	sl, r9, r8
 8000412:	458a      	cmp	sl, r1
 8000414:	fa02 f206 	lsl.w	r2, r2, r6
 8000418:	fa00 f306 	lsl.w	r3, r0, r6
 800041c:	d908      	bls.n	8000430 <__udivmoddi4+0x220>
 800041e:	1861      	adds	r1, r4, r1
 8000420:	f109 30ff 	add.w	r0, r9, #4294967295
 8000424:	d248      	bcs.n	80004b8 <__udivmoddi4+0x2a8>
 8000426:	458a      	cmp	sl, r1
 8000428:	d946      	bls.n	80004b8 <__udivmoddi4+0x2a8>
 800042a:	f1a9 0902 	sub.w	r9, r9, #2
 800042e:	4421      	add	r1, r4
 8000430:	eba1 010a 	sub.w	r1, r1, sl
 8000434:	b2bf      	uxth	r7, r7
 8000436:	fbb1 f0fe 	udiv	r0, r1, lr
 800043a:	fb0e 1110 	mls	r1, lr, r0, r1
 800043e:	ea47 4701 	orr.w	r7, r7, r1, lsl #16
 8000442:	fb00 f808 	mul.w	r8, r0, r8
 8000446:	45b8      	cmp	r8, r7
 8000448:	d907      	bls.n	800045a <__udivmoddi4+0x24a>
 800044a:	19e7      	adds	r7, r4, r7
 800044c:	f100 31ff 	add.w	r1, r0, #4294967295
 8000450:	d22e      	bcs.n	80004b0 <__udivmoddi4+0x2a0>
 8000452:	45b8      	cmp	r8, r7
 8000454:	d92c      	bls.n	80004b0 <__udivmoddi4+0x2a0>
 8000456:	3802      	subs	r0, #2
 8000458:	4427      	add	r7, r4
 800045a:	ea40 4009 	orr.w	r0, r0, r9, lsl #16
 800045e:	eba7 0708 	sub.w	r7, r7, r8
 8000462:	fba0 8902 	umull	r8, r9, r0, r2
 8000466:	454f      	cmp	r7, r9
 8000468:	46c6      	mov	lr, r8
 800046a:	4649      	mov	r1, r9
 800046c:	d31a      	bcc.n	80004a4 <__udivmoddi4+0x294>
 800046e:	d017      	beq.n	80004a0 <__udivmoddi4+0x290>
 8000470:	b15d      	cbz	r5, 800048a <__udivmoddi4+0x27a>
 8000472:	ebb3 020e 	subs.w	r2, r3, lr
 8000476:	eb67 0701 	sbc.w	r7, r7, r1
 800047a:	fa07 fc0c 	lsl.w	ip, r7, ip
 800047e:	40f2      	lsrs	r2, r6
 8000480:	ea4c 0202 	orr.w	r2, ip, r2
 8000484:	40f7      	lsrs	r7, r6
 8000486:	e9c5 2700 	strd	r2, r7, [r5]
 800048a:	2600      	movs	r6, #0
 800048c:	4631      	mov	r1, r6
 800048e:	e8bd 87f0 	ldmia.w	sp!, {r4, r5, r6, r7, r8, r9, sl, pc}
 8000492:	462e      	mov	r6, r5
 8000494:	4628      	mov	r0, r5
 8000496:	e70b      	b.n	80002b0 <__udivmoddi4+0xa0>
 8000498:	4606      	mov	r6, r0
 800049a:	e6e9      	b.n	8000270 <__udivmoddi4+0x60>
 800049c:	4618      	mov	r0, r3
 800049e:	e6fd      	b.n	800029c <__udivmoddi4+0x8c>
 80004a0:	4543      	cmp	r3, r8
 80004a2:	d2e5      	bcs.n	8000470 <__udivmoddi4+0x260>
 80004a4:	ebb8 0e02 	subs.w	lr, r8, r2
 80004a8:	eb69 0104 	sbc.w	r1, r9, r4
 80004ac:	3801      	subs	r0, #1
 80004ae:	e7df      	b.n	8000470 <__udivmoddi4+0x260>
 80004b0:	4608      	mov	r0, r1
 80004b2:	e7d2      	b.n	800045a <__udivmoddi4+0x24a>
 80004b4:	4660      	mov	r0, ip
 80004b6:	e78d      	b.n	80003d4 <__udivmoddi4+0x1c4>
 80004b8:	4681      	mov	r9, r0
 80004ba:	e7b9      	b.n	8000430 <__udivmoddi4+0x220>
 80004bc:	4666      	mov	r6, ip
 80004be:	e775      	b.n	80003ac <__udivmoddi4+0x19c>
 80004c0:	4630      	mov	r0, r6
 80004c2:	e74a      	b.n	800035a <__udivmoddi4+0x14a>
 80004c4:	f1ac 0c02 	sub.w	ip, ip, #2
 80004c8:	4439      	add	r1, r7
 80004ca:	e713      	b.n	80002f4 <__udivmoddi4+0xe4>
 80004cc:	3802      	subs	r0, #2
 80004ce:	443c      	add	r4, r7
 80004d0:	e724      	b.n	800031c <__udivmoddi4+0x10c>
 80004d2:	bf00      	nop

080004d4 <__aeabi_idiv0>:
 80004d4:	4770      	bx	lr
 80004d6:	bf00      	nop

080004d8 <LSM303AGR_AccDeInit>:
  * @param  None
  * @retval None
  */
void LSM303AGR_AccDeInit(void)
{  
}
 80004d8:	4770      	bx	lr
 80004da:	bf00      	nop

080004dc <LSM303AGR_AccInit>:
{  
 80004dc:	b510      	push	{r4, lr}
 80004de:	4604      	mov	r4, r0
  COMPASSACCELERO_IO_Init();
 80004e0:	f006 fcea 	bl	8006eb8 <COMPASSACCELERO_IO_Init>
  COMPASSACCELERO_IO_Write(ACC_I2C_ADDRESS, LSM303AGR_CTRL_REG1_A, ctrl);
 80004e4:	b2e2      	uxtb	r2, r4
 80004e6:	2120      	movs	r1, #32
 80004e8:	2032      	movs	r0, #50	; 0x32
 80004ea:	f006 fd39 	bl	8006f60 <COMPASSACCELERO_IO_Write>
}
 80004ee:	e8bd 4010 	ldmia.w	sp!, {r4, lr}
  COMPASSACCELERO_IO_Write(ACC_I2C_ADDRESS, LSM303AGR_CTRL_REG4_A, ctrl);
 80004f2:	2200      	movs	r2, #0
 80004f4:	2123      	movs	r1, #35	; 0x23
 80004f6:	2032      	movs	r0, #50	; 0x32
 80004f8:	f006 bd32 	b.w	8006f60 <COMPASSACCELERO_IO_Write>

080004fc <LSM303AGR_AccReadID>:
  * @brief  Read LSM303AGR ID.
  * @param  None
  * @retval ID 
  */
uint8_t LSM303AGR_AccReadID(void)
{  
 80004fc:	b508      	push	{r3, lr}
  uint8_t ctrl = 0x00;
  
  /* Low level init */
  COMPASSACCELERO_IO_Init();
 80004fe:	f006 fcdb 	bl	8006eb8 <COMPASSACCELERO_IO_Init>
  
  /* Read value at Who am I register address */
  ctrl = COMPASSACCELERO_IO_Read(ACC_I2C_ADDRESS, LSM303AGR_WHO_AM_I_ADDR);
  
  return ctrl;
}
 8000502:	e8bd 4008 	ldmia.w	sp!, {r3, lr}
  ctrl = COMPASSACCELERO_IO_Read(ACC_I2C_ADDRESS, LSM303AGR_WHO_AM_I_ADDR);
 8000506:	210f      	movs	r1, #15
 8000508:	2032      	movs	r0, #50	; 0x32
 800050a:	f006 bd4f 	b.w	8006fac <COMPASSACCELERO_IO_Read>
 800050e:	bf00      	nop

08000510 <LSM303AGR_AccRebootCmd>:
  * @brief  Reboot memory content of LSM303AGR
  * @param  None
  * @retval None
  */
void LSM303AGR_AccRebootCmd(void)
{
 8000510:	b508      	push	{r3, lr}
  uint8_t tmpreg;
  
  /* Read CTRL_REG5 register */
  tmpreg = COMPASSACCELERO_IO_Read(ACC_I2C_ADDRESS, LSM303AGR_CTRL_REG5_A);
 8000512:	2124      	movs	r1, #36	; 0x24
 8000514:	2032      	movs	r0, #50	; 0x32
 8000516:	f006 fd49 	bl	8006fac <COMPASSACCELERO_IO_Read>
  
  /* Enable or Disable the reboot memory */
  tmpreg |= LSM303AGR_BOOT_REBOOTMEMORY;
 800051a:	f060 007f 	orn	r0, r0, #127	; 0x7f
  
  /* Write value to ACC MEMS CTRL_REG5 register */
  COMPASSACCELERO_IO_Write(ACC_I2C_ADDRESS, LSM303AGR_CTRL_REG5_A, tmpreg);
 800051e:	b2c2      	uxtb	r2, r0
}
 8000520:	e8bd 4008 	ldmia.w	sp!, {r3, lr}
  COMPASSACCELERO_IO_Write(ACC_I2C_ADDRESS, LSM303AGR_CTRL_REG5_A, tmpreg);
 8000524:	2124      	movs	r1, #36	; 0x24
 8000526:	2032      	movs	r0, #50	; 0x32
 8000528:	f006 bd1a 	b.w	8006f60 <COMPASSACCELERO_IO_Write>

0800052c <LSM303AGR_AccFilterConfig>:
  * @brief  Set High Pass Filter Modality
  * @param  FilterStruct: contains data for filter config
  * @retval None
  */
void LSM303AGR_AccFilterConfig(uint8_t FilterStruct) 
{
 800052c:	b510      	push	{r4, lr}
  uint8_t tmpreg;
  
  /* Read CTRL_REG2 register */
  tmpreg = COMPASSACCELERO_IO_Read(ACC_I2C_ADDRESS, LSM303AGR_CTRL_REG2_A);
 800052e:	2121      	movs	r1, #33	; 0x21
{
 8000530:	4604      	mov	r4, r0
  tmpreg = COMPASSACCELERO_IO_Read(ACC_I2C_ADDRESS, LSM303AGR_CTRL_REG2_A);
 8000532:	2032      	movs	r0, #50	; 0x32
 8000534:	f006 fd3a 	bl	8006fac <COMPASSACCELERO_IO_Read>
  
  tmpreg &= 0x0C;
 8000538:	f000 000c 	and.w	r0, r0, #12
  tmpreg |= FilterStruct;
  
  /* Write value to ACC MEMS CTRL_REG2 register */
  COMPASSACCELERO_IO_Write(ACC_I2C_ADDRESS, LSM303AGR_CTRL_REG2_A, tmpreg);
 800053c:	ea40 0204 	orr.w	r2, r0, r4
 8000540:	2121      	movs	r1, #33	; 0x21
}
 8000542:	e8bd 4010 	ldmia.w	sp!, {r4, lr}
  COMPASSACCELERO_IO_Write(ACC_I2C_ADDRESS, LSM303AGR_CTRL_REG2_A, tmpreg);
 8000546:	2032      	movs	r0, #50	; 0x32
 8000548:	f006 bd0a 	b.w	8006f60 <COMPASSACCELERO_IO_Write>

0800054c <LSM303AGR_AccFilterCmd>:
  *         @arg: LSM303AGR_HIGHPASSFILTER_DISABLE 
  *         @arg: LSM303AGR_HIGHPASSFILTER_ENABLE
  * @retval None
  */
void LSM303AGR_AccFilterCmd(uint8_t HighPassFilterState)
{
 800054c:	b510      	push	{r4, lr}
  uint8_t tmpreg;
  
  /* Read CTRL_REG2 register */
  tmpreg = COMPASSACCELERO_IO_Read(ACC_I2C_ADDRESS, LSM303AGR_CTRL_REG2_A);
 800054e:	2121      	movs	r1, #33	; 0x21
{
 8000550:	4604      	mov	r4, r0
  tmpreg = COMPASSACCELERO_IO_Read(ACC_I2C_ADDRESS, LSM303AGR_CTRL_REG2_A);
 8000552:	2032      	movs	r0, #50	; 0x32
 8000554:	f006 fd2a 	bl	8006fac <COMPASSACCELERO_IO_Read>
  
  tmpreg &= 0xF7;
 8000558:	f000 00f7 	and.w	r0, r0, #247	; 0xf7
  
  tmpreg |= HighPassFilterState;
  
  /* Write value to ACC MEMS CTRL_REG2 register */
  COMPASSACCELERO_IO_Write(ACC_I2C_ADDRESS, LSM303AGR_CTRL_REG2_A, tmpreg);
 800055c:	ea40 0204 	orr.w	r2, r0, r4
 8000560:	2121      	movs	r1, #33	; 0x21
}
 8000562:	e8bd 4010 	ldmia.w	sp!, {r4, lr}
  COMPASSACCELERO_IO_Write(ACC_I2C_ADDRESS, LSM303AGR_CTRL_REG2_A, tmpreg);
 8000566:	2032      	movs	r0, #50	; 0x32
 8000568:	f006 bcfa 	b.w	8006f60 <COMPASSACCELERO_IO_Write>

0800056c <LSM303AGR_AccReadXYZ>:
  * @brief  Read X, Y & Z Acceleration values 
  * @param  pData: Data out pointer
  * @retval None
  */
void LSM303AGR_AccReadXYZ(int16_t* pData)
{
 800056c:	e92d 47f0 	stmdb	sp!, {r4, r5, r6, r7, r8, r9, sl, lr}
  int8_t buffer[6];
  uint8_t i = 0;
  uint8_t sensitivity = LSM303AGR_ACC_SENSITIVITY_2G;
  
  /* Read the acceleration control register content */
  ctrlx[0] = COMPASSACCELERO_IO_Read(ACC_I2C_ADDRESS, LSM303AGR_CTRL_REG4_A);
 8000570:	2123      	movs	r1, #35	; 0x23
{
 8000572:	4606      	mov	r6, r0
  ctrlx[0] = COMPASSACCELERO_IO_Read(ACC_I2C_ADDRESS, LSM303AGR_CTRL_REG4_A);
 8000574:	2032      	movs	r0, #50	; 0x32
 8000576:	f006 fd19 	bl	8006fac <COMPASSACCELERO_IO_Read>
  ctrlx[1] = COMPASSACCELERO_IO_Read(ACC_I2C_ADDRESS, LSM303AGR_CTRL_REG5_A);
 800057a:	2124      	movs	r1, #36	; 0x24
  ctrlx[0] = COMPASSACCELERO_IO_Read(ACC_I2C_ADDRESS, LSM303AGR_CTRL_REG4_A);
 800057c:	4607      	mov	r7, r0
  ctrlx[1] = COMPASSACCELERO_IO_Read(ACC_I2C_ADDRESS, LSM303AGR_CTRL_REG5_A);
 800057e:	2032      	movs	r0, #50	; 0x32
 8000580:	f006 fd14 	bl	8006fac <COMPASSACCELERO_IO_Read>
  
  /* Read output register X, Y & Z acceleration */
  buffer[0] = COMPASSACCELERO_IO_Read(ACC_I2C_ADDRESS, LSM303AGR_OUT_X_L_A); 
 8000584:	2128      	movs	r1, #40	; 0x28
 8000586:	2032      	movs	r0, #50	; 0x32
 8000588:	f006 fd10 	bl	8006fac <COMPASSACCELERO_IO_Read>
  buffer[1] = COMPASSACCELERO_IO_Read(ACC_I2C_ADDRESS, LSM303AGR_OUT_X_H_A);
 800058c:	2129      	movs	r1, #41	; 0x29
  buffer[0] = COMPASSACCELERO_IO_Read(ACC_I2C_ADDRESS, LSM303AGR_OUT_X_L_A); 
 800058e:	4680      	mov	r8, r0
  buffer[1] = COMPASSACCELERO_IO_Read(ACC_I2C_ADDRESS, LSM303AGR_OUT_X_H_A);
 8000590:	2032      	movs	r0, #50	; 0x32
 8000592:	f006 fd0b 	bl	8006fac <COMPASSACCELERO_IO_Read>
  buffer[2] = COMPASSACCELERO_IO_Read(ACC_I2C_ADDRESS, LSM303AGR_OUT_Y_L_A);
 8000596:	212a      	movs	r1, #42	; 0x2a
  buffer[1] = COMPASSACCELERO_IO_Read(ACC_I2C_ADDRESS, LSM303AGR_OUT_X_H_A);
 8000598:	4681      	mov	r9, r0
  buffer[2] = COMPASSACCELERO_IO_Read(ACC_I2C_ADDRESS, LSM303AGR_OUT_Y_L_A);
 800059a:	2032      	movs	r0, #50	; 0x32
 800059c:	f006 fd06 	bl	8006fac <COMPASSACCELERO_IO_Read>
  buffer[3] = COMPASSACCELERO_IO_Read(ACC_I2C_ADDRESS, LSM303AGR_OUT_Y_H_A);
 80005a0:	212b      	movs	r1, #43	; 0x2b
  buffer[2] = COMPASSACCELERO_IO_Read(ACC_I2C_ADDRESS, LSM303AGR_OUT_Y_L_A);
 80005a2:	4604      	mov	r4, r0
  buffer[3] = COMPASSACCELERO_IO_Read(ACC_I2C_ADDRESS, LSM303AGR_OUT_Y_H_A);
 80005a4:	2032      	movs	r0, #50	; 0x32
 80005a6:	f006 fd01 	bl	8006fac <COMPASSACCELERO_IO_Read>
  buffer[4] = COMPASSACCELERO_IO_Read(ACC_I2C_ADDRESS, LSM303AGR_OUT_Z_L_A);
 80005aa:	212c      	movs	r1, #44	; 0x2c
  buffer[3] = COMPASSACCELERO_IO_Read(ACC_I2C_ADDRESS, LSM303AGR_OUT_Y_H_A);
 80005ac:	4682      	mov	sl, r0
  buffer[4] = COMPASSACCELERO_IO_Read(ACC_I2C_ADDRESS, LSM303AGR_OUT_Z_L_A);
 80005ae:	2032      	movs	r0, #50	; 0x32
 80005b0:	f006 fcfc 	bl	8006fac <COMPASSACCELERO_IO_Read>
  buffer[5] = COMPASSACCELERO_IO_Read(ACC_I2C_ADDRESS, LSM303AGR_OUT_Z_H_A);
 80005b4:	212d      	movs	r1, #45	; 0x2d
  buffer[4] = COMPASSACCELERO_IO_Read(ACC_I2C_ADDRESS, LSM303AGR_OUT_Z_L_A);
 80005b6:	4605      	mov	r5, r0
  buffer[5] = COMPASSACCELERO_IO_Read(ACC_I2C_ADDRESS, LSM303AGR_OUT_Z_H_A);
 80005b8:	2032      	movs	r0, #50	; 0x32
 80005ba:	f006 fcf7 	bl	8006fac <COMPASSACCELERO_IO_Read>
  
  /* Check in the control register4 the data alignment*/
  if(!(ctrlx[0] & LSM303AGR_BLE_MSB)) 
 80005be:	067b      	lsls	r3, r7, #25
  buffer[0] = COMPASSACCELERO_IO_Read(ACC_I2C_ADDRESS, LSM303AGR_OUT_X_L_A); 
 80005c0:	fa4f f888 	sxtb.w	r8, r8
  buffer[1] = COMPASSACCELERO_IO_Read(ACC_I2C_ADDRESS, LSM303AGR_OUT_X_H_A);
 80005c4:	fa4f f989 	sxtb.w	r9, r9
  buffer[2] = COMPASSACCELERO_IO_Read(ACC_I2C_ADDRESS, LSM303AGR_OUT_Y_L_A);
 80005c8:	b264      	sxtb	r4, r4
  buffer[3] = COMPASSACCELERO_IO_Read(ACC_I2C_ADDRESS, LSM303AGR_OUT_Y_H_A);
 80005ca:	fa4f fa8a 	sxtb.w	sl, sl
  buffer[4] = COMPASSACCELERO_IO_Read(ACC_I2C_ADDRESS, LSM303AGR_OUT_Z_L_A);
 80005ce:	b26d      	sxtb	r5, r5
  buffer[5] = COMPASSACCELERO_IO_Read(ACC_I2C_ADDRESS, LSM303AGR_OUT_Z_H_A);
 80005d0:	b242      	sxtb	r2, r0
  if(!(ctrlx[0] & LSM303AGR_BLE_MSB)) 
 80005d2:	d519      	bpl.n	8000608 <LSM303AGR_AccReadXYZ+0x9c>
  }
  else /* Big Endian Mode */
  {
    for(i=0; i<3; i++)
    {
      pnRawData[i]=((int16_t)((uint16_t)buffer[2*i] << 8) + buffer[2*i+1]);
 80005d4:	eb09 2108 	add.w	r1, r9, r8, lsl #8
 80005d8:	eb0a 2304 	add.w	r3, sl, r4, lsl #8
 80005dc:	eb02 2205 	add.w	r2, r2, r5, lsl #8
 80005e0:	f007 0030 	and.w	r0, r7, #48	; 0x30
    }
  }
  
  /* Normal mode */
  /* Switch the sensitivity value set in the CRTL4 */
  switch(ctrlx[0] & LSM303AGR_FULLSCALE_16G)
 80005e4:	2820      	cmp	r0, #32
      pnRawData[i]=((int16_t)((uint16_t)buffer[2*i+1] << 8) + buffer[2*i]);
 80005e6:	b28c      	uxth	r4, r1
 80005e8:	b29d      	uxth	r5, r3
 80005ea:	fa1f fc82 	uxth.w	ip, r2
 80005ee:	b209      	sxth	r1, r1
 80005f0:	b21b      	sxth	r3, r3
 80005f2:	b212      	sxth	r2, r2
  switch(ctrlx[0] & LSM303AGR_FULLSCALE_16G)
 80005f4:	d00f      	beq.n	8000616 <LSM303AGR_AccReadXYZ+0xaa>
 80005f6:	2830      	cmp	r0, #48	; 0x30
 80005f8:	d025      	beq.n	8000646 <LSM303AGR_AccReadXYZ+0xda>
 80005fa:	2810      	cmp	r0, #16
 80005fc:	d017      	beq.n	800062e <LSM303AGR_AccReadXYZ+0xc2>
  }
  
  /* Obtain the mg value for the three axis */
  for(i=0; i<3; i++)
  {
    pData[i]=(pnRawData[i] * sensitivity);
 80005fe:	8031      	strh	r1, [r6, #0]
 8000600:	8073      	strh	r3, [r6, #2]
 8000602:	80b2      	strh	r2, [r6, #4]
  }
}
 8000604:	e8bd 87f0 	ldmia.w	sp!, {r4, r5, r6, r7, r8, r9, sl, pc}
      pnRawData[i]=((int16_t)((uint16_t)buffer[2*i+1] << 8) + buffer[2*i]);
 8000608:	eb08 2109 	add.w	r1, r8, r9, lsl #8
 800060c:	eb04 230a 	add.w	r3, r4, sl, lsl #8
 8000610:	eb05 2202 	add.w	r2, r5, r2, lsl #8
 8000614:	e7e4      	b.n	80005e0 <LSM303AGR_AccReadXYZ+0x74>
    break;
 8000616:	00a1      	lsls	r1, r4, #2
 8000618:	00ab      	lsls	r3, r5, #2
 800061a:	ea4f 028c 	mov.w	r2, ip, lsl #2
 800061e:	b209      	sxth	r1, r1
 8000620:	b21b      	sxth	r3, r3
 8000622:	b212      	sxth	r2, r2
    pData[i]=(pnRawData[i] * sensitivity);
 8000624:	8031      	strh	r1, [r6, #0]
 8000626:	8073      	strh	r3, [r6, #2]
 8000628:	80b2      	strh	r2, [r6, #4]
}
 800062a:	e8bd 87f0 	ldmia.w	sp!, {r4, r5, r6, r7, r8, r9, sl, pc}
    break;
 800062e:	0061      	lsls	r1, r4, #1
 8000630:	006b      	lsls	r3, r5, #1
 8000632:	ea4f 024c 	mov.w	r2, ip, lsl #1
 8000636:	b209      	sxth	r1, r1
 8000638:	b21b      	sxth	r3, r3
 800063a:	b212      	sxth	r2, r2
    pData[i]=(pnRawData[i] * sensitivity);
 800063c:	8031      	strh	r1, [r6, #0]
 800063e:	8073      	strh	r3, [r6, #2]
 8000640:	80b2      	strh	r2, [r6, #4]
}
 8000642:	e8bd 87f0 	ldmia.w	sp!, {r4, r5, r6, r7, r8, r9, sl, pc}
    break;
 8000646:	eb04 0144 	add.w	r1, r4, r4, lsl #1
 800064a:	eb05 0345 	add.w	r3, r5, r5, lsl #1
 800064e:	eb0c 024c 	add.w	r2, ip, ip, lsl #1
 8000652:	0089      	lsls	r1, r1, #2
 8000654:	009b      	lsls	r3, r3, #2
 8000656:	0092      	lsls	r2, r2, #2
 8000658:	b209      	sxth	r1, r1
 800065a:	b21b      	sxth	r3, r3
 800065c:	b212      	sxth	r2, r2
    pData[i]=(pnRawData[i] * sensitivity);
 800065e:	8031      	strh	r1, [r6, #0]
 8000660:	8073      	strh	r3, [r6, #2]
 8000662:	80b2      	strh	r2, [r6, #4]
}
 8000664:	e8bd 87f0 	ldmia.w	sp!, {r4, r5, r6, r7, r8, r9, sl, pc}

08000668 <LSM303AGR_AccZClickITConfig>:
  * @brief  Click on Z axis interrupt config
  * @param  None
  * @retval None
  */
void LSM303AGR_AccZClickITConfig(void)
{  
 8000668:	b508      	push	{r3, lr}
  /* Configure low level IT config */
  COMPASSACCELERO_IO_ITConfig();
 800066a:	f006 fc4f 	bl	8006f0c <COMPASSACCELERO_IO_ITConfig>
  tmpval = COMPASSACCELERO_IO_Read(ACC_I2C_ADDRESS, LSM303AGR_CTRL_REG3_A);
 800066e:	2122      	movs	r1, #34	; 0x22
 8000670:	2032      	movs	r0, #50	; 0x32
 8000672:	f006 fc9b 	bl	8006fac <COMPASSACCELERO_IO_Read>
  tmpval |= LSM303AGR_IT;
 8000676:	f060 007f 	orn	r0, r0, #127	; 0x7f
  COMPASSACCELERO_IO_Write(ACC_I2C_ADDRESS, LSM303AGR_CTRL_REG3_A, tmpval);
 800067a:	b2c2      	uxtb	r2, r0
 800067c:	2122      	movs	r1, #34	; 0x22
 800067e:	2032      	movs	r0, #50	; 0x32
 8000680:	f006 fc6e 	bl	8006f60 <COMPASSACCELERO_IO_Write>
  tmpreg = COMPASSACCELERO_IO_Read(ACC_I2C_ADDRESS, LSM303AGR_CTRL_REG2_A);
 8000684:	2121      	movs	r1, #33	; 0x21
 8000686:	2032      	movs	r0, #50	; 0x32
 8000688:	f006 fc90 	bl	8006fac <COMPASSACCELERO_IO_Read>
  tmpreg &= ~(LSM303AGR_HPF_CLICK_ENABLE);
 800068c:	f000 00fb 	and.w	r0, r0, #251	; 0xfb
  COMPASSACCELERO_IO_Write(ACC_I2C_ADDRESS, LSM303AGR_CTRL_REG2_A, tmpreg);
 8000690:	f040 0204 	orr.w	r2, r0, #4
 8000694:	2121      	movs	r1, #33	; 0x21
 8000696:	2032      	movs	r0, #50	; 0x32
 8000698:	f006 fc62 	bl	8006f60 <COMPASSACCELERO_IO_Write>
  tmpval = COMPASSACCELERO_IO_Read(ACC_I2C_ADDRESS, LSM303AGR_CLICK_CFG_A);
 800069c:	2138      	movs	r1, #56	; 0x38
 800069e:	2032      	movs	r0, #50	; 0x32
 80006a0:	f006 fc84 	bl	8006fac <COMPASSACCELERO_IO_Read>
  tmpval |= ITClick;
 80006a4:	f040 0010 	orr.w	r0, r0, #16
  COMPASSACCELERO_IO_Write(ACC_I2C_ADDRESS, LSM303AGR_CLICK_CFG_A, tmpval);
 80006a8:	b2c2      	uxtb	r2, r0
 80006aa:	2138      	movs	r1, #56	; 0x38
 80006ac:	2032      	movs	r0, #50	; 0x32
 80006ae:	f006 fc57 	bl	8006f60 <COMPASSACCELERO_IO_Write>
  COMPASSACCELERO_IO_Write(ACC_I2C_ADDRESS, LSM303AGR_CLICK_THS_A, tmpval);
 80006b2:	220a      	movs	r2, #10
 80006b4:	213a      	movs	r1, #58	; 0x3a
 80006b6:	2032      	movs	r0, #50	; 0x32
 80006b8:	f006 fc52 	bl	8006f60 <COMPASSACCELERO_IO_Write>
  COMPASSACCELERO_IO_Write(ACC_I2C_ADDRESS, LSM303AGR_TIME_LIMIT_A, tmpval);
 80006bc:	2205      	movs	r2, #5
 80006be:	213b      	movs	r1, #59	; 0x3b
 80006c0:	2032      	movs	r0, #50	; 0x32
 80006c2:	f006 fc4d 	bl	8006f60 <COMPASSACCELERO_IO_Write>
  COMPASSACCELERO_IO_Write(ACC_I2C_ADDRESS, LSM303AGR_TIME_LATENCY_A, tmpval);
 80006c6:	2205      	movs	r2, #5
 80006c8:	213c      	movs	r1, #60	; 0x3c
 80006ca:	2032      	movs	r0, #50	; 0x32
 80006cc:	f006 fc48 	bl	8006f60 <COMPASSACCELERO_IO_Write>
  COMPASSACCELERO_IO_Write(ACC_I2C_ADDRESS, LSM303AGR_TIME_WINDOW_A, tmpval);
 80006d0:	2232      	movs	r2, #50	; 0x32
  /* Enable High pass filter for click IT */
  LSM303AGR_AccFilterClickCmd(LSM303AGR_HPF_CLICK_ENABLE);
  
  /* Enable simple click IT on Z axis, */
  LSM303AGR_AccClickITEnable(LSM303AGR_Z_SINGLE_CLICK);
}
 80006d2:	e8bd 4008 	ldmia.w	sp!, {r3, lr}
  COMPASSACCELERO_IO_Write(ACC_I2C_ADDRESS, LSM303AGR_TIME_WINDOW_A, tmpval);
 80006d6:	4610      	mov	r0, r2
 80006d8:	213d      	movs	r1, #61	; 0x3d
 80006da:	f006 bc41 	b.w	8006f60 <COMPASSACCELERO_IO_Write>
 80006de:	bf00      	nop

080006e0 <LSM303DLHC_AccDeInit>:
  * @param  None
  * @retval None
  */
void LSM303DLHC_AccDeInit(void)
{  
}
 80006e0:	4770      	bx	lr
 80006e2:	bf00      	nop

080006e4 <LSM303DLHC_AccInit>:
{  
 80006e4:	b510      	push	{r4, lr}
 80006e6:	4604      	mov	r4, r0
  COMPASSACCELERO_IO_Init();
 80006e8:	f006 fbe6 	bl	8006eb8 <COMPASSACCELERO_IO_Init>
  COMPASSACCELERO_IO_Write(ACC_I2C_ADDRESS, LSM303DLHC_CTRL_REG1_A, ctrl);
 80006ec:	b2e2      	uxtb	r2, r4
 80006ee:	2120      	movs	r1, #32
 80006f0:	2032      	movs	r0, #50	; 0x32
 80006f2:	f006 fc35 	bl	8006f60 <COMPASSACCELERO_IO_Write>
}
 80006f6:	e8bd 4010 	ldmia.w	sp!, {r4, lr}
  COMPASSACCELERO_IO_Write(ACC_I2C_ADDRESS, LSM303DLHC_CTRL_REG4_A, ctrl);
 80006fa:	2200      	movs	r2, #0
 80006fc:	2123      	movs	r1, #35	; 0x23
 80006fe:	2032      	movs	r0, #50	; 0x32
 8000700:	f006 bc2e 	b.w	8006f60 <COMPASSACCELERO_IO_Write>

08000704 <LSM303DLHC_AccReadID>:
  * @brief  Read LSM303DLHC ID.
  * @param  None
  * @retval ID 
  */
uint8_t LSM303DLHC_AccReadID(void)
{  
 8000704:	b508      	push	{r3, lr}
  uint8_t ctrl = 0x00;
  
  /* Low level init */
  COMPASSACCELERO_IO_Init();
 8000706:	f006 fbd7 	bl	8006eb8 <COMPASSACCELERO_IO_Init>
  
  /* Read value at Who am I register address */
  ctrl = COMPASSACCELERO_IO_Read(ACC_I2C_ADDRESS, LSM303DLHC_WHO_AM_I_ADDR);
  
  return ctrl;
}
 800070a:	e8bd 4008 	ldmia.w	sp!, {r3, lr}
  ctrl = COMPASSACCELERO_IO_Read(ACC_I2C_ADDRESS, LSM303DLHC_WHO_AM_I_ADDR);
 800070e:	210f      	movs	r1, #15
 8000710:	2032      	movs	r0, #50	; 0x32
 8000712:	f006 bc4b 	b.w	8006fac <COMPASSACCELERO_IO_Read>
 8000716:	bf00      	nop

08000718 <LSM303DLHC_AccRebootCmd>:
  * @brief  Reboot memory content of LSM303DLHC
  * @param  None
  * @retval None
  */
void LSM303DLHC_AccRebootCmd(void)
{
 8000718:	b508      	push	{r3, lr}
  uint8_t tmpreg;
  
  /* Read CTRL_REG5 register */
  tmpreg = COMPASSACCELERO_IO_Read(ACC_I2C_ADDRESS, LSM303DLHC_CTRL_REG5_A);
 800071a:	2124      	movs	r1, #36	; 0x24
 800071c:	2032      	movs	r0, #50	; 0x32
 800071e:	f006 fc45 	bl	8006fac <COMPASSACCELERO_IO_Read>
  
  /* Enable or Disable the reboot memory */
  tmpreg |= LSM303DLHC_BOOT_REBOOTMEMORY;
 8000722:	f060 007f 	orn	r0, r0, #127	; 0x7f
  
  /* Write value to ACC MEMS CTRL_REG5 register */
  COMPASSACCELERO_IO_Write(ACC_I2C_ADDRESS, LSM303DLHC_CTRL_REG5_A, tmpreg);
 8000726:	b2c2      	uxtb	r2, r0
}
 8000728:	e8bd 4008 	ldmia.w	sp!, {r3, lr}
  COMPASSACCELERO_IO_Write(ACC_I2C_ADDRESS, LSM303DLHC_CTRL_REG5_A, tmpreg);
 800072c:	2124      	movs	r1, #36	; 0x24
 800072e:	2032      	movs	r0, #50	; 0x32
 8000730:	f006 bc16 	b.w	8006f60 <COMPASSACCELERO_IO_Write>

08000734 <LSM303DLHC_AccFilterConfig>:
  * @brief  Set High Pass Filter Modality
  * @param  FilterStruct: contains data for filter config
  * @retval None
  */
void LSM303DLHC_AccFilterConfig(uint8_t FilterStruct) 
{
 8000734:	b510      	push	{r4, lr}
  uint8_t tmpreg;
  
  /* Read CTRL_REG2 register */
  tmpreg = COMPASSACCELERO_IO_Read(ACC_I2C_ADDRESS, LSM303DLHC_CTRL_REG2_A);
 8000736:	2121      	movs	r1, #33	; 0x21
{
 8000738:	4604      	mov	r4, r0
  tmpreg = COMPASSACCELERO_IO_Read(ACC_I2C_ADDRESS, LSM303DLHC_CTRL_REG2_A);
 800073a:	2032      	movs	r0, #50	; 0x32
 800073c:	f006 fc36 	bl	8006fac <COMPASSACCELERO_IO_Read>
  
  tmpreg &= 0x0C;
 8000740:	f000 000c 	and.w	r0, r0, #12
  tmpreg |= FilterStruct;
  
  /* Write value to ACC MEMS CTRL_REG2 register */
  COMPASSACCELERO_IO_Write(ACC_I2C_ADDRESS, LSM303DLHC_CTRL_REG2_A, tmpreg);
 8000744:	ea40 0204 	orr.w	r2, r0, r4
 8000748:	2121      	movs	r1, #33	; 0x21
}
 800074a:	e8bd 4010 	ldmia.w	sp!, {r4, lr}
  COMPASSACCELERO_IO_Write(ACC_I2C_ADDRESS, LSM303DLHC_CTRL_REG2_A, tmpreg);
 800074e:	2032      	movs	r0, #50	; 0x32
 8000750:	f006 bc06 	b.w	8006f60 <COMPASSACCELERO_IO_Write>

08000754 <LSM303DLHC_AccFilterCmd>:
  *         @arg: LSM303DLHC_HIGHPASSFILTER_DISABLE 
  *         @arg: LSM303DLHC_HIGHPASSFILTER_ENABLE
  * @retval None
  */
void LSM303DLHC_AccFilterCmd(uint8_t HighPassFilterState)
{
 8000754:	b510      	push	{r4, lr}
  uint8_t tmpreg;
  
  /* Read CTRL_REG2 register */
  tmpreg = COMPASSACCELERO_IO_Read(ACC_I2C_ADDRESS, LSM303DLHC_CTRL_REG2_A);
 8000756:	2121      	movs	r1, #33	; 0x21
{
 8000758:	4604      	mov	r4, r0
  tmpreg = COMPASSACCELERO_IO_Read(ACC_I2C_ADDRESS, LSM303DLHC_CTRL_REG2_A);
 800075a:	2032      	movs	r0, #50	; 0x32
 800075c:	f006 fc26 	bl	8006fac <COMPASSACCELERO_IO_Read>
  
  tmpreg &= 0xF7;
 8000760:	f000 00f7 	and.w	r0, r0, #247	; 0xf7
  
  tmpreg |= HighPassFilterState;
  
  /* Write value to ACC MEMS CTRL_REG2 register */
  COMPASSACCELERO_IO_Write(ACC_I2C_ADDRESS, LSM303DLHC_CTRL_REG2_A, tmpreg);
 8000764:	ea40 0204 	orr.w	r2, r0, r4
 8000768:	2121      	movs	r1, #33	; 0x21
}
 800076a:	e8bd 4010 	ldmia.w	sp!, {r4, lr}
  COMPASSACCELERO_IO_Write(ACC_I2C_ADDRESS, LSM303DLHC_CTRL_REG2_A, tmpreg);
 800076e:	2032      	movs	r0, #50	; 0x32
 8000770:	f006 bbf6 	b.w	8006f60 <COMPASSACCELERO_IO_Write>

08000774 <LSM303DLHC_AccReadXYZ>:
  * @brief  Read X, Y & Z Acceleration values 
  * @param  pData: Data out pointer
  * @retval None
  */
void LSM303DLHC_AccReadXYZ(int16_t* pData)
{
 8000774:	e92d 47f0 	stmdb	sp!, {r4, r5, r6, r7, r8, r9, sl, lr}
  int8_t buffer[6];
  uint8_t i = 0;
  uint8_t sensitivity = LSM303DLHC_ACC_SENSITIVITY_2G;
  
  /* Read the acceleration control register content */
  ctrlx[0] = COMPASSACCELERO_IO_Read(ACC_I2C_ADDRESS, LSM303DLHC_CTRL_REG4_A);
 8000778:	2123      	movs	r1, #35	; 0x23
{
 800077a:	4606      	mov	r6, r0
  ctrlx[0] = COMPASSACCELERO_IO_Read(ACC_I2C_ADDRESS, LSM303DLHC_CTRL_REG4_A);
 800077c:	2032      	movs	r0, #50	; 0x32
 800077e:	f006 fc15 	bl	8006fac <COMPASSACCELERO_IO_Read>
  ctrlx[1] = COMPASSACCELERO_IO_Read(ACC_I2C_ADDRESS, LSM303DLHC_CTRL_REG5_A);
 8000782:	2124      	movs	r1, #36	; 0x24
  ctrlx[0] = COMPASSACCELERO_IO_Read(ACC_I2C_ADDRESS, LSM303DLHC_CTRL_REG4_A);
 8000784:	4607      	mov	r7, r0
  ctrlx[1] = COMPASSACCELERO_IO_Read(ACC_I2C_ADDRESS, LSM303DLHC_CTRL_REG5_A);
 8000786:	2032      	movs	r0, #50	; 0x32
 8000788:	f006 fc10 	bl	8006fac <COMPASSACCELERO_IO_Read>
  
  /* Read output register X, Y & Z acceleration */
  buffer[0] = COMPASSACCELERO_IO_Read(ACC_I2C_ADDRESS, LSM303DLHC_OUT_X_L_A); 
 800078c:	2128      	movs	r1, #40	; 0x28
 800078e:	2032      	movs	r0, #50	; 0x32
 8000790:	f006 fc0c 	bl	8006fac <COMPASSACCELERO_IO_Read>
  buffer[1] = COMPASSACCELERO_IO_Read(ACC_I2C_ADDRESS, LSM303DLHC_OUT_X_H_A);
 8000794:	2129      	movs	r1, #41	; 0x29
  buffer[0] = COMPASSACCELERO_IO_Read(ACC_I2C_ADDRESS, LSM303DLHC_OUT_X_L_A); 
 8000796:	4680      	mov	r8, r0
  buffer[1] = COMPASSACCELERO_IO_Read(ACC_I2C_ADDRESS, LSM303DLHC_OUT_X_H_A);
 8000798:	2032      	movs	r0, #50	; 0x32
 800079a:	f006 fc07 	bl	8006fac <COMPASSACCELERO_IO_Read>
  buffer[2] = COMPASSACCELERO_IO_Read(ACC_I2C_ADDRESS, LSM303DLHC_OUT_Y_L_A);
 800079e:	212a      	movs	r1, #42	; 0x2a
  buffer[1] = COMPASSACCELERO_IO_Read(ACC_I2C_ADDRESS, LSM303DLHC_OUT_X_H_A);
 80007a0:	4681      	mov	r9, r0
  buffer[2] = COMPASSACCELERO_IO_Read(ACC_I2C_ADDRESS, LSM303DLHC_OUT_Y_L_A);
 80007a2:	2032      	movs	r0, #50	; 0x32
 80007a4:	f006 fc02 	bl	8006fac <COMPASSACCELERO_IO_Read>
  buffer[3] = COMPASSACCELERO_IO_Read(ACC_I2C_ADDRESS, LSM303DLHC_OUT_Y_H_A);
 80007a8:	212b      	movs	r1, #43	; 0x2b
  buffer[2] = COMPASSACCELERO_IO_Read(ACC_I2C_ADDRESS, LSM303DLHC_OUT_Y_L_A);
 80007aa:	4604      	mov	r4, r0
  buffer[3] = COMPASSACCELERO_IO_Read(ACC_I2C_ADDRESS, LSM303DLHC_OUT_Y_H_A);
 80007ac:	2032      	movs	r0, #50	; 0x32
 80007ae:	f006 fbfd 	bl	8006fac <COMPASSACCELERO_IO_Read>
  buffer[4] = COMPASSACCELERO_IO_Read(ACC_I2C_ADDRESS, LSM303DLHC_OUT_Z_L_A);
 80007b2:	212c      	movs	r1, #44	; 0x2c
  buffer[3] = COMPASSACCELERO_IO_Read(ACC_I2C_ADDRESS, LSM303DLHC_OUT_Y_H_A);
 80007b4:	4682      	mov	sl, r0
  buffer[4] = COMPASSACCELERO_IO_Read(ACC_I2C_ADDRESS, LSM303DLHC_OUT_Z_L_A);
 80007b6:	2032      	movs	r0, #50	; 0x32
 80007b8:	f006 fbf8 	bl	8006fac <COMPASSACCELERO_IO_Read>
  buffer[5] = COMPASSACCELERO_IO_Read(ACC_I2C_ADDRESS, LSM303DLHC_OUT_Z_H_A);
 80007bc:	212d      	movs	r1, #45	; 0x2d
  buffer[4] = COMPASSACCELERO_IO_Read(ACC_I2C_ADDRESS, LSM303DLHC_OUT_Z_L_A);
 80007be:	4605      	mov	r5, r0
  buffer[5] = COMPASSACCELERO_IO_Read(ACC_I2C_ADDRESS, LSM303DLHC_OUT_Z_H_A);
 80007c0:	2032      	movs	r0, #50	; 0x32
 80007c2:	f006 fbf3 	bl	8006fac <COMPASSACCELERO_IO_Read>
  
  /* Check in the control register4 the data alignment*/
  if(!(ctrlx[0] & LSM303DLHC_BLE_MSB)) 
 80007c6:	067b      	lsls	r3, r7, #25
  buffer[0] = COMPASSACCELERO_IO_Read(ACC_I2C_ADDRESS, LSM303DLHC_OUT_X_L_A); 
 80007c8:	fa4f f888 	sxtb.w	r8, r8
  buffer[1] = COMPASSACCELERO_IO_Read(ACC_I2C_ADDRESS, LSM303DLHC_OUT_X_H_A);
 80007cc:	fa4f f989 	sxtb.w	r9, r9
  buffer[2] = COMPASSACCELERO_IO_Read(ACC_I2C_ADDRESS, LSM303DLHC_OUT_Y_L_A);
 80007d0:	b264      	sxtb	r4, r4
  buffer[3] = COMPASSACCELERO_IO_Read(ACC_I2C_ADDRESS, LSM303DLHC_OUT_Y_H_A);
 80007d2:	fa4f fa8a 	sxtb.w	sl, sl
  buffer[4] = COMPASSACCELERO_IO_Read(ACC_I2C_ADDRESS, LSM303DLHC_OUT_Z_L_A);
 80007d6:	b26d      	sxtb	r5, r5
  buffer[5] = COMPASSACCELERO_IO_Read(ACC_I2C_ADDRESS, LSM303DLHC_OUT_Z_H_A);
 80007d8:	b242      	sxtb	r2, r0
  if(!(ctrlx[0] & LSM303DLHC_BLE_MSB)) 
 80007da:	d519      	bpl.n	8000810 <LSM303DLHC_AccReadXYZ+0x9c>
  }
  else /* Big Endian Mode */
  {
    for(i=0; i<3; i++)
    {
      pnRawData[i]=((int16_t)((uint16_t)buffer[2*i] << 8) + buffer[2*i+1]);
 80007dc:	eb09 2108 	add.w	r1, r9, r8, lsl #8
 80007e0:	eb0a 2304 	add.w	r3, sl, r4, lsl #8
 80007e4:	eb02 2205 	add.w	r2, r2, r5, lsl #8
 80007e8:	f007 0030 	and.w	r0, r7, #48	; 0x30
    }
  }
  
  /* Normal mode */
  /* Switch the sensitivity value set in the CRTL4 */
  switch(ctrlx[0] & LSM303DLHC_FULLSCALE_16G)
 80007ec:	2820      	cmp	r0, #32
      pnRawData[i]=((int16_t)((uint16_t)buffer[2*i+1] << 8) + buffer[2*i]);
 80007ee:	b28c      	uxth	r4, r1
 80007f0:	b29d      	uxth	r5, r3
 80007f2:	fa1f fc82 	uxth.w	ip, r2
 80007f6:	b209      	sxth	r1, r1
 80007f8:	b21b      	sxth	r3, r3
 80007fa:	b212      	sxth	r2, r2
  switch(ctrlx[0] & LSM303DLHC_FULLSCALE_16G)
 80007fc:	d00f      	beq.n	800081e <LSM303DLHC_AccReadXYZ+0xaa>
 80007fe:	2830      	cmp	r0, #48	; 0x30
 8000800:	d025      	beq.n	800084e <LSM303DLHC_AccReadXYZ+0xda>
 8000802:	2810      	cmp	r0, #16
 8000804:	d017      	beq.n	8000836 <LSM303DLHC_AccReadXYZ+0xc2>
  }
  
  /* Obtain the mg value for the three axis */
  for(i=0; i<3; i++)
  {
    pData[i]=(pnRawData[i] * sensitivity);
 8000806:	8031      	strh	r1, [r6, #0]
 8000808:	8073      	strh	r3, [r6, #2]
 800080a:	80b2      	strh	r2, [r6, #4]
  }
}
 800080c:	e8bd 87f0 	ldmia.w	sp!, {r4, r5, r6, r7, r8, r9, sl, pc}
      pnRawData[i]=((int16_t)((uint16_t)buffer[2*i+1] << 8) + buffer[2*i]);
 8000810:	eb08 2109 	add.w	r1, r8, r9, lsl #8
 8000814:	eb04 230a 	add.w	r3, r4, sl, lsl #8
 8000818:	eb05 2202 	add.w	r2, r5, r2, lsl #8
 800081c:	e7e4      	b.n	80007e8 <LSM303DLHC_AccReadXYZ+0x74>
    break;
 800081e:	00a1      	lsls	r1, r4, #2
 8000820:	00ab      	lsls	r3, r5, #2
 8000822:	ea4f 028c 	mov.w	r2, ip, lsl #2
 8000826:	b209      	sxth	r1, r1
 8000828:	b21b      	sxth	r3, r3
 800082a:	b212      	sxth	r2, r2
    pData[i]=(pnRawData[i] * sensitivity);
 800082c:	8031      	strh	r1, [r6, #0]
 800082e:	8073      	strh	r3, [r6, #2]
 8000830:	80b2      	strh	r2, [r6, #4]
}
 8000832:	e8bd 87f0 	ldmia.w	sp!, {r4, r5, r6, r7, r8, r9, sl, pc}
    break;
 8000836:	0061      	lsls	r1, r4, #1
 8000838:	006b      	lsls	r3, r5, #1
 800083a:	ea4f 024c 	mov.w	r2, ip, lsl #1
 800083e:	b209      	sxth	r1, r1
 8000840:	b21b      	sxth	r3, r3
 8000842:	b212      	sxth	r2, r2
    pData[i]=(pnRawData[i] * sensitivity);
 8000844:	8031      	strh	r1, [r6, #0]
 8000846:	8073      	strh	r3, [r6, #2]
 8000848:	80b2      	strh	r2, [r6, #4]
}
 800084a:	e8bd 87f0 	ldmia.w	sp!, {r4, r5, r6, r7, r8, r9, sl, pc}
    break;
 800084e:	eb04 0144 	add.w	r1, r4, r4, lsl #1
 8000852:	eb05 0345 	add.w	r3, r5, r5, lsl #1
 8000856:	eb0c 024c 	add.w	r2, ip, ip, lsl #1
 800085a:	0089      	lsls	r1, r1, #2
 800085c:	009b      	lsls	r3, r3, #2
 800085e:	0092      	lsls	r2, r2, #2
 8000860:	b209      	sxth	r1, r1
 8000862:	b21b      	sxth	r3, r3
 8000864:	b212      	sxth	r2, r2
    pData[i]=(pnRawData[i] * sensitivity);
 8000866:	8031      	strh	r1, [r6, #0]
 8000868:	8073      	strh	r3, [r6, #2]
 800086a:	80b2      	strh	r2, [r6, #4]
}
 800086c:	e8bd 87f0 	ldmia.w	sp!, {r4, r5, r6, r7, r8, r9, sl, pc}

08000870 <LSM303DLHC_AccZClickITConfig>:
  * @brief  Click on Z axis interrupt config
  * @param  None
  * @retval None
  */
void LSM303DLHC_AccZClickITConfig(void)
{  
 8000870:	b508      	push	{r3, lr}
  /* Configure low level IT config */
  COMPASSACCELERO_IO_ITConfig();
 8000872:	f006 fb4b 	bl	8006f0c <COMPASSACCELERO_IO_ITConfig>
  tmpval = COMPASSACCELERO_IO_Read(ACC_I2C_ADDRESS, LSM303DLHC_CTRL_REG3_A);
 8000876:	2122      	movs	r1, #34	; 0x22
 8000878:	2032      	movs	r0, #50	; 0x32
 800087a:	f006 fb97 	bl	8006fac <COMPASSACCELERO_IO_Read>
  tmpval |= LSM303DLHC_IT;
 800087e:	f060 007f 	orn	r0, r0, #127	; 0x7f
  COMPASSACCELERO_IO_Write(ACC_I2C_ADDRESS, LSM303DLHC_CTRL_REG3_A, tmpval);
 8000882:	b2c2      	uxtb	r2, r0
 8000884:	2122      	movs	r1, #34	; 0x22
 8000886:	2032      	movs	r0, #50	; 0x32
 8000888:	f006 fb6a 	bl	8006f60 <COMPASSACCELERO_IO_Write>
  tmpreg = COMPASSACCELERO_IO_Read(ACC_I2C_ADDRESS, LSM303DLHC_CTRL_REG2_A);
 800088c:	2121      	movs	r1, #33	; 0x21
 800088e:	2032      	movs	r0, #50	; 0x32
 8000890:	f006 fb8c 	bl	8006fac <COMPASSACCELERO_IO_Read>
  tmpreg &= ~(LSM303DLHC_HPF_CLICK_ENABLE);
 8000894:	f000 00fb 	and.w	r0, r0, #251	; 0xfb
  COMPASSACCELERO_IO_Write(ACC_I2C_ADDRESS, LSM303DLHC_CTRL_REG2_A, tmpreg);
 8000898:	f040 0204 	orr.w	r2, r0, #4
 800089c:	2121      	movs	r1, #33	; 0x21
 800089e:	2032      	movs	r0, #50	; 0x32
 80008a0:	f006 fb5e 	bl	8006f60 <COMPASSACCELERO_IO_Write>
  tmpval = COMPASSACCELERO_IO_Read(ACC_I2C_ADDRESS, LSM303DLHC_CLICK_CFG_A);
 80008a4:	2138      	movs	r1, #56	; 0x38
 80008a6:	2032      	movs	r0, #50	; 0x32
 80008a8:	f006 fb80 	bl	8006fac <COMPASSACCELERO_IO_Read>
  tmpval |= ITClick;
 80008ac:	f040 0010 	orr.w	r0, r0, #16
  COMPASSACCELERO_IO_Write(ACC_I2C_ADDRESS, LSM303DLHC_CLICK_CFG_A, tmpval);
 80008b0:	b2c2      	uxtb	r2, r0
 80008b2:	2138      	movs	r1, #56	; 0x38
 80008b4:	2032      	movs	r0, #50	; 0x32
 80008b6:	f006 fb53 	bl	8006f60 <COMPASSACCELERO_IO_Write>
  COMPASSACCELERO_IO_Write(ACC_I2C_ADDRESS, LSM303DLHC_CLICK_THS_A, tmpval);
 80008ba:	220a      	movs	r2, #10
 80008bc:	213a      	movs	r1, #58	; 0x3a
 80008be:	2032      	movs	r0, #50	; 0x32
 80008c0:	f006 fb4e 	bl	8006f60 <COMPASSACCELERO_IO_Write>
  COMPASSACCELERO_IO_Write(ACC_I2C_ADDRESS, LSM303DLHC_TIME_LIMIT_A, tmpval);
 80008c4:	2205      	movs	r2, #5
 80008c6:	213b      	movs	r1, #59	; 0x3b
 80008c8:	2032      	movs	r0, #50	; 0x32
 80008ca:	f006 fb49 	bl	8006f60 <COMPASSACCELERO_IO_Write>
  COMPASSACCELERO_IO_Write(ACC_I2C_ADDRESS, LSM303DLHC_TIME_LATENCY_A, tmpval);
 80008ce:	2205      	movs	r2, #5
 80008d0:	213c      	movs	r1, #60	; 0x3c
 80008d2:	2032      	movs	r0, #50	; 0x32
 80008d4:	f006 fb44 	bl	8006f60 <COMPASSACCELERO_IO_Write>
  COMPASSACCELERO_IO_Write(ACC_I2C_ADDRESS, LSM303DLHC_TIME_WINDOW_A, tmpval);
 80008d8:	2232      	movs	r2, #50	; 0x32
  /* Enable High pass filter for click IT */
  LSM303DLHC_AccFilterClickCmd(LSM303DLHC_HPF_CLICK_ENABLE);
  
  /* Enable simple click IT on Z axis, */
  LSM303DLHC_AccClickITEnable(LSM303DLHC_Z_SINGLE_CLICK);
}
 80008da:	e8bd 4008 	ldmia.w	sp!, {r3, lr}
  COMPASSACCELERO_IO_Write(ACC_I2C_ADDRESS, LSM303DLHC_TIME_WINDOW_A, tmpval);
 80008de:	4610      	mov	r0, r2
 80008e0:	213d      	movs	r1, #61	; 0x3d
 80008e2:	f006 bb3d 	b.w	8006f60 <COMPASSACCELERO_IO_Write>
 80008e6:	bf00      	nop

080008e8 <StartDefaultTask>:
  * @param  argument: Not used
  * @retval None
  */
/* USER CODE END Header_StartDefaultTask */
void StartDefaultTask(void *argument)
{
 80008e8:	b508      	push	{r3, lr}
  /* USER CODE BEGIN StartDefaultTask */
  /* Infinite loop */
  for(;;)
  {
    osDelay(1);
 80008ea:	2001      	movs	r0, #1
 80008ec:	f003 ffcc 	bl	8004888 <osDelay>
  for(;;)
 80008f0:	e7fb      	b.n	80008ea <StartDefaultTask+0x2>
 80008f2:	bf00      	nop

080008f4 <SampleTask>:
* @param argument: Not used
* @retval None
*/
/* USER CODE END Header_SampleTask */
void SampleTask(void *argument)
{
 80008f4:	e92d 41f0 	stmdb	sp!, {r4, r5, r6, r7, r8, lr}
 80008f8:	4d0f      	ldr	r5, [pc, #60]	; (8000938 <SampleTask+0x44>)
 80008fa:	4e10      	ldr	r6, [pc, #64]	; (800093c <SampleTask+0x48>)
 80008fc:	f8df 8040 	ldr.w	r8, [pc, #64]	; 8000940 <SampleTask+0x4c>
 8000900:	b082      	sub	sp, #8
  {
	  BSP_ACCELERO_GetXYZ(p_acc);

	  samples++;

	  xQueueSend(SamplesQueueHandle, p_acc, portMAX_DELAY);
 8000902:	2700      	movs	r7, #0
	  BSP_ACCELERO_GetXYZ(p_acc);
 8000904:	4668      	mov	r0, sp
 8000906:	f006 fb9b 	bl	8007040 <BSP_ACCELERO_GetXYZ>
	  samples++;
 800090a:	682b      	ldr	r3, [r5, #0]
	  xQueueSend(SamplesQueueHandle, p_acc, portMAX_DELAY);
 800090c:	6830      	ldr	r0, [r6, #0]
	  samples++;
 800090e:	1c5c      	adds	r4, r3, #1
	  xQueueSend(SamplesQueueHandle, p_acc, portMAX_DELAY);
 8000910:	f04f 32ff 	mov.w	r2, #4294967295
 8000914:	2300      	movs	r3, #0
 8000916:	4669      	mov	r1, sp
	  samples++;
 8000918:	602c      	str	r4, [r5, #0]
	  xQueueSend(SamplesQueueHandle, p_acc, portMAX_DELAY);
 800091a:	f004 f959 	bl	8004bd0 <xQueueGenericSend>
	  if(samples>=19){
 800091e:	682b      	ldr	r3, [r5, #0]
 8000920:	2b12      	cmp	r3, #18
 8000922:	dd04      	ble.n	800092e <SampleTask+0x3a>
		  samples = 0;
		  vTaskResume(Process_TaskHandle);
 8000924:	f8d8 0000 	ldr.w	r0, [r8]
		  samples = 0;
 8000928:	602f      	str	r7, [r5, #0]
		  vTaskResume(Process_TaskHandle);
 800092a:	f005 f973 	bl	8005c14 <vTaskResume>
	  }
      osDelay(5);
 800092e:	2005      	movs	r0, #5
 8000930:	f003 ffaa 	bl	8004888 <osDelay>
	  BSP_ACCELERO_GetXYZ(p_acc);
 8000934:	e7e6      	b.n	8000904 <SampleTask+0x10>
 8000936:	bf00      	nop
 8000938:	20000100 	.word	0x20000100
 800093c:	20004b38 	.word	0x20004b38
 8000940:	20004b4c 	.word	0x20004b4c

08000944 <LEDTask>:
* @param argument: Not used
* @retval None
*/
/* USER CODE END Header_LEDTask */
void LEDTask(void *argument)
{
 8000944:	b580      	push	{r7, lr}
 8000946:	b082      	sub	sp, #8
  /* USER CODE BEGIN LEDTask */
  int shake = 0;
 8000948:	2300      	movs	r3, #0
 800094a:	4e11      	ldr	r6, [pc, #68]	; (8000990 <LEDTask+0x4c>)
 800094c:	4c11      	ldr	r4, [pc, #68]	; (8000994 <LEDTask+0x50>)
 800094e:	9301      	str	r3, [sp, #4]
  /* Infinite loop */
  for(;;)
  {
	xQueueReceive(GeneralQueueHandle, &shake, portMAX_DELAY);
	if(shake > 3000){
 8000950:	f640 35b8 	movw	r5, #3000	; 0xbb8
	}
	if(shake <= 3000 && shake > 2400){
		__HAL_TIM_SET_COMPARE(&htim4, TIM_CHANNEL_1, 50);
	}
	if(shake <= 2400){
		__HAL_TIM_SET_COMPARE(&htim4, TIM_CHANNEL_1, 15);
 8000954:	270f      	movs	r7, #15
 8000956:	e009      	b.n	800096c <LEDTask+0x28>
	if(shake <= 3000 && shake > 2400){
 8000958:	f5b2 7f16 	cmp.w	r2, #600	; 0x258
		__HAL_TIM_SET_COMPARE(&htim4, TIM_CHANNEL_1, 50);
 800095c:	f04f 0332 	mov.w	r3, #50	; 0x32
	if(shake <= 3000 && shake > 2400){
 8000960:	d312      	bcc.n	8000988 <LEDTask+0x44>
		__HAL_TIM_SET_COMPARE(&htim4, TIM_CHANNEL_1, 15);
 8000962:	6823      	ldr	r3, [r4, #0]
 8000964:	635f      	str	r7, [r3, #52]	; 0x34
	}
	vTaskSuspend(NULL);
 8000966:	2000      	movs	r0, #0
 8000968:	f005 f8aa 	bl	8005ac0 <vTaskSuspend>
	xQueueReceive(GeneralQueueHandle, &shake, portMAX_DELAY);
 800096c:	f04f 32ff 	mov.w	r2, #4294967295
 8000970:	6830      	ldr	r0, [r6, #0]
 8000972:	a901      	add	r1, sp, #4
 8000974:	f004 fab2 	bl	8004edc <xQueueReceive>
	if(shake > 3000){
 8000978:	9b01      	ldr	r3, [sp, #4]
	if(shake <= 3000 && shake > 2400){
 800097a:	f46f 6216 	mvn.w	r2, #2400	; 0x960
	if(shake > 3000){
 800097e:	42ab      	cmp	r3, r5
	if(shake <= 3000 && shake > 2400){
 8000980:	441a      	add	r2, r3
		__HAL_TIM_SET_COMPARE(&htim4, TIM_CHANNEL_1, 90);
 8000982:	f04f 035a 	mov.w	r3, #90	; 0x5a
	if(shake > 3000){
 8000986:	dde7      	ble.n	8000958 <LEDTask+0x14>
		__HAL_TIM_SET_COMPARE(&htim4, TIM_CHANNEL_1, 50);
 8000988:	6822      	ldr	r2, [r4, #0]
 800098a:	6353      	str	r3, [r2, #52]	; 0x34
	if(shake <= 2400){
 800098c:	e7eb      	b.n	8000966 <LEDTask+0x22>
 800098e:	bf00      	nop
 8000990:	20004b40 	.word	0x20004b40
 8000994:	20004cdc 	.word	0x20004cdc

08000998 <ProcessTask>:
{
 8000998:	b5f0      	push	{r4, r5, r6, r7, lr}
 800099a:	ed2d 8b04 	vpush	{d8-d9}
 800099e:	4d32      	ldr	r5, [pc, #200]	; (8000a68 <ProcessTask+0xd0>)
 80009a0:	4f32      	ldr	r7, [pc, #200]	; (8000a6c <ProcessTask+0xd4>)
 80009a2:	4e33      	ldr	r6, [pc, #204]	; (8000a70 <ProcessTask+0xd8>)
 80009a4:	ed9f 9a33 	vldr	s18, [pc, #204]	; 8000a74 <ProcessTask+0xdc>
 80009a8:	b087      	sub	sp, #28
	max = 0;
 80009aa:	ed9f 8a32 	vldr	s16, [pc, #200]	; 8000a74 <ProcessTask+0xdc>
	min = 0xFFFFFFFF; /*reset min & max*/
 80009ae:	eddf 8a32 	vldr	s17, [pc, #200]	; 8000a78 <ProcessTask+0xe0>
{
 80009b2:	2414      	movs	r4, #20
		xQueueReceive(SamplesQueueHandle, p_acc, portMAX_DELAY);
 80009b4:	f04f 32ff 	mov.w	r2, #4294967295
 80009b8:	a904      	add	r1, sp, #16
 80009ba:	6828      	ldr	r0, [r5, #0]
 80009bc:	f004 fa8e 	bl	8004edc <xQueueReceive>
		y = acc[1];
 80009c0:	f9bd 1012 	ldrsh.w	r1, [sp, #18]
		x = acc[0];
 80009c4:	f9bd 3010 	ldrsh.w	r3, [sp, #16]
		z = acc[2];
 80009c8:	f9bd 2014 	ldrsh.w	r2, [sp, #20]
		pow_module = abs((x*x)) + abs((y*y)) + abs((z*z));
 80009cc:	fb01 f101 	mul.w	r1, r1, r1
 80009d0:	fb03 1303 	mla	r3, r3, r3, r1
 80009d4:	fb02 3202 	mla	r2, r2, r2, r3
 80009d8:	ee07 2a90 	vmov	s15, r2
 80009dc:	eeb8 0ae7 	vcvt.f32.s32	s0, s15
   */
  CMSIS_INLINE __STATIC_INLINE arm_status arm_sqrt_f32(
  float32_t in,
  float32_t * pOut)
  {
    if (in >= 0.0f)
 80009e0:	eeb5 0ac0 	vcmpe.f32	s0, #0.0
 80009e4:	eef1 fa10 	vmrs	APSR_nzcv, fpscr
 80009e8:	db34      	blt.n	8000a54 <ProcessTask+0xbc>
 80009ea:	eeb5 0a40 	vcmp.f32	s0, #0.0
 80009ee:	eef1 fa10 	vmrs	APSR_nzcv, fpscr
#if   (__FPU_USED == 1) && defined ( __CC_ARM   )
      *pOut = __sqrtf(in);
#elif (__FPU_USED == 1) && (defined(__ARMCC_VERSION) && (__ARMCC_VERSION >= 6010050))
      *pOut = __builtin_sqrtf(in);
#elif (__FPU_USED == 1) && defined(__GNUC__)
      *pOut = __builtin_sqrtf(in);
 80009f2:	eef1 7ac0 	vsqrt.f32	s15, s0
 80009f6:	d430      	bmi.n	8000a5a <ProcessTask+0xc2>
 80009f8:	eefd 7ae7 	vcvt.s32.f32	s15, s15
 80009fc:	eef8 7ae7 	vcvt.f32.s32	s15, s15
			max = (int) *abs_module;
 8000a00:	eeb4 8a67 	vcmp.f32	s16, s15
 8000a04:	eef1 fa10 	vmrs	APSR_nzcv, fpscr
			min = (int) *abs_module;
 8000a08:	eef4 8a67 	vcmp.f32	s17, s15
			max = (int) *abs_module;
 8000a0c:	bf48      	it	mi
 8000a0e:	eeb0 8a67 	vmovmi.f32	s16, s15
		if(min > (int) *abs_module)
 8000a12:	3c01      	subs	r4, #1
			min = (int) *abs_module;
 8000a14:	eef1 fa10 	vmrs	APSR_nzcv, fpscr
 8000a18:	bfc8      	it	gt
 8000a1a:	eef0 8a67 	vmovgt.f32	s17, s15
	for (char i = 0; i < 20 ; i++){
 8000a1e:	f014 04ff 	ands.w	r4, r4, #255	; 0xff
 8000a22:	d1c7      	bne.n	80009b4 <ProcessTask+0x1c>
	shake = (int) max-min;
 8000a24:	eefd 7ac8 	vcvt.s32.f32	s15, s16
	xQueueSend(GeneralQueueHandle, &shake, portMAX_DELAY);
 8000a28:	4623      	mov	r3, r4
	shake = (int) max-min;
 8000a2a:	eef8 7ae7 	vcvt.f32.s32	s15, s15
	xQueueSend(GeneralQueueHandle, &shake, portMAX_DELAY);
 8000a2e:	f04f 32ff 	mov.w	r2, #4294967295
	shake = (int) max-min;
 8000a32:	ee77 7ae8 	vsub.f32	s15, s15, s17
	xQueueSend(GeneralQueueHandle, &shake, portMAX_DELAY);
 8000a36:	a903      	add	r1, sp, #12
	shake = (int) max-min;
 8000a38:	eefd 7ae7 	vcvt.s32.f32	s15, s15
	xQueueSend(GeneralQueueHandle, &shake, portMAX_DELAY);
 8000a3c:	6838      	ldr	r0, [r7, #0]
	shake = (int) max-min;
 8000a3e:	edcd 7a03 	vstr	s15, [sp, #12]
	xQueueSend(GeneralQueueHandle, &shake, portMAX_DELAY);
 8000a42:	f004 f8c5 	bl	8004bd0 <xQueueGenericSend>
	vTaskResume(LED_TASKHandle);
 8000a46:	6830      	ldr	r0, [r6, #0]
 8000a48:	f005 f8e4 	bl	8005c14 <vTaskResume>
	vTaskSuspend(NULL);
 8000a4c:	4620      	mov	r0, r4
 8000a4e:	f005 f837 	bl	8005ac0 <vTaskSuspend>
	min = 0xFFFFFFFF; /*reset min & max*/
 8000a52:	e7aa      	b.n	80009aa <ProcessTask+0x12>
 8000a54:	eef0 7a49 	vmov.f32	s15, s18
 8000a58:	e7d2      	b.n	8000a00 <ProcessTask+0x68>
 8000a5a:	edcd 7a01 	vstr	s15, [sp, #4]
 8000a5e:	f006 fc0f 	bl	8007280 <sqrtf>
 8000a62:	eddd 7a01 	vldr	s15, [sp, #4]
 8000a66:	e7c7      	b.n	80009f8 <ProcessTask+0x60>
 8000a68:	20004b38 	.word	0x20004b38
 8000a6c:	20004b40 	.word	0x20004b40
 8000a70:	20004b44 	.word	0x20004b44
 8000a74:	00000000 	.word	0x00000000
 8000a78:	4f800000 	.word	0x4f800000

08000a7c <ToggleTask>:
* @param argument: Not used
* @retval None
*/
/* USER CODE END Header_ToggleTask */
void ToggleTask(void *argument)
{
 8000a7c:	b508      	push	{r3, lr}
  /* USER CODE BEGIN ToggleTask */
  static uint32_t miliseconds;
  /* Infinite loop */
  for(;;)
  {
	HAL_GPIO_TogglePin(GPIOD,GPIO_PIN_15);
 8000a7e:	4c06      	ldr	r4, [pc, #24]	; (8000a98 <ToggleTask+0x1c>)
 8000a80:	f44f 4100 	mov.w	r1, #32768	; 0x8000
 8000a84:	4620      	mov	r0, r4
 8000a86:	f000 ff8f 	bl	80019a8 <HAL_GPIO_TogglePin>

	miliseconds = HAL_GetTick();
 8000a8a:	f000 fd95 	bl	80015b8 <HAL_GetTick>
	UNUSED(miliseconds);

    osDelay(1000);
 8000a8e:	f44f 707a 	mov.w	r0, #1000	; 0x3e8
 8000a92:	f003 fef9 	bl	8004888 <osDelay>
  for(;;)
 8000a96:	e7f3      	b.n	8000a80 <ToggleTask+0x4>
 8000a98:	40020c00 	.word	0x40020c00

08000a9c <Buttontask>:
* @param argument: Not used
* @retval None
*/
/* USER CODE END Header_Buttontask */
void Buttontask(void *argument)
{
 8000a9c:	e92d 41f0 	stmdb	sp!, {r4, r5, r6, r7, r8, lr}
 8000aa0:	4f15      	ldr	r7, [pc, #84]	; (8000af8 <Buttontask+0x5c>)
 8000aa2:	4e16      	ldr	r6, [pc, #88]	; (8000afc <Buttontask+0x60>)
 8000aa4:	4d16      	ldr	r5, [pc, #88]	; (8000b00 <Buttontask+0x64>)
 8000aa6:	f8df 8060 	ldr.w	r8, [pc, #96]	; 8000b08 <Buttontask+0x6c>
		vTaskResume(Toggle_TaskHandle);
		vTaskResume(Sample_TaskHandle);

		on = 0;
	}else{
		HAL_TIM_PWM_Stop(&htim4, TIM_CHANNEL_1);
 8000aaa:	4c16      	ldr	r4, [pc, #88]	; (8000b04 <Buttontask+0x68>)
 8000aac:	2100      	movs	r1, #0
 8000aae:	4620      	mov	r0, r4
 8000ab0:	f003 f93c 	bl	8003d2c <HAL_TIM_PWM_Stop>

		vTaskSuspend(Sample_TaskHandle);
 8000ab4:	6838      	ldr	r0, [r7, #0]
 8000ab6:	f005 f803 	bl	8005ac0 <vTaskSuspend>
		vTaskSuspend(Process_TaskHandle);
 8000aba:	6830      	ldr	r0, [r6, #0]
 8000abc:	f005 f800 	bl	8005ac0 <vTaskSuspend>
		vTaskSuspend(LED_TASKHandle);
 8000ac0:	6828      	ldr	r0, [r5, #0]
 8000ac2:	f004 fffd 	bl	8005ac0 <vTaskSuspend>

		on = 1;
  	}
	vTaskSuspend(NULL);
 8000ac6:	2000      	movs	r0, #0
 8000ac8:	f004 fffa 	bl	8005ac0 <vTaskSuspend>
		HAL_TIM_PWM_Start(&htim4, TIM_CHANNEL_1);
 8000acc:	2100      	movs	r1, #0
 8000ace:	4620      	mov	r0, r4
 8000ad0:	f003 f8c4 	bl	8003c5c <HAL_TIM_PWM_Start>
		vTaskSuspend(Process_TaskHandle);
 8000ad4:	6830      	ldr	r0, [r6, #0]
 8000ad6:	f004 fff3 	bl	8005ac0 <vTaskSuspend>
		vTaskSuspend(LED_TASKHandle);
 8000ada:	6828      	ldr	r0, [r5, #0]
 8000adc:	f004 fff0 	bl	8005ac0 <vTaskSuspend>
		vTaskResume(Toggle_TaskHandle);
 8000ae0:	f8d8 0000 	ldr.w	r0, [r8]
 8000ae4:	f005 f896 	bl	8005c14 <vTaskResume>
		vTaskResume(Sample_TaskHandle);
 8000ae8:	6838      	ldr	r0, [r7, #0]
 8000aea:	f005 f893 	bl	8005c14 <vTaskResume>
	vTaskSuspend(NULL);
 8000aee:	2000      	movs	r0, #0
 8000af0:	f004 ffe6 	bl	8005ac0 <vTaskSuspend>
	if(on){
 8000af4:	e7da      	b.n	8000aac <Buttontask+0x10>
 8000af6:	bf00      	nop
 8000af8:	20004b54 	.word	0x20004b54
 8000afc:	20004b4c 	.word	0x20004b4c
 8000b00:	20004b44 	.word	0x20004b44
 8000b04:	20004cdc 	.word	0x20004cdc
 8000b08:	20004b50 	.word	0x20004b50

08000b0c <vApplicationIdleHook>:
}
 8000b0c:	4770      	bx	lr
 8000b0e:	bf00      	nop

08000b10 <PreSleepProcessing>:
}
 8000b10:	4770      	bx	lr
 8000b12:	bf00      	nop

08000b14 <PostSleepProcessing>:
 8000b14:	4770      	bx	lr
 8000b16:	bf00      	nop

08000b18 <MX_FREERTOS_Init>:
void MX_FREERTOS_Init(void) {
 8000b18:	b508      	push	{r3, lr}
  GeneralQueueHandle = osMessageQueueNew (1, sizeof(int), &GeneralQueue_attributes);
 8000b1a:	4a1f      	ldr	r2, [pc, #124]	; (8000b98 <MX_FREERTOS_Init+0x80>)
 8000b1c:	2104      	movs	r1, #4
 8000b1e:	2001      	movs	r0, #1
 8000b20:	f003 fec0 	bl	80048a4 <osMessageQueueNew>
 8000b24:	4b1d      	ldr	r3, [pc, #116]	; (8000b9c <MX_FREERTOS_Init+0x84>)
  SamplesQueueHandle = osMessageQueueNew (30, 3*sizeof(int16_t*), &SamplesQueue_attributes);
 8000b26:	4a1e      	ldr	r2, [pc, #120]	; (8000ba0 <MX_FREERTOS_Init+0x88>)
  GeneralQueueHandle = osMessageQueueNew (1, sizeof(int), &GeneralQueue_attributes);
 8000b28:	6018      	str	r0, [r3, #0]
  SamplesQueueHandle = osMessageQueueNew (30, 3*sizeof(int16_t*), &SamplesQueue_attributes);
 8000b2a:	210c      	movs	r1, #12
 8000b2c:	201e      	movs	r0, #30
 8000b2e:	f003 feb9 	bl	80048a4 <osMessageQueueNew>
 8000b32:	4b1c      	ldr	r3, [pc, #112]	; (8000ba4 <MX_FREERTOS_Init+0x8c>)
  defaultTaskHandle = osThreadNew(StartDefaultTask, NULL, &defaultTask_attributes);
 8000b34:	4a1c      	ldr	r2, [pc, #112]	; (8000ba8 <MX_FREERTOS_Init+0x90>)
  SamplesQueueHandle = osMessageQueueNew (30, 3*sizeof(int16_t*), &SamplesQueue_attributes);
 8000b36:	4601      	mov	r1, r0
 8000b38:	6019      	str	r1, [r3, #0]
  defaultTaskHandle = osThreadNew(StartDefaultTask, NULL, &defaultTask_attributes);
 8000b3a:	481c      	ldr	r0, [pc, #112]	; (8000bac <MX_FREERTOS_Init+0x94>)
 8000b3c:	2100      	movs	r1, #0
 8000b3e:	f003 fe57 	bl	80047f0 <osThreadNew>
 8000b42:	4b1b      	ldr	r3, [pc, #108]	; (8000bb0 <MX_FREERTOS_Init+0x98>)
  Sample_TaskHandle = osThreadNew(SampleTask, NULL, &Sample_Task_attributes);
 8000b44:	4a1b      	ldr	r2, [pc, #108]	; (8000bb4 <MX_FREERTOS_Init+0x9c>)
  defaultTaskHandle = osThreadNew(StartDefaultTask, NULL, &defaultTask_attributes);
 8000b46:	4601      	mov	r1, r0
 8000b48:	6019      	str	r1, [r3, #0]
  Sample_TaskHandle = osThreadNew(SampleTask, NULL, &Sample_Task_attributes);
 8000b4a:	481b      	ldr	r0, [pc, #108]	; (8000bb8 <MX_FREERTOS_Init+0xa0>)
 8000b4c:	2100      	movs	r1, #0
 8000b4e:	f003 fe4f 	bl	80047f0 <osThreadNew>
 8000b52:	4b1a      	ldr	r3, [pc, #104]	; (8000bbc <MX_FREERTOS_Init+0xa4>)
  Process_TaskHandle = osThreadNew(ProcessTask, NULL, &Process_Task_attributes);
 8000b54:	4a1a      	ldr	r2, [pc, #104]	; (8000bc0 <MX_FREERTOS_Init+0xa8>)
  Sample_TaskHandle = osThreadNew(SampleTask, NULL, &Sample_Task_attributes);
 8000b56:	4601      	mov	r1, r0
 8000b58:	6019      	str	r1, [r3, #0]
  Process_TaskHandle = osThreadNew(ProcessTask, NULL, &Process_Task_attributes);
 8000b5a:	481a      	ldr	r0, [pc, #104]	; (8000bc4 <MX_FREERTOS_Init+0xac>)
 8000b5c:	2100      	movs	r1, #0
 8000b5e:	f003 fe47 	bl	80047f0 <osThreadNew>
 8000b62:	4b19      	ldr	r3, [pc, #100]	; (8000bc8 <MX_FREERTOS_Init+0xb0>)
  LED_TASKHandle = osThreadNew(LEDTask, NULL, &LED_TASK_attributes);
 8000b64:	4a19      	ldr	r2, [pc, #100]	; (8000bcc <MX_FREERTOS_Init+0xb4>)
  Process_TaskHandle = osThreadNew(ProcessTask, NULL, &Process_Task_attributes);
 8000b66:	4601      	mov	r1, r0
 8000b68:	6019      	str	r1, [r3, #0]
  LED_TASKHandle = osThreadNew(LEDTask, NULL, &LED_TASK_attributes);
 8000b6a:	4819      	ldr	r0, [pc, #100]	; (8000bd0 <MX_FREERTOS_Init+0xb8>)
 8000b6c:	2100      	movs	r1, #0
 8000b6e:	f003 fe3f 	bl	80047f0 <osThreadNew>
 8000b72:	4b18      	ldr	r3, [pc, #96]	; (8000bd4 <MX_FREERTOS_Init+0xbc>)
  Toggle_TaskHandle = osThreadNew(ToggleTask, NULL, &Toggle_Task_attributes);
 8000b74:	4a18      	ldr	r2, [pc, #96]	; (8000bd8 <MX_FREERTOS_Init+0xc0>)
  LED_TASKHandle = osThreadNew(LEDTask, NULL, &LED_TASK_attributes);
 8000b76:	4601      	mov	r1, r0
 8000b78:	6019      	str	r1, [r3, #0]
  Toggle_TaskHandle = osThreadNew(ToggleTask, NULL, &Toggle_Task_attributes);
 8000b7a:	4818      	ldr	r0, [pc, #96]	; (8000bdc <MX_FREERTOS_Init+0xc4>)
 8000b7c:	2100      	movs	r1, #0
 8000b7e:	f003 fe37 	bl	80047f0 <osThreadNew>
 8000b82:	4b17      	ldr	r3, [pc, #92]	; (8000be0 <MX_FREERTOS_Init+0xc8>)
  Button_TaskHandle = osThreadNew(Buttontask, NULL, &Button_Task_attributes);
 8000b84:	4a17      	ldr	r2, [pc, #92]	; (8000be4 <MX_FREERTOS_Init+0xcc>)
  Toggle_TaskHandle = osThreadNew(ToggleTask, NULL, &Toggle_Task_attributes);
 8000b86:	4601      	mov	r1, r0
 8000b88:	6019      	str	r1, [r3, #0]
  Button_TaskHandle = osThreadNew(Buttontask, NULL, &Button_Task_attributes);
 8000b8a:	4817      	ldr	r0, [pc, #92]	; (8000be8 <MX_FREERTOS_Init+0xd0>)
 8000b8c:	2100      	movs	r1, #0
 8000b8e:	f003 fe2f 	bl	80047f0 <osThreadNew>
 8000b92:	4b16      	ldr	r3, [pc, #88]	; (8000bec <MX_FREERTOS_Init+0xd4>)
 8000b94:	6018      	str	r0, [r3, #0]
}
 8000b96:	bd08      	pop	{r3, pc}
 8000b98:	0800737c 	.word	0x0800737c
 8000b9c:	20004b40 	.word	0x20004b40
 8000ba0:	08007400 	.word	0x08007400
 8000ba4:	20004b38 	.word	0x20004b38
 8000ba8:	0800743c 	.word	0x0800743c
 8000bac:	080008e9 	.word	0x080008e9
 8000bb0:	20004b3c 	.word	0x20004b3c
 8000bb4:	080073dc 	.word	0x080073dc
 8000bb8:	080008f5 	.word	0x080008f5
 8000bbc:	20004b54 	.word	0x20004b54
 8000bc0:	080073b8 	.word	0x080073b8
 8000bc4:	08000999 	.word	0x08000999
 8000bc8:	20004b4c 	.word	0x20004b4c
 8000bcc:	08007394 	.word	0x08007394
 8000bd0:	08000945 	.word	0x08000945
 8000bd4:	20004b44 	.word	0x20004b44
 8000bd8:	08007418 	.word	0x08007418
 8000bdc:	08000a7d 	.word	0x08000a7d
 8000be0:	20004b50 	.word	0x20004b50
 8000be4:	08007358 	.word	0x08007358
 8000be8:	08000a9d 	.word	0x08000a9d
 8000bec:	20004b48 	.word	0x20004b48

08000bf0 <HAL_GPIO_EXTI_Callback>:

/* Private application code --------------------------------------------------*/
/* USER CODE BEGIN Application */
void HAL_GPIO_EXTI_Callback(uint16_t GPIO_Pin)
{
  if(GPIO_Pin == BUTTON_GPIO_Pin){
 8000bf0:	2801      	cmp	r0, #1
 8000bf2:	d000      	beq.n	8000bf6 <HAL_GPIO_EXTI_Callback+0x6>
	  xTaskResumeFromISR(Button_TaskHandle);
  }
}
 8000bf4:	4770      	bx	lr
	  xTaskResumeFromISR(Button_TaskHandle);
 8000bf6:	4b02      	ldr	r3, [pc, #8]	; (8000c00 <HAL_GPIO_EXTI_Callback+0x10>)
 8000bf8:	6818      	ldr	r0, [r3, #0]
 8000bfa:	f005 b85d 	b.w	8005cb8 <xTaskResumeFromISR>
 8000bfe:	bf00      	nop
 8000c00:	20004b48 	.word	0x20004b48

08000c04 <MX_GPIO_Init>:
        * Output
        * EVENT_OUT
        * EXTI
*/
void MX_GPIO_Init(void)
{
 8000c04:	e92d 43f0 	stmdb	sp!, {r4, r5, r6, r7, r8, r9, lr}

  GPIO_InitTypeDef GPIO_InitStruct = {0};
 8000c08:	2400      	movs	r4, #0
{
 8000c0a:	b08d      	sub	sp, #52	; 0x34
  GPIO_InitTypeDef GPIO_InitStruct = {0};
 8000c0c:	e9cd 4406 	strd	r4, r4, [sp, #24]
 8000c10:	e9cd 4408 	strd	r4, r4, [sp, #32]

  /* GPIO Ports Clock Enable */
  __HAL_RCC_GPIOE_CLK_ENABLE();
 8000c14:	4b52      	ldr	r3, [pc, #328]	; (8000d60 <MX_GPIO_Init+0x15c>)
 8000c16:	9400      	str	r4, [sp, #0]
  GPIO_InitTypeDef GPIO_InitStruct = {0};
 8000c18:	940a      	str	r4, [sp, #40]	; 0x28
  __HAL_RCC_GPIOE_CLK_ENABLE();
 8000c1a:	6b1a      	ldr	r2, [r3, #48]	; 0x30
  __HAL_RCC_GPIOA_CLK_ENABLE();
  __HAL_RCC_GPIOB_CLK_ENABLE();
  __HAL_RCC_GPIOD_CLK_ENABLE();

  /*Configure GPIO pin Output Level */
  HAL_GPIO_WritePin(CS_I2C_SPI_GPIO_Port, CS_I2C_SPI_Pin, GPIO_PIN_RESET);
 8000c1c:	4d51      	ldr	r5, [pc, #324]	; (8000d64 <MX_GPIO_Init+0x160>)

  /*Configure GPIO pin Output Level */
  HAL_GPIO_WritePin(OTG_FS_PowerSwitchOn_GPIO_Port, OTG_FS_PowerSwitchOn_Pin, GPIO_PIN_SET);
 8000c1e:	4f52      	ldr	r7, [pc, #328]	; (8000d68 <MX_GPIO_Init+0x164>)

  /*Configure GPIO pin Output Level */
  HAL_GPIO_WritePin(GPIOD, LD3_Pin|LD5_Pin|LD6_Pin|Audio_RST_Pin, GPIO_PIN_RESET);
 8000c20:	4e52      	ldr	r6, [pc, #328]	; (8000d6c <MX_GPIO_Init+0x168>)
  __HAL_RCC_GPIOE_CLK_ENABLE();
 8000c22:	f042 0210 	orr.w	r2, r2, #16
 8000c26:	631a      	str	r2, [r3, #48]	; 0x30
 8000c28:	6b1a      	ldr	r2, [r3, #48]	; 0x30
 8000c2a:	f002 0210 	and.w	r2, r2, #16
 8000c2e:	9200      	str	r2, [sp, #0]
 8000c30:	9a00      	ldr	r2, [sp, #0]
  __HAL_RCC_GPIOC_CLK_ENABLE();
 8000c32:	9401      	str	r4, [sp, #4]
 8000c34:	6b1a      	ldr	r2, [r3, #48]	; 0x30
 8000c36:	f042 0204 	orr.w	r2, r2, #4
 8000c3a:	631a      	str	r2, [r3, #48]	; 0x30
 8000c3c:	6b1a      	ldr	r2, [r3, #48]	; 0x30
 8000c3e:	f002 0204 	and.w	r2, r2, #4
 8000c42:	9201      	str	r2, [sp, #4]
 8000c44:	9a01      	ldr	r2, [sp, #4]
  __HAL_RCC_GPIOH_CLK_ENABLE();
 8000c46:	9402      	str	r4, [sp, #8]
 8000c48:	6b1a      	ldr	r2, [r3, #48]	; 0x30
 8000c4a:	f042 0280 	orr.w	r2, r2, #128	; 0x80
 8000c4e:	631a      	str	r2, [r3, #48]	; 0x30
 8000c50:	6b1a      	ldr	r2, [r3, #48]	; 0x30
 8000c52:	f002 0280 	and.w	r2, r2, #128	; 0x80
 8000c56:	9202      	str	r2, [sp, #8]
 8000c58:	9a02      	ldr	r2, [sp, #8]
  __HAL_RCC_GPIOA_CLK_ENABLE();
 8000c5a:	9403      	str	r4, [sp, #12]
 8000c5c:	6b1a      	ldr	r2, [r3, #48]	; 0x30
 8000c5e:	f042 0201 	orr.w	r2, r2, #1
 8000c62:	631a      	str	r2, [r3, #48]	; 0x30
 8000c64:	6b1a      	ldr	r2, [r3, #48]	; 0x30
 8000c66:	f002 0201 	and.w	r2, r2, #1
 8000c6a:	9203      	str	r2, [sp, #12]
 8000c6c:	9a03      	ldr	r2, [sp, #12]
  __HAL_RCC_GPIOB_CLK_ENABLE();
 8000c6e:	9404      	str	r4, [sp, #16]
 8000c70:	6b1a      	ldr	r2, [r3, #48]	; 0x30
 8000c72:	f042 0202 	orr.w	r2, r2, #2
 8000c76:	631a      	str	r2, [r3, #48]	; 0x30
 8000c78:	6b1a      	ldr	r2, [r3, #48]	; 0x30
 8000c7a:	f002 0202 	and.w	r2, r2, #2
 8000c7e:	9204      	str	r2, [sp, #16]
 8000c80:	9a04      	ldr	r2, [sp, #16]
  __HAL_RCC_GPIOD_CLK_ENABLE();
 8000c82:	9405      	str	r4, [sp, #20]
 8000c84:	6b1a      	ldr	r2, [r3, #48]	; 0x30
 8000c86:	f042 0208 	orr.w	r2, r2, #8
 8000c8a:	631a      	str	r2, [r3, #48]	; 0x30
 8000c8c:	6b1b      	ldr	r3, [r3, #48]	; 0x30
 8000c8e:	f003 0308 	and.w	r3, r3, #8
 8000c92:	9305      	str	r3, [sp, #20]
  HAL_GPIO_WritePin(CS_I2C_SPI_GPIO_Port, CS_I2C_SPI_Pin, GPIO_PIN_RESET);
 8000c94:	4622      	mov	r2, r4
 8000c96:	4628      	mov	r0, r5
 8000c98:	2108      	movs	r1, #8
  __HAL_RCC_GPIOD_CLK_ENABLE();
 8000c9a:	9b05      	ldr	r3, [sp, #20]
  HAL_GPIO_WritePin(CS_I2C_SPI_GPIO_Port, CS_I2C_SPI_Pin, GPIO_PIN_RESET);
 8000c9c:	f000 fe80 	bl	80019a0 <HAL_GPIO_WritePin>
  HAL_GPIO_WritePin(OTG_FS_PowerSwitchOn_GPIO_Port, OTG_FS_PowerSwitchOn_Pin, GPIO_PIN_SET);
 8000ca0:	2201      	movs	r2, #1
 8000ca2:	4638      	mov	r0, r7
 8000ca4:	4611      	mov	r1, r2
 8000ca6:	f000 fe7b 	bl	80019a0 <HAL_GPIO_WritePin>
  HAL_GPIO_WritePin(GPIOD, LD3_Pin|LD5_Pin|LD6_Pin|Audio_RST_Pin, GPIO_PIN_RESET);
 8000caa:	4622      	mov	r2, r4
 8000cac:	4630      	mov	r0, r6
 8000cae:	f24e 0110 	movw	r1, #57360	; 0xe010
 8000cb2:	f000 fe75 	bl	80019a0 <HAL_GPIO_WritePin>

  /*Configure GPIO pin : PtPin */
  GPIO_InitStruct.Pin = DATA_Ready_Pin;
  GPIO_InitStruct.Mode = GPIO_MODE_INPUT;
  GPIO_InitStruct.Pull = GPIO_NOPULL;
  HAL_GPIO_Init(DATA_Ready_GPIO_Port, &GPIO_InitStruct);
 8000cb6:	a906      	add	r1, sp, #24
 8000cb8:	4628      	mov	r0, r5
  GPIO_InitStruct.Pin = DATA_Ready_Pin;
 8000cba:	2204      	movs	r2, #4
 8000cbc:	2300      	movs	r3, #0
 8000cbe:	e9cd 2306 	strd	r2, r3, [sp, #24]

  /*Configure GPIO pin : PtPin */
  GPIO_InitStruct.Pin = CS_I2C_SPI_Pin;
 8000cc2:	f04f 0800 	mov.w	r8, #0
 8000cc6:	f04f 0900 	mov.w	r9, #0
  GPIO_InitStruct.Pull = GPIO_NOPULL;
 8000cca:	9408      	str	r4, [sp, #32]
  HAL_GPIO_Init(DATA_Ready_GPIO_Port, &GPIO_InitStruct);
 8000ccc:	f000 fce6 	bl	800169c <HAL_GPIO_Init>
  GPIO_InitStruct.Mode = GPIO_MODE_OUTPUT_PP;
  GPIO_InitStruct.Pull = GPIO_NOPULL;
  GPIO_InitStruct.Speed = GPIO_SPEED_FREQ_LOW;
  HAL_GPIO_Init(CS_I2C_SPI_GPIO_Port, &GPIO_InitStruct);
 8000cd0:	a906      	add	r1, sp, #24
 8000cd2:	4628      	mov	r0, r5
  GPIO_InitStruct.Pin = CS_I2C_SPI_Pin;
 8000cd4:	2208      	movs	r2, #8
 8000cd6:	2301      	movs	r3, #1
 8000cd8:	e9cd 2306 	strd	r2, r3, [sp, #24]
 8000cdc:	e9cd 8908 	strd	r8, r9, [sp, #32]
  HAL_GPIO_Init(CS_I2C_SPI_GPIO_Port, &GPIO_InitStruct);
 8000ce0:	f000 fcdc 	bl	800169c <HAL_GPIO_Init>

  /*Configure GPIO pins : PEPin PEPin PEPin */
  GPIO_InitStruct.Pin = INT1_Pin|INT2_Pin|MEMS_INT2_Pin;
  GPIO_InitStruct.Mode = GPIO_MODE_EVT_RISING;
  GPIO_InitStruct.Pull = GPIO_NOPULL;
  HAL_GPIO_Init(GPIOE, &GPIO_InitStruct);
 8000ce4:	4628      	mov	r0, r5
 8000ce6:	a906      	add	r1, sp, #24
  GPIO_InitStruct.Pin = INT1_Pin|INT2_Pin|MEMS_INT2_Pin;
 8000ce8:	2232      	movs	r2, #50	; 0x32
 8000cea:	f44f 1390 	mov.w	r3, #1179648	; 0x120000
 8000cee:	e9cd 2306 	strd	r2, r3, [sp, #24]
  GPIO_InitStruct.Pull = GPIO_NOPULL;
 8000cf2:	9408      	str	r4, [sp, #32]
  HAL_GPIO_Init(GPIOE, &GPIO_InitStruct);
 8000cf4:	f000 fcd2 	bl	800169c <HAL_GPIO_Init>
  /*Configure GPIO pin : PtPin */
  GPIO_InitStruct.Pin = OTG_FS_PowerSwitchOn_Pin;
  GPIO_InitStruct.Mode = GPIO_MODE_OUTPUT_PP;
  GPIO_InitStruct.Pull = GPIO_NOPULL;
  GPIO_InitStruct.Speed = GPIO_SPEED_FREQ_LOW;
  HAL_GPIO_Init(OTG_FS_PowerSwitchOn_GPIO_Port, &GPIO_InitStruct);
 8000cf8:	4638      	mov	r0, r7
 8000cfa:	a906      	add	r1, sp, #24
  GPIO_InitStruct.Pin = OTG_FS_PowerSwitchOn_Pin;
 8000cfc:	2201      	movs	r2, #1
 8000cfe:	2301      	movs	r3, #1
 8000d00:	e9cd 2306 	strd	r2, r3, [sp, #24]
 8000d04:	e9cd 8908 	strd	r8, r9, [sp, #32]
  HAL_GPIO_Init(OTG_FS_PowerSwitchOn_GPIO_Port, &GPIO_InitStruct);
 8000d08:	f000 fcc8 	bl	800169c <HAL_GPIO_Init>

  /*Configure GPIO pin : PtPin */
  GPIO_InitStruct.Pin = BUTTON_GPIO_Pin;
  GPIO_InitStruct.Mode = GPIO_MODE_IT_RISING;
  GPIO_InitStruct.Pull = GPIO_NOPULL;
  HAL_GPIO_Init(BUTTON_GPIO_GPIO_Port, &GPIO_InitStruct);
 8000d0c:	a906      	add	r1, sp, #24
  GPIO_InitStruct.Pin = BUTTON_GPIO_Pin;
 8000d0e:	2201      	movs	r2, #1
 8000d10:	f44f 1388 	mov.w	r3, #1114112	; 0x110000
  HAL_GPIO_Init(BUTTON_GPIO_GPIO_Port, &GPIO_InitStruct);
 8000d14:	4816      	ldr	r0, [pc, #88]	; (8000d70 <MX_GPIO_Init+0x16c>)
  GPIO_InitStruct.Pull = GPIO_NOPULL;
 8000d16:	9408      	str	r4, [sp, #32]
  GPIO_InitStruct.Pin = BUTTON_GPIO_Pin;
 8000d18:	e9cd 2306 	strd	r2, r3, [sp, #24]
  HAL_GPIO_Init(BUTTON_GPIO_GPIO_Port, &GPIO_InitStruct);
 8000d1c:	f000 fcbe 	bl	800169c <HAL_GPIO_Init>
  /*Configure GPIO pins : PDPin PDPin PDPin PDPin */
  GPIO_InitStruct.Pin = LD3_Pin|LD5_Pin|LD6_Pin|Audio_RST_Pin;
  GPIO_InitStruct.Mode = GPIO_MODE_OUTPUT_PP;
  GPIO_InitStruct.Pull = GPIO_NOPULL;
  GPIO_InitStruct.Speed = GPIO_SPEED_FREQ_LOW;
  HAL_GPIO_Init(GPIOD, &GPIO_InitStruct);
 8000d20:	a906      	add	r1, sp, #24
 8000d22:	4630      	mov	r0, r6
  GPIO_InitStruct.Pin = LD3_Pin|LD5_Pin|LD6_Pin|Audio_RST_Pin;
 8000d24:	f24e 0210 	movw	r2, #57360	; 0xe010
 8000d28:	2301      	movs	r3, #1
 8000d2a:	e9cd 2306 	strd	r2, r3, [sp, #24]
 8000d2e:	e9cd 8908 	strd	r8, r9, [sp, #32]
  HAL_GPIO_Init(GPIOD, &GPIO_InitStruct);
 8000d32:	f000 fcb3 	bl	800169c <HAL_GPIO_Init>

  /*Configure GPIO pin : PtPin */
  GPIO_InitStruct.Pin = OTG_FS_OverCurrent_Pin;
 8000d36:	2300      	movs	r3, #0
  GPIO_InitStruct.Mode = GPIO_MODE_INPUT;
  GPIO_InitStruct.Pull = GPIO_NOPULL;
  HAL_GPIO_Init(OTG_FS_OverCurrent_GPIO_Port, &GPIO_InitStruct);
 8000d38:	a906      	add	r1, sp, #24
 8000d3a:	4630      	mov	r0, r6
  GPIO_InitStruct.Pin = OTG_FS_OverCurrent_Pin;
 8000d3c:	2220      	movs	r2, #32
 8000d3e:	e9cd 2306 	strd	r2, r3, [sp, #24]
  GPIO_InitStruct.Pull = GPIO_NOPULL;
 8000d42:	9408      	str	r4, [sp, #32]
  HAL_GPIO_Init(OTG_FS_OverCurrent_GPIO_Port, &GPIO_InitStruct);
 8000d44:	f000 fcaa 	bl	800169c <HAL_GPIO_Init>

  /* EXTI interrupt init*/
  HAL_NVIC_SetPriority(EXTI0_IRQn, 5, 0);
 8000d48:	4622      	mov	r2, r4
 8000d4a:	2105      	movs	r1, #5
 8000d4c:	2006      	movs	r0, #6
 8000d4e:	f000 fc5f 	bl	8001610 <HAL_NVIC_SetPriority>
  HAL_NVIC_EnableIRQ(EXTI0_IRQn);
 8000d52:	2006      	movs	r0, #6
 8000d54:	f000 fc94 	bl	8001680 <HAL_NVIC_EnableIRQ>

}
 8000d58:	b00d      	add	sp, #52	; 0x34
 8000d5a:	e8bd 83f0 	ldmia.w	sp!, {r4, r5, r6, r7, r8, r9, pc}
 8000d5e:	bf00      	nop
 8000d60:	40023800 	.word	0x40023800
 8000d64:	40021000 	.word	0x40021000
 8000d68:	40020800 	.word	0x40020800
 8000d6c:	40020c00 	.word	0x40020c00
 8000d70:	40020000 	.word	0x40020000

08000d74 <MX_I2C1_Init>:
  /* USER CODE END I2C1_Init 0 */

  /* USER CODE BEGIN I2C1_Init 1 */

  /* USER CODE END I2C1_Init 1 */
  hi2c1.Instance = I2C1;
 8000d74:	480b      	ldr	r0, [pc, #44]	; (8000da4 <MX_I2C1_Init+0x30>)
  hi2c1.Init.ClockSpeed = 100000;
 8000d76:	490c      	ldr	r1, [pc, #48]	; (8000da8 <MX_I2C1_Init+0x34>)
{
 8000d78:	b508      	push	{r3, lr}
  hi2c1.Instance = I2C1;
 8000d7a:	4b0c      	ldr	r3, [pc, #48]	; (8000dac <MX_I2C1_Init+0x38>)
 8000d7c:	6003      	str	r3, [r0, #0]
  hi2c1.Init.DutyCycle = I2C_DUTYCYCLE_2;
  hi2c1.Init.OwnAddress1 = 0;
  hi2c1.Init.AddressingMode = I2C_ADDRESSINGMODE_7BIT;
 8000d7e:	f44f 4280 	mov.w	r2, #16384	; 0x4000
  hi2c1.Init.DutyCycle = I2C_DUTYCYCLE_2;
 8000d82:	2300      	movs	r3, #0
  hi2c1.Init.OwnAddress1 = 0;
 8000d84:	e9c0 3302 	strd	r3, r3, [r0, #8]
  hi2c1.Init.DualAddressMode = I2C_DUALADDRESS_DISABLE;
  hi2c1.Init.OwnAddress2 = 0;
 8000d88:	e9c0 3305 	strd	r3, r3, [r0, #20]
  hi2c1.Init.GeneralCallMode = I2C_GENERALCALL_DISABLE;
  hi2c1.Init.NoStretchMode = I2C_NOSTRETCH_DISABLE;
 8000d8c:	e9c0 3307 	strd	r3, r3, [r0, #28]
  hi2c1.Init.ClockSpeed = 100000;
 8000d90:	6041      	str	r1, [r0, #4]
  hi2c1.Init.AddressingMode = I2C_ADDRESSINGMODE_7BIT;
 8000d92:	6102      	str	r2, [r0, #16]
  if (HAL_I2C_Init(&hi2c1) != HAL_OK)
 8000d94:	f001 fc52 	bl	800263c <HAL_I2C_Init>
 8000d98:	b900      	cbnz	r0, 8000d9c <MX_I2C1_Init+0x28>
  }
  /* USER CODE BEGIN I2C1_Init 2 */

  /* USER CODE END I2C1_Init 2 */

}
 8000d9a:	bd08      	pop	{r3, pc}
 8000d9c:	e8bd 4008 	ldmia.w	sp!, {r3, lr}
    Error_Handler();
 8000da0:	f000 b9d0 	b.w	8001144 <Error_Handler>
 8000da4:	20004b58 	.word	0x20004b58
 8000da8:	000186a0 	.word	0x000186a0
 8000dac:	40005400 	.word	0x40005400

08000db0 <HAL_I2C_MspInit>:

void HAL_I2C_MspInit(I2C_HandleTypeDef* i2cHandle)
{
 8000db0:	b570      	push	{r4, r5, r6, lr}

  GPIO_InitTypeDef GPIO_InitStruct = {0};
  if(i2cHandle->Instance==I2C1)
 8000db2:	6802      	ldr	r2, [r0, #0]
 8000db4:	4b18      	ldr	r3, [pc, #96]	; (8000e18 <HAL_I2C_MspInit+0x68>)
{
 8000db6:	b088      	sub	sp, #32
  GPIO_InitTypeDef GPIO_InitStruct = {0};
 8000db8:	2400      	movs	r4, #0
  if(i2cHandle->Instance==I2C1)
 8000dba:	429a      	cmp	r2, r3
  GPIO_InitTypeDef GPIO_InitStruct = {0};
 8000dbc:	e9cd 4402 	strd	r4, r4, [sp, #8]
 8000dc0:	e9cd 4404 	strd	r4, r4, [sp, #16]
 8000dc4:	9406      	str	r4, [sp, #24]
  if(i2cHandle->Instance==I2C1)
 8000dc6:	d001      	beq.n	8000dcc <HAL_I2C_MspInit+0x1c>
    __HAL_RCC_I2C1_CLK_ENABLE();
  /* USER CODE BEGIN I2C1_MspInit 1 */

  /* USER CODE END I2C1_MspInit 1 */
  }
}
 8000dc8:	b008      	add	sp, #32
 8000dca:	bd70      	pop	{r4, r5, r6, pc}
    __HAL_RCC_GPIOB_CLK_ENABLE();
 8000dcc:	4d13      	ldr	r5, [pc, #76]	; (8000e1c <HAL_I2C_MspInit+0x6c>)
 8000dce:	9400      	str	r4, [sp, #0]
 8000dd0:	6b2b      	ldr	r3, [r5, #48]	; 0x30
    HAL_GPIO_Init(GPIOB, &GPIO_InitStruct);
 8000dd2:	4813      	ldr	r0, [pc, #76]	; (8000e20 <HAL_I2C_MspInit+0x70>)
    __HAL_RCC_GPIOB_CLK_ENABLE();
 8000dd4:	f043 0302 	orr.w	r3, r3, #2
 8000dd8:	632b      	str	r3, [r5, #48]	; 0x30
 8000dda:	6b2b      	ldr	r3, [r5, #48]	; 0x30
 8000ddc:	f003 0302 	and.w	r3, r3, #2
 8000de0:	9300      	str	r3, [sp, #0]
    GPIO_InitStruct.Pin = Audio_SCL_Pin|Audio_SDA_Pin;
 8000de2:	f44f 7210 	mov.w	r2, #576	; 0x240
 8000de6:	2312      	movs	r3, #18
 8000de8:	e9cd 2302 	strd	r2, r3, [sp, #8]
 8000dec:	2201      	movs	r2, #1
 8000dee:	2300      	movs	r3, #0
 8000df0:	e9cd 2304 	strd	r2, r3, [sp, #16]
    HAL_GPIO_Init(GPIOB, &GPIO_InitStruct);
 8000df4:	a902      	add	r1, sp, #8
    GPIO_InitStruct.Alternate = GPIO_AF4_I2C1;
 8000df6:	2304      	movs	r3, #4
 8000df8:	9306      	str	r3, [sp, #24]
    __HAL_RCC_GPIOB_CLK_ENABLE();
 8000dfa:	9e00      	ldr	r6, [sp, #0]
    HAL_GPIO_Init(GPIOB, &GPIO_InitStruct);
 8000dfc:	f000 fc4e 	bl	800169c <HAL_GPIO_Init>
    __HAL_RCC_I2C1_CLK_ENABLE();
 8000e00:	9401      	str	r4, [sp, #4]
 8000e02:	6c2b      	ldr	r3, [r5, #64]	; 0x40
 8000e04:	f443 1300 	orr.w	r3, r3, #2097152	; 0x200000
 8000e08:	642b      	str	r3, [r5, #64]	; 0x40
 8000e0a:	6c2b      	ldr	r3, [r5, #64]	; 0x40
 8000e0c:	f403 1300 	and.w	r3, r3, #2097152	; 0x200000
 8000e10:	9301      	str	r3, [sp, #4]
 8000e12:	9b01      	ldr	r3, [sp, #4]
}
 8000e14:	b008      	add	sp, #32
 8000e16:	bd70      	pop	{r4, r5, r6, pc}
 8000e18:	40005400 	.word	0x40005400
 8000e1c:	40023800 	.word	0x40023800
 8000e20:	40020400 	.word	0x40020400

08000e24 <HAL_I2C_MspDeInit>:

void HAL_I2C_MspDeInit(I2C_HandleTypeDef* i2cHandle)
{
 8000e24:	b508      	push	{r3, lr}

  if(i2cHandle->Instance==I2C1)
 8000e26:	6802      	ldr	r2, [r0, #0]
 8000e28:	4b09      	ldr	r3, [pc, #36]	; (8000e50 <HAL_I2C_MspDeInit+0x2c>)
 8000e2a:	429a      	cmp	r2, r3
 8000e2c:	d000      	beq.n	8000e30 <HAL_I2C_MspDeInit+0xc>

  /* USER CODE BEGIN I2C1_MspDeInit 1 */

  /* USER CODE END I2C1_MspDeInit 1 */
  }
}
 8000e2e:	bd08      	pop	{r3, pc}
    __HAL_RCC_I2C1_CLK_DISABLE();
 8000e30:	4a08      	ldr	r2, [pc, #32]	; (8000e54 <HAL_I2C_MspDeInit+0x30>)
    HAL_GPIO_DeInit(Audio_SCL_GPIO_Port, Audio_SCL_Pin);
 8000e32:	4809      	ldr	r0, [pc, #36]	; (8000e58 <HAL_I2C_MspDeInit+0x34>)
    __HAL_RCC_I2C1_CLK_DISABLE();
 8000e34:	6c13      	ldr	r3, [r2, #64]	; 0x40
 8000e36:	f423 1300 	bic.w	r3, r3, #2097152	; 0x200000
 8000e3a:	6413      	str	r3, [r2, #64]	; 0x40
    HAL_GPIO_DeInit(Audio_SCL_GPIO_Port, Audio_SCL_Pin);
 8000e3c:	2140      	movs	r1, #64	; 0x40
 8000e3e:	f000 fd19 	bl	8001874 <HAL_GPIO_DeInit>
}
 8000e42:	e8bd 4008 	ldmia.w	sp!, {r3, lr}
    HAL_GPIO_DeInit(Audio_SDA_GPIO_Port, Audio_SDA_Pin);
 8000e46:	4804      	ldr	r0, [pc, #16]	; (8000e58 <HAL_I2C_MspDeInit+0x34>)
 8000e48:	f44f 7100 	mov.w	r1, #512	; 0x200
 8000e4c:	f000 bd12 	b.w	8001874 <HAL_GPIO_DeInit>
 8000e50:	40005400 	.word	0x40005400
 8000e54:	40023800 	.word	0x40023800
 8000e58:	40020400 	.word	0x40020400

08000e5c <MX_I2S2_Init>:
  /* USER CODE END I2S2_Init 0 */

  /* USER CODE BEGIN I2S2_Init 1 */

  /* USER CODE END I2S2_Init 1 */
  hi2s2.Instance = SPI2;
 8000e5c:	480c      	ldr	r0, [pc, #48]	; (8000e90 <MX_I2S2_Init+0x34>)
 8000e5e:	4b0d      	ldr	r3, [pc, #52]	; (8000e94 <MX_I2S2_Init+0x38>)
  hi2s2.Init.Mode = I2S_MODE_MASTER_TX;
  hi2s2.Init.Standard = I2S_STANDARD_PHILIPS;
  hi2s2.Init.DataFormat = I2S_DATAFORMAT_16B;
  hi2s2.Init.MCLKOutput = I2S_MCLKOUTPUT_DISABLE;
  hi2s2.Init.AudioFreq = I2S_AUDIOFREQ_96K;
 8000e60:	490d      	ldr	r1, [pc, #52]	; (8000e98 <MX_I2S2_Init+0x3c>)
{
 8000e62:	b510      	push	{r4, lr}
  hi2s2.Init.CPOL = I2S_CPOL_LOW;
  hi2s2.Init.ClockSource = I2S_CLOCK_PLL;
  hi2s2.Init.FullDuplexMode = I2S_FULLDUPLEXMODE_ENABLE;
 8000e64:	2201      	movs	r2, #1
  hi2s2.Instance = SPI2;
 8000e66:	6003      	str	r3, [r0, #0]
  hi2s2.Init.Mode = I2S_MODE_MASTER_TX;
 8000e68:	f44f 7400 	mov.w	r4, #512	; 0x200
  hi2s2.Init.Standard = I2S_STANDARD_PHILIPS;
 8000e6c:	2300      	movs	r3, #0
  hi2s2.Init.DataFormat = I2S_DATAFORMAT_16B;
 8000e6e:	e9c0 3302 	strd	r3, r3, [r0, #8]
  hi2s2.Init.ClockSource = I2S_CLOCK_PLL;
 8000e72:	e9c0 3306 	strd	r3, r3, [r0, #24]
  hi2s2.Init.Mode = I2S_MODE_MASTER_TX;
 8000e76:	6044      	str	r4, [r0, #4]
  hi2s2.Init.AudioFreq = I2S_AUDIOFREQ_96K;
 8000e78:	6141      	str	r1, [r0, #20]
  hi2s2.Init.FullDuplexMode = I2S_FULLDUPLEXMODE_ENABLE;
 8000e7a:	6202      	str	r2, [r0, #32]
  hi2s2.Init.MCLKOutput = I2S_MCLKOUTPUT_DISABLE;
 8000e7c:	6103      	str	r3, [r0, #16]
  if (HAL_I2S_Init(&hi2s2) != HAL_OK)
 8000e7e:	f001 ff37 	bl	8002cf0 <HAL_I2S_Init>
 8000e82:	b900      	cbnz	r0, 8000e86 <MX_I2S2_Init+0x2a>
  }
  /* USER CODE BEGIN I2S2_Init 2 */

  /* USER CODE END I2S2_Init 2 */

}
 8000e84:	bd10      	pop	{r4, pc}
 8000e86:	e8bd 4010 	ldmia.w	sp!, {r4, lr}
    Error_Handler();
 8000e8a:	f000 b95b 	b.w	8001144 <Error_Handler>
 8000e8e:	bf00      	nop
 8000e90:	20004bac 	.word	0x20004bac
 8000e94:	40003800 	.word	0x40003800
 8000e98:	00017700 	.word	0x00017700

08000e9c <MX_I2S3_Init>:
  /* USER CODE END I2S3_Init 0 */

  /* USER CODE BEGIN I2S3_Init 1 */

  /* USER CODE END I2S3_Init 1 */
  hi2s3.Instance = SPI3;
 8000e9c:	480b      	ldr	r0, [pc, #44]	; (8000ecc <MX_I2S3_Init+0x30>)
  hi2s3.Init.Mode = I2S_MODE_MASTER_TX;
  hi2s3.Init.Standard = I2S_STANDARD_PHILIPS;
  hi2s3.Init.DataFormat = I2S_DATAFORMAT_16B;
  hi2s3.Init.MCLKOutput = I2S_MCLKOUTPUT_ENABLE;
  hi2s3.Init.AudioFreq = I2S_AUDIOFREQ_96K;
 8000e9e:	490c      	ldr	r1, [pc, #48]	; (8000ed0 <MX_I2S3_Init+0x34>)
{
 8000ea0:	b508      	push	{r3, lr}
  hi2s3.Instance = SPI3;
 8000ea2:	4b0c      	ldr	r3, [pc, #48]	; (8000ed4 <MX_I2S3_Init+0x38>)
 8000ea4:	6003      	str	r3, [r0, #0]
  hi2s3.Init.Mode = I2S_MODE_MASTER_TX;
 8000ea6:	f44f 7200 	mov.w	r2, #512	; 0x200
  hi2s3.Init.Standard = I2S_STANDARD_PHILIPS;
 8000eaa:	2300      	movs	r3, #0
  hi2s3.Init.DataFormat = I2S_DATAFORMAT_16B;
 8000eac:	e9c0 3302 	strd	r3, r3, [r0, #8]
  hi2s3.Init.CPOL = I2S_CPOL_LOW;
  hi2s3.Init.ClockSource = I2S_CLOCK_PLL;
 8000eb0:	e9c0 3306 	strd	r3, r3, [r0, #24]
  hi2s3.Init.AudioFreq = I2S_AUDIOFREQ_96K;
 8000eb4:	6141      	str	r1, [r0, #20]
  hi2s3.Init.Mode = I2S_MODE_MASTER_TX;
 8000eb6:	6042      	str	r2, [r0, #4]
  hi2s3.Init.MCLKOutput = I2S_MCLKOUTPUT_ENABLE;
 8000eb8:	6102      	str	r2, [r0, #16]
  hi2s3.Init.FullDuplexMode = I2S_FULLDUPLEXMODE_DISABLE;
 8000eba:	6203      	str	r3, [r0, #32]
  if (HAL_I2S_Init(&hi2s3) != HAL_OK)
 8000ebc:	f001 ff18 	bl	8002cf0 <HAL_I2S_Init>
 8000ec0:	b900      	cbnz	r0, 8000ec4 <MX_I2S3_Init+0x28>
  }
  /* USER CODE BEGIN I2S3_Init 2 */

  /* USER CODE END I2S3_Init 2 */

}
 8000ec2:	bd08      	pop	{r3, pc}
 8000ec4:	e8bd 4008 	ldmia.w	sp!, {r3, lr}
    Error_Handler();
 8000ec8:	f000 b93c 	b.w	8001144 <Error_Handler>
 8000ecc:	20004bf4 	.word	0x20004bf4
 8000ed0:	00017700 	.word	0x00017700
 8000ed4:	40003c00 	.word	0x40003c00

08000ed8 <HAL_I2S_MspInit>:

void HAL_I2S_MspInit(I2S_HandleTypeDef* i2sHandle)
{
 8000ed8:	b570      	push	{r4, r5, r6, lr}

  GPIO_InitTypeDef GPIO_InitStruct = {0};
  if(i2sHandle->Instance==SPI2)
 8000eda:	6802      	ldr	r2, [r0, #0]
 8000edc:	4948      	ldr	r1, [pc, #288]	; (8001000 <HAL_I2S_MspInit+0x128>)
{
 8000ede:	b08c      	sub	sp, #48	; 0x30
  GPIO_InitTypeDef GPIO_InitStruct = {0};
 8000ee0:	2300      	movs	r3, #0
  if(i2sHandle->Instance==SPI2)
 8000ee2:	428a      	cmp	r2, r1
  GPIO_InitTypeDef GPIO_InitStruct = {0};
 8000ee4:	e9cd 3306 	strd	r3, r3, [sp, #24]
 8000ee8:	e9cd 3308 	strd	r3, r3, [sp, #32]
 8000eec:	930a      	str	r3, [sp, #40]	; 0x28
  if(i2sHandle->Instance==SPI2)
 8000eee:	d004      	beq.n	8000efa <HAL_I2S_MspInit+0x22>

  /* USER CODE BEGIN SPI2_MspInit 1 */

  /* USER CODE END SPI2_MspInit 1 */
  }
  else if(i2sHandle->Instance==SPI3)
 8000ef0:	4944      	ldr	r1, [pc, #272]	; (8001004 <HAL_I2S_MspInit+0x12c>)
 8000ef2:	428a      	cmp	r2, r1
 8000ef4:	d048      	beq.n	8000f88 <HAL_I2S_MspInit+0xb0>

  /* USER CODE BEGIN SPI3_MspInit 1 */

  /* USER CODE END SPI3_MspInit 1 */
  }
}
 8000ef6:	b00c      	add	sp, #48	; 0x30
 8000ef8:	bd70      	pop	{r4, r5, r6, pc}
    __HAL_RCC_SPI2_CLK_ENABLE();
 8000efa:	4a43      	ldr	r2, [pc, #268]	; (8001008 <HAL_I2S_MspInit+0x130>)
 8000efc:	9300      	str	r3, [sp, #0]
 8000efe:	6c11      	ldr	r1, [r2, #64]	; 0x40
    HAL_GPIO_Init(GPIOC, &GPIO_InitStruct);
 8000f00:	4842      	ldr	r0, [pc, #264]	; (800100c <HAL_I2S_MspInit+0x134>)
    __HAL_RCC_SPI2_CLK_ENABLE();
 8000f02:	f441 4180 	orr.w	r1, r1, #16384	; 0x4000
 8000f06:	6411      	str	r1, [r2, #64]	; 0x40
 8000f08:	6c11      	ldr	r1, [r2, #64]	; 0x40
 8000f0a:	f401 4180 	and.w	r1, r1, #16384	; 0x4000
 8000f0e:	9100      	str	r1, [sp, #0]
 8000f10:	9900      	ldr	r1, [sp, #0]
    __HAL_RCC_GPIOC_CLK_ENABLE();
 8000f12:	9301      	str	r3, [sp, #4]
 8000f14:	6b11      	ldr	r1, [r2, #48]	; 0x30
 8000f16:	f041 0104 	orr.w	r1, r1, #4
 8000f1a:	6311      	str	r1, [r2, #48]	; 0x30
 8000f1c:	6b11      	ldr	r1, [r2, #48]	; 0x30
 8000f1e:	f001 0104 	and.w	r1, r1, #4
 8000f22:	9101      	str	r1, [sp, #4]
 8000f24:	9901      	ldr	r1, [sp, #4]
    __HAL_RCC_GPIOB_CLK_ENABLE();
 8000f26:	9302      	str	r3, [sp, #8]
 8000f28:	6b13      	ldr	r3, [r2, #48]	; 0x30
 8000f2a:	f043 0302 	orr.w	r3, r3, #2
 8000f2e:	6313      	str	r3, [r2, #48]	; 0x30
 8000f30:	6b13      	ldr	r3, [r2, #48]	; 0x30
    GPIO_InitStruct.Alternate = GPIO_AF6_I2S2ext;
 8000f32:	2106      	movs	r1, #6
    __HAL_RCC_GPIOB_CLK_ENABLE();
 8000f34:	f003 0302 	and.w	r3, r3, #2
 8000f38:	9302      	str	r3, [sp, #8]
    GPIO_InitStruct.Pin = GPIO_PIN_2;
 8000f3a:	2400      	movs	r4, #0
 8000f3c:	2500      	movs	r5, #0
 8000f3e:	2204      	movs	r2, #4
 8000f40:	2302      	movs	r3, #2
    GPIO_InitStruct.Alternate = GPIO_AF6_I2S2ext;
 8000f42:	910a      	str	r1, [sp, #40]	; 0x28
    HAL_GPIO_Init(GPIOC, &GPIO_InitStruct);
 8000f44:	a906      	add	r1, sp, #24
    GPIO_InitStruct.Pin = GPIO_PIN_2;
 8000f46:	e9cd 2306 	strd	r2, r3, [sp, #24]
    __HAL_RCC_GPIOB_CLK_ENABLE();
 8000f4a:	9e02      	ldr	r6, [sp, #8]
    GPIO_InitStruct.Pin = GPIO_PIN_2;
 8000f4c:	e9cd 4508 	strd	r4, r5, [sp, #32]
    GPIO_InitStruct.Alternate = GPIO_AF5_SPI2;
 8000f50:	2605      	movs	r6, #5
    HAL_GPIO_Init(GPIOC, &GPIO_InitStruct);
 8000f52:	f000 fba3 	bl	800169c <HAL_GPIO_Init>
    GPIO_InitStruct.Pin = PDM_OUT_Pin;
 8000f56:	2208      	movs	r2, #8
 8000f58:	2302      	movs	r3, #2
    HAL_GPIO_Init(PDM_OUT_GPIO_Port, &GPIO_InitStruct);
 8000f5a:	a906      	add	r1, sp, #24
 8000f5c:	482b      	ldr	r0, [pc, #172]	; (800100c <HAL_I2S_MspInit+0x134>)
    GPIO_InitStruct.Alternate = GPIO_AF5_SPI2;
 8000f5e:	960a      	str	r6, [sp, #40]	; 0x28
    GPIO_InitStruct.Pin = PDM_OUT_Pin;
 8000f60:	e9cd 2306 	strd	r2, r3, [sp, #24]
 8000f64:	e9cd 4508 	strd	r4, r5, [sp, #32]
    HAL_GPIO_Init(PDM_OUT_GPIO_Port, &GPIO_InitStruct);
 8000f68:	f000 fb98 	bl	800169c <HAL_GPIO_Init>
    GPIO_InitStruct.Pin = CLK_IN_Pin|GPIO_PIN_12;
 8000f6c:	f44f 52a0 	mov.w	r2, #5120	; 0x1400
 8000f70:	2302      	movs	r3, #2
    HAL_GPIO_Init(GPIOB, &GPIO_InitStruct);
 8000f72:	4827      	ldr	r0, [pc, #156]	; (8001010 <HAL_I2S_MspInit+0x138>)
    GPIO_InitStruct.Alternate = GPIO_AF5_SPI2;
 8000f74:	960a      	str	r6, [sp, #40]	; 0x28
    HAL_GPIO_Init(GPIOB, &GPIO_InitStruct);
 8000f76:	a906      	add	r1, sp, #24
    GPIO_InitStruct.Pin = CLK_IN_Pin|GPIO_PIN_12;
 8000f78:	e9cd 4508 	strd	r4, r5, [sp, #32]
 8000f7c:	e9cd 2306 	strd	r2, r3, [sp, #24]
    HAL_GPIO_Init(GPIOB, &GPIO_InitStruct);
 8000f80:	f000 fb8c 	bl	800169c <HAL_GPIO_Init>
}
 8000f84:	b00c      	add	sp, #48	; 0x30
 8000f86:	bd70      	pop	{r4, r5, r6, pc}
    __HAL_RCC_SPI3_CLK_ENABLE();
 8000f88:	4a1f      	ldr	r2, [pc, #124]	; (8001008 <HAL_I2S_MspInit+0x130>)
 8000f8a:	9303      	str	r3, [sp, #12]
 8000f8c:	6c11      	ldr	r1, [r2, #64]	; 0x40
    HAL_GPIO_Init(I2S3_WS_GPIO_Port, &GPIO_InitStruct);
 8000f8e:	4821      	ldr	r0, [pc, #132]	; (8001014 <HAL_I2S_MspInit+0x13c>)
    __HAL_RCC_SPI3_CLK_ENABLE();
 8000f90:	f441 4100 	orr.w	r1, r1, #32768	; 0x8000
 8000f94:	6411      	str	r1, [r2, #64]	; 0x40
 8000f96:	6c11      	ldr	r1, [r2, #64]	; 0x40
 8000f98:	f401 4100 	and.w	r1, r1, #32768	; 0x8000
 8000f9c:	9103      	str	r1, [sp, #12]
 8000f9e:	9903      	ldr	r1, [sp, #12]
    __HAL_RCC_GPIOA_CLK_ENABLE();
 8000fa0:	9304      	str	r3, [sp, #16]
 8000fa2:	6b11      	ldr	r1, [r2, #48]	; 0x30
 8000fa4:	f041 0101 	orr.w	r1, r1, #1
 8000fa8:	6311      	str	r1, [r2, #48]	; 0x30
 8000faa:	6b11      	ldr	r1, [r2, #48]	; 0x30
 8000fac:	f001 0101 	and.w	r1, r1, #1
 8000fb0:	9104      	str	r1, [sp, #16]
 8000fb2:	9904      	ldr	r1, [sp, #16]
    __HAL_RCC_GPIOC_CLK_ENABLE();
 8000fb4:	9305      	str	r3, [sp, #20]
 8000fb6:	6b13      	ldr	r3, [r2, #48]	; 0x30
 8000fb8:	f043 0304 	orr.w	r3, r3, #4
 8000fbc:	6313      	str	r3, [r2, #48]	; 0x30
 8000fbe:	6b13      	ldr	r3, [r2, #48]	; 0x30
 8000fc0:	f003 0304 	and.w	r3, r3, #4
 8000fc4:	9305      	str	r3, [sp, #20]
 8000fc6:	9905      	ldr	r1, [sp, #20]
    GPIO_InitStruct.Pin = I2S3_WS_Pin;
 8000fc8:	2210      	movs	r2, #16
 8000fca:	2302      	movs	r3, #2
 8000fcc:	2400      	movs	r4, #0
 8000fce:	2500      	movs	r5, #0
    GPIO_InitStruct.Alternate = GPIO_AF6_SPI3;
 8000fd0:	2606      	movs	r6, #6
    HAL_GPIO_Init(I2S3_WS_GPIO_Port, &GPIO_InitStruct);
 8000fd2:	a906      	add	r1, sp, #24
    GPIO_InitStruct.Pin = I2S3_WS_Pin;
 8000fd4:	e9cd 2306 	strd	r2, r3, [sp, #24]
 8000fd8:	e9cd 4508 	strd	r4, r5, [sp, #32]
    GPIO_InitStruct.Alternate = GPIO_AF6_SPI3;
 8000fdc:	960a      	str	r6, [sp, #40]	; 0x28
    HAL_GPIO_Init(I2S3_WS_GPIO_Port, &GPIO_InitStruct);
 8000fde:	f000 fb5d 	bl	800169c <HAL_GPIO_Init>
    GPIO_InitStruct.Pin = I2S3_MCK_Pin|I2S3_SCK_Pin|I2S3_SD_Pin;
 8000fe2:	f44f 52a4 	mov.w	r2, #5248	; 0x1480
 8000fe6:	2302      	movs	r3, #2
    HAL_GPIO_Init(GPIOC, &GPIO_InitStruct);
 8000fe8:	4808      	ldr	r0, [pc, #32]	; (800100c <HAL_I2S_MspInit+0x134>)
    GPIO_InitStruct.Alternate = GPIO_AF6_SPI3;
 8000fea:	960a      	str	r6, [sp, #40]	; 0x28
    HAL_GPIO_Init(GPIOC, &GPIO_InitStruct);
 8000fec:	a906      	add	r1, sp, #24
    GPIO_InitStruct.Pin = I2S3_MCK_Pin|I2S3_SCK_Pin|I2S3_SD_Pin;
 8000fee:	e9cd 4508 	strd	r4, r5, [sp, #32]
 8000ff2:	e9cd 2306 	strd	r2, r3, [sp, #24]
    HAL_GPIO_Init(GPIOC, &GPIO_InitStruct);
 8000ff6:	f000 fb51 	bl	800169c <HAL_GPIO_Init>
}
 8000ffa:	b00c      	add	sp, #48	; 0x30
 8000ffc:	bd70      	pop	{r4, r5, r6, pc}
 8000ffe:	bf00      	nop
 8001000:	40003800 	.word	0x40003800
 8001004:	40003c00 	.word	0x40003c00
 8001008:	40023800 	.word	0x40023800
 800100c:	40020800 	.word	0x40020800
 8001010:	40020400 	.word	0x40020400
 8001014:	40020000 	.word	0x40020000

08001018 <SystemClock_Config>:
/**
  * @brief System Clock Configuration
  * @retval None
  */
void SystemClock_Config(void)
{
 8001018:	b530      	push	{r4, r5, lr}
  RCC_OscInitTypeDef RCC_OscInitStruct = {0};
 800101a:	2300      	movs	r3, #0
{
 800101c:	b095      	sub	sp, #84	; 0x54
  RCC_OscInitTypeDef RCC_OscInitStruct = {0};
 800101e:	e9cd 330a 	strd	r3, r3, [sp, #40]	; 0x28
 8001022:	e9cd 330c 	strd	r3, r3, [sp, #48]	; 0x30
  RCC_ClkInitTypeDef RCC_ClkInitStruct = {0};
 8001026:	e9cd 3303 	strd	r3, r3, [sp, #12]
 800102a:	e9cd 3305 	strd	r3, r3, [sp, #20]

  /** Configure the main internal regulator output voltage
  */
  __HAL_RCC_PWR_CLK_ENABLE();
 800102e:	4921      	ldr	r1, [pc, #132]	; (80010b4 <SystemClock_Config+0x9c>)
 8001030:	9300      	str	r3, [sp, #0]
  RCC_ClkInitTypeDef RCC_ClkInitStruct = {0};
 8001032:	9302      	str	r3, [sp, #8]
  __HAL_RCC_PWR_CLK_ENABLE();
 8001034:	6c08      	ldr	r0, [r1, #64]	; 0x40
  __HAL_PWR_VOLTAGESCALING_CONFIG(PWR_REGULATOR_VOLTAGE_SCALE1);
 8001036:	4a20      	ldr	r2, [pc, #128]	; (80010b8 <SystemClock_Config+0xa0>)
  __HAL_RCC_PWR_CLK_ENABLE();
 8001038:	f040 5080 	orr.w	r0, r0, #268435456	; 0x10000000
 800103c:	6408      	str	r0, [r1, #64]	; 0x40
 800103e:	6c09      	ldr	r1, [r1, #64]	; 0x40
 8001040:	f001 5180 	and.w	r1, r1, #268435456	; 0x10000000
 8001044:	9100      	str	r1, [sp, #0]
 8001046:	9900      	ldr	r1, [sp, #0]
  __HAL_PWR_VOLTAGESCALING_CONFIG(PWR_REGULATOR_VOLTAGE_SCALE1);
 8001048:	9301      	str	r3, [sp, #4]
 800104a:	6813      	ldr	r3, [r2, #0]
 800104c:	f443 4340 	orr.w	r3, r3, #49152	; 0xc000
 8001050:	6013      	str	r3, [r2, #0]
 8001052:	6813      	ldr	r3, [r2, #0]
 8001054:	f403 4340 	and.w	r3, r3, #49152	; 0xc000
 8001058:	9301      	str	r3, [sp, #4]
  /** Initializes the RCC Oscillators according to the specified parameters
  * in the RCC_OscInitTypeDef structure.
  */
  RCC_OscInitStruct.OscillatorType = RCC_OSCILLATORTYPE_HSE;
 800105a:	2401      	movs	r4, #1
 800105c:	f44f 3580 	mov.w	r5, #65536	; 0x10000
  RCC_OscInitStruct.HSEState = RCC_HSE_ON;
  RCC_OscInitStruct.PLL.PLLState = RCC_PLL_ON;
 8001060:	2202      	movs	r2, #2
 8001062:	f44f 0380 	mov.w	r3, #4194304	; 0x400000
  RCC_OscInitStruct.OscillatorType = RCC_OSCILLATORTYPE_HSE;
 8001066:	e9cd 4508 	strd	r4, r5, [sp, #32]
  RCC_OscInitStruct.PLL.PLLState = RCC_PLL_ON;
 800106a:	e9cd 230e 	strd	r2, r3, [sp, #56]	; 0x38
 800106e:	2404      	movs	r4, #4
 8001070:	25c0      	movs	r5, #192	; 0xc0
 8001072:	2204      	movs	r2, #4
 8001074:	2308      	movs	r3, #8
  RCC_OscInitStruct.PLL.PLLSource = RCC_PLLSOURCE_HSE;
  RCC_OscInitStruct.PLL.PLLM = 4;
  RCC_OscInitStruct.PLL.PLLN = 192;
  RCC_OscInitStruct.PLL.PLLP = RCC_PLLP_DIV4;
  RCC_OscInitStruct.PLL.PLLQ = 8;
  if (HAL_RCC_OscConfig(&RCC_OscInitStruct) != HAL_OK)
 8001076:	a808      	add	r0, sp, #32
  RCC_OscInitStruct.PLL.PLLState = RCC_PLL_ON;
 8001078:	e9cd 4510 	strd	r4, r5, [sp, #64]	; 0x40
 800107c:	e9cd 2312 	strd	r2, r3, [sp, #72]	; 0x48
  __HAL_PWR_VOLTAGESCALING_CONFIG(PWR_REGULATOR_VOLTAGE_SCALE1);
 8001080:	9901      	ldr	r1, [sp, #4]
  if (HAL_RCC_OscConfig(&RCC_OscInitStruct) != HAL_OK)
 8001082:	f002 f887 	bl	8003194 <HAL_RCC_OscConfig>
 8001086:	b108      	cbz	r0, 800108c <SystemClock_Config+0x74>
  \details Disables IRQ interrupts by setting the I-bit in the CPSR.
           Can only be executed in Privileged modes.
 */
__STATIC_FORCEINLINE void __disable_irq(void)
{
  __ASM volatile ("cpsid i" : : : "memory");
 8001088:	b672      	cpsid	i
void Error_Handler(void)
{
  /* USER CODE BEGIN Error_Handler_Debug */
  /* User can add his own implementation to report the HAL error return state */
  __disable_irq();
  while (1)
 800108a:	e7fe      	b.n	800108a <SystemClock_Config+0x72>
  RCC_ClkInitStruct.APB1CLKDivider = RCC_HCLK_DIV4;
 800108c:	4603      	mov	r3, r0
  RCC_ClkInitStruct.ClockType = RCC_CLOCKTYPE_HCLK|RCC_CLOCKTYPE_SYSCLK
 800108e:	240f      	movs	r4, #15
 8001090:	2502      	movs	r5, #2
  RCC_ClkInitStruct.APB2CLKDivider = RCC_HCLK_DIV1;
 8001092:	9306      	str	r3, [sp, #24]
  RCC_ClkInitStruct.ClockType = RCC_CLOCKTYPE_HCLK|RCC_CLOCKTYPE_SYSCLK
 8001094:	2200      	movs	r2, #0
 8001096:	f44f 53a0 	mov.w	r3, #5120	; 0x1400
  if (HAL_RCC_ClockConfig(&RCC_ClkInitStruct, FLASH_LATENCY_3) != HAL_OK)
 800109a:	a802      	add	r0, sp, #8
 800109c:	2103      	movs	r1, #3
  RCC_ClkInitStruct.ClockType = RCC_CLOCKTYPE_HCLK|RCC_CLOCKTYPE_SYSCLK
 800109e:	e9cd 4502 	strd	r4, r5, [sp, #8]
 80010a2:	e9cd 2304 	strd	r2, r3, [sp, #16]
  if (HAL_RCC_ClockConfig(&RCC_ClkInitStruct, FLASH_LATENCY_3) != HAL_OK)
 80010a6:	f002 fa93 	bl	80035d0 <HAL_RCC_ClockConfig>
 80010aa:	b108      	cbz	r0, 80010b0 <SystemClock_Config+0x98>
 80010ac:	b672      	cpsid	i
  while (1)
 80010ae:	e7fe      	b.n	80010ae <SystemClock_Config+0x96>
}
 80010b0:	b015      	add	sp, #84	; 0x54
 80010b2:	bd30      	pop	{r4, r5, pc}
 80010b4:	40023800 	.word	0x40023800
 80010b8:	40007000 	.word	0x40007000

080010bc <PeriphCommonClock_Config>:
{
 80010bc:	b5f0      	push	{r4, r5, r6, r7, lr}
 80010be:	b087      	sub	sp, #28
  RCC_PeriphCLKInitTypeDef PeriphClkInitStruct = {0};
 80010c0:	2300      	movs	r3, #0
  PeriphClkInitStruct.PeriphClockSelection = RCC_PERIPHCLK_I2S;
 80010c2:	2601      	movs	r6, #1
 80010c4:	2705      	movs	r7, #5
 80010c6:	24c8      	movs	r4, #200	; 0xc8
 80010c8:	2502      	movs	r5, #2
  if (HAL_RCCEx_PeriphCLKConfig(&PeriphClkInitStruct) != HAL_OK)
 80010ca:	4668      	mov	r0, sp
  PeriphClkInitStruct.PeriphClockSelection = RCC_PERIPHCLK_I2S;
 80010cc:	e9cd 6700 	strd	r6, r7, [sp]
 80010d0:	e9cd 4502 	strd	r4, r5, [sp, #8]
  RCC_PeriphCLKInitTypeDef PeriphClkInitStruct = {0};
 80010d4:	9305      	str	r3, [sp, #20]
 80010d6:	9304      	str	r3, [sp, #16]
  if (HAL_RCCEx_PeriphCLKConfig(&PeriphClkInitStruct) != HAL_OK)
 80010d8:	f002 fb5a 	bl	8003790 <HAL_RCCEx_PeriphCLKConfig>
 80010dc:	b108      	cbz	r0, 80010e2 <PeriphCommonClock_Config+0x26>
 80010de:	b672      	cpsid	i
  while (1)
 80010e0:	e7fe      	b.n	80010e0 <PeriphCommonClock_Config+0x24>
}
 80010e2:	b007      	add	sp, #28
 80010e4:	bdf0      	pop	{r4, r5, r6, r7, pc}
 80010e6:	bf00      	nop

080010e8 <main>:
{
 80010e8:	b508      	push	{r3, lr}
  /* Reset of all peripherals, Initializes the Flash interface and the Systick. */  HAL_Init();
 80010ea:	f000 fa3f 	bl	800156c <HAL_Init>
  BSP_ACCELERO_Init();
 80010ee:	f005 ff87 	bl	8007000 <BSP_ACCELERO_Init>
  if (BSP_ACCELERO_Init() != ACCELERO_OK) {
 80010f2:	f005 ff85 	bl	8007000 <BSP_ACCELERO_Init>
 80010f6:	b108      	cbz	r0, 80010fc <main+0x14>
 80010f8:	b672      	cpsid	i
  while (1)
 80010fa:	e7fe      	b.n	80010fa <main+0x12>
  SystemClock_Config();
 80010fc:	f7ff ff8c 	bl	8001018 <SystemClock_Config>
  PeriphCommonClock_Config();
 8001100:	f7ff ffdc 	bl	80010bc <PeriphCommonClock_Config>
  MX_GPIO_Init();
 8001104:	f7ff fd7e 	bl	8000c04 <MX_GPIO_Init>
  MX_I2C1_Init();
 8001108:	f7ff fe34 	bl	8000d74 <MX_I2C1_Init>
  MX_I2S2_Init();
 800110c:	f7ff fea6 	bl	8000e5c <MX_I2S2_Init>
  MX_I2S3_Init();
 8001110:	f7ff fec4 	bl	8000e9c <MX_I2S3_Init>
  MX_SPI1_Init();
 8001114:	f000 f818 	bl	8001148 <MX_SPI1_Init>
  MX_TIM4_Init();
 8001118:	f000 f902 	bl	8001320 <MX_TIM4_Init>
  MX_USB_OTG_FS_HCD_Init();
 800111c:	f000 f996 	bl	800144c <MX_USB_OTG_FS_HCD_Init>
  osKernelInitialize();  /* Call init function for freertos objects (in freertos.c) */
 8001120:	f003 fb3a 	bl	8004798 <osKernelInitialize>
  MX_FREERTOS_Init();
 8001124:	f7ff fcf8 	bl	8000b18 <MX_FREERTOS_Init>
  osKernelStart();
 8001128:	f003 fb48 	bl	80047bc <osKernelStart>
  while (1)
 800112c:	e7fe      	b.n	800112c <main+0x44>
 800112e:	bf00      	nop

08001130 <HAL_TIM_PeriodElapsedCallback>:
  if (htim->Instance == TIM1) {
 8001130:	4b03      	ldr	r3, [pc, #12]	; (8001140 <HAL_TIM_PeriodElapsedCallback+0x10>)
 8001132:	6802      	ldr	r2, [r0, #0]
 8001134:	429a      	cmp	r2, r3
 8001136:	d000      	beq.n	800113a <HAL_TIM_PeriodElapsedCallback+0xa>
}
 8001138:	4770      	bx	lr
    HAL_IncTick();
 800113a:	f000 ba31 	b.w	80015a0 <HAL_IncTick>
 800113e:	bf00      	nop
 8001140:	40010000 	.word	0x40010000

08001144 <Error_Handler>:
 8001144:	b672      	cpsid	i
  while (1)
 8001146:	e7fe      	b.n	8001146 <Error_Handler+0x2>

08001148 <MX_SPI1_Init>:
  /* USER CODE END SPI1_Init 0 */

  /* USER CODE BEGIN SPI1_Init 1 */

  /* USER CODE END SPI1_Init 1 */
  hspi1.Instance = SPI1;
 8001148:	480e      	ldr	r0, [pc, #56]	; (8001184 <MX_SPI1_Init+0x3c>)
 800114a:	4b0f      	ldr	r3, [pc, #60]	; (8001188 <MX_SPI1_Init+0x40>)
{
 800114c:	b510      	push	{r4, lr}
  hspi1.Init.Mode = SPI_MODE_MASTER;
  hspi1.Init.Direction = SPI_DIRECTION_2LINES;
  hspi1.Init.DataSize = SPI_DATASIZE_8BIT;
  hspi1.Init.CLKPolarity = SPI_POLARITY_LOW;
  hspi1.Init.CLKPhase = SPI_PHASE_1EDGE;
  hspi1.Init.NSS = SPI_NSS_SOFT;
 800114e:	f44f 7100 	mov.w	r1, #512	; 0x200
  hspi1.Instance = SPI1;
 8001152:	6003      	str	r3, [r0, #0]
  hspi1.Init.Mode = SPI_MODE_MASTER;
 8001154:	f44f 7482 	mov.w	r4, #260	; 0x104
  hspi1.Init.Direction = SPI_DIRECTION_2LINES;
 8001158:	2300      	movs	r3, #0
  hspi1.Init.BaudRatePrescaler = SPI_BAUDRATEPRESCALER_2;
  hspi1.Init.FirstBit = SPI_FIRSTBIT_MSB;
  hspi1.Init.TIMode = SPI_TIMODE_DISABLE;
  hspi1.Init.CRCCalculation = SPI_CRCCALCULATION_DISABLE;
  hspi1.Init.CRCPolynomial = 10;
 800115a:	220a      	movs	r2, #10
  hspi1.Init.DataSize = SPI_DATASIZE_8BIT;
 800115c:	e9c0 3302 	strd	r3, r3, [r0, #8]
  hspi1.Init.CLKPhase = SPI_PHASE_1EDGE;
 8001160:	e9c0 3304 	strd	r3, r3, [r0, #16]
  hspi1.Init.FirstBit = SPI_FIRSTBIT_MSB;
 8001164:	e9c0 3307 	strd	r3, r3, [r0, #28]
  hspi1.Init.CRCCalculation = SPI_CRCCALCULATION_DISABLE;
 8001168:	e9c0 3309 	strd	r3, r3, [r0, #36]	; 0x24
  hspi1.Init.Mode = SPI_MODE_MASTER;
 800116c:	6044      	str	r4, [r0, #4]
  hspi1.Init.NSS = SPI_NSS_SOFT;
 800116e:	6181      	str	r1, [r0, #24]
  hspi1.Init.CRCPolynomial = 10;
 8001170:	62c2      	str	r2, [r0, #44]	; 0x2c
  if (HAL_SPI_Init(&hspi1) != HAL_OK)
 8001172:	f002 fbe1 	bl	8003938 <HAL_SPI_Init>
 8001176:	b900      	cbnz	r0, 800117a <MX_SPI1_Init+0x32>
  }
  /* USER CODE BEGIN SPI1_Init 2 */

  /* USER CODE END SPI1_Init 2 */

}
 8001178:	bd10      	pop	{r4, pc}
 800117a:	e8bd 4010 	ldmia.w	sp!, {r4, lr}
    Error_Handler();
 800117e:	f7ff bfe1 	b.w	8001144 <Error_Handler>
 8001182:	bf00      	nop
 8001184:	20004c3c 	.word	0x20004c3c
 8001188:	40013000 	.word	0x40013000

0800118c <HAL_SPI_MspInit>:

void HAL_SPI_MspInit(SPI_HandleTypeDef* spiHandle)
{
 800118c:	b530      	push	{r4, r5, lr}

  GPIO_InitTypeDef GPIO_InitStruct = {0};
  if(spiHandle->Instance==SPI1)
 800118e:	6801      	ldr	r1, [r0, #0]
 8001190:	4a18      	ldr	r2, [pc, #96]	; (80011f4 <HAL_SPI_MspInit+0x68>)
{
 8001192:	b089      	sub	sp, #36	; 0x24
  GPIO_InitTypeDef GPIO_InitStruct = {0};
 8001194:	2300      	movs	r3, #0
  if(spiHandle->Instance==SPI1)
 8001196:	4291      	cmp	r1, r2
  GPIO_InitTypeDef GPIO_InitStruct = {0};
 8001198:	e9cd 3302 	strd	r3, r3, [sp, #8]
 800119c:	e9cd 3304 	strd	r3, r3, [sp, #16]
 80011a0:	9306      	str	r3, [sp, #24]
  if(spiHandle->Instance==SPI1)
 80011a2:	d001      	beq.n	80011a8 <HAL_SPI_MspInit+0x1c>

  /* USER CODE BEGIN SPI1_MspInit 1 */

  /* USER CODE END SPI1_MspInit 1 */
  }
}
 80011a4:	b009      	add	sp, #36	; 0x24
 80011a6:	bd30      	pop	{r4, r5, pc}
    __HAL_RCC_SPI1_CLK_ENABLE();
 80011a8:	f502 3284 	add.w	r2, r2, #67584	; 0x10800
 80011ac:	9300      	str	r3, [sp, #0]
 80011ae:	6c51      	ldr	r1, [r2, #68]	; 0x44
    HAL_GPIO_Init(GPIOA, &GPIO_InitStruct);
 80011b0:	4811      	ldr	r0, [pc, #68]	; (80011f8 <HAL_SPI_MspInit+0x6c>)
    __HAL_RCC_SPI1_CLK_ENABLE();
 80011b2:	f441 5180 	orr.w	r1, r1, #4096	; 0x1000
 80011b6:	6451      	str	r1, [r2, #68]	; 0x44
 80011b8:	6c51      	ldr	r1, [r2, #68]	; 0x44
 80011ba:	f401 5180 	and.w	r1, r1, #4096	; 0x1000
 80011be:	9100      	str	r1, [sp, #0]
 80011c0:	9900      	ldr	r1, [sp, #0]
    __HAL_RCC_GPIOA_CLK_ENABLE();
 80011c2:	9301      	str	r3, [sp, #4]
 80011c4:	6b13      	ldr	r3, [r2, #48]	; 0x30
 80011c6:	f043 0301 	orr.w	r3, r3, #1
 80011ca:	6313      	str	r3, [r2, #48]	; 0x30
 80011cc:	6b13      	ldr	r3, [r2, #48]	; 0x30
 80011ce:	f003 0301 	and.w	r3, r3, #1
 80011d2:	9301      	str	r3, [sp, #4]
    GPIO_InitStruct.Alternate = GPIO_AF5_SPI1;
 80011d4:	2305      	movs	r3, #5
    __HAL_RCC_GPIOA_CLK_ENABLE();
 80011d6:	9a01      	ldr	r2, [sp, #4]
    GPIO_InitStruct.Alternate = GPIO_AF5_SPI1;
 80011d8:	9306      	str	r3, [sp, #24]
    GPIO_InitStruct.Pin = SPI1_SCK_Pin|SPI1_MISO_Pin|SPI1_MOSI_Pin;
 80011da:	2200      	movs	r2, #0
 80011dc:	2303      	movs	r3, #3
    HAL_GPIO_Init(GPIOA, &GPIO_InitStruct);
 80011de:	a902      	add	r1, sp, #8
    GPIO_InitStruct.Pin = SPI1_SCK_Pin|SPI1_MISO_Pin|SPI1_MOSI_Pin;
 80011e0:	24e0      	movs	r4, #224	; 0xe0
 80011e2:	2502      	movs	r5, #2
 80011e4:	e9cd 4502 	strd	r4, r5, [sp, #8]
 80011e8:	e9cd 2304 	strd	r2, r3, [sp, #16]
    HAL_GPIO_Init(GPIOA, &GPIO_InitStruct);
 80011ec:	f000 fa56 	bl	800169c <HAL_GPIO_Init>
}
 80011f0:	b009      	add	sp, #36	; 0x24
 80011f2:	bd30      	pop	{r4, r5, pc}
 80011f4:	40013000 	.word	0x40013000
 80011f8:	40020000 	.word	0x40020000

080011fc <HAL_MspInit>:
/* USER CODE END 0 */
/**
  * Initializes the Global MSP.
  */
void HAL_MspInit(void)
{
 80011fc:	b510      	push	{r4, lr}
 80011fe:	b082      	sub	sp, #8
  /* USER CODE BEGIN MspInit 0 */

  /* USER CODE END MspInit 0 */

  __HAL_RCC_SYSCFG_CLK_ENABLE();
 8001200:	4b13      	ldr	r3, [pc, #76]	; (8001250 <HAL_MspInit+0x54>)
 8001202:	2400      	movs	r4, #0
 8001204:	9400      	str	r4, [sp, #0]
 8001206:	6c5a      	ldr	r2, [r3, #68]	; 0x44
 8001208:	f442 4280 	orr.w	r2, r2, #16384	; 0x4000
 800120c:	645a      	str	r2, [r3, #68]	; 0x44
 800120e:	6c5a      	ldr	r2, [r3, #68]	; 0x44
 8001210:	f402 4280 	and.w	r2, r2, #16384	; 0x4000
 8001214:	9200      	str	r2, [sp, #0]
 8001216:	9a00      	ldr	r2, [sp, #0]
  __HAL_RCC_PWR_CLK_ENABLE();
 8001218:	9401      	str	r4, [sp, #4]
 800121a:	6c1a      	ldr	r2, [r3, #64]	; 0x40
 800121c:	f042 5280 	orr.w	r2, r2, #268435456	; 0x10000000
 8001220:	641a      	str	r2, [r3, #64]	; 0x40
 8001222:	6c1b      	ldr	r3, [r3, #64]	; 0x40
 8001224:	f003 5380 	and.w	r3, r3, #268435456	; 0x10000000
 8001228:	9301      	str	r3, [sp, #4]

  /* System interrupt init*/
  /* PendSV_IRQn interrupt configuration */
  HAL_NVIC_SetPriority(PendSV_IRQn, 15, 0);
 800122a:	4622      	mov	r2, r4
 800122c:	210f      	movs	r1, #15
 800122e:	f06f 0001 	mvn.w	r0, #1
  __HAL_RCC_PWR_CLK_ENABLE();
 8001232:	9b01      	ldr	r3, [sp, #4]
  HAL_NVIC_SetPriority(PendSV_IRQn, 15, 0);
 8001234:	f000 f9ec 	bl	8001610 <HAL_NVIC_SetPriority>

  /* Peripheral interrupt init */
  /* FPU_IRQn interrupt configuration */
  HAL_NVIC_SetPriority(FPU_IRQn, 5, 0);
 8001238:	4622      	mov	r2, r4
 800123a:	2105      	movs	r1, #5
 800123c:	2051      	movs	r0, #81	; 0x51
 800123e:	f000 f9e7 	bl	8001610 <HAL_NVIC_SetPriority>
  HAL_NVIC_EnableIRQ(FPU_IRQn);
 8001242:	2051      	movs	r0, #81	; 0x51

  /* USER CODE BEGIN MspInit 1 */

  /* USER CODE END MspInit 1 */
}
 8001244:	b002      	add	sp, #8
 8001246:	e8bd 4010 	ldmia.w	sp!, {r4, lr}
  HAL_NVIC_EnableIRQ(FPU_IRQn);
 800124a:	f000 ba19 	b.w	8001680 <HAL_NVIC_EnableIRQ>
 800124e:	bf00      	nop
 8001250:	40023800 	.word	0x40023800

08001254 <HAL_InitTick>:
  *         reset by HAL_Init() or at any time when clock is configured, by HAL_RCC_ClockConfig().
  * @param  TickPriority: Tick interrupt priority.
  * @retval HAL status
  */
HAL_StatusTypeDef HAL_InitTick(uint32_t TickPriority)
{
 8001254:	b530      	push	{r4, r5, lr}
 8001256:	4601      	mov	r1, r0
 8001258:	b089      	sub	sp, #36	; 0x24
  RCC_ClkInitTypeDef    clkconfig;
  uint32_t              uwTimclock = 0;
  uint32_t              uwPrescalerValue = 0;
  uint32_t              pFLatency;
  /*Configure the TIM1 IRQ priority */
  HAL_NVIC_SetPriority(TIM1_UP_TIM10_IRQn, TickPriority ,0);
 800125a:	2200      	movs	r2, #0
 800125c:	2019      	movs	r0, #25
 800125e:	f000 f9d7 	bl	8001610 <HAL_NVIC_SetPriority>

  /* Enable the TIM1 global Interrupt */
  HAL_NVIC_EnableIRQ(TIM1_UP_TIM10_IRQn);
 8001262:	2019      	movs	r0, #25
 8001264:	f000 fa0c 	bl	8001680 <HAL_NVIC_EnableIRQ>

  /* Enable TIM1 clock */
  __HAL_RCC_TIM1_CLK_ENABLE();
 8001268:	2500      	movs	r5, #0
 800126a:	4b15      	ldr	r3, [pc, #84]	; (80012c0 <HAL_InitTick+0x6c>)
 800126c:	9502      	str	r5, [sp, #8]
 800126e:	6c5a      	ldr	r2, [r3, #68]	; 0x44
  uwTimclock = HAL_RCC_GetPCLK2Freq();
  /* Compute the prescaler value to have TIM1 counter clock equal to 1MHz */
  uwPrescalerValue = (uint32_t) ((uwTimclock / 1000000U) - 1U);

  /* Initialize TIM1 */
  htim1.Instance = TIM1;
 8001270:	4c14      	ldr	r4, [pc, #80]	; (80012c4 <HAL_InitTick+0x70>)
  __HAL_RCC_TIM1_CLK_ENABLE();
 8001272:	f042 0201 	orr.w	r2, r2, #1
 8001276:	645a      	str	r2, [r3, #68]	; 0x44
 8001278:	6c5b      	ldr	r3, [r3, #68]	; 0x44
 800127a:	f003 0301 	and.w	r3, r3, #1
  HAL_RCC_GetClockConfig(&clkconfig, &pFLatency);
 800127e:	a901      	add	r1, sp, #4
  __HAL_RCC_TIM1_CLK_ENABLE();
 8001280:	9302      	str	r3, [sp, #8]
  HAL_RCC_GetClockConfig(&clkconfig, &pFLatency);
 8001282:	a803      	add	r0, sp, #12
  __HAL_RCC_TIM1_CLK_ENABLE();
 8001284:	9b02      	ldr	r3, [sp, #8]
  HAL_RCC_GetClockConfig(&clkconfig, &pFLatency);
 8001286:	f002 fa61 	bl	800374c <HAL_RCC_GetClockConfig>
  uwTimclock = HAL_RCC_GetPCLK2Freq();
 800128a:	f002 fa4f 	bl	800372c <HAL_RCC_GetPCLK2Freq>
  uwPrescalerValue = (uint32_t) ((uwTimclock / 1000000U) - 1U);
 800128e:	4b0e      	ldr	r3, [pc, #56]	; (80012c8 <HAL_InitTick+0x74>)
  htim1.Instance = TIM1;
 8001290:	490e      	ldr	r1, [pc, #56]	; (80012cc <HAL_InitTick+0x78>)
  + ClockDivision = 0
  + Counter direction = Up
  */
  htim1.Init.Period = (1000000U / 1000U) - 1U;
  htim1.Init.Prescaler = uwPrescalerValue;
  htim1.Init.ClockDivision = 0;
 8001292:	6125      	str	r5, [r4, #16]
  uwPrescalerValue = (uint32_t) ((uwTimclock / 1000000U) - 1U);
 8001294:	fba3 3000 	umull	r3, r0, r3, r0
 8001298:	0c83      	lsrs	r3, r0, #18
 800129a:	3b01      	subs	r3, #1
  htim1.Init.Period = (1000000U / 1000U) - 1U;
 800129c:	f240 32e7 	movw	r2, #999	; 0x3e7
  htim1.Init.CounterMode = TIM_COUNTERMODE_UP;

  if(HAL_TIM_Base_Init(&htim1) == HAL_OK)
 80012a0:	4620      	mov	r0, r4
  htim1.Init.CounterMode = TIM_COUNTERMODE_UP;
 80012a2:	e9c4 3501 	strd	r3, r5, [r4, #4]
  htim1.Instance = TIM1;
 80012a6:	6021      	str	r1, [r4, #0]
  htim1.Init.Period = (1000000U / 1000U) - 1U;
 80012a8:	60e2      	str	r2, [r4, #12]
  if(HAL_TIM_Base_Init(&htim1) == HAL_OK)
 80012aa:	f002 fba5 	bl	80039f8 <HAL_TIM_Base_Init>
 80012ae:	b110      	cbz	r0, 80012b6 <HAL_InitTick+0x62>
    /* Start the TIM time Base generation in interrupt mode */
    return HAL_TIM_Base_Start_IT(&htim1);
  }

  /* Return function status */
  return HAL_ERROR;
 80012b0:	2001      	movs	r0, #1
}
 80012b2:	b009      	add	sp, #36	; 0x24
 80012b4:	bd30      	pop	{r4, r5, pc}
    return HAL_TIM_Base_Start_IT(&htim1);
 80012b6:	4620      	mov	r0, r4
 80012b8:	f002 fc1c 	bl	8003af4 <HAL_TIM_Base_Start_IT>
}
 80012bc:	b009      	add	sp, #36	; 0x24
 80012be:	bd30      	pop	{r4, r5, pc}
 80012c0:	40023800 	.word	0x40023800
 80012c4:	20004c94 	.word	0x20004c94
 80012c8:	431bde83 	.word	0x431bde83
 80012cc:	40010000 	.word	0x40010000

080012d0 <NMI_Handler>:
{
  /* USER CODE BEGIN NonMaskableInt_IRQn 0 */

  /* USER CODE END NonMaskableInt_IRQn 0 */
  /* USER CODE BEGIN NonMaskableInt_IRQn 1 */
  while (1)
 80012d0:	e7fe      	b.n	80012d0 <NMI_Handler>
 80012d2:	bf00      	nop

080012d4 <HardFault_Handler>:
void HardFault_Handler(void)
{
  /* USER CODE BEGIN HardFault_IRQn 0 */

  /* USER CODE END HardFault_IRQn 0 */
  while (1)
 80012d4:	e7fe      	b.n	80012d4 <HardFault_Handler>
 80012d6:	bf00      	nop

080012d8 <MemManage_Handler>:
void MemManage_Handler(void)
{
  /* USER CODE BEGIN MemoryManagement_IRQn 0 */

  /* USER CODE END MemoryManagement_IRQn 0 */
  while (1)
 80012d8:	e7fe      	b.n	80012d8 <MemManage_Handler>
 80012da:	bf00      	nop

080012dc <BusFault_Handler>:
void BusFault_Handler(void)
{
  /* USER CODE BEGIN BusFault_IRQn 0 */

  /* USER CODE END BusFault_IRQn 0 */
  while (1)
 80012dc:	e7fe      	b.n	80012dc <BusFault_Handler>
 80012de:	bf00      	nop

080012e0 <UsageFault_Handler>:
void UsageFault_Handler(void)
{
  /* USER CODE BEGIN UsageFault_IRQn 0 */

  /* USER CODE END UsageFault_IRQn 0 */
  while (1)
 80012e0:	e7fe      	b.n	80012e0 <UsageFault_Handler>
 80012e2:	bf00      	nop

080012e4 <DebugMon_Handler>:

  /* USER CODE END DebugMonitor_IRQn 0 */
  /* USER CODE BEGIN DebugMonitor_IRQn 1 */

  /* USER CODE END DebugMonitor_IRQn 1 */
}
 80012e4:	4770      	bx	lr
 80012e6:	bf00      	nop

080012e8 <EXTI0_IRQHandler>:
void EXTI0_IRQHandler(void)
{
  /* USER CODE BEGIN EXTI0_IRQn 0 */

  /* USER CODE END EXTI0_IRQn 0 */
  HAL_GPIO_EXTI_IRQHandler(GPIO_PIN_0);
 80012e8:	2001      	movs	r0, #1
 80012ea:	f000 bb67 	b.w	80019bc <HAL_GPIO_EXTI_IRQHandler>
 80012ee:	bf00      	nop

080012f0 <TIM1_UP_TIM10_IRQHandler>:
void TIM1_UP_TIM10_IRQHandler(void)
{
  /* USER CODE BEGIN TIM1_UP_TIM10_IRQn 0 */

  /* USER CODE END TIM1_UP_TIM10_IRQn 0 */
  HAL_TIM_IRQHandler(&htim1);
 80012f0:	4801      	ldr	r0, [pc, #4]	; (80012f8 <TIM1_UP_TIM10_IRQHandler+0x8>)
 80012f2:	f002 bf29 	b.w	8004148 <HAL_TIM_IRQHandler>
 80012f6:	bf00      	nop
 80012f8:	20004c94 	.word	0x20004c94

080012fc <OTG_FS_IRQHandler>:
void OTG_FS_IRQHandler(void)
{
  /* USER CODE BEGIN OTG_FS_IRQn 0 */

  /* USER CODE END OTG_FS_IRQn 0 */
  HAL_HCD_IRQHandler(&hhcd_USB_OTG_FS);
 80012fc:	4801      	ldr	r0, [pc, #4]	; (8001304 <OTG_FS_IRQHandler+0x8>)
 80012fe:	f000 bbc5 	b.w	8001a8c <HAL_HCD_IRQHandler>
 8001302:	bf00      	nop
 8001304:	20004d24 	.word	0x20004d24

08001308 <FPU_IRQHandler>:
 8001308:	4770      	bx	lr
 800130a:	bf00      	nop

0800130c <SystemInit>:
  */
void SystemInit(void)
{
  /* FPU settings ------------------------------------------------------------*/
  #if (__FPU_PRESENT == 1) && (__FPU_USED == 1)
    SCB->CPACR |= ((3UL << 10*2)|(3UL << 11*2));  /* set CP10 and CP11 Full Access */
 800130c:	4a03      	ldr	r2, [pc, #12]	; (800131c <SystemInit+0x10>)
 800130e:	f8d2 3088 	ldr.w	r3, [r2, #136]	; 0x88
 8001312:	f443 0370 	orr.w	r3, r3, #15728640	; 0xf00000
 8001316:	f8c2 3088 	str.w	r3, [r2, #136]	; 0x88

  /* Configure the Vector Table location -------------------------------------*/
#if defined(USER_VECT_TAB_ADDRESS)
  SCB->VTOR = VECT_TAB_BASE_ADDRESS | VECT_TAB_OFFSET; /* Vector Table Relocation in Internal SRAM */
#endif /* USER_VECT_TAB_ADDRESS */
}
 800131a:	4770      	bx	lr
 800131c:	e000ed00 	.word	0xe000ed00

08001320 <MX_TIM4_Init>:

TIM_HandleTypeDef htim4;

/* TIM4 init function */
void MX_TIM4_Init(void)
{
 8001320:	b5f0      	push	{r4, r5, r6, r7, lr}
  TIM_OC_InitTypeDef sConfigOC = {0};

  /* USER CODE BEGIN TIM4_Init 1 */

  /* USER CODE END TIM4_Init 1 */
  htim4.Instance = TIM4;
 8001322:	4c3b      	ldr	r4, [pc, #236]	; (8001410 <MX_TIM4_Init+0xf0>)
 8001324:	4b3b      	ldr	r3, [pc, #236]	; (8001414 <MX_TIM4_Init+0xf4>)
 8001326:	6023      	str	r3, [r4, #0]
{
 8001328:	b097      	sub	sp, #92	; 0x5c
  htim4.Init.Prescaler = 47;
 800132a:	232f      	movs	r3, #47	; 0x2f
  htim4.Init.CounterMode = TIM_COUNTERMODE_UP;
  htim4.Init.Period = 100;
 800132c:	2264      	movs	r2, #100	; 0x64
  htim4.Init.Prescaler = 47;
 800132e:	6063      	str	r3, [r4, #4]
  htim4.Init.ClockDivision = TIM_CLOCKDIVISION_DIV1;
  htim4.Init.AutoReloadPreload = TIM_AUTORELOAD_PRELOAD_DISABLE;
  if (HAL_TIM_Base_Init(&htim4) != HAL_OK)
 8001330:	4620      	mov	r0, r4
  TIM_ClockConfigTypeDef sClockSourceConfig = {0};
 8001332:	2300      	movs	r3, #0
  htim4.Init.CounterMode = TIM_COUNTERMODE_UP;
 8001334:	e9c4 3202 	strd	r3, r2, [r4, #8]
  TIM_ClockConfigTypeDef sClockSourceConfig = {0};
 8001338:	e9cd 3305 	strd	r3, r3, [sp, #20]
  TIM_OC_InitTypeDef sConfigOC = {0};
 800133c:	e9cd 330f 	strd	r3, r3, [sp, #60]	; 0x3c
 8001340:	e9cd 3311 	strd	r3, r3, [sp, #68]	; 0x44
 8001344:	e9cd 3313 	strd	r3, r3, [sp, #76]	; 0x4c
  TIM_ClockConfigTypeDef sClockSourceConfig = {0};
 8001348:	9304      	str	r3, [sp, #16]
  TIM_MasterConfigTypeDef sMasterConfig = {0};
 800134a:	9302      	str	r3, [sp, #8]
  TIM_OC_InitTypeDef sConfigOC = {0};
 800134c:	930e      	str	r3, [sp, #56]	; 0x38
  htim4.Init.ClockDivision = TIM_CLOCKDIVISION_DIV1;
 800134e:	6123      	str	r3, [r4, #16]
  htim4.Init.AutoReloadPreload = TIM_AUTORELOAD_PRELOAD_DISABLE;
 8001350:	61a3      	str	r3, [r4, #24]
  TIM_ClockConfigTypeDef sClockSourceConfig = {0};
 8001352:	9307      	str	r3, [sp, #28]
  TIM_MasterConfigTypeDef sMasterConfig = {0};
 8001354:	9303      	str	r3, [sp, #12]
  if (HAL_TIM_Base_Init(&htim4) != HAL_OK)
 8001356:	f002 fb4f 	bl	80039f8 <HAL_TIM_Base_Init>
 800135a:	bb60      	cbnz	r0, 80013b6 <MX_TIM4_Init+0x96>
  {
    Error_Handler();
  }
  sClockSourceConfig.ClockSource = TIM_CLOCKSOURCE_INTERNAL;
 800135c:	f44f 5380 	mov.w	r3, #4096	; 0x1000
  if (HAL_TIM_ConfigClockSource(&htim4, &sClockSourceConfig) != HAL_OK)
 8001360:	482b      	ldr	r0, [pc, #172]	; (8001410 <MX_TIM4_Init+0xf0>)
  sClockSourceConfig.ClockSource = TIM_CLOCKSOURCE_INTERNAL;
 8001362:	9304      	str	r3, [sp, #16]
  if (HAL_TIM_ConfigClockSource(&htim4, &sClockSourceConfig) != HAL_OK)
 8001364:	a904      	add	r1, sp, #16
 8001366:	f002 fe37 	bl	8003fd8 <HAL_TIM_ConfigClockSource>
 800136a:	bb80      	cbnz	r0, 80013ce <MX_TIM4_Init+0xae>
  {
    Error_Handler();
  }
  if (HAL_TIM_PWM_Init(&htim4) != HAL_OK)
 800136c:	4828      	ldr	r0, [pc, #160]	; (8001410 <MX_TIM4_Init+0xf0>)
 800136e:	f002 fbf7 	bl	8003b60 <HAL_TIM_PWM_Init>
 8001372:	bb48      	cbnz	r0, 80013c8 <MX_TIM4_Init+0xa8>
  {
    Error_Handler();
  }
  sMasterConfig.MasterOutputTrigger = TIM_TRGO_RESET;
 8001374:	2200      	movs	r2, #0
 8001376:	2300      	movs	r3, #0
  sMasterConfig.MasterSlaveMode = TIM_MASTERSLAVEMODE_DISABLE;
  if (HAL_TIMEx_MasterConfigSynchronization(&htim4, &sMasterConfig) != HAL_OK)
 8001378:	4825      	ldr	r0, [pc, #148]	; (8001410 <MX_TIM4_Init+0xf0>)
 800137a:	a902      	add	r1, sp, #8
  sMasterConfig.MasterOutputTrigger = TIM_TRGO_RESET;
 800137c:	e9cd 2302 	strd	r2, r3, [sp, #8]
  if (HAL_TIMEx_MasterConfigSynchronization(&htim4, &sMasterConfig) != HAL_OK)
 8001380:	f002 ff8c 	bl	800429c <HAL_TIMEx_MasterConfigSynchronization>
 8001384:	b9e8      	cbnz	r0, 80013c2 <MX_TIM4_Init+0xa2>
  {
    Error_Handler();
  }
  sConfigOC.OCMode = TIM_OCMODE_PWM1;
  sConfigOC.Pulse = 0;
  sConfigOC.OCPolarity = TIM_OCPOLARITY_HIGH;
 8001386:	2200      	movs	r2, #0
  sConfigOC.OCMode = TIM_OCMODE_PWM1;
 8001388:	2660      	movs	r6, #96	; 0x60
 800138a:	2700      	movs	r7, #0
  sConfigOC.OCFastMode = TIM_OCFAST_DISABLE;
  if (HAL_TIM_PWM_ConfigChannel(&htim4, &sConfigOC, TIM_CHANNEL_1) != HAL_OK)
 800138c:	4820      	ldr	r0, [pc, #128]	; (8001410 <MX_TIM4_Init+0xf0>)
  sConfigOC.OCPolarity = TIM_OCPOLARITY_HIGH;
 800138e:	9210      	str	r2, [sp, #64]	; 0x40
  if (HAL_TIM_PWM_ConfigChannel(&htim4, &sConfigOC, TIM_CHANNEL_1) != HAL_OK)
 8001390:	a90e      	add	r1, sp, #56	; 0x38
  sConfigOC.OCMode = TIM_OCMODE_PWM1;
 8001392:	e9cd 670e 	strd	r6, r7, [sp, #56]	; 0x38
  sConfigOC.OCFastMode = TIM_OCFAST_DISABLE;
 8001396:	9212      	str	r2, [sp, #72]	; 0x48
  if (HAL_TIM_PWM_ConfigChannel(&htim4, &sConfigOC, TIM_CHANNEL_1) != HAL_OK)
 8001398:	f002 fd0e 	bl	8003db8 <HAL_TIM_PWM_ConfigChannel>
 800139c:	b970      	cbnz	r0, 80013bc <MX_TIM4_Init+0x9c>
}
void HAL_TIM_MspPostInit(TIM_HandleTypeDef* timHandle)
{

  GPIO_InitTypeDef GPIO_InitStruct = {0};
  if(timHandle->Instance==TIM4)
 800139e:	6821      	ldr	r1, [r4, #0]
 80013a0:	4a1c      	ldr	r2, [pc, #112]	; (8001414 <MX_TIM4_Init+0xf4>)
  GPIO_InitTypeDef GPIO_InitStruct = {0};
 80013a2:	2300      	movs	r3, #0
  if(timHandle->Instance==TIM4)
 80013a4:	4291      	cmp	r1, r2
  GPIO_InitTypeDef GPIO_InitStruct = {0};
 80013a6:	e9cd 3308 	strd	r3, r3, [sp, #32]
 80013aa:	e9cd 330a 	strd	r3, r3, [sp, #40]	; 0x28
 80013ae:	930c      	str	r3, [sp, #48]	; 0x30
  if(timHandle->Instance==TIM4)
 80013b0:	d010      	beq.n	80013d4 <MX_TIM4_Init+0xb4>
}
 80013b2:	b017      	add	sp, #92	; 0x5c
 80013b4:	bdf0      	pop	{r4, r5, r6, r7, pc}
    Error_Handler();
 80013b6:	f7ff fec5 	bl	8001144 <Error_Handler>
 80013ba:	e7cf      	b.n	800135c <MX_TIM4_Init+0x3c>
    Error_Handler();
 80013bc:	f7ff fec2 	bl	8001144 <Error_Handler>
 80013c0:	e7ed      	b.n	800139e <MX_TIM4_Init+0x7e>
    Error_Handler();
 80013c2:	f7ff febf 	bl	8001144 <Error_Handler>
 80013c6:	e7de      	b.n	8001386 <MX_TIM4_Init+0x66>
    Error_Handler();
 80013c8:	f7ff febc 	bl	8001144 <Error_Handler>
 80013cc:	e7d2      	b.n	8001374 <MX_TIM4_Init+0x54>
    Error_Handler();
 80013ce:	f7ff feb9 	bl	8001144 <Error_Handler>
 80013d2:	e7cb      	b.n	800136c <MX_TIM4_Init+0x4c>
  {
  /* USER CODE BEGIN TIM4_MspPostInit 0 */

  /* USER CODE END TIM4_MspPostInit 0 */

    __HAL_RCC_GPIOD_CLK_ENABLE();
 80013d4:	f502 320c 	add.w	r2, r2, #143360	; 0x23000
 80013d8:	9301      	str	r3, [sp, #4]
 80013da:	6b13      	ldr	r3, [r2, #48]	; 0x30
    GPIO_InitStruct.Pin = GPIO_PIN_12;
    GPIO_InitStruct.Mode = GPIO_MODE_AF_PP;
    GPIO_InitStruct.Pull = GPIO_NOPULL;
    GPIO_InitStruct.Speed = GPIO_SPEED_FREQ_LOW;
    GPIO_InitStruct.Alternate = GPIO_AF2_TIM4;
    HAL_GPIO_Init(GPIOD, &GPIO_InitStruct);
 80013dc:	480e      	ldr	r0, [pc, #56]	; (8001418 <MX_TIM4_Init+0xf8>)
    __HAL_RCC_GPIOD_CLK_ENABLE();
 80013de:	f043 0308 	orr.w	r3, r3, #8
 80013e2:	6313      	str	r3, [r2, #48]	; 0x30
 80013e4:	6b13      	ldr	r3, [r2, #48]	; 0x30
 80013e6:	f003 0308 	and.w	r3, r3, #8
 80013ea:	9301      	str	r3, [sp, #4]
    GPIO_InitStruct.Alternate = GPIO_AF2_TIM4;
 80013ec:	2302      	movs	r3, #2
    __HAL_RCC_GPIOD_CLK_ENABLE();
 80013ee:	9a01      	ldr	r2, [sp, #4]
    GPIO_InitStruct.Alternate = GPIO_AF2_TIM4;
 80013f0:	930c      	str	r3, [sp, #48]	; 0x30
    GPIO_InitStruct.Pin = GPIO_PIN_12;
 80013f2:	2200      	movs	r2, #0
 80013f4:	2300      	movs	r3, #0
    HAL_GPIO_Init(GPIOD, &GPIO_InitStruct);
 80013f6:	a908      	add	r1, sp, #32
    GPIO_InitStruct.Pin = GPIO_PIN_12;
 80013f8:	f44f 5480 	mov.w	r4, #4096	; 0x1000
 80013fc:	2502      	movs	r5, #2
 80013fe:	e9cd 4508 	strd	r4, r5, [sp, #32]
 8001402:	e9cd 230a 	strd	r2, r3, [sp, #40]	; 0x28
    HAL_GPIO_Init(GPIOD, &GPIO_InitStruct);
 8001406:	f000 f949 	bl	800169c <HAL_GPIO_Init>
}
 800140a:	b017      	add	sp, #92	; 0x5c
 800140c:	bdf0      	pop	{r4, r5, r6, r7, pc}
 800140e:	bf00      	nop
 8001410:	20004cdc 	.word	0x20004cdc
 8001414:	40000800 	.word	0x40000800
 8001418:	40020c00 	.word	0x40020c00

0800141c <HAL_TIM_Base_MspInit>:
  if(tim_baseHandle->Instance==TIM4)
 800141c:	4b0a      	ldr	r3, [pc, #40]	; (8001448 <HAL_TIM_Base_MspInit+0x2c>)
 800141e:	6802      	ldr	r2, [r0, #0]
 8001420:	429a      	cmp	r2, r3
 8001422:	d000      	beq.n	8001426 <HAL_TIM_Base_MspInit+0xa>
 8001424:	4770      	bx	lr
{
 8001426:	b082      	sub	sp, #8
    __HAL_RCC_TIM4_CLK_ENABLE();
 8001428:	f503 330c 	add.w	r3, r3, #143360	; 0x23000
 800142c:	2200      	movs	r2, #0
 800142e:	9201      	str	r2, [sp, #4]
 8001430:	6c1a      	ldr	r2, [r3, #64]	; 0x40
 8001432:	f042 0204 	orr.w	r2, r2, #4
 8001436:	641a      	str	r2, [r3, #64]	; 0x40
 8001438:	6c1b      	ldr	r3, [r3, #64]	; 0x40
 800143a:	f003 0304 	and.w	r3, r3, #4
 800143e:	9301      	str	r3, [sp, #4]
 8001440:	9b01      	ldr	r3, [sp, #4]
}
 8001442:	b002      	add	sp, #8
 8001444:	4770      	bx	lr
 8001446:	bf00      	nop
 8001448:	40000800 	.word	0x40000800

0800144c <MX_USB_OTG_FS_HCD_Init>:
  /* USER CODE END USB_OTG_FS_Init 0 */

  /* USER CODE BEGIN USB_OTG_FS_Init 1 */

  /* USER CODE END USB_OTG_FS_Init 1 */
  hhcd_USB_OTG_FS.Instance = USB_OTG_FS;
 800144c:	480a      	ldr	r0, [pc, #40]	; (8001478 <MX_USB_OTG_FS_HCD_Init+0x2c>)
 800144e:	f04f 43a0 	mov.w	r3, #1342177280	; 0x50000000
{
 8001452:	b510      	push	{r4, lr}
  hhcd_USB_OTG_FS.Init.Host_channels = 8;
  hhcd_USB_OTG_FS.Init.speed = HCD_SPEED_FULL;
 8001454:	2101      	movs	r1, #1
  hhcd_USB_OTG_FS.Init.Host_channels = 8;
 8001456:	2408      	movs	r4, #8
  hhcd_USB_OTG_FS.Init.dma_enable = DISABLE;
  hhcd_USB_OTG_FS.Init.phy_itface = HCD_PHY_EMBEDDED;
 8001458:	2202      	movs	r2, #2
  hhcd_USB_OTG_FS.Instance = USB_OTG_FS;
 800145a:	6003      	str	r3, [r0, #0]
  hhcd_USB_OTG_FS.Init.dma_enable = DISABLE;
 800145c:	2300      	movs	r3, #0
  hhcd_USB_OTG_FS.Init.speed = HCD_SPEED_FULL;
 800145e:	e9c0 4102 	strd	r4, r1, [r0, #8]
  hhcd_USB_OTG_FS.Init.phy_itface = HCD_PHY_EMBEDDED;
 8001462:	6182      	str	r2, [r0, #24]
  hhcd_USB_OTG_FS.Init.dma_enable = DISABLE;
 8001464:	6103      	str	r3, [r0, #16]
  hhcd_USB_OTG_FS.Init.Sof_enable = DISABLE;
 8001466:	61c3      	str	r3, [r0, #28]
  if (HAL_HCD_Init(&hhcd_USB_OTG_FS) != HAL_OK)
 8001468:	f000 fab4 	bl	80019d4 <HAL_HCD_Init>
 800146c:	b900      	cbnz	r0, 8001470 <MX_USB_OTG_FS_HCD_Init+0x24>
  }
  /* USER CODE BEGIN USB_OTG_FS_Init 2 */

  /* USER CODE END USB_OTG_FS_Init 2 */

}
 800146e:	bd10      	pop	{r4, pc}
 8001470:	e8bd 4010 	ldmia.w	sp!, {r4, lr}
    Error_Handler();
 8001474:	f7ff be66 	b.w	8001144 <Error_Handler>
 8001478:	20004d24 	.word	0x20004d24

0800147c <HAL_HCD_MspInit>:

void HAL_HCD_MspInit(HCD_HandleTypeDef* hcdHandle)
{
 800147c:	b5f0      	push	{r4, r5, r6, r7, lr}

  GPIO_InitTypeDef GPIO_InitStruct = {0};
  if(hcdHandle->Instance==USB_OTG_FS)
 800147e:	6803      	ldr	r3, [r0, #0]
{
 8001480:	b089      	sub	sp, #36	; 0x24
  GPIO_InitTypeDef GPIO_InitStruct = {0};
 8001482:	2400      	movs	r4, #0
  if(hcdHandle->Instance==USB_OTG_FS)
 8001484:	f1b3 4fa0 	cmp.w	r3, #1342177280	; 0x50000000
  GPIO_InitTypeDef GPIO_InitStruct = {0};
 8001488:	e9cd 4402 	strd	r4, r4, [sp, #8]
 800148c:	e9cd 4404 	strd	r4, r4, [sp, #16]
 8001490:	9406      	str	r4, [sp, #24]
  if(hcdHandle->Instance==USB_OTG_FS)
 8001492:	d001      	beq.n	8001498 <HAL_HCD_MspInit+0x1c>
    HAL_NVIC_EnableIRQ(OTG_FS_IRQn);
  /* USER CODE BEGIN USB_OTG_FS_MspInit 1 */

  /* USER CODE END USB_OTG_FS_MspInit 1 */
  }
}
 8001494:	b009      	add	sp, #36	; 0x24
 8001496:	bdf0      	pop	{r4, r5, r6, r7, pc}
    __HAL_RCC_GPIOA_CLK_ENABLE();
 8001498:	4d1d      	ldr	r5, [pc, #116]	; (8001510 <HAL_HCD_MspInit+0x94>)
 800149a:	9400      	str	r4, [sp, #0]
 800149c:	6b2b      	ldr	r3, [r5, #48]	; 0x30
    HAL_GPIO_Init(VBUS_FS_GPIO_Port, &GPIO_InitStruct);
 800149e:	481d      	ldr	r0, [pc, #116]	; (8001514 <HAL_HCD_MspInit+0x98>)
    __HAL_RCC_GPIOA_CLK_ENABLE();
 80014a0:	f043 0301 	orr.w	r3, r3, #1
 80014a4:	632b      	str	r3, [r5, #48]	; 0x30
 80014a6:	6b2b      	ldr	r3, [r5, #48]	; 0x30
    GPIO_InitStruct.Pull = GPIO_NOPULL;
 80014a8:	9404      	str	r4, [sp, #16]
    __HAL_RCC_GPIOA_CLK_ENABLE();
 80014aa:	f003 0301 	and.w	r3, r3, #1
 80014ae:	9300      	str	r3, [sp, #0]
    GPIO_InitStruct.Pin = VBUS_FS_Pin;
 80014b0:	f44f 7200 	mov.w	r2, #512	; 0x200
    __HAL_RCC_GPIOA_CLK_ENABLE();
 80014b4:	9900      	ldr	r1, [sp, #0]
    GPIO_InitStruct.Pin = VBUS_FS_Pin;
 80014b6:	2300      	movs	r3, #0
    HAL_GPIO_Init(VBUS_FS_GPIO_Port, &GPIO_InitStruct);
 80014b8:	a902      	add	r1, sp, #8
    GPIO_InitStruct.Pin = OTG_FS_ID_Pin|OTG_FS_DM_Pin|OTG_FS_DP_Pin;
 80014ba:	f44f 56e0 	mov.w	r6, #7168	; 0x1c00
 80014be:	2702      	movs	r7, #2
    GPIO_InitStruct.Pin = VBUS_FS_Pin;
 80014c0:	e9cd 2302 	strd	r2, r3, [sp, #8]
    HAL_GPIO_Init(VBUS_FS_GPIO_Port, &GPIO_InitStruct);
 80014c4:	f000 f8ea 	bl	800169c <HAL_GPIO_Init>
    GPIO_InitStruct.Pin = OTG_FS_ID_Pin|OTG_FS_DM_Pin|OTG_FS_DP_Pin;
 80014c8:	e9cd 6702 	strd	r6, r7, [sp, #8]
    HAL_GPIO_Init(GPIOA, &GPIO_InitStruct);
 80014cc:	a902      	add	r1, sp, #8
    GPIO_InitStruct.Alternate = GPIO_AF10_OTG_FS;
 80014ce:	230a      	movs	r3, #10
    HAL_GPIO_Init(GPIOA, &GPIO_InitStruct);
 80014d0:	4810      	ldr	r0, [pc, #64]	; (8001514 <HAL_HCD_MspInit+0x98>)
    GPIO_InitStruct.Alternate = GPIO_AF10_OTG_FS;
 80014d2:	9306      	str	r3, [sp, #24]
    GPIO_InitStruct.Pin = OTG_FS_ID_Pin|OTG_FS_DM_Pin|OTG_FS_DP_Pin;
 80014d4:	2600      	movs	r6, #0
 80014d6:	2703      	movs	r7, #3
 80014d8:	e9cd 6704 	strd	r6, r7, [sp, #16]
    HAL_GPIO_Init(GPIOA, &GPIO_InitStruct);
 80014dc:	f000 f8de 	bl	800169c <HAL_GPIO_Init>
    __HAL_RCC_USB_OTG_FS_CLK_ENABLE();
 80014e0:	6b6b      	ldr	r3, [r5, #52]	; 0x34
 80014e2:	f043 0380 	orr.w	r3, r3, #128	; 0x80
 80014e6:	636b      	str	r3, [r5, #52]	; 0x34
 80014e8:	9401      	str	r4, [sp, #4]
 80014ea:	6c6b      	ldr	r3, [r5, #68]	; 0x44
 80014ec:	f443 4380 	orr.w	r3, r3, #16384	; 0x4000
 80014f0:	646b      	str	r3, [r5, #68]	; 0x44
 80014f2:	6c6b      	ldr	r3, [r5, #68]	; 0x44
 80014f4:	f403 4380 	and.w	r3, r3, #16384	; 0x4000
    HAL_NVIC_SetPriority(OTG_FS_IRQn, 5, 0);
 80014f8:	4622      	mov	r2, r4
    __HAL_RCC_USB_OTG_FS_CLK_ENABLE();
 80014fa:	9301      	str	r3, [sp, #4]
    HAL_NVIC_SetPriority(OTG_FS_IRQn, 5, 0);
 80014fc:	2105      	movs	r1, #5
 80014fe:	2043      	movs	r0, #67	; 0x43
    __HAL_RCC_USB_OTG_FS_CLK_ENABLE();
 8001500:	9b01      	ldr	r3, [sp, #4]
    HAL_NVIC_SetPriority(OTG_FS_IRQn, 5, 0);
 8001502:	f000 f885 	bl	8001610 <HAL_NVIC_SetPriority>
    HAL_NVIC_EnableIRQ(OTG_FS_IRQn);
 8001506:	2043      	movs	r0, #67	; 0x43
 8001508:	f000 f8ba 	bl	8001680 <HAL_NVIC_EnableIRQ>
}
 800150c:	b009      	add	sp, #36	; 0x24
 800150e:	bdf0      	pop	{r4, r5, r6, r7, pc}
 8001510:	40023800 	.word	0x40023800
 8001514:	40020000 	.word	0x40020000

08001518 <Reset_Handler>:

    .section  .text.Reset_Handler
  .weak  Reset_Handler
  .type  Reset_Handler, %function
Reset_Handler:  
  ldr   sp, =_estack    		 /* set stack pointer */
 8001518:	f8df d034 	ldr.w	sp, [pc, #52]	; 8001550 <LoopFillZerobss+0x12>

/* Copy the data segment initializers from flash to SRAM */  
  ldr r0, =_sdata
 800151c:	480d      	ldr	r0, [pc, #52]	; (8001554 <LoopFillZerobss+0x16>)
  ldr r1, =_edata
 800151e:	490e      	ldr	r1, [pc, #56]	; (8001558 <LoopFillZerobss+0x1a>)
  ldr r2, =_sidata
 8001520:	4a0e      	ldr	r2, [pc, #56]	; (800155c <LoopFillZerobss+0x1e>)
  movs r3, #0
 8001522:	2300      	movs	r3, #0
  b LoopCopyDataInit
 8001524:	e002      	b.n	800152c <LoopCopyDataInit>

08001526 <CopyDataInit>:

CopyDataInit:
  ldr r4, [r2, r3]
 8001526:	58d4      	ldr	r4, [r2, r3]
  str r4, [r0, r3]
 8001528:	50c4      	str	r4, [r0, r3]
  adds r3, r3, #4
 800152a:	3304      	adds	r3, #4

0800152c <LoopCopyDataInit>:

LoopCopyDataInit:
  adds r4, r0, r3
 800152c:	18c4      	adds	r4, r0, r3
  cmp r4, r1
 800152e:	428c      	cmp	r4, r1
  bcc CopyDataInit
 8001530:	d3f9      	bcc.n	8001526 <CopyDataInit>
  
/* Zero fill the bss segment. */
  ldr r2, =_sbss
 8001532:	4a0b      	ldr	r2, [pc, #44]	; (8001560 <LoopFillZerobss+0x22>)
  ldr r4, =_ebss
 8001534:	4c0b      	ldr	r4, [pc, #44]	; (8001564 <LoopFillZerobss+0x26>)
  movs r3, #0
 8001536:	2300      	movs	r3, #0
  b LoopFillZerobss
 8001538:	e001      	b.n	800153e <LoopFillZerobss>

0800153a <FillZerobss>:

FillZerobss:
  str  r3, [r2]
 800153a:	6013      	str	r3, [r2, #0]
  adds r2, r2, #4
 800153c:	3204      	adds	r2, #4

0800153e <LoopFillZerobss>:

LoopFillZerobss:
  cmp r2, r4
 800153e:	42a2      	cmp	r2, r4
  bcc FillZerobss
 8001540:	d3fb      	bcc.n	800153a <FillZerobss>

/* Call the clock system intitialization function.*/
  bl  SystemInit   
 8001542:	f7ff fee3 	bl	800130c <SystemInit>
/* Call static constructors */
    bl __libc_init_array
 8001546:	f005 fd99 	bl	800707c <__libc_init_array>
/* Call the application's entry point.*/
  bl  main
 800154a:	f7ff fdcd 	bl	80010e8 <main>
  bx  lr    
 800154e:	4770      	bx	lr
  ldr   sp, =_estack    		 /* set stack pointer */
 8001550:	20020000 	.word	0x20020000
  ldr r0, =_sdata
 8001554:	20000000 	.word	0x20000000
  ldr r1, =_edata
 8001558:	200000e4 	.word	0x200000e4
  ldr r2, =_sidata
 800155c:	08007500 	.word	0x08007500
  ldr r2, =_sbss
 8001560:	200000e4 	.word	0x200000e4
  ldr r4, =_ebss
 8001564:	20005078 	.word	0x20005078

08001568 <ADC_IRQHandler>:
 * @retval None       
*/
    .section  .text.Default_Handler,"ax",%progbits
Default_Handler:
Infinite_Loop:
  b  Infinite_Loop
 8001568:	e7fe      	b.n	8001568 <ADC_IRQHandler>
	...

0800156c <HAL_Init>:
  *         need to ensure that the SysTick time base is always set to 1 millisecond
  *         to have correct HAL operation.
  * @retval HAL status
  */
HAL_StatusTypeDef HAL_Init(void)
{
 800156c:	b508      	push	{r3, lr}
  /* Configure Flash prefetch, Instruction cache, Data cache */ 
#if (INSTRUCTION_CACHE_ENABLE != 0U)
  __HAL_FLASH_INSTRUCTION_CACHE_ENABLE();
 800156e:	4b0b      	ldr	r3, [pc, #44]	; (800159c <HAL_Init+0x30>)
 8001570:	681a      	ldr	r2, [r3, #0]
 8001572:	f442 7200 	orr.w	r2, r2, #512	; 0x200
 8001576:	601a      	str	r2, [r3, #0]
#endif /* INSTRUCTION_CACHE_ENABLE */

#if (DATA_CACHE_ENABLE != 0U)
  __HAL_FLASH_DATA_CACHE_ENABLE();
 8001578:	681a      	ldr	r2, [r3, #0]
 800157a:	f442 6280 	orr.w	r2, r2, #1024	; 0x400
 800157e:	601a      	str	r2, [r3, #0]
#endif /* DATA_CACHE_ENABLE */

#if (PREFETCH_ENABLE != 0U)
  __HAL_FLASH_PREFETCH_BUFFER_ENABLE();
 8001580:	681a      	ldr	r2, [r3, #0]
 8001582:	f442 7280 	orr.w	r2, r2, #256	; 0x100
 8001586:	601a      	str	r2, [r3, #0]
#endif /* PREFETCH_ENABLE */

  /* Set Interrupt Group Priority */
  HAL_NVIC_SetPriorityGrouping(NVIC_PRIORITYGROUP_4);
 8001588:	2003      	movs	r0, #3
 800158a:	f000 f82d 	bl	80015e8 <HAL_NVIC_SetPriorityGrouping>

  /* Use systick as time base source and configure 1ms tick (default clock after Reset is HSI) */
  HAL_InitTick(TICK_INT_PRIORITY);
 800158e:	200f      	movs	r0, #15
 8001590:	f7ff fe60 	bl	8001254 <HAL_InitTick>

  /* Init the low level hardware */
  HAL_MspInit();
 8001594:	f7ff fe32 	bl	80011fc <HAL_MspInit>

  /* Return function status */
  return HAL_OK;
}
 8001598:	2000      	movs	r0, #0
 800159a:	bd08      	pop	{r3, pc}
 800159c:	40023c00 	.word	0x40023c00

080015a0 <HAL_IncTick>:
  *      implementations in user file.
  * @retval None
  */
__weak void HAL_IncTick(void)
{
  uwTick += uwTickFreq;
 80015a0:	4a03      	ldr	r2, [pc, #12]	; (80015b0 <HAL_IncTick+0x10>)
 80015a2:	4b04      	ldr	r3, [pc, #16]	; (80015b4 <HAL_IncTick+0x14>)
 80015a4:	6811      	ldr	r1, [r2, #0]
 80015a6:	781b      	ldrb	r3, [r3, #0]
 80015a8:	440b      	add	r3, r1
 80015aa:	6013      	str	r3, [r2, #0]
}
 80015ac:	4770      	bx	lr
 80015ae:	bf00      	nop
 80015b0:	20005028 	.word	0x20005028
 80015b4:	2000006c 	.word	0x2000006c

080015b8 <HAL_GetTick>:
  *       implementations in user file.
  * @retval tick value
  */
__weak uint32_t HAL_GetTick(void)
{
  return uwTick;
 80015b8:	4b01      	ldr	r3, [pc, #4]	; (80015c0 <HAL_GetTick+0x8>)
 80015ba:	6818      	ldr	r0, [r3, #0]
}
 80015bc:	4770      	bx	lr
 80015be:	bf00      	nop
 80015c0:	20005028 	.word	0x20005028

080015c4 <HAL_Delay>:
  *       implementations in user file.
  * @param Delay specifies the delay time length, in milliseconds.
  * @retval None
  */
__weak void HAL_Delay(uint32_t Delay)
{
 80015c4:	b538      	push	{r3, r4, r5, lr}
 80015c6:	4604      	mov	r4, r0
  uint32_t tickstart = HAL_GetTick();
 80015c8:	f7ff fff6 	bl	80015b8 <HAL_GetTick>
  uint32_t wait = Delay;

  /* Add a freq to guarantee minimum wait */
  if (wait < HAL_MAX_DELAY)
 80015cc:	1c63      	adds	r3, r4, #1
  uint32_t tickstart = HAL_GetTick();
 80015ce:	4605      	mov	r5, r0
  if (wait < HAL_MAX_DELAY)
 80015d0:	d002      	beq.n	80015d8 <HAL_Delay+0x14>
  {
    wait += (uint32_t)(uwTickFreq);
 80015d2:	4b04      	ldr	r3, [pc, #16]	; (80015e4 <HAL_Delay+0x20>)
 80015d4:	781b      	ldrb	r3, [r3, #0]
 80015d6:	441c      	add	r4, r3
  }

  while((HAL_GetTick() - tickstart) < wait)
 80015d8:	f7ff ffee 	bl	80015b8 <HAL_GetTick>
 80015dc:	1b43      	subs	r3, r0, r5
 80015de:	42a3      	cmp	r3, r4
 80015e0:	d3fa      	bcc.n	80015d8 <HAL_Delay+0x14>
  {
  }
}
 80015e2:	bd38      	pop	{r3, r4, r5, pc}
 80015e4:	2000006c 	.word	0x2000006c

080015e8 <HAL_NVIC_SetPriorityGrouping>:
__STATIC_INLINE void __NVIC_SetPriorityGrouping(uint32_t PriorityGroup)
{
  uint32_t reg_value;
  uint32_t PriorityGroupTmp = (PriorityGroup & (uint32_t)0x07UL);             /* only values 0..7 are used          */

  reg_value  =  SCB->AIRCR;                                                   /* read old register configuration    */
 80015e8:	4908      	ldr	r1, [pc, #32]	; (800160c <HAL_NVIC_SetPriorityGrouping+0x24>)
 80015ea:	68ca      	ldr	r2, [r1, #12]
  * @note   When the NVIC_PriorityGroup_0 is selected, IRQ preemption is no more possible. 
  *         The pending IRQ priority will be managed only by the subpriority. 
  * @retval None
  */
void HAL_NVIC_SetPriorityGrouping(uint32_t PriorityGroup)
{
 80015ec:	b410      	push	{r4}
  reg_value &= ~((uint32_t)(SCB_AIRCR_VECTKEY_Msk | SCB_AIRCR_PRIGROUP_Msk)); /* clear bits to change               */
  reg_value  =  (reg_value                                   |
                ((uint32_t)0x5FAUL << SCB_AIRCR_VECTKEY_Pos) |
                (PriorityGroupTmp << SCB_AIRCR_PRIGROUP_Pos)  );              /* Insert write key and priority group */
 80015ee:	0200      	lsls	r0, r0, #8
  reg_value &= ~((uint32_t)(SCB_AIRCR_VECTKEY_Msk | SCB_AIRCR_PRIGROUP_Msk)); /* clear bits to change               */
 80015f0:	f64f 04ff 	movw	r4, #63743	; 0xf8ff
 80015f4:	4022      	ands	r2, r4
                (PriorityGroupTmp << SCB_AIRCR_PRIGROUP_Pos)  );              /* Insert write key and priority group */
 80015f6:	f400 63e0 	and.w	r3, r0, #1792	; 0x700
                ((uint32_t)0x5FAUL << SCB_AIRCR_VECTKEY_Pos) |
 80015fa:	4313      	orrs	r3, r2
  reg_value  =  (reg_value                                   |
 80015fc:	f043 63bf 	orr.w	r3, r3, #100139008	; 0x5f80000
 8001600:	f443 3300 	orr.w	r3, r3, #131072	; 0x20000
  /* Check the parameters */
  assert_param(IS_NVIC_PRIORITY_GROUP(PriorityGroup));
  
  /* Set the PRIGROUP[10:8] bits according to the PriorityGroup parameter value */
  NVIC_SetPriorityGrouping(PriorityGroup);
}
 8001604:	f85d 4b04 	ldr.w	r4, [sp], #4
  SCB->AIRCR =  reg_value;
 8001608:	60cb      	str	r3, [r1, #12]
 800160a:	4770      	bx	lr
 800160c:	e000ed00 	.word	0xe000ed00

08001610 <HAL_NVIC_SetPriority>:
  \details Reads the priority grouping field from the NVIC Interrupt Controller.
  \return                Priority grouping field (SCB->AIRCR [10:8] PRIGROUP field).
 */
__STATIC_INLINE uint32_t __NVIC_GetPriorityGrouping(void)
{
  return ((uint32_t)((SCB->AIRCR & SCB_AIRCR_PRIGROUP_Msk) >> SCB_AIRCR_PRIGROUP_Pos));
 8001610:	4b19      	ldr	r3, [pc, #100]	; (8001678 <HAL_NVIC_SetPriority+0x68>)
 8001612:	68db      	ldr	r3, [r3, #12]
 8001614:	f3c3 2302 	ubfx	r3, r3, #8, #3
  *         This parameter can be a value between 0 and 15
  *         A lower priority value indicates a higher priority.          
  * @retval None
  */
void HAL_NVIC_SetPriority(IRQn_Type IRQn, uint32_t PreemptPriority, uint32_t SubPriority)
{ 
 8001618:	b430      	push	{r4, r5}
{
  uint32_t PriorityGroupTmp = (PriorityGroup & (uint32_t)0x07UL);   /* only values 0..7 are used          */
  uint32_t PreemptPriorityBits;
  uint32_t SubPriorityBits;

  PreemptPriorityBits = ((7UL - PriorityGroupTmp) > (uint32_t)(__NVIC_PRIO_BITS)) ? (uint32_t)(__NVIC_PRIO_BITS) : (uint32_t)(7UL - PriorityGroupTmp);
 800161a:	f1c3 0507 	rsb	r5, r3, #7
 800161e:	2d04      	cmp	r5, #4
  SubPriorityBits     = ((PriorityGroupTmp + (uint32_t)(__NVIC_PRIO_BITS)) < (uint32_t)7UL) ? (uint32_t)0UL : (uint32_t)((PriorityGroupTmp - 7UL) + (uint32_t)(__NVIC_PRIO_BITS));
 8001620:	f103 0404 	add.w	r4, r3, #4
  PreemptPriorityBits = ((7UL - PriorityGroupTmp) > (uint32_t)(__NVIC_PRIO_BITS)) ? (uint32_t)(__NVIC_PRIO_BITS) : (uint32_t)(7UL - PriorityGroupTmp);
 8001624:	bf28      	it	cs
 8001626:	2504      	movcs	r5, #4
  SubPriorityBits     = ((PriorityGroupTmp + (uint32_t)(__NVIC_PRIO_BITS)) < (uint32_t)7UL) ? (uint32_t)0UL : (uint32_t)((PriorityGroupTmp - 7UL) + (uint32_t)(__NVIC_PRIO_BITS));
 8001628:	2c06      	cmp	r4, #6
 800162a:	d919      	bls.n	8001660 <HAL_NVIC_SetPriority+0x50>
 800162c:	3b03      	subs	r3, #3
 800162e:	f04f 34ff 	mov.w	r4, #4294967295
 8001632:	409c      	lsls	r4, r3
 8001634:	ea22 0204 	bic.w	r2, r2, r4

  return (
           ((PreemptPriority & (uint32_t)((1UL << (PreemptPriorityBits)) - 1UL)) << SubPriorityBits) |
 8001638:	f04f 34ff 	mov.w	r4, #4294967295
 800163c:	40ac      	lsls	r4, r5
 800163e:	ea21 0104 	bic.w	r1, r1, r4
 8001642:	4099      	lsls	r1, r3
  if ((int32_t)(IRQn) >= 0)
 8001644:	2800      	cmp	r0, #0
           ((PreemptPriority & (uint32_t)((1UL << (PreemptPriorityBits)) - 1UL)) << SubPriorityBits) |
 8001646:	ea41 0102 	orr.w	r1, r1, r2
  if ((int32_t)(IRQn) >= 0)
 800164a:	db0c      	blt.n	8001666 <HAL_NVIC_SetPriority+0x56>
    NVIC->IP[((uint32_t)IRQn)]               = (uint8_t)((priority << (8U - __NVIC_PRIO_BITS)) & (uint32_t)0xFFUL);
 800164c:	f100 4060 	add.w	r0, r0, #3758096384	; 0xe0000000
 8001650:	f500 4061 	add.w	r0, r0, #57600	; 0xe100
 8001654:	0109      	lsls	r1, r1, #4
 8001656:	b2c9      	uxtb	r1, r1
 8001658:	f880 1300 	strb.w	r1, [r0, #768]	; 0x300
  assert_param(IS_NVIC_PREEMPTION_PRIORITY(PreemptPriority));
  
  prioritygroup = NVIC_GetPriorityGrouping();
  
  NVIC_SetPriority(IRQn, NVIC_EncodePriority(prioritygroup, PreemptPriority, SubPriority));
}
 800165c:	bc30      	pop	{r4, r5}
 800165e:	4770      	bx	lr
 8001660:	2200      	movs	r2, #0
  SubPriorityBits     = ((PriorityGroupTmp + (uint32_t)(__NVIC_PRIO_BITS)) < (uint32_t)7UL) ? (uint32_t)0UL : (uint32_t)((PriorityGroupTmp - 7UL) + (uint32_t)(__NVIC_PRIO_BITS));
 8001662:	4613      	mov	r3, r2
 8001664:	e7e8      	b.n	8001638 <HAL_NVIC_SetPriority+0x28>
    SCB->SHP[(((uint32_t)IRQn) & 0xFUL)-4UL] = (uint8_t)((priority << (8U - __NVIC_PRIO_BITS)) & (uint32_t)0xFFUL);
 8001666:	4b05      	ldr	r3, [pc, #20]	; (800167c <HAL_NVIC_SetPriority+0x6c>)
 8001668:	f000 000f 	and.w	r0, r0, #15
 800166c:	0109      	lsls	r1, r1, #4
 800166e:	4403      	add	r3, r0
 8001670:	b2c9      	uxtb	r1, r1
 8001672:	7619      	strb	r1, [r3, #24]
 8001674:	bc30      	pop	{r4, r5}
 8001676:	4770      	bx	lr
 8001678:	e000ed00 	.word	0xe000ed00
 800167c:	e000ecfc 	.word	0xe000ecfc

08001680 <HAL_NVIC_EnableIRQ>:
  if ((int32_t)(IRQn) >= 0)
 8001680:	2800      	cmp	r0, #0
 8001682:	db07      	blt.n	8001694 <HAL_NVIC_EnableIRQ+0x14>
    NVIC->ISER[(((uint32_t)IRQn) >> 5UL)] = (uint32_t)(1UL << (((uint32_t)IRQn) & 0x1FUL));
 8001684:	f000 011f 	and.w	r1, r0, #31
 8001688:	4a03      	ldr	r2, [pc, #12]	; (8001698 <HAL_NVIC_EnableIRQ+0x18>)
 800168a:	0940      	lsrs	r0, r0, #5
 800168c:	2301      	movs	r3, #1
 800168e:	408b      	lsls	r3, r1
 8001690:	f842 3020 	str.w	r3, [r2, r0, lsl #2]
  /* Check the parameters */
  assert_param(IS_NVIC_DEVICE_IRQ(IRQn));
  
  /* Enable interrupt */
  NVIC_EnableIRQ(IRQn);
}
 8001694:	4770      	bx	lr
 8001696:	bf00      	nop
 8001698:	e000e100 	.word	0xe000e100

0800169c <HAL_GPIO_Init>:
  * @param  GPIO_Init pointer to a GPIO_InitTypeDef structure that contains
  *         the configuration information for the specified GPIO peripheral.
  * @retval None
  */
void HAL_GPIO_Init(GPIO_TypeDef  *GPIOx, GPIO_InitTypeDef *GPIO_Init)
{
 800169c:	e92d 4ff0 	stmdb	sp!, {r4, r5, r6, r7, r8, r9, sl, fp, lr}
 80016a0:	468b      	mov	fp, r1
        temp &= ~(0x0FU << (4U * (position & 0x03U)));
        temp |= ((uint32_t)(GPIO_GET_INDEX(GPIOx)) << (4U * (position & 0x03U)));
        SYSCFG->EXTICR[position >> 2U] = temp;

        /* Clear EXTI line configuration */
        temp = EXTI->IMR;
 80016a2:	f8df c1cc 	ldr.w	ip, [pc, #460]	; 8001870 <HAL_GPIO_Init+0x1d4>
 80016a6:	6809      	ldr	r1, [r1, #0]
{
 80016a8:	b085      	sub	sp, #20
  for(position = 0U; position < GPIO_NUMBER; position++)
 80016aa:	2300      	movs	r3, #0
    ioposition = 0x01U << position;
 80016ac:	f04f 0a01 	mov.w	sl, #1
 80016b0:	46d9      	mov	r9, fp
 80016b2:	e002      	b.n	80016ba <HAL_GPIO_Init+0x1e>
  for(position = 0U; position < GPIO_NUMBER; position++)
 80016b4:	3301      	adds	r3, #1
 80016b6:	2b10      	cmp	r3, #16
 80016b8:	d079      	beq.n	80017ae <HAL_GPIO_Init+0x112>
    ioposition = 0x01U << position;
 80016ba:	fa0a f203 	lsl.w	r2, sl, r3
    iocurrent = (uint32_t)(GPIO_Init->Pin) & ioposition;
 80016be:	ea02 0b01 	and.w	fp, r2, r1
    if(iocurrent == ioposition)
 80016c2:	438a      	bics	r2, r1
 80016c4:	d1f6      	bne.n	80016b4 <HAL_GPIO_Init+0x18>
      if(((GPIO_Init->Mode & GPIO_MODE) == MODE_OUTPUT) || \
 80016c6:	f8d9 5004 	ldr.w	r5, [r9, #4]
 80016ca:	f005 0203 	and.w	r2, r5, #3
 80016ce:	1e54      	subs	r4, r2, #1
 80016d0:	2c01      	cmp	r4, #1
 80016d2:	ea4f 0743 	mov.w	r7, r3, lsl #1
 80016d6:	d96d      	bls.n	80017b4 <HAL_GPIO_Init+0x118>
      if((GPIO_Init->Mode & GPIO_MODE) != MODE_ANALOG)
 80016d8:	2a03      	cmp	r2, #3
 80016da:	f040 80ab 	bne.w	8001834 <HAL_GPIO_Init+0x198>
 80016de:	40ba      	lsls	r2, r7
 80016e0:	43d4      	mvns	r4, r2
 80016e2:	9400      	str	r4, [sp, #0]
      temp = GPIOx->MODER;
 80016e4:	6807      	ldr	r7, [r0, #0]
      temp &= ~(GPIO_MODER_MODER0 << (position * 2U));
 80016e6:	9c00      	ldr	r4, [sp, #0]
 80016e8:	403c      	ands	r4, r7
      temp |= ((GPIO_Init->Mode & GPIO_MODE) << (position * 2U));
 80016ea:	4322      	orrs	r2, r4
      if((GPIO_Init->Mode & EXTI_MODE) != 0x00U)
 80016ec:	f415 3f40 	tst.w	r5, #196608	; 0x30000
      GPIOx->MODER = temp;
 80016f0:	6002      	str	r2, [r0, #0]
      if((GPIO_Init->Mode & EXTI_MODE) != 0x00U)
 80016f2:	d0df      	beq.n	80016b4 <HAL_GPIO_Init+0x18>
        __HAL_RCC_SYSCFG_CLK_ENABLE();
 80016f4:	4c59      	ldr	r4, [pc, #356]	; (800185c <HAL_GPIO_Init+0x1c0>)
 80016f6:	2200      	movs	r2, #0
 80016f8:	9203      	str	r2, [sp, #12]
 80016fa:	6c62      	ldr	r2, [r4, #68]	; 0x44
 80016fc:	f442 4280 	orr.w	r2, r2, #16384	; 0x4000
 8001700:	6462      	str	r2, [r4, #68]	; 0x44
 8001702:	6c62      	ldr	r2, [r4, #68]	; 0x44
 8001704:	f023 0603 	bic.w	r6, r3, #3
 8001708:	f106 4680 	add.w	r6, r6, #1073741824	; 0x40000000
 800170c:	f402 4280 	and.w	r2, r2, #16384	; 0x4000
 8001710:	f506 369c 	add.w	r6, r6, #79872	; 0x13800
 8001714:	9203      	str	r2, [sp, #12]
        temp &= ~(0x0FU << (4U * (position & 0x03U)));
 8001716:	f003 0403 	and.w	r4, r3, #3
        __HAL_RCC_SYSCFG_CLK_ENABLE();
 800171a:	9a03      	ldr	r2, [sp, #12]
        temp = SYSCFG->EXTICR[position >> 2U];
 800171c:	68b7      	ldr	r7, [r6, #8]
        temp &= ~(0x0FU << (4U * (position & 0x03U)));
 800171e:	00a4      	lsls	r4, r4, #2
 8001720:	220f      	movs	r2, #15
 8001722:	40a2      	lsls	r2, r4
 8001724:	ea27 0202 	bic.w	r2, r7, r2
        temp |= ((uint32_t)(GPIO_GET_INDEX(GPIOx)) << (4U * (position & 0x03U)));
 8001728:	4f4d      	ldr	r7, [pc, #308]	; (8001860 <HAL_GPIO_Init+0x1c4>)
 800172a:	42b8      	cmp	r0, r7
 800172c:	d014      	beq.n	8001758 <HAL_GPIO_Init+0xbc>
 800172e:	f507 6780 	add.w	r7, r7, #1024	; 0x400
 8001732:	42b8      	cmp	r0, r7
 8001734:	f000 8083 	beq.w	800183e <HAL_GPIO_Init+0x1a2>
 8001738:	4f4a      	ldr	r7, [pc, #296]	; (8001864 <HAL_GPIO_Init+0x1c8>)
 800173a:	42b8      	cmp	r0, r7
 800173c:	f000 8083 	beq.w	8001846 <HAL_GPIO_Init+0x1aa>
 8001740:	4f49      	ldr	r7, [pc, #292]	; (8001868 <HAL_GPIO_Init+0x1cc>)
 8001742:	42b8      	cmp	r0, r7
 8001744:	f000 8084 	beq.w	8001850 <HAL_GPIO_Init+0x1b4>
 8001748:	4f48      	ldr	r7, [pc, #288]	; (800186c <HAL_GPIO_Init+0x1d0>)
 800174a:	42b8      	cmp	r0, r7
 800174c:	bf0c      	ite	eq
 800174e:	2704      	moveq	r7, #4
 8001750:	2707      	movne	r7, #7
 8001752:	fa07 f404 	lsl.w	r4, r7, r4
 8001756:	4322      	orrs	r2, r4
        SYSCFG->EXTICR[position >> 2U] = temp;
 8001758:	60b2      	str	r2, [r6, #8]
        temp = EXTI->IMR;
 800175a:	f8dc 2000 	ldr.w	r2, [ip]
        temp &= ~((uint32_t)iocurrent);
 800175e:	ea6f 060b 	mvn.w	r6, fp
        if((GPIO_Init->Mode & EXTI_IT) != 0x00U)
 8001762:	03ec      	lsls	r4, r5, #15
        temp &= ~((uint32_t)iocurrent);
 8001764:	bf54      	ite	pl
 8001766:	4032      	andpl	r2, r6
        {
          temp |= iocurrent;
 8001768:	ea4b 0202 	orrmi.w	r2, fp, r2
        }
        EXTI->IMR = temp;
 800176c:	f8cc 2000 	str.w	r2, [ip]

        temp = EXTI->EMR;
 8001770:	f8dc 4004 	ldr.w	r4, [ip, #4]
        temp &= ~((uint32_t)iocurrent);
        if((GPIO_Init->Mode & EXTI_EVT) != 0x00U)
 8001774:	03aa      	lsls	r2, r5, #14
        temp &= ~((uint32_t)iocurrent);
 8001776:	bf54      	ite	pl
 8001778:	4034      	andpl	r4, r6
        {
          temp |= iocurrent;
 800177a:	ea4b 0404 	orrmi.w	r4, fp, r4
        }
        EXTI->EMR = temp;
 800177e:	f8cc 4004 	str.w	r4, [ip, #4]

        /* Clear Rising Falling edge configuration */
        temp = EXTI->RTSR;
 8001782:	f8dc 4008 	ldr.w	r4, [ip, #8]
        temp &= ~((uint32_t)iocurrent);
        if((GPIO_Init->Mode & TRIGGER_RISING) != 0x00U)
 8001786:	02ef      	lsls	r7, r5, #11
        temp &= ~((uint32_t)iocurrent);
 8001788:	bf54      	ite	pl
 800178a:	4034      	andpl	r4, r6
        {
          temp |= iocurrent;
 800178c:	ea4b 0404 	orrmi.w	r4, fp, r4
        }
        EXTI->RTSR = temp;
 8001790:	f8cc 4008 	str.w	r4, [ip, #8]

        temp = EXTI->FTSR;
 8001794:	f8dc 200c 	ldr.w	r2, [ip, #12]
        temp &= ~((uint32_t)iocurrent);
        if((GPIO_Init->Mode & TRIGGER_FALLING) != 0x00U)
 8001798:	02ac      	lsls	r4, r5, #10
  for(position = 0U; position < GPIO_NUMBER; position++)
 800179a:	f103 0301 	add.w	r3, r3, #1
        temp &= ~((uint32_t)iocurrent);
 800179e:	bf54      	ite	pl
 80017a0:	4032      	andpl	r2, r6
        {
          temp |= iocurrent;
 80017a2:	ea4b 0202 	orrmi.w	r2, fp, r2
  for(position = 0U; position < GPIO_NUMBER; position++)
 80017a6:	2b10      	cmp	r3, #16
        }
        EXTI->FTSR = temp;
 80017a8:	f8cc 200c 	str.w	r2, [ip, #12]
  for(position = 0U; position < GPIO_NUMBER; position++)
 80017ac:	d185      	bne.n	80016ba <HAL_GPIO_Init+0x1e>
      }
    }
  }
}
 80017ae:	b005      	add	sp, #20
 80017b0:	e8bd 8ff0 	ldmia.w	sp!, {r4, r5, r6, r7, r8, r9, sl, fp, pc}
        temp = GPIOx->OSPEEDR; 
 80017b4:	6886      	ldr	r6, [r0, #8]
        temp &= ~(GPIO_OSPEEDER_OSPEEDR0 << (position * 2U));
 80017b6:	2403      	movs	r4, #3
 80017b8:	40bc      	lsls	r4, r7
 80017ba:	ea26 0e04 	bic.w	lr, r6, r4
        temp |= (GPIO_Init->Speed << (position * 2U));
 80017be:	f8d9 600c 	ldr.w	r6, [r9, #12]
 80017c2:	40be      	lsls	r6, r7
 80017c4:	ea46 060e 	orr.w	r6, r6, lr
        GPIOx->OSPEEDR = temp;
 80017c8:	6086      	str	r6, [r0, #8]
        temp = GPIOx->OTYPER;
 80017ca:	f8d0 e004 	ldr.w	lr, [r0, #4]
        temp |= (((GPIO_Init->Mode & OUTPUT_TYPE) >> OUTPUT_TYPE_Pos) << position);
 80017ce:	f3c5 1600 	ubfx	r6, r5, #4, #1
        temp &= ~(GPIO_OTYPER_OT_0 << position) ;
 80017d2:	ea2e 0e0b 	bic.w	lr, lr, fp
        temp |= (((GPIO_Init->Mode & OUTPUT_TYPE) >> OUTPUT_TYPE_Pos) << position);
 80017d6:	409e      	lsls	r6, r3
 80017d8:	ea46 060e 	orr.w	r6, r6, lr
        temp &= ~(GPIO_OSPEEDER_OSPEEDR0 << (position * 2U));
 80017dc:	43e4      	mvns	r4, r4
 80017de:	9400      	str	r4, [sp, #0]
        GPIOx->OTYPER = temp;
 80017e0:	6046      	str	r6, [r0, #4]
        temp = GPIOx->PUPDR;
 80017e2:	68c6      	ldr	r6, [r0, #12]
        temp &= ~(GPIO_PUPDR_PUPDR0 << (position * 2U));
 80017e4:	ea06 0e04 	and.w	lr, r6, r4
        temp |= ((GPIO_Init->Pull) << (position * 2U));
 80017e8:	f8d9 6008 	ldr.w	r6, [r9, #8]
 80017ec:	40be      	lsls	r6, r7
 80017ee:	ea46 060e 	orr.w	r6, r6, lr
      if((GPIO_Init->Mode & GPIO_MODE) == MODE_AF)
 80017f2:	2a02      	cmp	r2, #2
        GPIOx->PUPDR = temp;
 80017f4:	60c6      	str	r6, [r0, #12]
      if((GPIO_Init->Mode & GPIO_MODE) == MODE_AF)
 80017f6:	d001      	beq.n	80017fc <HAL_GPIO_Init+0x160>
 80017f8:	40ba      	lsls	r2, r7
 80017fa:	e773      	b.n	80016e4 <HAL_GPIO_Init+0x48>
        temp = GPIOx->AFR[position >> 3U];
 80017fc:	ea4f 08d3 	mov.w	r8, r3, lsr #3
 8001800:	eb00 0888 	add.w	r8, r0, r8, lsl #2
        temp &= ~(0xFU << ((uint32_t)(position & 0x07U) * 4U)) ;
 8001804:	f003 0e07 	and.w	lr, r3, #7
        temp = GPIOx->AFR[position >> 3U];
 8001808:	f8d8 4020 	ldr.w	r4, [r8, #32]
 800180c:	9401      	str	r4, [sp, #4]
        temp &= ~(0xFU << ((uint32_t)(position & 0x07U) * 4U)) ;
 800180e:	ea4f 0e8e 	mov.w	lr, lr, lsl #2
 8001812:	240f      	movs	r4, #15
 8001814:	fa04 f60e 	lsl.w	r6, r4, lr
 8001818:	9c01      	ldr	r4, [sp, #4]
 800181a:	ea24 0606 	bic.w	r6, r4, r6
        temp |= ((uint32_t)(GPIO_Init->Alternate) << (((uint32_t)position & 0x07U) * 4U));
 800181e:	f8d9 4010 	ldr.w	r4, [r9, #16]
        temp &= ~(0xFU << ((uint32_t)(position & 0x07U) * 4U)) ;
 8001822:	9601      	str	r6, [sp, #4]
        temp |= ((uint32_t)(GPIO_Init->Alternate) << (((uint32_t)position & 0x07U) * 4U));
 8001824:	fa04 f60e 	lsl.w	r6, r4, lr
 8001828:	9c01      	ldr	r4, [sp, #4]
 800182a:	4326      	orrs	r6, r4
        GPIOx->AFR[position >> 3U] = temp;
 800182c:	40ba      	lsls	r2, r7
 800182e:	f8c8 6020 	str.w	r6, [r8, #32]
 8001832:	e757      	b.n	80016e4 <HAL_GPIO_Init+0x48>
 8001834:	2403      	movs	r4, #3
 8001836:	40bc      	lsls	r4, r7
 8001838:	43e4      	mvns	r4, r4
 800183a:	9400      	str	r4, [sp, #0]
 800183c:	e7d1      	b.n	80017e2 <HAL_GPIO_Init+0x146>
 800183e:	fa0a f404 	lsl.w	r4, sl, r4
 8001842:	4322      	orrs	r2, r4
 8001844:	e788      	b.n	8001758 <HAL_GPIO_Init+0xbc>
 8001846:	2702      	movs	r7, #2
 8001848:	fa07 f404 	lsl.w	r4, r7, r4
 800184c:	4322      	orrs	r2, r4
 800184e:	e783      	b.n	8001758 <HAL_GPIO_Init+0xbc>
 8001850:	2703      	movs	r7, #3
 8001852:	fa07 f404 	lsl.w	r4, r7, r4
 8001856:	4322      	orrs	r2, r4
 8001858:	e77e      	b.n	8001758 <HAL_GPIO_Init+0xbc>
 800185a:	bf00      	nop
 800185c:	40023800 	.word	0x40023800
 8001860:	40020000 	.word	0x40020000
 8001864:	40020800 	.word	0x40020800
 8001868:	40020c00 	.word	0x40020c00
 800186c:	40021000 	.word	0x40021000
 8001870:	40013c00 	.word	0x40013c00

08001874 <HAL_GPIO_DeInit>:
  * @param  GPIO_Pin specifies the port bit to be written.
  *          This parameter can be one of GPIO_PIN_x where x can be (0..15).
  * @retval None
  */
void HAL_GPIO_DeInit(GPIO_TypeDef  *GPIOx, uint32_t GPIO_Pin)
{
 8001874:	e92d 4ff0 	stmdb	sp!, {r4, r5, r6, r7, r8, r9, sl, fp, lr}

  /* Check the parameters */
  assert_param(IS_GPIO_ALL_INSTANCE(GPIOx));
  
  /* Configure the port pins */
  for(position = 0U; position < GPIO_NUMBER; position++)
 8001878:	2300      	movs	r3, #0
    if(iocurrent == ioposition)
    {
      /*------------------------- EXTI Mode Configuration --------------------*/
      tmp = SYSCFG->EXTICR[position >> 2U];
      tmp &= (0x0FU << (4U * (position & 0x03U)));
      if(tmp == ((uint32_t)(GPIO_GET_INDEX(GPIOx)) << (4U * (position & 0x03U))))
 800187a:	f8df b11c 	ldr.w	fp, [pc, #284]	; 8001998 <HAL_GPIO_DeInit+0x124>
      {
        /* Clear EXTI line configuration */
        EXTI->IMR &= ~((uint32_t)iocurrent);
 800187e:	f8df e11c 	ldr.w	lr, [pc, #284]	; 800199c <HAL_GPIO_DeInit+0x128>
{
 8001882:	b083      	sub	sp, #12
    ioposition = 0x01U << position;
 8001884:	f04f 0c01 	mov.w	ip, #1
      tmp &= (0x0FU << (4U * (position & 0x03U)));
 8001888:	f04f 090f 	mov.w	r9, #15
        SYSCFG->EXTICR[position >> 2U] &= ~tmp;
      }

      /*------------------------- GPIO Mode Configuration --------------------*/
      /* Configure IO Direction in Input Floating Mode */
      GPIOx->MODER &= ~(GPIO_MODER_MODER0 << (position * 2U));
 800188c:	f04f 0a03 	mov.w	sl, #3
 8001890:	e002      	b.n	8001898 <HAL_GPIO_DeInit+0x24>
  for(position = 0U; position < GPIO_NUMBER; position++)
 8001892:	3301      	adds	r3, #1
 8001894:	2b10      	cmp	r3, #16
 8001896:	d068      	beq.n	800196a <HAL_GPIO_DeInit+0xf6>
    ioposition = 0x01U << position;
 8001898:	fa0c f203 	lsl.w	r2, ip, r3
    if(iocurrent == ioposition)
 800189c:	ea32 0401 	bics.w	r4, r2, r1
    iocurrent = (GPIO_Pin) & ioposition;
 80018a0:	ea02 0601 	and.w	r6, r2, r1
    if(iocurrent == ioposition)
 80018a4:	d1f5      	bne.n	8001892 <HAL_GPIO_DeInit+0x1e>
      tmp = SYSCFG->EXTICR[position >> 2U];
 80018a6:	f023 0503 	bic.w	r5, r3, #3
 80018aa:	f105 4580 	add.w	r5, r5, #1073741824	; 0x40000000
 80018ae:	f505 359c 	add.w	r5, r5, #79872	; 0x13800
      tmp &= (0x0FU << (4U * (position & 0x03U)));
 80018b2:	f003 0403 	and.w	r4, r3, #3
      tmp = SYSCFG->EXTICR[position >> 2U];
 80018b6:	68af      	ldr	r7, [r5, #8]
      tmp &= (0x0FU << (4U * (position & 0x03U)));
 80018b8:	00a4      	lsls	r4, r4, #2
 80018ba:	fa09 f804 	lsl.w	r8, r9, r4
 80018be:	ea08 0707 	and.w	r7, r8, r7
      if(tmp == ((uint32_t)(GPIO_GET_INDEX(GPIOx)) << (4U * (position & 0x03U))))
 80018c2:	4558      	cmp	r0, fp
      tmp &= (0x0FU << (4U * (position & 0x03U)));
 80018c4:	9701      	str	r7, [sp, #4]
      if(tmp == ((uint32_t)(GPIO_GET_INDEX(GPIOx)) << (4U * (position & 0x03U))))
 80018c6:	d053      	beq.n	8001970 <HAL_GPIO_DeInit+0xfc>
 80018c8:	4f2f      	ldr	r7, [pc, #188]	; (8001988 <HAL_GPIO_DeInit+0x114>)
 80018ca:	42b8      	cmp	r0, r7
 80018cc:	d052      	beq.n	8001974 <HAL_GPIO_DeInit+0x100>
 80018ce:	4f2f      	ldr	r7, [pc, #188]	; (800198c <HAL_GPIO_DeInit+0x118>)
 80018d0:	42b8      	cmp	r0, r7
 80018d2:	d052      	beq.n	800197a <HAL_GPIO_DeInit+0x106>
 80018d4:	4f2e      	ldr	r7, [pc, #184]	; (8001990 <HAL_GPIO_DeInit+0x11c>)
 80018d6:	42b8      	cmp	r0, r7
 80018d8:	d053      	beq.n	8001982 <HAL_GPIO_DeInit+0x10e>
 80018da:	4f2e      	ldr	r7, [pc, #184]	; (8001994 <HAL_GPIO_DeInit+0x120>)
 80018dc:	42b8      	cmp	r0, r7
 80018de:	bf14      	ite	ne
 80018e0:	2707      	movne	r7, #7
 80018e2:	2704      	moveq	r7, #4
 80018e4:	fa07 f404 	lsl.w	r4, r7, r4
 80018e8:	9f01      	ldr	r7, [sp, #4]
 80018ea:	42a7      	cmp	r7, r4
 80018ec:	d11b      	bne.n	8001926 <HAL_GPIO_DeInit+0xb2>
        EXTI->IMR &= ~((uint32_t)iocurrent);
 80018ee:	f8de 4000 	ldr.w	r4, [lr]
 80018f2:	ea24 0406 	bic.w	r4, r4, r6
 80018f6:	f8ce 4000 	str.w	r4, [lr]
        EXTI->EMR &= ~((uint32_t)iocurrent);
 80018fa:	f8de 4004 	ldr.w	r4, [lr, #4]
 80018fe:	ea24 0406 	bic.w	r4, r4, r6
 8001902:	f8ce 4004 	str.w	r4, [lr, #4]
        EXTI->RTSR &= ~((uint32_t)iocurrent);
 8001906:	f8de 4008 	ldr.w	r4, [lr, #8]
 800190a:	ea24 0406 	bic.w	r4, r4, r6
 800190e:	f8ce 4008 	str.w	r4, [lr, #8]
        EXTI->FTSR &= ~((uint32_t)iocurrent);
 8001912:	f8de 400c 	ldr.w	r4, [lr, #12]
 8001916:	ea24 0606 	bic.w	r6, r4, r6
 800191a:	f8ce 600c 	str.w	r6, [lr, #12]
        SYSCFG->EXTICR[position >> 2U] &= ~tmp;
 800191e:	68ac      	ldr	r4, [r5, #8]
 8001920:	ea24 0408 	bic.w	r4, r4, r8
 8001924:	60ac      	str	r4, [r5, #8]
      GPIOx->MODER &= ~(GPIO_MODER_MODER0 << (position * 2U));
 8001926:	6804      	ldr	r4, [r0, #0]
 8001928:	005e      	lsls	r6, r3, #1
 800192a:	fa0a f606 	lsl.w	r6, sl, r6

      /* Configure the default Alternate Function in current IO */
      GPIOx->AFR[position >> 3U] &= ~(0xFU << ((uint32_t)(position & 0x07U) * 4U)) ;
 800192e:	08dd      	lsrs	r5, r3, #3
      GPIOx->MODER &= ~(GPIO_MODER_MODER0 << (position * 2U));
 8001930:	ea24 0406 	bic.w	r4, r4, r6
 8001934:	eb00 0585 	add.w	r5, r0, r5, lsl #2
 8001938:	6004      	str	r4, [r0, #0]
      GPIOx->AFR[position >> 3U] &= ~(0xFU << ((uint32_t)(position & 0x07U) * 4U)) ;
 800193a:	f003 0407 	and.w	r4, r3, #7
 800193e:	6a2f      	ldr	r7, [r5, #32]
 8001940:	00a4      	lsls	r4, r4, #2
 8001942:	fa09 f404 	lsl.w	r4, r9, r4
 8001946:	ea27 0404 	bic.w	r4, r7, r4
 800194a:	622c      	str	r4, [r5, #32]

      /* Deactivate the Pull-up and Pull-down resistor for the current IO */
      GPIOx->PUPDR &= ~(GPIO_PUPDR_PUPDR0 << (position * 2U));
 800194c:	68c4      	ldr	r4, [r0, #12]
 800194e:	ea24 0406 	bic.w	r4, r4, r6
 8001952:	60c4      	str	r4, [r0, #12]

      /* Configure the default value IO Output Type */
      GPIOx->OTYPER  &= ~(GPIO_OTYPER_OT_0 << position) ;
 8001954:	6844      	ldr	r4, [r0, #4]
 8001956:	ea24 0202 	bic.w	r2, r4, r2
 800195a:	6042      	str	r2, [r0, #4]

      /* Configure the default value for IO Speed */
      GPIOx->OSPEEDR &= ~(GPIO_OSPEEDER_OSPEEDR0 << (position * 2U));
 800195c:	6882      	ldr	r2, [r0, #8]
  for(position = 0U; position < GPIO_NUMBER; position++)
 800195e:	3301      	adds	r3, #1
      GPIOx->OSPEEDR &= ~(GPIO_OSPEEDER_OSPEEDR0 << (position * 2U));
 8001960:	ea22 0606 	bic.w	r6, r2, r6
  for(position = 0U; position < GPIO_NUMBER; position++)
 8001964:	2b10      	cmp	r3, #16
      GPIOx->OSPEEDR &= ~(GPIO_OSPEEDER_OSPEEDR0 << (position * 2U));
 8001966:	6086      	str	r6, [r0, #8]
  for(position = 0U; position < GPIO_NUMBER; position++)
 8001968:	d196      	bne.n	8001898 <HAL_GPIO_DeInit+0x24>
    }
  }
}
 800196a:	b003      	add	sp, #12
 800196c:	e8bd 8ff0 	ldmia.w	sp!, {r4, r5, r6, r7, r8, r9, sl, fp, pc}
 8001970:	2400      	movs	r4, #0
 8001972:	e7b9      	b.n	80018e8 <HAL_GPIO_DeInit+0x74>
 8001974:	fa0c f404 	lsl.w	r4, ip, r4
 8001978:	e7b6      	b.n	80018e8 <HAL_GPIO_DeInit+0x74>
 800197a:	2702      	movs	r7, #2
 800197c:	fa07 f404 	lsl.w	r4, r7, r4
 8001980:	e7b2      	b.n	80018e8 <HAL_GPIO_DeInit+0x74>
 8001982:	fa0a f404 	lsl.w	r4, sl, r4
 8001986:	e7af      	b.n	80018e8 <HAL_GPIO_DeInit+0x74>
 8001988:	40020400 	.word	0x40020400
 800198c:	40020800 	.word	0x40020800
 8001990:	40020c00 	.word	0x40020c00
 8001994:	40021000 	.word	0x40021000
 8001998:	40020000 	.word	0x40020000
 800199c:	40013c00 	.word	0x40013c00

080019a0 <HAL_GPIO_WritePin>:
{
  /* Check the parameters */
  assert_param(IS_GPIO_PIN(GPIO_Pin));
  assert_param(IS_GPIO_PIN_ACTION(PinState));

  if(PinState != GPIO_PIN_RESET)
 80019a0:	b902      	cbnz	r2, 80019a4 <HAL_GPIO_WritePin+0x4>
  {
    GPIOx->BSRR = GPIO_Pin;
  }
  else
  {
    GPIOx->BSRR = (uint32_t)GPIO_Pin << 16U;
 80019a2:	0409      	lsls	r1, r1, #16
 80019a4:	6181      	str	r1, [r0, #24]
  }
}
 80019a6:	4770      	bx	lr

080019a8 <HAL_GPIO_TogglePin>:

  /* Check the parameters */
  assert_param(IS_GPIO_PIN(GPIO_Pin));

  /* get current Ouput Data Register value */
  odr = GPIOx->ODR;
 80019a8:	6943      	ldr	r3, [r0, #20]

  /* Set selected pins that were at low level, and reset ones that were high */
  GPIOx->BSRR = ((odr & GPIO_Pin) << GPIO_NUMBER) | (~odr & GPIO_Pin);
 80019aa:	ea01 0203 	and.w	r2, r1, r3
 80019ae:	ea21 0103 	bic.w	r1, r1, r3
 80019b2:	ea41 4102 	orr.w	r1, r1, r2, lsl #16
 80019b6:	6181      	str	r1, [r0, #24]
}
 80019b8:	4770      	bx	lr
 80019ba:	bf00      	nop

080019bc <HAL_GPIO_EXTI_IRQHandler>:
  * @retval None
  */
void HAL_GPIO_EXTI_IRQHandler(uint16_t GPIO_Pin)
{
  /* EXTI line interrupt detected */
  if(__HAL_GPIO_EXTI_GET_IT(GPIO_Pin) != RESET)
 80019bc:	4a04      	ldr	r2, [pc, #16]	; (80019d0 <HAL_GPIO_EXTI_IRQHandler+0x14>)
 80019be:	6951      	ldr	r1, [r2, #20]
 80019c0:	4201      	tst	r1, r0
 80019c2:	d100      	bne.n	80019c6 <HAL_GPIO_EXTI_IRQHandler+0xa>
 80019c4:	4770      	bx	lr
{
 80019c6:	b508      	push	{r3, lr}
  {
    __HAL_GPIO_EXTI_CLEAR_IT(GPIO_Pin);
 80019c8:	6150      	str	r0, [r2, #20]
    HAL_GPIO_EXTI_Callback(GPIO_Pin);
 80019ca:	f7ff f911 	bl	8000bf0 <HAL_GPIO_EXTI_Callback>
  }
}
 80019ce:	bd08      	pop	{r3, pc}
 80019d0:	40013c00 	.word	0x40013c00

080019d4 <HAL_HCD_Init>:
HAL_StatusTypeDef HAL_HCD_Init(HCD_HandleTypeDef *hhcd)
{
  USB_OTG_GlobalTypeDef *USBx;

  /* Check the HCD handle allocation */
  if (hhcd == NULL)
 80019d4:	2800      	cmp	r0, #0
 80019d6:	d04a      	beq.n	8001a6e <HAL_HCD_Init+0x9a>
{
 80019d8:	e92d 41f0 	stmdb	sp!, {r4, r5, r6, r7, r8, lr}
  /* Check the parameters */
  assert_param(IS_HCD_ALL_INSTANCE(hhcd->Instance));

  USBx = hhcd->Instance;

  if (hhcd->State == HAL_HCD_STATE_RESET)
 80019dc:	f890 32f9 	ldrb.w	r3, [r0, #761]	; 0x2f9
  USBx = hhcd->Instance;
 80019e0:	6804      	ldr	r4, [r0, #0]
{
 80019e2:	b08a      	sub	sp, #40	; 0x28
 80019e4:	4607      	mov	r7, r0
  if (hhcd->State == HAL_HCD_STATE_RESET)
 80019e6:	f003 02ff 	and.w	r2, r3, #255	; 0xff
 80019ea:	2b00      	cmp	r3, #0
 80019ec:	d039      	beq.n	8001a62 <HAL_HCD_Init+0x8e>
 80019ee:	4620      	mov	r0, r4
    /* Init the low level hardware : GPIO, CLOCK, NVIC... */
    HAL_HCD_MspInit(hhcd);
#endif /* (USE_HAL_HCD_REGISTER_CALLBACKS) */
  }

  hhcd->State = HAL_HCD_STATE_BUSY;
 80019f0:	2303      	movs	r3, #3
 80019f2:	f887 32f9 	strb.w	r3, [r7, #761]	; 0x2f9

  /* Disable DMA mode for FS instance */
  if ((USBx->CID & (0x1U << 8)) == 0U)
 80019f6:	6be3      	ldr	r3, [r4, #60]	; 0x3c

  /* Disable the Interrupts */
  __HAL_HCD_DISABLE(hhcd);

  /* Init the Core (common init.) */
  (void)USB_CoreInit(hhcd->Instance, hhcd->Init);
 80019f8:	463c      	mov	r4, r7
  if ((USBx->CID & (0x1U << 8)) == 0U)
 80019fa:	f413 7380 	ands.w	r3, r3, #256	; 0x100
    hhcd->Init.dma_enable = 0U;
 80019fe:	bf08      	it	eq
 8001a00:	613b      	streq	r3, [r7, #16]
  __HAL_HCD_DISABLE(hhcd);
 8001a02:	f002 fd09 	bl	8004418 <USB_DisableGlobalInt>
  (void)USB_CoreInit(hhcd->Instance, hhcd->Init);
 8001a06:	f854 6b10 	ldr.w	r6, [r4], #16
 8001a0a:	cc0f      	ldmia	r4!, {r0, r1, r2, r3}
 8001a0c:	466d      	mov	r5, sp
 8001a0e:	c50f      	stmia	r5!, {r0, r1, r2, r3}
 8001a10:	cc0f      	ldmia	r4!, {r0, r1, r2, r3}
 8001a12:	c50f      	stmia	r5!, {r0, r1, r2, r3}
 8001a14:	e894 0003 	ldmia.w	r4, {r0, r1}
 8001a18:	e885 0003 	stmia.w	r5, {r0, r1}
 8001a1c:	f107 0804 	add.w	r8, r7, #4
 8001a20:	e898 000e 	ldmia.w	r8, {r1, r2, r3}
 8001a24:	4630      	mov	r0, r6

  /* Force Host Mode*/
  (void)USB_SetCurrentMode(hhcd->Instance, USB_HOST_MODE);

  /* Init Host */
  (void)USB_HostInit(hhcd->Instance, hhcd->Init);
 8001a26:	463e      	mov	r6, r7
  (void)USB_CoreInit(hhcd->Instance, hhcd->Init);
 8001a28:	f002 fc76 	bl	8004318 <USB_CoreInit>
  (void)USB_SetCurrentMode(hhcd->Instance, USB_HOST_MODE);
 8001a2c:	6838      	ldr	r0, [r7, #0]
 8001a2e:	2101      	movs	r1, #1
 8001a30:	f002 fcfa 	bl	8004428 <USB_SetCurrentMode>
  (void)USB_HostInit(hhcd->Instance, hhcd->Init);
 8001a34:	f856 cb10 	ldr.w	ip, [r6], #16
 8001a38:	ce0f      	ldmia	r6!, {r0, r1, r2, r3}
 8001a3a:	466d      	mov	r5, sp
 8001a3c:	c50f      	stmia	r5!, {r0, r1, r2, r3}
 8001a3e:	ce0f      	ldmia	r6!, {r0, r1, r2, r3}
 8001a40:	c50f      	stmia	r5!, {r0, r1, r2, r3}
 8001a42:	e894 0003 	ldmia.w	r4, {r0, r1}
 8001a46:	e885 0003 	stmia.w	r5, {r0, r1}
 8001a4a:	4660      	mov	r0, ip
 8001a4c:	e898 000e 	ldmia.w	r8, {r1, r2, r3}
 8001a50:	f002 fd82 	bl	8004558 <USB_HostInit>

  hhcd->State = HAL_HCD_STATE_READY;
 8001a54:	2301      	movs	r3, #1

  return HAL_OK;
 8001a56:	2000      	movs	r0, #0
  hhcd->State = HAL_HCD_STATE_READY;
 8001a58:	f887 32f9 	strb.w	r3, [r7, #761]	; 0x2f9
}
 8001a5c:	b00a      	add	sp, #40	; 0x28
 8001a5e:	e8bd 81f0 	ldmia.w	sp!, {r4, r5, r6, r7, r8, pc}
    hhcd->Lock = HAL_UNLOCKED;
 8001a62:	f880 22f8 	strb.w	r2, [r0, #760]	; 0x2f8
    HAL_HCD_MspInit(hhcd);
 8001a66:	f7ff fd09 	bl	800147c <HAL_HCD_MspInit>
 8001a6a:	6838      	ldr	r0, [r7, #0]
 8001a6c:	e7c0      	b.n	80019f0 <HAL_HCD_Init+0x1c>
    return HAL_ERROR;
 8001a6e:	2001      	movs	r0, #1
}
 8001a70:	4770      	bx	lr
 8001a72:	bf00      	nop

08001a74 <HAL_HCD_SOF_Callback>:
 8001a74:	4770      	bx	lr
 8001a76:	bf00      	nop

08001a78 <HAL_HCD_Connect_Callback>:
 8001a78:	4770      	bx	lr
 8001a7a:	bf00      	nop

08001a7c <HAL_HCD_Disconnect_Callback>:
 8001a7c:	4770      	bx	lr
 8001a7e:	bf00      	nop

08001a80 <HAL_HCD_PortEnabled_Callback>:
 8001a80:	4770      	bx	lr
 8001a82:	bf00      	nop

08001a84 <HAL_HCD_PortDisabled_Callback>:
 8001a84:	4770      	bx	lr
 8001a86:	bf00      	nop

08001a88 <HAL_HCD_HC_NotifyURBChange_Callback>:
  UNUSED(urb_state);

  /* NOTE : This function should not be modified, when the callback is needed,
            the HAL_HCD_HC_NotifyURBChange_Callback could be implemented in the user file
   */
}
 8001a88:	4770      	bx	lr
 8001a8a:	bf00      	nop

08001a8c <HAL_HCD_IRQHandler>:
{
 8001a8c:	e92d 4ff0 	stmdb	sp!, {r4, r5, r6, r7, r8, r9, sl, fp, lr}
  USB_OTG_GlobalTypeDef *USBx = hhcd->Instance;
 8001a90:	6805      	ldr	r5, [r0, #0]
{
 8001a92:	b085      	sub	sp, #20
 8001a94:	4604      	mov	r4, r0
  if (USB_GetMode(hhcd->Instance) == USB_OTG_MODE_HOST)
 8001a96:	4628      	mov	r0, r5
 8001a98:	f002 fd5a 	bl	8004550 <USB_GetMode>
 8001a9c:	2801      	cmp	r0, #1
 8001a9e:	d002      	beq.n	8001aa6 <HAL_HCD_IRQHandler+0x1a>
}
 8001aa0:	b005      	add	sp, #20
 8001aa2:	e8bd 8ff0 	ldmia.w	sp!, {r4, r5, r6, r7, r8, r9, sl, fp, pc}
    if (__HAL_HCD_IS_INVALID_INTERRUPT(hhcd))
 8001aa6:	6820      	ldr	r0, [r4, #0]
 8001aa8:	f002 fd4e 	bl	8004548 <USB_ReadInterrupts>
 8001aac:	2800      	cmp	r0, #0
 8001aae:	d0f7      	beq.n	8001aa0 <HAL_HCD_IRQHandler+0x14>
    if (__HAL_HCD_GET_FLAG(hhcd, USB_OTG_GINTSTS_PXFR_INCOMPISOOUT))
 8001ab0:	6820      	ldr	r0, [r4, #0]
 8001ab2:	f002 fd49 	bl	8004548 <USB_ReadInterrupts>
 8001ab6:	f410 1f00 	tst.w	r0, #2097152	; 0x200000
      __HAL_HCD_CLEAR_FLAG(hhcd, USB_OTG_GINTSTS_PXFR_INCOMPISOOUT);
 8001aba:	6820      	ldr	r0, [r4, #0]
 8001abc:	bf1c      	itt	ne
 8001abe:	f44f 1300 	movne.w	r3, #2097152	; 0x200000
 8001ac2:	6143      	strne	r3, [r0, #20]
    if (__HAL_HCD_GET_FLAG(hhcd, USB_OTG_GINTSTS_IISOIXFR))
 8001ac4:	f002 fd40 	bl	8004548 <USB_ReadInterrupts>
 8001ac8:	f410 1f80 	tst.w	r0, #1048576	; 0x100000
      __HAL_HCD_CLEAR_FLAG(hhcd, USB_OTG_GINTSTS_IISOIXFR);
 8001acc:	6820      	ldr	r0, [r4, #0]
 8001ace:	bf1c      	itt	ne
 8001ad0:	f44f 1380 	movne.w	r3, #1048576	; 0x100000
 8001ad4:	6143      	strne	r3, [r0, #20]
    if (__HAL_HCD_GET_FLAG(hhcd, USB_OTG_GINTSTS_PTXFE))
 8001ad6:	f002 fd37 	bl	8004548 <USB_ReadInterrupts>
 8001ada:	f010 6f80 	tst.w	r0, #67108864	; 0x4000000
      __HAL_HCD_CLEAR_FLAG(hhcd, USB_OTG_GINTSTS_PTXFE);
 8001ade:	6820      	ldr	r0, [r4, #0]
 8001ae0:	bf1c      	itt	ne
 8001ae2:	f04f 6380 	movne.w	r3, #67108864	; 0x4000000
 8001ae6:	6143      	strne	r3, [r0, #20]
    if (__HAL_HCD_GET_FLAG(hhcd, USB_OTG_GINTSTS_MMIS))
 8001ae8:	f002 fd2e 	bl	8004548 <USB_ReadInterrupts>
 8001aec:	f010 0f02 	tst.w	r0, #2
      __HAL_HCD_CLEAR_FLAG(hhcd, USB_OTG_GINTSTS_MMIS);
 8001af0:	6820      	ldr	r0, [r4, #0]
 8001af2:	bf1c      	itt	ne
 8001af4:	2302      	movne	r3, #2
 8001af6:	6143      	strne	r3, [r0, #20]
    if (__HAL_HCD_GET_FLAG(hhcd, USB_OTG_GINTSTS_DISCINT))
 8001af8:	f002 fd26 	bl	8004548 <USB_ReadInterrupts>
 8001afc:	f010 5f00 	tst.w	r0, #536870912	; 0x20000000
      __HAL_HCD_CLEAR_FLAG(hhcd, USB_OTG_GINTSTS_DISCINT);
 8001b00:	6820      	ldr	r0, [r4, #0]
    if (__HAL_HCD_GET_FLAG(hhcd, USB_OTG_GINTSTS_DISCINT))
 8001b02:	f040 8090 	bne.w	8001c26 <HAL_HCD_IRQHandler+0x19a>
    if (__HAL_HCD_GET_FLAG(hhcd, USB_OTG_GINTSTS_HPRTINT))
 8001b06:	f002 fd1f 	bl	8004548 <USB_ReadInterrupts>
 8001b0a:	01c6      	lsls	r6, r0, #7
 8001b0c:	f100 80d9 	bmi.w	8001cc2 <HAL_HCD_IRQHandler+0x236>
    if (__HAL_HCD_GET_FLAG(hhcd, USB_OTG_GINTSTS_SOF))
 8001b10:	6820      	ldr	r0, [r4, #0]
 8001b12:	f002 fd19 	bl	8004548 <USB_ReadInterrupts>
 8001b16:	0700      	lsls	r0, r0, #28
 8001b18:	f100 80cc 	bmi.w	8001cb4 <HAL_HCD_IRQHandler+0x228>
 8001b1c:	6820      	ldr	r0, [r4, #0]
    if ((__HAL_HCD_GET_FLAG(hhcd, USB_OTG_GINTSTS_RXFLVL)) != 0U)
 8001b1e:	f002 fd13 	bl	8004548 <USB_ReadInterrupts>
 8001b22:	06c1      	lsls	r1, r0, #27
      USB_MASK_INTERRUPT(hhcd->Instance, USB_OTG_GINTSTS_RXFLVL);
 8001b24:	6826      	ldr	r6, [r4, #0]
    if ((__HAL_HCD_GET_FLAG(hhcd, USB_OTG_GINTSTS_RXFLVL)) != 0U)
 8001b26:	f100 8106 	bmi.w	8001d36 <HAL_HCD_IRQHandler+0x2aa>
    if (__HAL_HCD_GET_FLAG(hhcd, USB_OTG_GINTSTS_HCINT))
 8001b2a:	4630      	mov	r0, r6
 8001b2c:	f002 fd0c 	bl	8004548 <USB_ReadInterrupts>
 8001b30:	0182      	lsls	r2, r0, #6
 8001b32:	d5b5      	bpl.n	8001aa0 <HAL_HCD_IRQHandler+0x14>
      interrupt = USB_HC_ReadInterrupt(hhcd->Instance);
 8001b34:	6820      	ldr	r0, [r4, #0]
 8001b36:	f002 fdb5 	bl	80046a4 <USB_HC_ReadInterrupt>
      for (i = 0U; i < hhcd->Init.Host_channels; i++)
 8001b3a:	68a2      	ldr	r2, [r4, #8]
      interrupt = USB_HC_ReadInterrupt(hhcd->Instance);
 8001b3c:	4680      	mov	r8, r0
      for (i = 0U; i < hhcd->Init.Host_channels; i++)
 8001b3e:	6820      	ldr	r0, [r4, #0]
 8001b40:	2a00      	cmp	r2, #0
 8001b42:	f000 80b3 	beq.w	8001cac <HAL_HCD_IRQHandler+0x220>
 8001b46:	f505 65a0 	add.w	r5, r5, #1280	; 0x500
 8001b4a:	2600      	movs	r6, #0
    else
    {
      /* ... */
    }

    __HAL_HCD_CLEAR_HC_INT(ch_num, USB_OTG_HCINT_CHH);
 8001b4c:	f04f 0902 	mov.w	r9, #2
 8001b50:	e04c      	b.n	8001bec <HAL_HCD_IRQHandler+0x160>
  if ((USBx_HC(ch_num)->HCINT & USB_OTG_HCINT_AHBERR) == USB_OTG_HCINT_AHBERR)
 8001b52:	f500 6ba0 	add.w	fp, r0, #1280	; 0x500
 8001b56:	eb0b 174a 	add.w	r7, fp, sl, lsl #5
 8001b5a:	ea4f 134a 	mov.w	r3, sl, lsl #5
 8001b5e:	68ba      	ldr	r2, [r7, #8]
 8001b60:	0751      	lsls	r1, r2, #29
 8001b62:	d578      	bpl.n	8001c56 <HAL_HCD_IRQHandler+0x1ca>
    __HAL_HCD_CLEAR_HC_INT(ch_num, USB_OTG_HCINT_AHBERR);
 8001b64:	2204      	movs	r2, #4
 8001b66:	60ba      	str	r2, [r7, #8]
    __HAL_HCD_UNMASK_HALT_HC_INT(ch_num);
 8001b68:	68fa      	ldr	r2, [r7, #12]
 8001b6a:	f042 0202 	orr.w	r2, r2, #2
 8001b6e:	60fa      	str	r2, [r7, #12]
  if ((USBx_HC(ch_num)->HCINT & USB_OTG_HCINT_FRMOR) == USB_OTG_HCINT_FRMOR)
 8001b70:	68ba      	ldr	r2, [r7, #8]
 8001b72:	0591      	lsls	r1, r2, #22
 8001b74:	f100 8119 	bmi.w	8001daa <HAL_HCD_IRQHandler+0x31e>
  else if ((USBx_HC(ch_num)->HCINT & USB_OTG_HCINT_XFRC) == USB_OTG_HCINT_XFRC)
 8001b78:	68ba      	ldr	r2, [r7, #8]
 8001b7a:	07d2      	lsls	r2, r2, #31
 8001b7c:	f140 80ea 	bpl.w	8001d54 <HAL_HCD_IRQHandler+0x2c8>
    if (hhcd->Init.dma_enable != 0U)
 8001b80:	6920      	ldr	r0, [r4, #16]
 8001b82:	b148      	cbz	r0, 8001b98 <HAL_HCD_IRQHandler+0x10c>
      hhcd->hc[ch_num].xfer_count = hhcd->hc[ch_num].XferSize - \
 8001b84:	212c      	movs	r1, #44	; 0x2c
                                    (USBx_HC(ch_num)->HCTSIZ & USB_OTG_HCTSIZ_XFRSIZ);
 8001b86:	693a      	ldr	r2, [r7, #16]
      hhcd->hc[ch_num].xfer_count = hhcd->hc[ch_num].XferSize - \
 8001b88:	fb01 410a 	mla	r1, r1, sl, r4
                                    (USBx_HC(ch_num)->HCTSIZ & USB_OTG_HCTSIZ_XFRSIZ);
 8001b8c:	f3c2 0c12 	ubfx	ip, r2, #0, #19
      hhcd->hc[ch_num].xfer_count = hhcd->hc[ch_num].XferSize - \
 8001b90:	6c8a      	ldr	r2, [r1, #72]	; 0x48
 8001b92:	eba2 020c 	sub.w	r2, r2, ip
 8001b96:	650a      	str	r2, [r1, #80]	; 0x50
    hhcd->hc[ch_num].state = HC_XFRC;
 8001b98:	212c      	movs	r1, #44	; 0x2c
 8001b9a:	fb01 410a 	mla	r1, r1, sl, r4
    hhcd->hc[ch_num].ErrCnt = 0U;
 8001b9e:	f04f 0c00 	mov.w	ip, #0
    hhcd->hc[ch_num].state = HC_XFRC;
 8001ba2:	2201      	movs	r2, #1
    hhcd->hc[ch_num].ErrCnt = 0U;
 8001ba4:	f8c1 c05c 	str.w	ip, [r1, #92]	; 0x5c
    hhcd->hc[ch_num].state = HC_XFRC;
 8001ba8:	f881 2061 	strb.w	r2, [r1, #97]	; 0x61
    __HAL_HCD_CLEAR_HC_INT(ch_num, USB_OTG_HCINT_XFRC);
 8001bac:	60ba      	str	r2, [r7, #8]
    if ((hhcd->hc[ch_num].ep_type == EP_TYPE_CTRL) ||
 8001bae:	f891 c03f 	ldrb.w	ip, [r1, #63]	; 0x3f
 8001bb2:	f01c 0ffd 	tst.w	ip, #253	; 0xfd
 8001bb6:	f000 812e 	beq.w	8001e16 <HAL_HCD_IRQHandler+0x38a>
    else if (hhcd->hc[ch_num].ep_type == EP_TYPE_INTR)
 8001bba:	f1bc 0f03 	cmp.w	ip, #3
 8001bbe:	f000 8231 	beq.w	8002024 <HAL_HCD_IRQHandler+0x598>
    else if (hhcd->hc[ch_num].ep_type == EP_TYPE_ISOC)
 8001bc2:	f1bc 0f01 	cmp.w	ip, #1
 8001bc6:	f000 8252 	beq.w	800206e <HAL_HCD_IRQHandler+0x5e2>
      if (((hhcd->hc[ch_num].XferSize / hhcd->hc[ch_num].max_packet) & 1U) != 0U)
 8001bca:	232c      	movs	r3, #44	; 0x2c
    if (hhcd->Init.dma_enable == 1U)
 8001bcc:	2801      	cmp	r0, #1
      if (((hhcd->hc[ch_num].XferSize / hhcd->hc[ch_num].max_packet) & 1U) != 0U)
 8001bce:	fb03 4a0a 	mla	sl, r3, sl, r4
    if (hhcd->Init.dma_enable == 1U)
 8001bd2:	f000 8192 	beq.w	8001efa <HAL_HCD_IRQHandler+0x46e>
      hhcd->hc[ch_num].toggle_in ^= 1U;
 8001bd6:	f89a 3054 	ldrb.w	r3, [sl, #84]	; 0x54
 8001bda:	f083 0301 	eor.w	r3, r3, #1
 8001bde:	f88a 3054 	strb.w	r3, [sl, #84]	; 0x54
 8001be2:	68a2      	ldr	r2, [r4, #8]
 8001be4:	6820      	ldr	r0, [r4, #0]
      for (i = 0U; i < hhcd->Init.Host_channels; i++)
 8001be6:	3601      	adds	r6, #1
 8001be8:	4296      	cmp	r6, r2
 8001bea:	d25f      	bcs.n	8001cac <HAL_HCD_IRQHandler+0x220>
        if ((interrupt & (1UL << (i & 0xFU))) != 0U)
 8001bec:	f006 030f 	and.w	r3, r6, #15
 8001bf0:	fa28 f303 	lsr.w	r3, r8, r3
 8001bf4:	07db      	lsls	r3, r3, #31
 8001bf6:	d5f6      	bpl.n	8001be6 <HAL_HCD_IRQHandler+0x15a>
          if ((USBx_HC(i)->HCCHAR & USB_OTG_HCCHAR_EPDIR) == USB_OTG_HCCHAR_EPDIR)
 8001bf8:	0173      	lsls	r3, r6, #5
 8001bfa:	fa5f fa86 	uxtb.w	sl, r6
 8001bfe:	595b      	ldr	r3, [r3, r5]
 8001c00:	041f      	lsls	r7, r3, #16
 8001c02:	d4a6      	bmi.n	8001b52 <HAL_HCD_IRQHandler+0xc6>
  if ((USBx_HC(ch_num)->HCINT & USB_OTG_HCINT_AHBERR) == USB_OTG_HCINT_AHBERR)
 8001c04:	f500 61a0 	add.w	r1, r0, #1280	; 0x500
 8001c08:	eb01 174a 	add.w	r7, r1, sl, lsl #5
 8001c0c:	ea4f 1c4a 	mov.w	ip, sl, lsl #5
 8001c10:	68bb      	ldr	r3, [r7, #8]
 8001c12:	f013 0304 	ands.w	r3, r3, #4
 8001c16:	d029      	beq.n	8001c6c <HAL_HCD_IRQHandler+0x1e0>
    __HAL_HCD_CLEAR_HC_INT(ch_num, USB_OTG_HCINT_AHBERR);
 8001c18:	2304      	movs	r3, #4
 8001c1a:	60bb      	str	r3, [r7, #8]
    __HAL_HCD_UNMASK_HALT_HC_INT(ch_num);
 8001c1c:	68fb      	ldr	r3, [r7, #12]
 8001c1e:	f043 0302 	orr.w	r3, r3, #2
 8001c22:	60fb      	str	r3, [r7, #12]
 8001c24:	e7df      	b.n	8001be6 <HAL_HCD_IRQHandler+0x15a>
      __HAL_HCD_CLEAR_FLAG(hhcd, USB_OTG_GINTSTS_DISCINT);
 8001c26:	f04f 5300 	mov.w	r3, #536870912	; 0x20000000
 8001c2a:	6143      	str	r3, [r0, #20]
      if ((USBx_HPRT0 & USB_OTG_HPRT_PCSTS) == 0U)
 8001c2c:	f8d5 3440 	ldr.w	r3, [r5, #1088]	; 0x440
 8001c30:	07df      	lsls	r7, r3, #31
 8001c32:	f53f af68 	bmi.w	8001b06 <HAL_HCD_IRQHandler+0x7a>
        (void)USB_FlushTxFifo(USBx, 0x10U);
 8001c36:	2110      	movs	r1, #16
 8001c38:	4628      	mov	r0, r5
 8001c3a:	f002 fc2d 	bl	8004498 <USB_FlushTxFifo>
        (void)USB_FlushRxFifo(USBx);
 8001c3e:	4628      	mov	r0, r5
 8001c40:	f002 fc44 	bl	80044cc <USB_FlushRxFifo>
        (void)USB_InitFSLSPClkSel(hhcd->Instance, HCFG_48_MHZ);
 8001c44:	2101      	movs	r1, #1
 8001c46:	6820      	ldr	r0, [r4, #0]
 8001c48:	f002 fd0e 	bl	8004668 <USB_InitFSLSPClkSel>
        HAL_HCD_Disconnect_Callback(hhcd);
 8001c4c:	4620      	mov	r0, r4
 8001c4e:	f7ff ff15 	bl	8001a7c <HAL_HCD_Disconnect_Callback>
 8001c52:	6820      	ldr	r0, [r4, #0]
 8001c54:	e757      	b.n	8001b06 <HAL_HCD_IRQHandler+0x7a>
  else if ((USBx_HC(ch_num)->HCINT & USB_OTG_HCINT_BBERR) == USB_OTG_HCINT_BBERR)
 8001c56:	68ba      	ldr	r2, [r7, #8]
 8001c58:	05d2      	lsls	r2, r2, #23
 8001c5a:	f100 813a 	bmi.w	8001ed2 <HAL_HCD_IRQHandler+0x446>
  else if ((USBx_HC(ch_num)->HCINT & USB_OTG_HCINT_ACK) == USB_OTG_HCINT_ACK)
 8001c5e:	68ba      	ldr	r2, [r7, #8]
 8001c60:	0691      	lsls	r1, r2, #26
 8001c62:	f140 80e4 	bpl.w	8001e2e <HAL_HCD_IRQHandler+0x3a2>
    __HAL_HCD_CLEAR_HC_INT(ch_num, USB_OTG_HCINT_ACK);
 8001c66:	2220      	movs	r2, #32
 8001c68:	60ba      	str	r2, [r7, #8]
 8001c6a:	e781      	b.n	8001b70 <HAL_HCD_IRQHandler+0xe4>
  else if ((USBx_HC(ch_num)->HCINT & USB_OTG_HCINT_ACK) == USB_OTG_HCINT_ACK)
 8001c6c:	f8d7 e008 	ldr.w	lr, [r7, #8]
 8001c70:	f01e 0f20 	tst.w	lr, #32
 8001c74:	f000 80a7 	beq.w	8001dc6 <HAL_HCD_IRQHandler+0x33a>
    if (hhcd->hc[ch_num].do_ping == 1U)
 8001c78:	212c      	movs	r1, #44	; 0x2c
    __HAL_HCD_CLEAR_HC_INT(ch_num, USB_OTG_HCINT_ACK);
 8001c7a:	f04f 0c20 	mov.w	ip, #32
    if (hhcd->hc[ch_num].do_ping == 1U)
 8001c7e:	fb01 410a 	mla	r1, r1, sl, r4
    __HAL_HCD_CLEAR_HC_INT(ch_num, USB_OTG_HCINT_ACK);
 8001c82:	f8c7 c008 	str.w	ip, [r7, #8]
    if (hhcd->hc[ch_num].do_ping == 1U)
 8001c86:	f891 c03d 	ldrb.w	ip, [r1, #61]	; 0x3d
 8001c8a:	f1bc 0f01 	cmp.w	ip, #1
 8001c8e:	d1aa      	bne.n	8001be6 <HAL_HCD_IRQHandler+0x15a>
      hhcd->hc[ch_num].do_ping = 0U;
 8001c90:	f881 303d 	strb.w	r3, [r1, #61]	; 0x3d
      hhcd->hc[ch_num].urb_state  = URB_NOTREADY;
 8001c94:	f881 9060 	strb.w	r9, [r1, #96]	; 0x60
      __HAL_HCD_UNMASK_HALT_HC_INT(ch_num);
 8001c98:	68fb      	ldr	r3, [r7, #12]
 8001c9a:	f043 0302 	orr.w	r3, r3, #2
      (void)USB_HC_Halt(hhcd->Instance, (uint8_t)ch_num);
 8001c9e:	4651      	mov	r1, sl
      __HAL_HCD_UNMASK_HALT_HC_INT(ch_num);
 8001ca0:	60fb      	str	r3, [r7, #12]
      (void)USB_HC_Halt(hhcd->Instance, (uint8_t)ch_num);
 8001ca2:	f002 fd05 	bl	80046b0 <USB_HC_Halt>
 8001ca6:	68a2      	ldr	r2, [r4, #8]
 8001ca8:	6820      	ldr	r0, [r4, #0]
 8001caa:	e79c      	b.n	8001be6 <HAL_HCD_IRQHandler+0x15a>
      __HAL_HCD_CLEAR_FLAG(hhcd, USB_OTG_GINTSTS_HCINT);
 8001cac:	f04f 7300 	mov.w	r3, #33554432	; 0x2000000
 8001cb0:	6143      	str	r3, [r0, #20]
 8001cb2:	e6f5      	b.n	8001aa0 <HAL_HCD_IRQHandler+0x14>
      HAL_HCD_SOF_Callback(hhcd);
 8001cb4:	4620      	mov	r0, r4
 8001cb6:	f7ff fedd 	bl	8001a74 <HAL_HCD_SOF_Callback>
      __HAL_HCD_CLEAR_FLAG(hhcd, USB_OTG_GINTSTS_SOF);
 8001cba:	6820      	ldr	r0, [r4, #0]
 8001cbc:	2308      	movs	r3, #8
 8001cbe:	6143      	str	r3, [r0, #20]
 8001cc0:	e72d      	b.n	8001b1e <HAL_HCD_IRQHandler+0x92>
  * @retval None
  */
static void HCD_Port_IRQHandler(HCD_HandleTypeDef *hhcd)
{
  USB_OTG_GlobalTypeDef *USBx = hhcd->Instance;
  uint32_t USBx_BASE = (uint32_t)USBx;
 8001cc2:	6826      	ldr	r6, [r4, #0]
  __IO uint32_t hprt0;
  __IO uint32_t hprt0_dup;

  /* Handle Host Port Interrupts */
  hprt0 = USBx_HPRT0;
 8001cc4:	f8d6 3440 	ldr.w	r3, [r6, #1088]	; 0x440
 8001cc8:	9302      	str	r3, [sp, #8]
  hprt0_dup = USBx_HPRT0;
 8001cca:	f8d6 3440 	ldr.w	r3, [r6, #1088]	; 0x440
 8001cce:	9303      	str	r3, [sp, #12]

  hprt0_dup &= ~(USB_OTG_HPRT_PENA | USB_OTG_HPRT_PCDET | \
 8001cd0:	9b03      	ldr	r3, [sp, #12]
 8001cd2:	f023 032e 	bic.w	r3, r3, #46	; 0x2e
 8001cd6:	9303      	str	r3, [sp, #12]
                 USB_OTG_HPRT_PENCHNG | USB_OTG_HPRT_POCCHNG);

  /* Check whether Port Connect detected */
  if ((hprt0 & USB_OTG_HPRT_PCDET) == USB_OTG_HPRT_PCDET)
 8001cd8:	9b02      	ldr	r3, [sp, #8]
 8001cda:	0798      	lsls	r0, r3, #30
 8001cdc:	d507      	bpl.n	8001cee <HAL_HCD_IRQHandler+0x262>
  {
    if ((hprt0 & USB_OTG_HPRT_PCSTS) == USB_OTG_HPRT_PCSTS)
 8001cde:	9b02      	ldr	r3, [sp, #8]
 8001ce0:	07d9      	lsls	r1, r3, #31
 8001ce2:	f100 8145 	bmi.w	8001f70 <HAL_HCD_IRQHandler+0x4e4>
      hhcd->ConnectCallback(hhcd);
#else
      HAL_HCD_Connect_Callback(hhcd);
#endif /* USE_HAL_HCD_REGISTER_CALLBACKS */
    }
    hprt0_dup |= USB_OTG_HPRT_PCDET;
 8001ce6:	9b03      	ldr	r3, [sp, #12]
 8001ce8:	f043 0302 	orr.w	r3, r3, #2
 8001cec:	9303      	str	r3, [sp, #12]
  }

  /* Check whether Port Enable Changed */
  if ((hprt0 & USB_OTG_HPRT_PENCHNG) == USB_OTG_HPRT_PENCHNG)
 8001cee:	9b02      	ldr	r3, [sp, #8]
 8001cf0:	071a      	lsls	r2, r3, #28
 8001cf2:	d515      	bpl.n	8001d20 <HAL_HCD_IRQHandler+0x294>
  {
    hprt0_dup |= USB_OTG_HPRT_PENCHNG;
 8001cf4:	9b03      	ldr	r3, [sp, #12]
 8001cf6:	f043 0308 	orr.w	r3, r3, #8
 8001cfa:	9303      	str	r3, [sp, #12]

    if ((hprt0 & USB_OTG_HPRT_PENA) == USB_OTG_HPRT_PENA)
 8001cfc:	9b02      	ldr	r3, [sp, #8]
 8001cfe:	075b      	lsls	r3, r3, #29
 8001d00:	f140 813a 	bpl.w	8001f78 <HAL_HCD_IRQHandler+0x4ec>
    {
      if (hhcd->Init.phy_itface  == USB_OTG_EMBEDDED_PHY)
 8001d04:	69a1      	ldr	r1, [r4, #24]
 8001d06:	2902      	cmp	r1, #2
 8001d08:	f000 813a 	beq.w	8001f80 <HAL_HCD_IRQHandler+0x4f4>
          (void)USB_InitFSLSPClkSel(hhcd->Instance, HCFG_48_MHZ);
        }
      }
      else
      {
        if (hhcd->Init.speed == HCD_SPEED_FULL)
 8001d0c:	68e3      	ldr	r3, [r4, #12]
 8001d0e:	2b01      	cmp	r3, #1
        {
          USBx_HOST->HFIR = 60000U;
 8001d10:	bf04      	itt	eq
 8001d12:	f64e 2260 	movweq	r2, #60000	; 0xea60
 8001d16:	f8c6 2404 	streq.w	r2, [r6, #1028]	; 0x404
        }
      }
#if (USE_HAL_HCD_REGISTER_CALLBACKS == 1U)
      hhcd->PortEnabledCallback(hhcd);
#else
      HAL_HCD_PortEnabled_Callback(hhcd);
 8001d1a:	4620      	mov	r0, r4
 8001d1c:	f7ff feb0 	bl	8001a80 <HAL_HCD_PortEnabled_Callback>
#endif /* USE_HAL_HCD_REGISTER_CALLBACKS */
    }
  }

  /* Check for an overcurrent */
  if ((hprt0 & USB_OTG_HPRT_POCCHNG) == USB_OTG_HPRT_POCCHNG)
 8001d20:	9b02      	ldr	r3, [sp, #8]
 8001d22:	069f      	lsls	r7, r3, #26
 8001d24:	d503      	bpl.n	8001d2e <HAL_HCD_IRQHandler+0x2a2>
  {
    hprt0_dup |= USB_OTG_HPRT_POCCHNG;
 8001d26:	9b03      	ldr	r3, [sp, #12]
 8001d28:	f043 0320 	orr.w	r3, r3, #32
 8001d2c:	9303      	str	r3, [sp, #12]
  }

  /* Clear Port Interrupts */
  USBx_HPRT0 = hprt0_dup;
 8001d2e:	9b03      	ldr	r3, [sp, #12]
 8001d30:	f8c6 3440 	str.w	r3, [r6, #1088]	; 0x440
}
 8001d34:	e6ec      	b.n	8001b10 <HAL_HCD_IRQHandler+0x84>
      USB_MASK_INTERRUPT(hhcd->Instance, USB_OTG_GINTSTS_RXFLVL);
 8001d36:	69b3      	ldr	r3, [r6, #24]
 8001d38:	f023 0310 	bic.w	r3, r3, #16
 8001d3c:	61b3      	str	r3, [r6, #24]
  GrxstspReg = hhcd->Instance->GRXSTSP;
 8001d3e:	6a37      	ldr	r7, [r6, #32]
  pktsts = (GrxstspReg & USB_OTG_GRXSTSP_PKTSTS) >> 17;
 8001d40:	f3c7 4243 	ubfx	r2, r7, #17, #4
  switch (pktsts)
 8001d44:	2a02      	cmp	r2, #2
 8001d46:	f000 8091 	beq.w	8001e6c <HAL_HCD_IRQHandler+0x3e0>
      USB_UNMASK_INTERRUPT(hhcd->Instance, USB_OTG_GINTSTS_RXFLVL);
 8001d4a:	69b3      	ldr	r3, [r6, #24]
 8001d4c:	f043 0310 	orr.w	r3, r3, #16
 8001d50:	61b3      	str	r3, [r6, #24]
 8001d52:	e6ea      	b.n	8001b2a <HAL_HCD_IRQHandler+0x9e>
  else if ((USBx_HC(ch_num)->HCINT & USB_OTG_HCINT_CHH) == USB_OTG_HCINT_CHH)
 8001d54:	68ba      	ldr	r2, [r7, #8]
 8001d56:	f012 0202 	ands.w	r2, r2, #2
 8001d5a:	f000 80a1 	beq.w	8001ea0 <HAL_HCD_IRQHandler+0x414>
    __HAL_HCD_MASK_HALT_HC_INT(ch_num);
 8001d5e:	68fa      	ldr	r2, [r7, #12]
    if (hhcd->hc[ch_num].state == HC_XFRC)
 8001d60:	212c      	movs	r1, #44	; 0x2c
    __HAL_HCD_MASK_HALT_HC_INT(ch_num);
 8001d62:	f022 0202 	bic.w	r2, r2, #2
    if (hhcd->hc[ch_num].state == HC_XFRC)
 8001d66:	fb01 410a 	mla	r1, r1, sl, r4
    __HAL_HCD_MASK_HALT_HC_INT(ch_num);
 8001d6a:	60fa      	str	r2, [r7, #12]
    if (hhcd->hc[ch_num].state == HC_XFRC)
 8001d6c:	f891 2061 	ldrb.w	r2, [r1, #97]	; 0x61
 8001d70:	2a01      	cmp	r2, #1
 8001d72:	f000 80d0 	beq.w	8001f16 <HAL_HCD_IRQHandler+0x48a>
    else if (hhcd->hc[ch_num].state == HC_STALL)
 8001d76:	2a05      	cmp	r2, #5
 8001d78:	f000 80cd 	beq.w	8001f16 <HAL_HCD_IRQHandler+0x48a>
    else if ((hhcd->hc[ch_num].state == HC_XACTERR) ||
 8001d7c:	2a06      	cmp	r2, #6
 8001d7e:	f000 8121 	beq.w	8001fc4 <HAL_HCD_IRQHandler+0x538>
 8001d82:	2a08      	cmp	r2, #8
 8001d84:	f000 811e 	beq.w	8001fc4 <HAL_HCD_IRQHandler+0x538>
    else if (hhcd->hc[ch_num].state == HC_NAK)
 8001d88:	2a03      	cmp	r2, #3
 8001d8a:	f000 813f 	beq.w	800200c <HAL_HCD_IRQHandler+0x580>
    else if (hhcd->hc[ch_num].state == HC_BBLERR)
 8001d8e:	2a07      	cmp	r2, #7
 8001d90:	f000 80bd 	beq.w	8001f0e <HAL_HCD_IRQHandler+0x482>
 8001d94:	f891 2060 	ldrb.w	r2, [r1, #96]	; 0x60
    __HAL_HCD_CLEAR_HC_INT(ch_num, USB_OTG_HCINT_CHH);
 8001d98:	f8c7 9008 	str.w	r9, [r7, #8]
    HAL_HCD_HC_NotifyURBChange_Callback(hhcd, (uint8_t)ch_num, hhcd->hc[ch_num].urb_state);
 8001d9c:	4651      	mov	r1, sl
 8001d9e:	4620      	mov	r0, r4
 8001da0:	f7ff fe72 	bl	8001a88 <HAL_HCD_HC_NotifyURBChange_Callback>
 8001da4:	68a2      	ldr	r2, [r4, #8]
 8001da6:	6820      	ldr	r0, [r4, #0]
 8001da8:	e71d      	b.n	8001be6 <HAL_HCD_IRQHandler+0x15a>
    __HAL_HCD_UNMASK_HALT_HC_INT(ch_num);
 8001daa:	68fb      	ldr	r3, [r7, #12]
    (void)USB_HC_Halt(hhcd->Instance, (uint8_t)ch_num);
 8001dac:	6820      	ldr	r0, [r4, #0]
    __HAL_HCD_UNMASK_HALT_HC_INT(ch_num);
 8001dae:	f043 0302 	orr.w	r3, r3, #2
 8001db2:	60fb      	str	r3, [r7, #12]
    (void)USB_HC_Halt(hhcd->Instance, (uint8_t)ch_num);
 8001db4:	4651      	mov	r1, sl
 8001db6:	f002 fc7b 	bl	80046b0 <USB_HC_Halt>
    __HAL_HCD_CLEAR_HC_INT(ch_num, USB_OTG_HCINT_FRMOR);
 8001dba:	f44f 7300 	mov.w	r3, #512	; 0x200
 8001dbe:	60bb      	str	r3, [r7, #8]
 8001dc0:	68a2      	ldr	r2, [r4, #8]
 8001dc2:	6820      	ldr	r0, [r4, #0]
 8001dc4:	e70f      	b.n	8001be6 <HAL_HCD_IRQHandler+0x15a>
  else if ((USBx_HC(ch_num)->HCINT & USB_OTG_HCINT_FRMOR) == USB_OTG_HCINT_FRMOR)
 8001dc6:	68bb      	ldr	r3, [r7, #8]
 8001dc8:	f413 7300 	ands.w	r3, r3, #512	; 0x200
 8001dcc:	f040 80ce 	bne.w	8001f6c <HAL_HCD_IRQHandler+0x4e0>
  else if ((USBx_HC(ch_num)->HCINT & USB_OTG_HCINT_XFRC) == USB_OTG_HCINT_XFRC)
 8001dd0:	f8d7 e008 	ldr.w	lr, [r7, #8]
 8001dd4:	f01e 0e01 	ands.w	lr, lr, #1
 8001dd8:	f000 80a0 	beq.w	8001f1c <HAL_HCD_IRQHandler+0x490>
    if ((USBx_HC(ch_num)->HCINT & USB_OTG_HCINT_NYET) == USB_OTG_HCINT_NYET)
 8001ddc:	68b9      	ldr	r1, [r7, #8]
    hhcd->hc[ch_num].ErrCnt = 0U;
 8001dde:	222c      	movs	r2, #44	; 0x2c
 8001de0:	fb02 420a 	mla	r2, r2, sl, r4
    if ((USBx_HC(ch_num)->HCINT & USB_OTG_HCINT_NYET) == USB_OTG_HCINT_NYET)
 8001de4:	0649      	lsls	r1, r1, #25
    hhcd->hc[ch_num].ErrCnt = 0U;
 8001de6:	65d3      	str	r3, [r2, #92]	; 0x5c
    if ((USBx_HC(ch_num)->HCINT & USB_OTG_HCINT_NYET) == USB_OTG_HCINT_NYET)
 8001de8:	d504      	bpl.n	8001df4 <HAL_HCD_IRQHandler+0x368>
      hhcd->hc[ch_num].do_ping = 1U;
 8001dea:	2101      	movs	r1, #1
      __HAL_HCD_CLEAR_HC_INT(ch_num, USB_OTG_HCINT_NYET);
 8001dec:	2340      	movs	r3, #64	; 0x40
      hhcd->hc[ch_num].do_ping = 1U;
 8001dee:	f882 103d 	strb.w	r1, [r2, #61]	; 0x3d
      __HAL_HCD_CLEAR_HC_INT(ch_num, USB_OTG_HCINT_NYET);
 8001df2:	60bb      	str	r3, [r7, #8]
    __HAL_HCD_UNMASK_HALT_HC_INT(ch_num);
 8001df4:	68fb      	ldr	r3, [r7, #12]
 8001df6:	f043 0302 	orr.w	r3, r3, #2
 8001dfa:	60fb      	str	r3, [r7, #12]
    (void)USB_HC_Halt(hhcd->Instance, (uint8_t)ch_num);
 8001dfc:	4651      	mov	r1, sl
 8001dfe:	f002 fc57 	bl	80046b0 <USB_HC_Halt>
    hhcd->hc[ch_num].state = HC_XFRC;
 8001e02:	232c      	movs	r3, #44	; 0x2c
 8001e04:	fb03 430a 	mla	r3, r3, sl, r4
    __HAL_HCD_CLEAR_HC_INT(ch_num, USB_OTG_HCINT_XFRC);
 8001e08:	2201      	movs	r2, #1
 8001e0a:	60ba      	str	r2, [r7, #8]
    hhcd->hc[ch_num].state = HC_XFRC;
 8001e0c:	f883 2061 	strb.w	r2, [r3, #97]	; 0x61
 8001e10:	68a2      	ldr	r2, [r4, #8]
 8001e12:	6820      	ldr	r0, [r4, #0]
 8001e14:	e6e7      	b.n	8001be6 <HAL_HCD_IRQHandler+0x15a>
      __HAL_HCD_UNMASK_HALT_HC_INT(ch_num);
 8001e16:	68fb      	ldr	r3, [r7, #12]
      (void)USB_HC_Halt(hhcd->Instance, (uint8_t)ch_num);
 8001e18:	6820      	ldr	r0, [r4, #0]
      __HAL_HCD_UNMASK_HALT_HC_INT(ch_num);
 8001e1a:	f043 0302 	orr.w	r3, r3, #2
 8001e1e:	60fb      	str	r3, [r7, #12]
      (void)USB_HC_Halt(hhcd->Instance, (uint8_t)ch_num);
 8001e20:	4651      	mov	r1, sl
 8001e22:	f002 fc45 	bl	80046b0 <USB_HC_Halt>
      __HAL_HCD_CLEAR_HC_INT(ch_num, USB_OTG_HCINT_NAK);
 8001e26:	2310      	movs	r3, #16
 8001e28:	6920      	ldr	r0, [r4, #16]
 8001e2a:	60bb      	str	r3, [r7, #8]
 8001e2c:	e6cd      	b.n	8001bca <HAL_HCD_IRQHandler+0x13e>
  else if ((USBx_HC(ch_num)->HCINT & USB_OTG_HCINT_STALL) == USB_OTG_HCINT_STALL)
 8001e2e:	68ba      	ldr	r2, [r7, #8]
 8001e30:	0712      	lsls	r2, r2, #28
 8001e32:	f100 80b0 	bmi.w	8001f96 <HAL_HCD_IRQHandler+0x50a>
  else if ((USBx_HC(ch_num)->HCINT & USB_OTG_HCINT_DTERR) == USB_OTG_HCINT_DTERR)
 8001e36:	68ba      	ldr	r2, [r7, #8]
 8001e38:	0551      	lsls	r1, r2, #21
 8001e3a:	f100 80d1 	bmi.w	8001fe0 <HAL_HCD_IRQHandler+0x554>
  else if ((USBx_HC(ch_num)->HCINT & USB_OTG_HCINT_TXERR) == USB_OTG_HCINT_TXERR)
 8001e3e:	68ba      	ldr	r2, [r7, #8]
 8001e40:	0612      	lsls	r2, r2, #24
 8001e42:	f57f ae95 	bpl.w	8001b70 <HAL_HCD_IRQHandler+0xe4>
    __HAL_HCD_UNMASK_HALT_HC_INT(ch_num);
 8001e46:	68f9      	ldr	r1, [r7, #12]
 8001e48:	9301      	str	r3, [sp, #4]
    hhcd->hc[ch_num].state = HC_XACTERR;
 8001e4a:	222c      	movs	r2, #44	; 0x2c
 8001e4c:	fb02 420a 	mla	r2, r2, sl, r4
    __HAL_HCD_UNMASK_HALT_HC_INT(ch_num);
 8001e50:	f041 0102 	orr.w	r1, r1, #2
    hhcd->hc[ch_num].state = HC_XACTERR;
 8001e54:	f04f 0c06 	mov.w	ip, #6
    __HAL_HCD_UNMASK_HALT_HC_INT(ch_num);
 8001e58:	60f9      	str	r1, [r7, #12]
    hhcd->hc[ch_num].state = HC_XACTERR;
 8001e5a:	f882 c061 	strb.w	ip, [r2, #97]	; 0x61
    (void)USB_HC_Halt(hhcd->Instance, (uint8_t)ch_num);
 8001e5e:	4651      	mov	r1, sl
 8001e60:	f002 fc26 	bl	80046b0 <USB_HC_Halt>
    __HAL_HCD_CLEAR_HC_INT(ch_num, USB_OTG_HCINT_TXERR);
 8001e64:	2280      	movs	r2, #128	; 0x80
 8001e66:	9b01      	ldr	r3, [sp, #4]
 8001e68:	60ba      	str	r2, [r7, #8]
 8001e6a:	e681      	b.n	8001b70 <HAL_HCD_IRQHandler+0xe4>
  pktcnt = (GrxstspReg & USB_OTG_GRXSTSP_BCNT) >> 4;
 8001e6c:	f3c7 120a 	ubfx	r2, r7, #4, #11
      if ((pktcnt > 0U) && (hhcd->hc[ch_num].xfer_buff != (void *)0))
 8001e70:	2a00      	cmp	r2, #0
 8001e72:	f43f af6a 	beq.w	8001d4a <HAL_HCD_IRQHandler+0x2be>
  ch_num = GrxstspReg & USB_OTG_GRXSTSP_EPNUM;
 8001e76:	f007 070f 	and.w	r7, r7, #15
      if ((pktcnt > 0U) && (hhcd->hc[ch_num].xfer_buff != (void *)0))
 8001e7a:	f04f 082c 	mov.w	r8, #44	; 0x2c
 8001e7e:	fb08 4807 	mla	r8, r8, r7, r4
 8001e82:	f8d8 1044 	ldr.w	r1, [r8, #68]	; 0x44
 8001e86:	2900      	cmp	r1, #0
 8001e88:	f43f af5f 	beq.w	8001d4a <HAL_HCD_IRQHandler+0x2be>
        if ((hhcd->hc[ch_num].xfer_count + pktcnt) <= hhcd->hc[ch_num].xfer_len)
 8001e8c:	e9d8 0313 	ldrd	r0, r3, [r8, #76]	; 0x4c
 8001e90:	4413      	add	r3, r2
 8001e92:	4283      	cmp	r3, r0
 8001e94:	f240 80fa 	bls.w	800208c <HAL_HCD_IRQHandler+0x600>
          hhcd->hc[ch_num].urb_state = URB_ERROR;
 8001e98:	2304      	movs	r3, #4
 8001e9a:	f888 3060 	strb.w	r3, [r8, #96]	; 0x60
 8001e9e:	e754      	b.n	8001d4a <HAL_HCD_IRQHandler+0x2be>
  else if ((USBx_HC(ch_num)->HCINT & USB_OTG_HCINT_NAK) == USB_OTG_HCINT_NAK)
 8001ea0:	68bb      	ldr	r3, [r7, #8]
 8001ea2:	06d8      	lsls	r0, r3, #27
 8001ea4:	f57f af7e 	bpl.w	8001da4 <HAL_HCD_IRQHandler+0x318>
    if (hhcd->hc[ch_num].ep_type == EP_TYPE_INTR)
 8001ea8:	232c      	movs	r3, #44	; 0x2c
 8001eaa:	fb03 430a 	mla	r3, r3, sl, r4
 8001eae:	f893 103f 	ldrb.w	r1, [r3, #63]	; 0x3f
 8001eb2:	2903      	cmp	r1, #3
 8001eb4:	f000 812f 	beq.w	8002116 <HAL_HCD_IRQHandler+0x68a>
    else if ((hhcd->hc[ch_num].ep_type == EP_TYPE_CTRL) ||
 8001eb8:	f011 01fd 	ands.w	r1, r1, #253	; 0xfd
 8001ebc:	d104      	bne.n	8001ec8 <HAL_HCD_IRQHandler+0x43c>
      if (hhcd->Init.dma_enable == 0U)
 8001ebe:	6922      	ldr	r2, [r4, #16]
      hhcd->hc[ch_num].ErrCnt = 0U;
 8001ec0:	65d9      	str	r1, [r3, #92]	; 0x5c
      if (hhcd->Init.dma_enable == 0U)
 8001ec2:	2a00      	cmp	r2, #0
 8001ec4:	f000 8131 	beq.w	800212a <HAL_HCD_IRQHandler+0x69e>
    __HAL_HCD_CLEAR_HC_INT(ch_num, USB_OTG_HCINT_NAK);
 8001ec8:	2310      	movs	r3, #16
 8001eca:	60bb      	str	r3, [r7, #8]
 8001ecc:	68a2      	ldr	r2, [r4, #8]
 8001ece:	6820      	ldr	r0, [r4, #0]
 8001ed0:	e689      	b.n	8001be6 <HAL_HCD_IRQHandler+0x15a>
    hhcd->hc[ch_num].state = HC_BBLERR;
 8001ed2:	222c      	movs	r2, #44	; 0x2c
 8001ed4:	fb02 420a 	mla	r2, r2, sl, r4
    __HAL_HCD_CLEAR_HC_INT(ch_num, USB_OTG_HCINT_BBERR);
 8001ed8:	f44f 7c80 	mov.w	ip, #256	; 0x100
    hhcd->hc[ch_num].state = HC_BBLERR;
 8001edc:	2107      	movs	r1, #7
    __HAL_HCD_CLEAR_HC_INT(ch_num, USB_OTG_HCINT_BBERR);
 8001ede:	f8c7 c008 	str.w	ip, [r7, #8]
    hhcd->hc[ch_num].state = HC_BBLERR;
 8001ee2:	f882 1061 	strb.w	r1, [r2, #97]	; 0x61
    __HAL_HCD_UNMASK_HALT_HC_INT(ch_num);
 8001ee6:	68fa      	ldr	r2, [r7, #12]
 8001ee8:	9301      	str	r3, [sp, #4]
 8001eea:	f042 0202 	orr.w	r2, r2, #2
 8001eee:	60fa      	str	r2, [r7, #12]
    (void)USB_HC_Halt(hhcd->Instance, (uint8_t)ch_num);
 8001ef0:	4651      	mov	r1, sl
 8001ef2:	f002 fbdd 	bl	80046b0 <USB_HC_Halt>
 8001ef6:	9b01      	ldr	r3, [sp, #4]
 8001ef8:	e63a      	b.n	8001b70 <HAL_HCD_IRQHandler+0xe4>
      if (((hhcd->hc[ch_num].XferSize / hhcd->hc[ch_num].max_packet) & 1U) != 0U)
 8001efa:	f8ba 2040 	ldrh.w	r2, [sl, #64]	; 0x40
 8001efe:	f8da 3048 	ldr.w	r3, [sl, #72]	; 0x48
 8001f02:	fbb3 f3f2 	udiv	r3, r3, r2
 8001f06:	07df      	lsls	r7, r3, #31
 8001f08:	f53f ae65 	bmi.w	8001bd6 <HAL_HCD_IRQHandler+0x14a>
 8001f0c:	e74a      	b.n	8001da4 <HAL_HCD_IRQHandler+0x318>
      hhcd->hc[ch_num].ErrCnt++;
 8001f0e:	6dcb      	ldr	r3, [r1, #92]	; 0x5c
 8001f10:	3301      	adds	r3, #1
      hhcd->hc[ch_num].urb_state = URB_ERROR;
 8001f12:	2204      	movs	r2, #4
      hhcd->hc[ch_num].ErrCnt++;
 8001f14:	65cb      	str	r3, [r1, #92]	; 0x5c
      hhcd->hc[ch_num].urb_state = URB_ERROR;
 8001f16:	f881 2060 	strb.w	r2, [r1, #96]	; 0x60
 8001f1a:	e73d      	b.n	8001d98 <HAL_HCD_IRQHandler+0x30c>
  else if ((USBx_HC(ch_num)->HCINT & USB_OTG_HCINT_NYET) == USB_OTG_HCINT_NYET)
 8001f1c:	68bb      	ldr	r3, [r7, #8]
 8001f1e:	065b      	lsls	r3, r3, #25
 8001f20:	f100 808e 	bmi.w	8002040 <HAL_HCD_IRQHandler+0x5b4>
  else if ((USBx_HC(ch_num)->HCINT & USB_OTG_HCINT_STALL) == USB_OTG_HCINT_STALL)
 8001f24:	68bb      	ldr	r3, [r7, #8]
 8001f26:	f013 0308 	ands.w	r3, r3, #8
 8001f2a:	f040 80e2 	bne.w	80020f2 <HAL_HCD_IRQHandler+0x666>
  else if ((USBx_HC(ch_num)->HCINT & USB_OTG_HCINT_NAK) == USB_OTG_HCINT_NAK)
 8001f2e:	f8d7 e008 	ldr.w	lr, [r7, #8]
 8001f32:	f01e 0f10 	tst.w	lr, #16
 8001f36:	f000 80c6 	beq.w	80020c6 <HAL_HCD_IRQHandler+0x63a>
    hhcd->hc[ch_num].ErrCnt = 0U;
 8001f3a:	222c      	movs	r2, #44	; 0x2c
 8001f3c:	fb02 420a 	mla	r2, r2, sl, r4
    hhcd->hc[ch_num].state = HC_NAK;
 8001f40:	2103      	movs	r1, #3
    hhcd->hc[ch_num].ErrCnt = 0U;
 8001f42:	65d3      	str	r3, [r2, #92]	; 0x5c
    if (hhcd->hc[ch_num].do_ping == 0U)
 8001f44:	f892 303d 	ldrb.w	r3, [r2, #61]	; 0x3d
    hhcd->hc[ch_num].state = HC_NAK;
 8001f48:	f882 1061 	strb.w	r1, [r2, #97]	; 0x61
    if (hhcd->hc[ch_num].do_ping == 0U)
 8001f4c:	b933      	cbnz	r3, 8001f5c <HAL_HCD_IRQHandler+0x4d0>
      if (hhcd->hc[ch_num].speed == HCD_DEVICE_SPEED_HIGH)
 8001f4e:	4613      	mov	r3, r2
 8001f50:	f892 203c 	ldrb.w	r2, [r2, #60]	; 0x3c
 8001f54:	b912      	cbnz	r2, 8001f5c <HAL_HCD_IRQHandler+0x4d0>
        hhcd->hc[ch_num].do_ping = 1U;
 8001f56:	2201      	movs	r2, #1
 8001f58:	f883 203d 	strb.w	r2, [r3, #61]	; 0x3d
    __HAL_HCD_UNMASK_HALT_HC_INT(ch_num);
 8001f5c:	68fb      	ldr	r3, [r7, #12]
        __HAL_HCD_UNMASK_HALT_HC_INT(ch_num);
 8001f5e:	f043 0302 	orr.w	r3, r3, #2
        (void)USB_HC_Halt(hhcd->Instance, (uint8_t)ch_num);
 8001f62:	4651      	mov	r1, sl
        __HAL_HCD_UNMASK_HALT_HC_INT(ch_num);
 8001f64:	60fb      	str	r3, [r7, #12]
        (void)USB_HC_Halt(hhcd->Instance, (uint8_t)ch_num);
 8001f66:	f002 fba3 	bl	80046b0 <USB_HC_Halt>
 8001f6a:	e7ad      	b.n	8001ec8 <HAL_HCD_IRQHandler+0x43c>
    __HAL_HCD_UNMASK_HALT_HC_INT(ch_num);
 8001f6c:	68fb      	ldr	r3, [r7, #12]
 8001f6e:	e71e      	b.n	8001dae <HAL_HCD_IRQHandler+0x322>
      HAL_HCD_Connect_Callback(hhcd);
 8001f70:	4620      	mov	r0, r4
 8001f72:	f7ff fd81 	bl	8001a78 <HAL_HCD_Connect_Callback>
 8001f76:	e6b6      	b.n	8001ce6 <HAL_HCD_IRQHandler+0x25a>
      HAL_HCD_PortDisabled_Callback(hhcd);
 8001f78:	4620      	mov	r0, r4
 8001f7a:	f7ff fd83 	bl	8001a84 <HAL_HCD_PortDisabled_Callback>
 8001f7e:	e6cf      	b.n	8001d20 <HAL_HCD_IRQHandler+0x294>
        if ((hprt0 & USB_OTG_HPRT_PSPD) == (HPRT0_PRTSPD_LOW_SPEED << 17))
 8001f80:	9b02      	ldr	r3, [sp, #8]
          (void)USB_InitFSLSPClkSel(hhcd->Instance, HCFG_48_MHZ);
 8001f82:	6820      	ldr	r0, [r4, #0]
        if ((hprt0 & USB_OTG_HPRT_PSPD) == (HPRT0_PRTSPD_LOW_SPEED << 17))
 8001f84:	f403 23c0 	and.w	r3, r3, #393216	; 0x60000
 8001f88:	f5b3 2f80 	cmp.w	r3, #262144	; 0x40000
          (void)USB_InitFSLSPClkSel(hhcd->Instance, HCFG_48_MHZ);
 8001f8c:	bf18      	it	ne
 8001f8e:	2101      	movne	r1, #1
 8001f90:	f002 fb6a 	bl	8004668 <USB_InitFSLSPClkSel>
