Archive member included to satisfy reference by file (symbol)

c:/st/stm32cubeide_1.7.0/stm32cubeide/plugins/com.st.stm32cube.ide.mcu.externaltools.gnu-tools-for-stm32.9-2020-q2-update.win32_2.0.0.202105311346/tools/bin/../lib/gcc/arm-none-eabi/9.3.1/../../../../arm-none-eabi/lib/thumb/v7e-m+fp/hard\libc_nano.a(lib_a-errno.o)
                              ./Core/Src/syscalls.o (__errno)
c:/st/stm32cubeide_1.7.0/stm32cubeide/plugins/com.st.stm32cube.ide.mcu.externaltools.gnu-tools-for-stm32.9-2020-q2-update.win32_2.0.0.202105311346/tools/bin/../lib/gcc/arm-none-eabi/9.3.1/../../../../arm-none-eabi/lib/thumb/v7e-m+fp/hard\libc_nano.a(lib_a-exit.o)
                              c:/st/stm32cubeide_1.7.0/stm32cubeide/plugins/com.st.stm32cube.ide.mcu.externaltools.gnu-tools-for-stm32.9-2020-q2-update.win32_2.0.0.202105311346/tools/bin/../lib/gcc/arm-none-eabi/9.3.1/../../../../arm-none-eabi/lib/thumb/v7e-m+fp/hard/crt0.o (exit)
c:/st/stm32cubeide_1.7.0/stm32cubeide/plugins/com.st.stm32cube.ide.mcu.externaltools.gnu-tools-for-stm32.9-2020-q2-update.win32_2.0.0.202105311346/tools/bin/../lib/gcc/arm-none-eabi/9.3.1/../../../../arm-none-eabi/lib/thumb/v7e-m+fp/hard\libc_nano.a(lib_a-findfp.o)
                              ./Middlewares/Third_Party/FreeRTOS/Source/tasks.o (__sf_fake_stderr)
c:/st/stm32cubeide_1.7.0/stm32cubeide/plugins/com.st.stm32cube.ide.mcu.externaltools.gnu-tools-for-stm32.9-2020-q2-update.win32_2.0.0.202105311346/tools/bin/../lib/gcc/arm-none-eabi/9.3.1/../../../../arm-none-eabi/lib/thumb/v7e-m+fp/hard\libc_nano.a(lib_a-fwalk.o)
                              c:/st/stm32cubeide_1.7.0/stm32cubeide/plugins/com.st.stm32cube.ide.mcu.externaltools.gnu-tools-for-stm32.9-2020-q2-update.win32_2.0.0.202105311346/tools/bin/../lib/gcc/arm-none-eabi/9.3.1/../../../../arm-none-eabi/lib/thumb/v7e-m+fp/hard\libc_nano.a(lib_a-findfp.o) (_fwalk)
c:/st/stm32cubeide_1.7.0/stm32cubeide/plugins/com.st.stm32cube.ide.mcu.externaltools.gnu-tools-for-stm32.9-2020-q2-update.win32_2.0.0.202105311346/tools/bin/../lib/gcc/arm-none-eabi/9.3.1/../../../../arm-none-eabi/lib/thumb/v7e-m+fp/hard\libc_nano.a(lib_a-impure.o)
                              c:/st/stm32cubeide_1.7.0/stm32cubeide/plugins/com.st.stm32cube.ide.mcu.externaltools.gnu-tools-for-stm32.9-2020-q2-update.win32_2.0.0.202105311346/tools/bin/../lib/gcc/arm-none-eabi/9.3.1/../../../../arm-none-eabi/lib/thumb/v7e-m+fp/hard\libc_nano.a(lib_a-exit.o) (_global_impure_ptr)
c:/st/stm32cubeide_1.7.0/stm32cubeide/plugins/com.st.stm32cube.ide.mcu.externaltools.gnu-tools-for-stm32.9-2020-q2-update.win32_2.0.0.202105311346/tools/bin/../lib/gcc/arm-none-eabi/9.3.1/../../../../arm-none-eabi/lib/thumb/v7e-m+fp/hard\libc_nano.a(lib_a-init.o)
                              c:/st/stm32cubeide_1.7.0/stm32cubeide/plugins/com.st.stm32cube.ide.mcu.externaltools.gnu-tools-for-stm32.9-2020-q2-update.win32_2.0.0.202105311346/tools/bin/../lib/gcc/arm-none-eabi/9.3.1/../../../../arm-none-eabi/lib/thumb/v7e-m+fp/hard/crt0.o (__libc_init_array)
c:/st/stm32cubeide_1.7.0/stm32cubeide/plugins/com.st.stm32cube.ide.mcu.externaltools.gnu-tools-for-stm32.9-2020-q2-update.win32_2.0.0.202105311346/tools/bin/../lib/gcc/arm-none-eabi/9.3.1/../../../../arm-none-eabi/lib/thumb/v7e-m+fp/hard\libc_nano.a(lib_a-lock.o)
                              c:/st/stm32cubeide_1.7.0/stm32cubeide/plugins/com.st.stm32cube.ide.mcu.externaltools.gnu-tools-for-stm32.9-2020-q2-update.win32_2.0.0.202105311346/tools/bin/../lib/gcc/arm-none-eabi/9.3.1/../../../../arm-none-eabi/lib/thumb/v7e-m+fp/hard\libc_nano.a(lib_a-findfp.o) (__retarget_lock_init_recursive)
c:/st/stm32cubeide_1.7.0/stm32cubeide/plugins/com.st.stm32cube.ide.mcu.externaltools.gnu-tools-for-stm32.9-2020-q2-update.win32_2.0.0.202105311346/tools/bin/../lib/gcc/arm-none-eabi/9.3.1/../../../../arm-none-eabi/lib/thumb/v7e-m+fp/hard\libc_nano.a(lib_a-malloc.o)
                              ./Core/Src/fsm.o (malloc)
c:/st/stm32cubeide_1.7.0/stm32cubeide/plugins/com.st.stm32cube.ide.mcu.externaltools.gnu-tools-for-stm32.9-2020-q2-update.win32_2.0.0.202105311346/tools/bin/../lib/gcc/arm-none-eabi/9.3.1/../../../../arm-none-eabi/lib/thumb/v7e-m+fp/hard\libc_nano.a(lib_a-memcpy-stub.o)
                              ./Middlewares/Third_Party/FreeRTOS/Source/CMSIS_RTOS_V2/cmsis_os2.o (memcpy)
c:/st/stm32cubeide_1.7.0/stm32cubeide/plugins/com.st.stm32cube.ide.mcu.externaltools.gnu-tools-for-stm32.9-2020-q2-update.win32_2.0.0.202105311346/tools/bin/../lib/gcc/arm-none-eabi/9.3.1/../../../../arm-none-eabi/lib/thumb/v7e-m+fp/hard\libc_nano.a(lib_a-memset.o)
                              c:/st/stm32cubeide_1.7.0/stm32cubeide/plugins/com.st.stm32cube.ide.mcu.externaltools.gnu-tools-for-stm32.9-2020-q2-update.win32_2.0.0.202105311346/tools/bin/../lib/gcc/arm-none-eabi/9.3.1/../../../../arm-none-eabi/lib/thumb/v7e-m+fp/hard/crt0.o (memset)
c:/st/stm32cubeide_1.7.0/stm32cubeide/plugins/com.st.stm32cube.ide.mcu.externaltools.gnu-tools-for-stm32.9-2020-q2-update.win32_2.0.0.202105311346/tools/bin/../lib/gcc/arm-none-eabi/9.3.1/../../../../arm-none-eabi/lib/thumb/v7e-m+fp/hard\libc_nano.a(lib_a-nano-freer.o)
                              c:/st/stm32cubeide_1.7.0/stm32cubeide/plugins/com.st.stm32cube.ide.mcu.externaltools.gnu-tools-for-stm32.9-2020-q2-update.win32_2.0.0.202105311346/tools/bin/../lib/gcc/arm-none-eabi/9.3.1/../../../../arm-none-eabi/lib/thumb/v7e-m+fp/hard\libc_nano.a(lib_a-malloc.o) (_free_r)
c:/st/stm32cubeide_1.7.0/stm32cubeide/plugins/com.st.stm32cube.ide.mcu.externaltools.gnu-tools-for-stm32.9-2020-q2-update.win32_2.0.0.202105311346/tools/bin/../lib/gcc/arm-none-eabi/9.3.1/../../../../arm-none-eabi/lib/thumb/v7e-m+fp/hard\libc_nano.a(lib_a-nano-mallocr.o)
                              c:/st/stm32cubeide_1.7.0/stm32cubeide/plugins/com.st.stm32cube.ide.mcu.externaltools.gnu-tools-for-stm32.9-2020-q2-update.win32_2.0.0.202105311346/tools/bin/../lib/gcc/arm-none-eabi/9.3.1/../../../../arm-none-eabi/lib/thumb/v7e-m+fp/hard\libc_nano.a(lib_a-findfp.o) (_malloc_r)
c:/st/stm32cubeide_1.7.0/stm32cubeide/plugins/com.st.stm32cube.ide.mcu.externaltools.gnu-tools-for-stm32.9-2020-q2-update.win32_2.0.0.202105311346/tools/bin/../lib/gcc/arm-none-eabi/9.3.1/../../../../arm-none-eabi/lib/thumb/v7e-m+fp/hard\libc_nano.a(lib_a-reent.o)
                              ./Middlewares/Third_Party/FreeRTOS/Source/tasks.o (_reclaim_reent)
c:/st/stm32cubeide_1.7.0/stm32cubeide/plugins/com.st.stm32cube.ide.mcu.externaltools.gnu-tools-for-stm32.9-2020-q2-update.win32_2.0.0.202105311346/tools/bin/../lib/gcc/arm-none-eabi/9.3.1/../../../../arm-none-eabi/lib/thumb/v7e-m+fp/hard\libc_nano.a(lib_a-sbrkr.o)
                              c:/st/stm32cubeide_1.7.0/stm32cubeide/plugins/com.st.stm32cube.ide.mcu.externaltools.gnu-tools-for-stm32.9-2020-q2-update.win32_2.0.0.202105311346/tools/bin/../lib/gcc/arm-none-eabi/9.3.1/../../../../arm-none-eabi/lib/thumb/v7e-m+fp/hard\libc_nano.a(lib_a-nano-mallocr.o) (_sbrk_r)
c:/st/stm32cubeide_1.7.0/stm32cubeide/plugins/com.st.stm32cube.ide.mcu.externaltools.gnu-tools-for-stm32.9-2020-q2-update.win32_2.0.0.202105311346/tools/bin/../lib/gcc/arm-none-eabi/9.3.1/../../../../arm-none-eabi/lib/thumb/v7e-m+fp/hard\libc_nano.a(lib_a-stdio.o)
                              c:/st/stm32cubeide_1.7.0/stm32cubeide/plugins/com.st.stm32cube.ide.mcu.externaltools.gnu-tools-for-stm32.9-2020-q2-update.win32_2.0.0.202105311346/tools/bin/../lib/gcc/arm-none-eabi/9.3.1/../../../../arm-none-eabi/lib/thumb/v7e-m+fp/hard\libc_nano.a(lib_a-findfp.o) (__sread)
c:/st/stm32cubeide_1.7.0/stm32cubeide/plugins/com.st.stm32cube.ide.mcu.externaltools.gnu-tools-for-stm32.9-2020-q2-update.win32_2.0.0.202105311346/tools/bin/../lib/gcc/arm-none-eabi/9.3.1/../../../../arm-none-eabi/lib/thumb/v7e-m+fp/hard\libc_nano.a(lib_a-writer.o)
                              c:/st/stm32cubeide_1.7.0/stm32cubeide/plugins/com.st.stm32cube.ide.mcu.externaltools.gnu-tools-for-stm32.9-2020-q2-update.win32_2.0.0.202105311346/tools/bin/../lib/gcc/arm-none-eabi/9.3.1/../../../../arm-none-eabi/lib/thumb/v7e-m+fp/hard\libc_nano.a(lib_a-stdio.o) (_write_r)
c:/st/stm32cubeide_1.7.0/stm32cubeide/plugins/com.st.stm32cube.ide.mcu.externaltools.gnu-tools-for-stm32.9-2020-q2-update.win32_2.0.0.202105311346/tools/bin/../lib/gcc/arm-none-eabi/9.3.1/../../../../arm-none-eabi/lib/thumb/v7e-m+fp/hard\libc_nano.a(lib_a-closer.o)
                              c:/st/stm32cubeide_1.7.0/stm32cubeide/plugins/com.st.stm32cube.ide.mcu.externaltools.gnu-tools-for-stm32.9-2020-q2-update.win32_2.0.0.202105311346/tools/bin/../lib/gcc/arm-none-eabi/9.3.1/../../../../arm-none-eabi/lib/thumb/v7e-m+fp/hard\libc_nano.a(lib_a-stdio.o) (_close_r)
c:/st/stm32cubeide_1.7.0/stm32cubeide/plugins/com.st.stm32cube.ide.mcu.externaltools.gnu-tools-for-stm32.9-2020-q2-update.win32_2.0.0.202105311346/tools/bin/../lib/gcc/arm-none-eabi/9.3.1/../../../../arm-none-eabi/lib/thumb/v7e-m+fp/hard\libc_nano.a(lib_a-fflush.o)
                              c:/st/stm32cubeide_1.7.0/stm32cubeide/plugins/com.st.stm32cube.ide.mcu.externaltools.gnu-tools-for-stm32.9-2020-q2-update.win32_2.0.0.202105311346/tools/bin/../lib/gcc/arm-none-eabi/9.3.1/../../../../arm-none-eabi/lib/thumb/v7e-m+fp/hard\libc_nano.a(lib_a-findfp.o) (_fflush_r)
c:/st/stm32cubeide_1.7.0/stm32cubeide/plugins/com.st.stm32cube.ide.mcu.externaltools.gnu-tools-for-stm32.9-2020-q2-update.win32_2.0.0.202105311346/tools/bin/../lib/gcc/arm-none-eabi/9.3.1/../../../../arm-none-eabi/lib/thumb/v7e-m+fp/hard\libc_nano.a(lib_a-lseekr.o)
                              c:/st/stm32cubeide_1.7.0/stm32cubeide/plugins/com.st.stm32cube.ide.mcu.externaltools.gnu-tools-for-stm32.9-2020-q2-update.win32_2.0.0.202105311346/tools/bin/../lib/gcc/arm-none-eabi/9.3.1/../../../../arm-none-eabi/lib/thumb/v7e-m+fp/hard\libc_nano.a(lib_a-stdio.o) (_lseek_r)
c:/st/stm32cubeide_1.7.0/stm32cubeide/plugins/com.st.stm32cube.ide.mcu.externaltools.gnu-tools-for-stm32.9-2020-q2-update.win32_2.0.0.202105311346/tools/bin/../lib/gcc/arm-none-eabi/9.3.1/../../../../arm-none-eabi/lib/thumb/v7e-m+fp/hard\libc_nano.a(lib_a-mlock.o)
                              c:/st/stm32cubeide_1.7.0/stm32cubeide/plugins/com.st.stm32cube.ide.mcu.externaltools.gnu-tools-for-stm32.9-2020-q2-update.win32_2.0.0.202105311346/tools/bin/../lib/gcc/arm-none-eabi/9.3.1/../../../../arm-none-eabi/lib/thumb/v7e-m+fp/hard\libc_nano.a(lib_a-nano-freer.o) (__malloc_lock)
c:/st/stm32cubeide_1.7.0/stm32cubeide/plugins/com.st.stm32cube.ide.mcu.externaltools.gnu-tools-for-stm32.9-2020-q2-update.win32_2.0.0.202105311346/tools/bin/../lib/gcc/arm-none-eabi/9.3.1/../../../../arm-none-eabi/lib/thumb/v7e-m+fp/hard\libc_nano.a(lib_a-readr.o)
                              c:/st/stm32cubeide_1.7.0/stm32cubeide/plugins/com.st.stm32cube.ide.mcu.externaltools.gnu-tools-for-stm32.9-2020-q2-update.win32_2.0.0.202105311346/tools/bin/../lib/gcc/arm-none-eabi/9.3.1/../../../../arm-none-eabi/lib/thumb/v7e-m+fp/hard\libc_nano.a(lib_a-stdio.o) (_read_r)
c:/st/stm32cubeide_1.7.0/stm32cubeide/plugins/com.st.stm32cube.ide.mcu.externaltools.gnu-tools-for-stm32.9-2020-q2-update.win32_2.0.0.202105311346/tools/bin/../lib/gcc/arm-none-eabi/9.3.1/../../../../arm-none-eabi/lib/thumb/v7e-m+fp/hard\libm.a(lib_a-wf_sqrt.o)
                              ./Core/Src/freertos.o (sqrtf)
c:/st/stm32cubeide_1.7.0/stm32cubeide/plugins/com.st.stm32cube.ide.mcu.externaltools.gnu-tools-for-stm32.9-2020-q2-update.win32_2.0.0.202105311346/tools/bin/../lib/gcc/arm-none-eabi/9.3.1/../../../../arm-none-eabi/lib/thumb/v7e-m+fp/hard\libm.a(lib_a-ef_sqrt.o)
                              c:/st/stm32cubeide_1.7.0/stm32cubeide/plugins/com.st.stm32cube.ide.mcu.externaltools.gnu-tools-for-stm32.9-2020-q2-update.win32_2.0.0.202105311346/tools/bin/../lib/gcc/arm-none-eabi/9.3.1/../../../../arm-none-eabi/lib/thumb/v7e-m+fp/hard\libm.a(lib_a-wf_sqrt.o) (__ieee754_sqrtf)
c:/st/stm32cubeide_1.7.0/stm32cubeide/plugins/com.st.stm32cube.ide.mcu.externaltools.gnu-tools-for-stm32.9-2020-q2-update.win32_2.0.0.202105311346/tools/bin/../lib/gcc/arm-none-eabi/9.3.1/../../../../arm-none-eabi/lib/thumb/v7e-m+fp/hard\libm.a(lib_a-s_lib_ver.o)
                              c:/st/stm32cubeide_1.7.0/stm32cubeide/plugins/com.st.stm32cube.ide.mcu.externaltools.gnu-tools-for-stm32.9-2020-q2-update.win32_2.0.0.202105311346/tools/bin/../lib/gcc/arm-none-eabi/9.3.1/../../../../arm-none-eabi/lib/thumb/v7e-m+fp/hard\libm.a(lib_a-wf_sqrt.o) (__fdlib_version)
c:/st/stm32cubeide_1.7.0/stm32cubeide/plugins/com.st.stm32cube.ide.mcu.externaltools.gnu-tools-for-stm32.9-2020-q2-update.win32_2.0.0.202105311346/tools/bin/../lib/gcc/arm-none-eabi/9.3.1/thumb/v7e-m+fp/hard\libgcc.a(_aeabi_ldivmod.o)
                              ./Drivers/STM32F4xx_HAL_Driver/Src/stm32f4xx_hal_rcc.o (__aeabi_ldivmod)
c:/st/stm32cubeide_1.7.0/stm32cubeide/plugins/com.st.stm32cube.ide.mcu.externaltools.gnu-tools-for-stm32.9-2020-q2-update.win32_2.0.0.202105311346/tools/bin/../lib/gcc/arm-none-eabi/9.3.1/thumb/v7e-m+fp/hard\libgcc.a(_aeabi_uldivmod.o)
                              ./Drivers/STM32F4xx_HAL_Driver/Src/stm32f4xx_hal_rcc.o (__aeabi_uldivmod)
c:/st/stm32cubeide_1.7.0/stm32cubeide/plugins/com.st.stm32cube.ide.mcu.externaltools.gnu-tools-for-stm32.9-2020-q2-update.win32_2.0.0.202105311346/tools/bin/../lib/gcc/arm-none-eabi/9.3.1/thumb/v7e-m+fp/hard\libgcc.a(_udivmoddi4.o)
                              c:/st/stm32cubeide_1.7.0/stm32cubeide/plugins/com.st.stm32cube.ide.mcu.externaltools.gnu-tools-for-stm32.9-2020-q2-update.win32_2.0.0.202105311346/tools/bin/../lib/gcc/arm-none-eabi/9.3.1/thumb/v7e-m+fp/hard\libgcc.a(_aeabi_ldivmod.o) (__udivmoddi4)
c:/st/stm32cubeide_1.7.0/stm32cubeide/plugins/com.st.stm32cube.ide.mcu.externaltools.gnu-tools-for-stm32.9-2020-q2-update.win32_2.0.0.202105311346/tools/bin/../lib/gcc/arm-none-eabi/9.3.1/thumb/v7e-m+fp/hard\libgcc.a(_dvmd_tls.o)
                              c:/st/stm32cubeide_1.7.0/stm32cubeide/plugins/com.st.stm32cube.ide.mcu.externaltools.gnu-tools-for-stm32.9-2020-q2-update.win32_2.0.0.202105311346/tools/bin/../lib/gcc/arm-none-eabi/9.3.1/thumb/v7e-m+fp/hard\libgcc.a(_aeabi_ldivmod.o) (__aeabi_ldiv0)

Allocating common symbols
Common symbol       size              file

SamplesQueueHandle  0x4               ./Core/Src/freertos.o
__lock___atexit_recursive_mutex
                    0x1               c:/st/stm32cubeide_1.7.0/stm32cubeide/plugins/com.st.stm32cube.ide.mcu.externaltools.gnu-tools-for-stm32.9-2020-q2-update.win32_2.0.0.202105311346/tools/bin/../lib/gcc/arm-none-eabi/9.3.1/../../../../arm-none-eabi/lib/thumb/v7e-m+fp/hard\libc_nano.a(lib_a-lock.o)
defaultTaskHandle   0x4               ./Core/Src/freertos.o
__lock___arc4random_mutex
                    0x1               c:/st/stm32cubeide_1.7.0/stm32cubeide/plugins/com.st.stm32cube.ide.mcu.externaltools.gnu-tools-for-stm32.9-2020-q2-update.win32_2.0.0.202105311346/tools/bin/../lib/gcc/arm-none-eabi/9.3.1/../../../../arm-none-eabi/lib/thumb/v7e-m+fp/hard\libc_nano.a(lib_a-lock.o)
htim4               0x48              ./Core/Src/tim.o
errno               0x4               c:/st/stm32cubeide_1.7.0/stm32cubeide/plugins/com.st.stm32cube.ide.mcu.externaltools.gnu-tools-for-stm32.9-2020-q2-update.win32_2.0.0.202105311346/tools/bin/../lib/gcc/arm-none-eabi/9.3.1/../../../../arm-none-eabi/lib/thumb/v7e-m+fp/hard\libc_nano.a(lib_a-reent.o)
hi2c1               0x54              ./Core/Src/i2c.o
GeneralQueueHandle  0x4               ./Core/Src/freertos.o
uwTick              0x4               ./Drivers/STM32F4xx_HAL_Driver/Src/stm32f4xx_hal.o
xQueueRegistry      0x40              ./Middlewares/Third_Party/FreeRTOS/Source/queue.o
pFlash              0x20              ./Drivers/STM32F4xx_HAL_Driver/Src/stm32f4xx_hal_flash.o
__lock___env_recursive_mutex
                    0x1               c:/st/stm32cubeide_1.7.0/stm32cubeide/plugins/com.st.stm32cube.ide.mcu.externaltools.gnu-tools-for-stm32.9-2020-q2-update.win32_2.0.0.202105311346/tools/bin/../lib/gcc/arm-none-eabi/9.3.1/../../../../arm-none-eabi/lib/thumb/v7e-m+fp/hard\libc_nano.a(lib_a-lock.o)
__lock___sinit_recursive_mutex
                    0x1               c:/st/stm32cubeide_1.7.0/stm32cubeide/plugins/com.st.stm32cube.ide.mcu.externaltools.gnu-tools-for-stm32.9-2020-q2-update.win32_2.0.0.202105311346/tools/bin/../lib/gcc/arm-none-eabi/9.3.1/../../../../arm-none-eabi/lib/thumb/v7e-m+fp/hard\libc_nano.a(lib_a-lock.o)
LED_TASKHandle      0x4               ./Core/Src/freertos.o
__lock___malloc_recursive_mutex
                    0x1               c:/st/stm32cubeide_1.7.0/stm32cubeide/plugins/com.st.stm32cube.ide.mcu.externaltools.gnu-tools-for-stm32.9-2020-q2-update.win32_2.0.0.202105311346/tools/bin/../lib/gcc/arm-none-eabi/9.3.1/../../../../arm-none-eabi/lib/thumb/v7e-m+fp/hard\libc_nano.a(lib_a-lock.o)
Button_TaskHandle   0x4               ./Core/Src/freertos.o
Process_TaskHandle  0x4               ./Core/Src/freertos.o
Toggle_TaskHandle   0x4               ./Core/Src/freertos.o
Sample_TaskHandle   0x4               ./Core/Src/freertos.o
htim1               0x48              ./Core/Src/stm32f4xx_hal_timebase_tim.o
aBufferTS           0xa               ./Components/exc7200/exc7200.o
hspi1               0x58              ./Core/Src/spi.o
hhcd_USB_OTG_FS     0x304             ./Core/Src/usb_otg.o
__lock___at_quick_exit_mutex
                    0x1               c:/st/stm32cubeide_1.7.0/stm32cubeide/plugins/com.st.stm32cube.ide.mcu.externaltools.gnu-tools-for-stm32.9-2020-q2-update.win32_2.0.0.202105311346/tools/bin/../lib/gcc/arm-none-eabi/9.3.1/../../../../arm-none-eabi/lib/thumb/v7e-m+fp/hard\libc_nano.a(lib_a-lock.o)
__lock___dd_hash_mutex
                    0x1               c:/st/stm32cubeide_1.7.0/stm32cubeide/plugins/com.st.stm32cube.ide.mcu.externaltools.gnu-tools-for-stm32.9-2020-q2-update.win32_2.0.0.202105311346/tools/bin/../lib/gcc/arm-none-eabi/9.3.1/../../../../arm-none-eabi/lib/thumb/v7e-m+fp/hard\libc_nano.a(lib_a-lock.o)
__lock___tz_mutex   0x1               c:/st/stm32cubeide_1.7.0/stm32cubeide/plugins/com.st.stm32cube.ide.mcu.externaltools.gnu-tools-for-stm32.9-2020-q2-update.win32_2.0.0.202105311346/tools/bin/../lib/gcc/arm-none-eabi/9.3.1/../../../../arm-none-eabi/lib/thumb/v7e-m+fp/hard\libc_nano.a(lib_a-lock.o)
hi2s2               0x48              ./Core/Src/i2s.o
hi2s3               0x48              ./Core/Src/i2s.o
__lock___sfp_recursive_mutex
                    0x1               c:/st/stm32cubeide_1.7.0/stm32cubeide/plugins/com.st.stm32cube.ide.mcu.externaltools.gnu-tools-for-stm32.9-2020-q2-update.win32_2.0.0.202105311346/tools/bin/../lib/gcc/arm-none-eabi/9.3.1/../../../../arm-none-eabi/lib/thumb/v7e-m+fp/hard\libc_nano.a(lib_a-lock.o)

Discarded input sections

 .text          0x0000000000000000        0x0 c:/st/stm32cubeide_1.7.0/stm32cubeide/plugins/com.st.stm32cube.ide.mcu.externaltools.gnu-tools-for-stm32.9-2020-q2-update.win32_2.0.0.202105311346/tools/bin/../lib/gcc/arm-none-eabi/9.3.1/thumb/v7e-m+fp/hard/crti.o
 .data          0x0000000000000000        0x0 c:/st/stm32cubeide_1.7.0/stm32cubeide/plugins/com.st.stm32cube.ide.mcu.externaltools.gnu-tools-for-stm32.9-2020-q2-update.win32_2.0.0.202105311346/tools/bin/../lib/gcc/arm-none-eabi/9.3.1/thumb/v7e-m+fp/hard/crti.o
 .bss           0x0000000000000000        0x0 c:/st/stm32cubeide_1.7.0/stm32cubeide/plugins/com.st.stm32cube.ide.mcu.externaltools.gnu-tools-for-stm32.9-2020-q2-update.win32_2.0.0.202105311346/tools/bin/../lib/gcc/arm-none-eabi/9.3.1/thumb/v7e-m+fp/hard/crti.o
 .data          0x0000000000000000        0x4 c:/st/stm32cubeide_1.7.0/stm32cubeide/plugins/com.st.stm32cube.ide.mcu.externaltools.gnu-tools-for-stm32.9-2020-q2-update.win32_2.0.0.202105311346/tools/bin/../lib/gcc/arm-none-eabi/9.3.1/thumb/v7e-m+fp/hard/crtbegin.o
 .text          0x0000000000000000       0x7c c:/st/stm32cubeide_1.7.0/stm32cubeide/plugins/com.st.stm32cube.ide.mcu.externaltools.gnu-tools-for-stm32.9-2020-q2-update.win32_2.0.0.202105311346/tools/bin/../lib/gcc/arm-none-eabi/9.3.1/../../../../arm-none-eabi/lib/thumb/v7e-m+fp/hard/crt0.o
 .data          0x0000000000000000        0x0 c:/st/stm32cubeide_1.7.0/stm32cubeide/plugins/com.st.stm32cube.ide.mcu.externaltools.gnu-tools-for-stm32.9-2020-q2-update.win32_2.0.0.202105311346/tools/bin/../lib/gcc/arm-none-eabi/9.3.1/../../../../arm-none-eabi/lib/thumb/v7e-m+fp/hard/crt0.o
 .bss           0x0000000000000000        0x0 c:/st/stm32cubeide_1.7.0/stm32cubeide/plugins/com.st.stm32cube.ide.mcu.externaltools.gnu-tools-for-stm32.9-2020-q2-update.win32_2.0.0.202105311346/tools/bin/../lib/gcc/arm-none-eabi/9.3.1/../../../../arm-none-eabi/lib/thumb/v7e-m+fp/hard/crt0.o
 .ARM.extab     0x0000000000000000        0x0 c:/st/stm32cubeide_1.7.0/stm32cubeide/plugins/com.st.stm32cube.ide.mcu.externaltools.gnu-tools-for-stm32.9-2020-q2-update.win32_2.0.0.202105311346/tools/bin/../lib/gcc/arm-none-eabi/9.3.1/../../../../arm-none-eabi/lib/thumb/v7e-m+fp/hard/crt0.o
 .ARM.exidx     0x0000000000000000       0x10 c:/st/stm32cubeide_1.7.0/stm32cubeide/plugins/com.st.stm32cube.ide.mcu.externaltools.gnu-tools-for-stm32.9-2020-q2-update.win32_2.0.0.202105311346/tools/bin/../lib/gcc/arm-none-eabi/9.3.1/../../../../arm-none-eabi/lib/thumb/v7e-m+fp/hard/crt0.o
 .ARM.attributes
                0x0000000000000000       0x1c c:/st/stm32cubeide_1.7.0/stm32cubeide/plugins/com.st.stm32cube.ide.mcu.externaltools.gnu-tools-for-stm32.9-2020-q2-update.win32_2.0.0.202105311346/tools/bin/../lib/gcc/arm-none-eabi/9.3.1/../../../../arm-none-eabi/lib/thumb/v7e-m+fp/hard/crt0.o
 .group         0x0000000000000000        0xc ./Components/cs43l22/cs43l22.o
 .group         0x0000000000000000        0xc ./Components/cs43l22/cs43l22.o
 .group         0x0000000000000000        0xc ./Components/cs43l22/cs43l22.o
 .group         0x0000000000000000        0xc ./Components/cs43l22/cs43l22.o
 .group         0x0000000000000000        0xc ./Components/cs43l22/cs43l22.o
 .group         0x0000000000000000        0xc ./Components/cs43l22/cs43l22.o
 .group         0x0000000000000000        0xc ./Components/cs43l22/cs43l22.o
Memory Configuration

Name             Origin             Length             Attributes
RAM              0x0000000020000000 0x0000000000020000 xrw
FLASH            0x0000000008000000 0x0000000000080000 xr
*default*        0x0000000000000000 0xffffffffffffffff

Linker script and memory map

LOAD c:/st/stm32cubeide_1.7.0/stm32cubeide/plugins/com.st.stm32cube.ide.mcu.externaltools.gnu-tools-for-stm32.9-2020-q2-update.win32_2.0.0.202105311346/tools/bin/../lib/gcc/arm-none-eabi/9.3.1/thumb/v7e-m+fp/hard/crti.o
LOAD c:/st/stm32cubeide_1.7.0/stm32cubeide/plugins/com.st.stm32cube.ide.mcu.externaltools.gnu-tools-for-stm32.9-2020-q2-update.win32_2.0.0.202105311346/tools/bin/../lib/gcc/arm-none-eabi/9.3.1/thumb/v7e-m+fp/hard/crtbegin.o
LOAD c:/st/stm32cubeide_1.7.0/stm32cubeide/plugins/com.st.stm32cube.ide.mcu.externaltools.gnu-tools-for-stm32.9-2020-q2-update.win32_2.0.0.202105311346/tools/bin/../lib/gcc/arm-none-eabi/9.3.1/../../../../arm-none-eabi/lib/thumb/v7e-m+fp/hard/crt0.o
LOAD ./Components/cs43l22/cs43l22.o
LOAD ./Components/exc7200/exc7200.o
LOAD ./Components/ft6x06/ft6x06.o
LOAD ./Components/i3g4250d/i3g4250d.o
LOAD ./Components/ili9325/ili9325.o
LOAD ./Components/ili9341/ili9341.o
LOAD ./Components/l3gd20/l3gd20.o
LOAD ./Components/lis302dl/lis302dl.o
LOAD ./Components/lis3dsh/lis3dsh.o
LOAD ./Components/ls016b8uy/ls016b8uy.o
LOAD ./Components/lsm303agr/lsm303agr.o
LOAD ./Components/lsm303dlhc/lsm303dlhc.o
LOAD ./Components/mfxstm32l152/mfxstm32l152.o
LOAD ./Components/nt35510/nt35510.o
LOAD ./Components/otm8009a/otm8009a.o
LOAD ./Components/ov2640/ov2640.o
LOAD ./Components/ov5640/ov5640.o
LOAD ./Components/s5k5cag/s5k5cag.o
LOAD ./Components/st7735/st7735.o
LOAD ./Components/st7789h2/st7789h2.o
LOAD ./Components/stmpe1600/stmpe1600.o
LOAD ./Components/stmpe811/stmpe811.o
LOAD ./Components/ts3510/ts3510.o
LOAD ./Components/wm8994/wm8994.o
LOAD ./Core/Src/freertos.o
LOAD ./Core/Src/fsm.o
LOAD ./Core/Src/gpio.o
LOAD ./Core/Src/i2c.o
LOAD ./Core/Src/i2s.o
LOAD ./Core/Src/main.o
LOAD ./Core/Src/spi.o
LOAD ./Core/Src/stm32f4xx_hal_msp.o
LOAD ./Core/Src/stm32f4xx_hal_timebase_tim.o
LOAD ./Core/Src/stm32f4xx_it.o
LOAD ./Core/Src/syscalls.o
LOAD ./Core/Src/sysmem.o
LOAD ./Core/Src/system_stm32f4xx.o
LOAD ./Core/Src/tim.o
LOAD ./Core/Src/usb_otg.o
LOAD ./Core/Startup/startup_stm32f411vetx.o
LOAD ./Drivers/STM32F4xx_HAL_Driver/Src/stm32f4xx_hal.o
LOAD ./Drivers/STM32F4xx_HAL_Driver/Src/stm32f4xx_hal_cortex.o
LOAD ./Drivers/STM32F4xx_HAL_Driver/Src/stm32f4xx_hal_dma.o
LOAD ./Drivers/STM32F4xx_HAL_Driver/Src/stm32f4xx_hal_dma_ex.o
LOAD ./Drivers/STM32F4xx_HAL_Driver/Src/stm32f4xx_hal_exti.o
LOAD ./Drivers/STM32F4xx_HAL_Driver/Src/stm32f4xx_hal_flash.o
LOAD ./Drivers/STM32F4xx_HAL_Driver/Src/stm32f4xx_hal_flash_ex.o
LOAD ./Drivers/STM32F4xx_HAL_Driver/Src/stm32f4xx_hal_flash_ramfunc.o
LOAD ./Drivers/STM32F4xx_HAL_Driver/Src/stm32f4xx_hal_gpio.o
LOAD ./Drivers/STM32F4xx_HAL_Driver/Src/stm32f4xx_hal_hcd.o
LOAD ./Drivers/STM32F4xx_HAL_Driver/Src/stm32f4xx_hal_i2c.o
LOAD ./Drivers/STM32F4xx_HAL_Driver/Src/stm32f4xx_hal_i2c_ex.o
LOAD ./Drivers/STM32F4xx_HAL_Driver/Src/stm32f4xx_hal_i2s.o
LOAD ./Drivers/STM32F4xx_HAL_Driver/Src/stm32f4xx_hal_i2s_ex.o
LOAD ./Drivers/STM32F4xx_HAL_Driver/Src/stm32f4xx_hal_pwr.o
LOAD ./Drivers/STM32F4xx_HAL_Driver/Src/stm32f4xx_hal_pwr_ex.o
LOAD ./Drivers/STM32F4xx_HAL_Driver/Src/stm32f4xx_hal_rcc.o
LOAD ./Drivers/STM32F4xx_HAL_Driver/Src/stm32f4xx_hal_rcc_ex.o
LOAD ./Drivers/STM32F4xx_HAL_Driver/Src/stm32f4xx_hal_spi.o
LOAD ./Drivers/STM32F4xx_HAL_Driver/Src/stm32f4xx_hal_tim.o
LOAD ./Drivers/STM32F4xx_HAL_Driver/Src/stm32f4xx_hal_tim_ex.o
LOAD ./Drivers/STM32F4xx_HAL_Driver/Src/stm32f4xx_ll_usb.o
LOAD ./Middlewares/Third_Party/FreeRTOS/Source/CMSIS_RTOS_V2/cmsis_os2.o
LOAD ./Middlewares/Third_Party/FreeRTOS/Source/croutine.o
LOAD ./Middlewares/Third_Party/FreeRTOS/Source/event_groups.o
LOAD ./Middlewares/Third_Party/FreeRTOS/Source/list.o
LOAD ./Middlewares/Third_Party/FreeRTOS/Source/queue.o
LOAD ./Middlewares/Third_Party/FreeRTOS/Source/stream_buffer.o
LOAD ./Middlewares/Third_Party/FreeRTOS/Source/tasks.o
LOAD ./Middlewares/Third_Party/FreeRTOS/Source/timers.o
LOAD ./Middlewares/Third_Party/FreeRTOS/Source/portable/GCC/ARM_CM4F/port.o
LOAD ./Middlewares/Third_Party/FreeRTOS/Source/portable/MemMang/heap_4.o
LOAD ./STM32F411E-Discovery/stm32f411e_discovery.o
LOAD ./STM32F411E-Discovery/stm32f411e_discovery_accelerometer.o
LOAD ./STM32F411E-Discovery/stm32f411e_discovery_gyroscope.o
LOAD C:\Uni\Master\PrimerSemestre\SEMP\P3\P3_SEMP\Drivers\CMSIS\Lib\GCC\libarm_cortexM4lf_math.a
START GROUP
LOAD c:/st/stm32cubeide_1.7.0/stm32cubeide/plugins/com.st.stm32cube.ide.mcu.externaltools.gnu-tools-for-stm32.9-2020-q2-update.win32_2.0.0.202105311346/tools/bin/../lib/gcc/arm-none-eabi/9.3.1/../../../../arm-none-eabi/lib/thumb/v7e-m+fp/hard\libc_nano.a
LOAD c:/st/stm32cubeide_1.7.0/stm32cubeide/plugins/com.st.stm32cube.ide.mcu.externaltools.gnu-tools-for-stm32.9-2020-q2-update.win32_2.0.0.202105311346/tools/bin/../lib/gcc/arm-none-eabi/9.3.1/../../../../arm-none-eabi/lib/thumb/v7e-m+fp/hard\libm.a
END GROUP
START GROUP
LOAD c:/st/stm32cubeide_1.7.0/stm32cubeide/plugins/com.st.stm32cube.ide.mcu.externaltools.gnu-tools-for-stm32.9-2020-q2-update.win32_2.0.0.202105311346/tools/bin/../lib/gcc/arm-none-eabi/9.3.1/thumb/v7e-m+fp/hard\libgcc.a
LOAD c:/st/stm32cubeide_1.7.0/stm32cubeide/plugins/com.st.stm32cube.ide.mcu.externaltools.gnu-tools-for-stm32.9-2020-q2-update.win32_2.0.0.202105311346/tools/bin/../lib/gcc/arm-none-eabi/9.3.1/../../../../arm-none-eabi/lib/thumb/v7e-m+fp/hard\libc_nano.a
END GROUP
START GROUP
LOAD c:/st/stm32cubeide_1.7.0/stm32cubeide/plugins/com.st.stm32cube.ide.mcu.externaltools.gnu-tools-for-stm32.9-2020-q2-update.win32_2.0.0.202105311346/tools/bin/../lib/gcc/arm-none-eabi/9.3.1/thumb/v7e-m+fp/hard\libgcc.a
LOAD c:/st/stm32cubeide_1.7.0/stm32cubeide/plugins/com.st.stm32cube.ide.mcu.externaltools.gnu-tools-for-stm32.9-2020-q2-update.win32_2.0.0.202105311346/tools/bin/../lib/gcc/arm-none-eabi/9.3.1/../../../../arm-none-eabi/lib/thumb/v7e-m+fp/hard\libc_nano.a
LOAD c:/st/stm32cubeide_1.7.0/stm32cubeide/plugins/com.st.stm32cube.ide.mcu.externaltools.gnu-tools-for-stm32.9-2020-q2-update.win32_2.0.0.202105311346/tools/bin/../lib/gcc/arm-none-eabi/9.3.1/../../../../arm-none-eabi/lib/thumb/v7e-m+fp/hard\libnosys.a
END GROUP
START GROUP
LOAD c:/st/stm32cubeide_1.7.0/stm32cubeide/plugins/com.st.stm32cube.ide.mcu.externaltools.gnu-tools-for-stm32.9-2020-q2-update.win32_2.0.0.202105311346/tools/bin/../lib/gcc/arm-none-eabi/9.3.1/thumb/v7e-m+fp/hard\libgcc.a
LOAD c:/st/stm32cubeide_1.7.0/stm32cubeide/plugins/com.st.stm32cube.ide.mcu.externaltools.gnu-tools-for-stm32.9-2020-q2-update.win32_2.0.0.202105311346/tools/bin/../lib/gcc/arm-none-eabi/9.3.1/../../../../arm-none-eabi/lib/thumb/v7e-m+fp/hard\libc_nano.a
LOAD c:/st/stm32cubeide_1.7.0/stm32cubeide/plugins/com.st.stm32cube.ide.mcu.externaltools.gnu-tools-for-stm32.9-2020-q2-update.win32_2.0.0.202105311346/tools/bin/../lib/gcc/arm-none-eabi/9.3.1/../../../../arm-none-eabi/lib/thumb/v7e-m+fp/hard\libnosys.a
END GROUP
LOAD c:/st/stm32cubeide_1.7.0/stm32cubeide/plugins/com.st.stm32cube.ide.mcu.externaltools.gnu-tools-for-stm32.9-2020-q2-update.win32_2.0.0.202105311346/tools/bin/../lib/gcc/arm-none-eabi/9.3.1/thumb/v7e-m+fp/hard/crtend.o
LOAD c:/st/stm32cubeide_1.7.0/stm32cubeide/plugins/com.st.stm32cube.ide.mcu.externaltools.gnu-tools-for-stm32.9-2020-q2-update.win32_2.0.0.202105311346/tools/bin/../lib/gcc/arm-none-eabi/9.3.1/thumb/v7e-m+fp/hard/crtn.o
                0x0000000020020000                _estack = (ORIGIN (RAM) + LENGTH (RAM))
                0x0000000000000200                _Min_Heap_Size = 0x200
                0x0000000000000400                _Min_Stack_Size = 0x400

.isr_vector     0x0000000008000000      0x198
                0x0000000008000000                . = ALIGN (0x4)
 *(.isr_vector)
 .isr_vector    0x0000000008000000      0x198 ./Core/Startup/startup_stm32f411vetx.o
                0x0000000008000000                g_pfnVectors
                0x0000000008000198                . = ALIGN (0x4)

.text           0x00000000080001a0     0x714c
                0x00000000080001a0                . = ALIGN (0x4)
 *(.text)
 .text          0x00000000080001a0       0x40 c:/st/stm32cubeide_1.7.0/stm32cubeide/plugins/com.st.stm32cube.ide.mcu.externaltools.gnu-tools-for-stm32.9-2020-q2-update.win32_2.0.0.202105311346/tools/bin/../lib/gcc/arm-none-eabi/9.3.1/thumb/v7e-m+fp/hard/crtbegin.o
 .text          0x00000000080001e0       0x30 c:/st/stm32cubeide_1.7.0/stm32cubeide/plugins/com.st.stm32cube.ide.mcu.externaltools.gnu-tools-for-stm32.9-2020-q2-update.win32_2.0.0.202105311346/tools/bin/../lib/gcc/arm-none-eabi/9.3.1/thumb/v7e-m+fp/hard\libgcc.a(_aeabi_uldivmod.o)
                0x00000000080001e0                __aeabi_uldivmod
 .text          0x0000000008000210      0x2c4 c:/st/stm32cubeide_1.7.0/stm32cubeide/plugins/com.st.stm32cube.ide.mcu.externaltools.gnu-tools-for-stm32.9-2020-q2-update.win32_2.0.0.202105311346/tools/bin/../lib/gcc/arm-none-eabi/9.3.1/thumb/v7e-m+fp/hard\libgcc.a(_udivmoddi4.o)
                0x0000000008000210                __udivmoddi4
 .text          0x00000000080004d4        0x4 c:/st/stm32cubeide_1.7.0/stm32cubeide/plugins/com.st.stm32cube.ide.mcu.externaltools.gnu-tools-for-stm32.9-2020-q2-update.win32_2.0.0.202105311346/tools/bin/../lib/gcc/arm-none-eabi/9.3.1/thumb/v7e-m+fp/hard\libgcc.a(_dvmd_tls.o)
                0x00000000080004d4                __aeabi_idiv0
                0x00000000080004d4                __aeabi_ldiv0
 *(.text*)
 .text.LSM303AGR_AccDeInit
                0x00000000080004d8        0x4 ./Components/lsm303agr/lsm303agr.o
                0x00000000080004d8                LSM303AGR_AccDeInit
 .text.LSM303AGR_AccInit
                0x00000000080004dc       0x20 ./Components/lsm303agr/lsm303agr.o
                0x00000000080004dc                LSM303AGR_AccInit
 .text.LSM303AGR_AccReadID
                0x00000000080004fc       0x14 ./Components/lsm303agr/lsm303agr.o
                0x00000000080004fc                LSM303AGR_AccReadID
 .text.LSM303AGR_AccRebootCmd
                0x0000000008000510       0x1c ./Components/lsm303agr/lsm303agr.o
                0x0000000008000510                LSM303AGR_AccRebootCmd
 .text.LSM303AGR_AccFilterConfig
                0x000000000800052c       0x20 ./Components/lsm303agr/lsm303agr.o
                0x000000000800052c                LSM303AGR_AccFilterConfig
 .text.LSM303AGR_AccFilterCmd
                0x000000000800054c       0x20 ./Components/lsm303agr/lsm303agr.o
                0x000000000800054c                LSM303AGR_AccFilterCmd
 .text.LSM303AGR_AccReadXYZ
                0x000000000800056c       0xfc ./Components/lsm303agr/lsm303agr.o
                0x000000000800056c                LSM303AGR_AccReadXYZ
 .text.LSM303AGR_AccZClickITConfig
                0x0000000008000668       0x78 ./Components/lsm303agr/lsm303agr.o
                0x0000000008000668                LSM303AGR_AccZClickITConfig
 .text.LSM303DLHC_AccDeInit
                0x00000000080006e0        0x4 ./Components/lsm303dlhc/lsm303dlhc.o
                0x00000000080006e0                LSM303DLHC_AccDeInit
 .text.LSM303DLHC_AccInit
                0x00000000080006e4       0x20 ./Components/lsm303dlhc/lsm303dlhc.o
                0x00000000080006e4                LSM303DLHC_AccInit
 .text.LSM303DLHC_AccReadID
                0x0000000008000704       0x14 ./Components/lsm303dlhc/lsm303dlhc.o
                0x0000000008000704                LSM303DLHC_AccReadID
 .text.LSM303DLHC_AccRebootCmd
                0x0000000008000718       0x1c ./Components/lsm303dlhc/lsm303dlhc.o
                0x0000000008000718                LSM303DLHC_AccRebootCmd
 .text.LSM303DLHC_AccFilterConfig
                0x0000000008000734       0x20 ./Components/lsm303dlhc/lsm303dlhc.o
                0x0000000008000734                LSM303DLHC_AccFilterConfig
 .text.LSM303DLHC_AccFilterCmd
                0x0000000008000754       0x20 ./Components/lsm303dlhc/lsm303dlhc.o
                0x0000000008000754                LSM303DLHC_AccFilterCmd
 .text.LSM303DLHC_AccReadXYZ
                0x0000000008000774       0xfc ./Components/lsm303dlhc/lsm303dlhc.o
                0x0000000008000774                LSM303DLHC_AccReadXYZ
 .text.LSM303DLHC_AccZClickITConfig
                0x0000000008000870       0x78 ./Components/lsm303dlhc/lsm303dlhc.o
                0x0000000008000870                LSM303DLHC_AccZClickITConfig
 .text.StartDefaultTask
                0x00000000080008e8        0xc ./Core/Src/freertos.o
                0x00000000080008e8                StartDefaultTask
 .text.SampleTask
                0x00000000080008f4       0x50 ./Core/Src/freertos.o
                0x00000000080008f4                SampleTask
 .text.LEDTask  0x0000000008000944       0x54 ./Core/Src/freertos.o
                0x0000000008000944                LEDTask
 .text.ProcessTask
                0x0000000008000998       0xe4 ./Core/Src/freertos.o
                0x0000000008000998                ProcessTask
 .text.ToggleTask
                0x0000000008000a7c       0x20 ./Core/Src/freertos.o
                0x0000000008000a7c                ToggleTask
 .text.Buttontask
                0x0000000008000a9c       0x70 ./Core/Src/freertos.o
                0x0000000008000a9c                Buttontask
 .text.vApplicationIdleHook
                0x0000000008000b0c        0x4 ./Core/Src/freertos.o
                0x0000000008000b0c                vApplicationIdleHook
 .text.PreSleepProcessing
                0x0000000008000b10        0x4 ./Core/Src/freertos.o
                0x0000000008000b10                PreSleepProcessing
 .text.PostSleepProcessing
                0x0000000008000b14        0x4 ./Core/Src/freertos.o
                0x0000000008000b14                PostSleepProcessing
 .text.MX_FREERTOS_Init
                0x0000000008000b18       0xd8 ./Core/Src/freertos.o
                0x0000000008000b18                MX_FREERTOS_Init
 .text.HAL_GPIO_EXTI_Callback
                0x0000000008000bf0       0x14 ./Core/Src/freertos.o
                0x0000000008000bf0                HAL_GPIO_EXTI_Callback
 .text.MX_GPIO_Init
                0x0000000008000c04      0x170 ./Core/Src/gpio.o
                0x0000000008000c04                MX_GPIO_Init
 .text.MX_I2C1_Init
                0x0000000008000d74       0x3c ./Core/Src/i2c.o
                0x0000000008000d74                MX_I2C1_Init
 .text.HAL_I2C_MspInit
                0x0000000008000db0       0x74 ./Core/Src/i2c.o
                0x0000000008000db0                HAL_I2C_MspInit
 .text.HAL_I2C_MspDeInit
                0x0000000008000e24       0x38 ./Core/Src/i2c.o
                0x0000000008000e24                HAL_I2C_MspDeInit
 .text.MX_I2S2_Init
                0x0000000008000e5c       0x40 ./Core/Src/i2s.o
                0x0000000008000e5c                MX_I2S2_Init
 .text.MX_I2S3_Init
                0x0000000008000e9c       0x3c ./Core/Src/i2s.o
                0x0000000008000e9c                MX_I2S3_Init
 .text.HAL_I2S_MspInit
                0x0000000008000ed8      0x140 ./Core/Src/i2s.o
                0x0000000008000ed8                HAL_I2S_MspInit
 .text.SystemClock_Config
                0x0000000008001018       0xa4 ./Core/Src/main.o
                0x0000000008001018                SystemClock_Config
 .text.PeriphCommonClock_Config
                0x00000000080010bc       0x2c ./Core/Src/main.o
                0x00000000080010bc                PeriphCommonClock_Config
 .text.startup.main
                0x00000000080010e8       0x48 ./Core/Src/main.o
                0x00000000080010e8                main
 .text.HAL_TIM_PeriodElapsedCallback
                0x0000000008001130       0x14 ./Core/Src/main.o
                0x0000000008001130                HAL_TIM_PeriodElapsedCallback
 .text.Error_Handler
                0x0000000008001144        0x4 ./Core/Src/main.o
                0x0000000008001144                Error_Handler
 .text.MX_SPI1_Init
                0x0000000008001148       0x44 ./Core/Src/spi.o
                0x0000000008001148                MX_SPI1_Init
 .text.HAL_SPI_MspInit
                0x000000000800118c       0x70 ./Core/Src/spi.o
                0x000000000800118c                HAL_SPI_MspInit
 .text.HAL_MspInit
                0x00000000080011fc       0x58 ./Core/Src/stm32f4xx_hal_msp.o
                0x00000000080011fc                HAL_MspInit
 .text.HAL_InitTick
                0x0000000008001254       0x7c ./Core/Src/stm32f4xx_hal_timebase_tim.o
                0x0000000008001254                HAL_InitTick
 .text.NMI_Handler
                0x00000000080012d0        0x4 ./Core/Src/stm32f4xx_it.o
                0x00000000080012d0                NMI_Handler
 .text.HardFault_Handler
                0x00000000080012d4        0x4 ./Core/Src/stm32f4xx_it.o
                0x00000000080012d4                HardFault_Handler
 .text.MemManage_Handler
                0x00000000080012d8        0x4 ./Core/Src/stm32f4xx_it.o
                0x00000000080012d8                MemManage_Handler
 .text.BusFault_Handler
                0x00000000080012dc        0x4 ./Core/Src/stm32f4xx_it.o
                0x00000000080012dc                BusFault_Handler
 .text.UsageFault_Handler
                0x00000000080012e0        0x4 ./Core/Src/stm32f4xx_it.o
                0x00000000080012e0                UsageFault_Handler
 .text.DebugMon_Handler
                0x00000000080012e4        0x4 ./Core/Src/stm32f4xx_it.o
                0x00000000080012e4                DebugMon_Handler
 .text.EXTI0_IRQHandler
                0x00000000080012e8        0x8 ./Core/Src/stm32f4xx_it.o
                0x00000000080012e8                EXTI0_IRQHandler
 .text.TIM1_UP_TIM10_IRQHandler
                0x00000000080012f0        0xc ./Core/Src/stm32f4xx_it.o
                0x00000000080012f0                TIM1_UP_TIM10_IRQHandler
 .text.OTG_FS_IRQHandler
                0x00000000080012fc        0xc ./Core/Src/stm32f4xx_it.o
                0x00000000080012fc                OTG_FS_IRQHandler
 .text.FPU_IRQHandler
                0x0000000008001308        0x4 ./Core/Src/stm32f4xx_it.o
                0x0000000008001308                FPU_IRQHandler
 .text.SystemInit
                0x000000000800130c       0x14 ./Core/Src/system_stm32f4xx.o
                0x000000000800130c                SystemInit
 .text.MX_TIM4_Init
                0x0000000008001320       0xfc ./Core/Src/tim.o
                0x0000000008001320                MX_TIM4_Init
 .text.HAL_TIM_Base_MspInit
                0x000000000800141c       0x30 ./Core/Src/tim.o
                0x000000000800141c                HAL_TIM_Base_MspInit
 .text.MX_USB_OTG_FS_HCD_Init
                0x000000000800144c       0x30 ./Core/Src/usb_otg.o
                0x000000000800144c                MX_USB_OTG_FS_HCD_Init
 .text.HAL_HCD_MspInit
                0x000000000800147c       0x9c ./Core/Src/usb_otg.o
                0x000000000800147c                HAL_HCD_MspInit
 .text.Reset_Handler
                0x0000000008001518       0x50 ./Core/Startup/startup_stm32f411vetx.o
                0x0000000008001518                Reset_Handler
 .text.Default_Handler
                0x0000000008001568        0x2 ./Core/Startup/startup_stm32f411vetx.o
                0x0000000008001568                RTC_Alarm_IRQHandler
                0x0000000008001568                EXTI2_IRQHandler
                0x0000000008001568                SPI4_IRQHandler
                0x0000000008001568                TIM1_CC_IRQHandler
                0x0000000008001568                DMA2_Stream5_IRQHandler
                0x0000000008001568                DMA1_Stream5_IRQHandler
                0x0000000008001568                PVD_IRQHandler
                0x0000000008001568                SDIO_IRQHandler
                0x0000000008001568                TAMP_STAMP_IRQHandler
                0x0000000008001568                EXTI3_IRQHandler
                0x0000000008001568                I2C3_ER_IRQHandler
                0x0000000008001568                I2C2_EV_IRQHandler
                0x0000000008001568                DMA1_Stream2_IRQHandler
                0x0000000008001568                DMA2_Stream2_IRQHandler
                0x0000000008001568                SPI1_IRQHandler
                0x0000000008001568                TIM1_BRK_TIM9_IRQHandler
                0x0000000008001568                DMA2_Stream3_IRQHandler
                0x0000000008001568                USART6_IRQHandler
                0x0000000008001568                DMA2_Stream0_IRQHandler
                0x0000000008001568                TIM4_IRQHandler
                0x0000000008001568                I2C1_EV_IRQHandler
                0x0000000008001568                DMA1_Stream6_IRQHandler
                0x0000000008001568                DMA1_Stream1_IRQHandler
                0x0000000008001568                TIM3_IRQHandler
                0x0000000008001568                RCC_IRQHandler
                0x0000000008001568                Default_Handler
                0x0000000008001568                EXTI15_10_IRQHandler
                0x0000000008001568                ADC_IRQHandler
                0x0000000008001568                DMA1_Stream7_IRQHandler
                0x0000000008001568                SPI5_IRQHandler
                0x0000000008001568                TIM5_IRQHandler
                0x0000000008001568                DMA2_Stream7_IRQHandler
                0x0000000008001568                I2C3_EV_IRQHandler
                0x0000000008001568                EXTI9_5_IRQHandler
                0x0000000008001568                RTC_WKUP_IRQHandler
                0x0000000008001568                SPI2_IRQHandler
                0x0000000008001568                DMA1_Stream0_IRQHandler
                0x0000000008001568                EXTI4_IRQHandler
                0x0000000008001568                WWDG_IRQHandler
                0x0000000008001568                TIM2_IRQHandler
                0x0000000008001568                OTG_FS_WKUP_IRQHandler
                0x0000000008001568                TIM1_TRG_COM_TIM11_IRQHandler
                0x0000000008001568                EXTI1_IRQHandler
                0x0000000008001568                USART2_IRQHandler
                0x0000000008001568                I2C2_ER_IRQHandler
                0x0000000008001568                DMA2_Stream1_IRQHandler
                0x0000000008001568                FLASH_IRQHandler
                0x0000000008001568                DMA2_Stream4_IRQHandler
                0x0000000008001568                USART1_IRQHandler
                0x0000000008001568                SPI3_IRQHandler
                0x0000000008001568                DMA1_Stream4_IRQHandler
                0x0000000008001568                I2C1_ER_IRQHandler
                0x0000000008001568                DMA2_Stream6_IRQHandler
                0x0000000008001568                DMA1_Stream3_IRQHandler
 *fill*         0x000000000800156a        0x2 
 .text.HAL_Init
                0x000000000800156c       0x34 ./Drivers/STM32F4xx_HAL_Driver/Src/stm32f4xx_hal.o
                0x000000000800156c                HAL_Init
 .text.HAL_IncTick
                0x00000000080015a0       0x18 ./Drivers/STM32F4xx_HAL_Driver/Src/stm32f4xx_hal.o
                0x00000000080015a0                HAL_IncTick
 .text.HAL_GetTick
                0x00000000080015b8        0xc ./Drivers/STM32F4xx_HAL_Driver/Src/stm32f4xx_hal.o
                0x00000000080015b8                HAL_GetTick
 .text.HAL_Delay
                0x00000000080015c4       0x24 ./Drivers/STM32F4xx_HAL_Driver/Src/stm32f4xx_hal.o
                0x00000000080015c4                HAL_Delay
 .text.HAL_NVIC_SetPriorityGrouping
                0x00000000080015e8       0x28 ./Drivers/STM32F4xx_HAL_Driver/Src/stm32f4xx_hal_cortex.o
                0x00000000080015e8                HAL_NVIC_SetPriorityGrouping
 .text.HAL_NVIC_SetPriority
                0x0000000008001610       0x70 ./Drivers/STM32F4xx_HAL_Driver/Src/stm32f4xx_hal_cortex.o
                0x0000000008001610                HAL_NVIC_SetPriority
 .text.HAL_NVIC_EnableIRQ
                0x0000000008001680       0x1c ./Drivers/STM32F4xx_HAL_Driver/Src/stm32f4xx_hal_cortex.o
                0x0000000008001680                HAL_NVIC_EnableIRQ
 .text.HAL_GPIO_Init
                0x000000000800169c      0x1d8 ./Drivers/STM32F4xx_HAL_Driver/Src/stm32f4xx_hal_gpio.o
                0x000000000800169c                HAL_GPIO_Init
 .text.HAL_GPIO_DeInit
                0x0000000008001874      0x12c ./Drivers/STM32F4xx_HAL_Driver/Src/stm32f4xx_hal_gpio.o
                0x0000000008001874                HAL_GPIO_DeInit
 .text.HAL_GPIO_WritePin
                0x00000000080019a0        0x8 ./Drivers/STM32F4xx_HAL_Driver/Src/stm32f4xx_hal_gpio.o
                0x00000000080019a0                HAL_GPIO_WritePin
 .text.HAL_GPIO_TogglePin
                0x00000000080019a8       0x14 ./Drivers/STM32F4xx_HAL_Driver/Src/stm32f4xx_hal_gpio.o
                0x00000000080019a8                HAL_GPIO_TogglePin
 .text.HAL_GPIO_EXTI_IRQHandler
                0x00000000080019bc       0x18 ./Drivers/STM32F4xx_HAL_Driver/Src/stm32f4xx_hal_gpio.o
                0x00000000080019bc                HAL_GPIO_EXTI_IRQHandler
 .text.HAL_HCD_Init
                0x00000000080019d4       0xa0 ./Drivers/STM32F4xx_HAL_Driver/Src/stm32f4xx_hal_hcd.o
                0x00000000080019d4                HAL_HCD_Init
 .text.HAL_HCD_SOF_Callback
                0x0000000008001a74        0x4 ./Drivers/STM32F4xx_HAL_Driver/Src/stm32f4xx_hal_hcd.o
                0x0000000008001a74                HAL_HCD_SOF_Callback
 .text.HAL_HCD_Connect_Callback
                0x0000000008001a78        0x4 ./Drivers/STM32F4xx_HAL_Driver/Src/stm32f4xx_hal_hcd.o
                0x0000000008001a78                HAL_HCD_Connect_Callback
 .text.HAL_HCD_Disconnect_Callback
                0x0000000008001a7c        0x4 ./Drivers/STM32F4xx_HAL_Driver/Src/stm32f4xx_hal_hcd.o
                0x0000000008001a7c                HAL_HCD_Disconnect_Callback
 .text.HAL_HCD_PortEnabled_Callback
                0x0000000008001a80        0x4 ./Drivers/STM32F4xx_HAL_Driver/Src/stm32f4xx_hal_hcd.o
                0x0000000008001a80                HAL_HCD_PortEnabled_Callback
 .text.HAL_HCD_PortDisabled_Callback
                0x0000000008001a84        0x4 ./Drivers/STM32F4xx_HAL_Driver/Src/stm32f4xx_hal_hcd.o
                0x0000000008001a84                HAL_HCD_PortDisabled_Callback
 .text.HAL_HCD_HC_NotifyURBChange_Callback
                0x0000000008001a88        0x4 ./Drivers/STM32F4xx_HAL_Driver/Src/stm32f4xx_hal_hcd.o
                0x0000000008001a88                HAL_HCD_HC_NotifyURBChange_Callback
 .text.HAL_HCD_IRQHandler
                0x0000000008001a8c      0x7e8 ./Drivers/STM32F4xx_HAL_Driver/Src/stm32f4xx_hal_hcd.o
                0x0000000008001a8c                HAL_HCD_IRQHandler
 .text.I2C_WaitOnMasterAddressFlagUntilTimeout.constprop.1
                0x0000000008002274       0x8c ./Drivers/STM32F4xx_HAL_Driver/Src/stm32f4xx_hal_i2c.o
 .text.I2C_RequestMemoryWrite
                0x0000000008002300      0x164 ./Drivers/STM32F4xx_HAL_Driver/Src/stm32f4xx_hal_i2c.o
 .text.I2C_RequestMemoryRead
                0x0000000008002464      0x1d8 ./Drivers/STM32F4xx_HAL_Driver/Src/stm32f4xx_hal_i2c.o
 .text.HAL_I2C_Init
                0x000000000800263c      0x188 ./Drivers/STM32F4xx_HAL_Driver/Src/stm32f4xx_hal_i2c.o
                0x000000000800263c                HAL_I2C_Init
 .text.HAL_I2C_DeInit
                0x00000000080027c4       0x34 ./Drivers/STM32F4xx_HAL_Driver/Src/stm32f4xx_hal_i2c.o
                0x00000000080027c4                HAL_I2C_DeInit
 .text.HAL_I2C_Mem_Write
                0x00000000080027f8      0x1e8 ./Drivers/STM32F4xx_HAL_Driver/Src/stm32f4xx_hal_i2c.o
                0x00000000080027f8                HAL_I2C_Mem_Write
 .text.HAL_I2C_Mem_Read
                0x00000000080029e0      0x308 ./Drivers/STM32F4xx_HAL_Driver/Src/stm32f4xx_hal_i2c.o
                0x00000000080029e0                HAL_I2C_Mem_Read
 .text.HAL_I2C_GetState
                0x0000000008002ce8        0x8 ./Drivers/STM32F4xx_HAL_Driver/Src/stm32f4xx_hal_i2c.o
                0x0000000008002ce8                HAL_I2C_GetState
 .text.HAL_I2S_Init
                0x0000000008002cf0      0x138 ./Drivers/STM32F4xx_HAL_Driver/Src/stm32f4xx_hal_i2s.o
                0x0000000008002cf0                HAL_I2S_Init
 .text.HAL_I2S_TxCpltCallback
                0x0000000008002e28        0x4 ./Drivers/STM32F4xx_HAL_Driver/Src/stm32f4xx_hal_i2s.o
                0x0000000008002e28                HAL_I2S_TxCpltCallback
 .text.HAL_I2S_RxCpltCallback
                0x0000000008002e2c        0x4 ./Drivers/STM32F4xx_HAL_Driver/Src/stm32f4xx_hal_i2s.o
                0x0000000008002e2c                HAL_I2S_RxCpltCallback
 .text.HAL_I2S_ErrorCallback
                0x0000000008002e30        0x4 ./Drivers/STM32F4xx_HAL_Driver/Src/stm32f4xx_hal_i2s.o
                0x0000000008002e30                HAL_I2S_ErrorCallback
 .text.I2S_IRQHandler
                0x0000000008002e34      0x108 ./Drivers/STM32F4xx_HAL_Driver/Src/stm32f4xx_hal_i2s.o
 .text.HAL_I2SEx_TxRxCpltCallback
                0x0000000008002f3c        0x4 ./Drivers/STM32F4xx_HAL_Driver/Src/stm32f4xx_hal_i2s_ex.o
                0x0000000008002f3c                HAL_I2SEx_TxRxCpltCallback
 .text.HAL_I2SEx_FullDuplex_IRQHandler
                0x0000000008002f40      0x254 ./Drivers/STM32F4xx_HAL_Driver/Src/stm32f4xx_hal_i2s_ex.o
                0x0000000008002f40                HAL_I2SEx_FullDuplex_IRQHandler
 .text.HAL_RCC_OscConfig
                0x0000000008003194      0x3d0 ./Drivers/STM32F4xx_HAL_Driver/Src/stm32f4xx_hal_rcc.o
                0x0000000008003194                HAL_RCC_OscConfig
 .text.HAL_RCC_GetSysClockFreq
                0x0000000008003564       0x6c ./Drivers/STM32F4xx_HAL_Driver/Src/stm32f4xx_hal_rcc.o
                0x0000000008003564                HAL_RCC_GetSysClockFreq
 .text.HAL_RCC_ClockConfig
                0x00000000080035d0      0x13c ./Drivers/STM32F4xx_HAL_Driver/Src/stm32f4xx_hal_rcc.o
                0x00000000080035d0                HAL_RCC_ClockConfig
 .text.HAL_RCC_GetPCLK1Freq
                0x000000000800370c       0x20 ./Drivers/STM32F4xx_HAL_Driver/Src/stm32f4xx_hal_rcc.o
                0x000000000800370c                HAL_RCC_GetPCLK1Freq
 .text.HAL_RCC_GetPCLK2Freq
                0x000000000800372c       0x20 ./Drivers/STM32F4xx_HAL_Driver/Src/stm32f4xx_hal_rcc.o
                0x000000000800372c                HAL_RCC_GetPCLK2Freq
 .text.HAL_RCC_GetClockConfig
                0x000000000800374c       0x44 ./Drivers/STM32F4xx_HAL_Driver/Src/stm32f4xx_hal_rcc.o
                0x000000000800374c                HAL_RCC_GetClockConfig
 .text.HAL_RCCEx_PeriphCLKConfig
                0x0000000008003790      0x158 ./Drivers/STM32F4xx_HAL_Driver/Src/stm32f4xx_hal_rcc_ex.o
                0x0000000008003790                HAL_RCCEx_PeriphCLKConfig
 .text.HAL_RCCEx_GetPeriphCLKFreq
                0x00000000080038e8       0x50 ./Drivers/STM32F4xx_HAL_Driver/Src/stm32f4xx_hal_rcc_ex.o
                0x00000000080038e8                HAL_RCCEx_GetPeriphCLKFreq
 .text.HAL_SPI_Init
                0x0000000008003938       0xc0 ./Drivers/STM32F4xx_HAL_Driver/Src/stm32f4xx_hal_spi.o
                0x0000000008003938                HAL_SPI_Init
 .text.HAL_TIM_Base_Init
                0x00000000080039f8       0xfc ./Drivers/STM32F4xx_HAL_Driver/Src/stm32f4xx_hal_tim.o
                0x00000000080039f8                HAL_TIM_Base_Init
 .text.HAL_TIM_Base_Start_IT
                0x0000000008003af4       0x68 ./Drivers/STM32F4xx_HAL_Driver/Src/stm32f4xx_hal_tim.o
                0x0000000008003af4                HAL_TIM_Base_Start_IT
 .text.HAL_TIM_PWM_MspInit
                0x0000000008003b5c        0x4 ./Drivers/STM32F4xx_HAL_Driver/Src/stm32f4xx_hal_tim.o
                0x0000000008003b5c                HAL_TIM_PWM_MspInit
 .text.HAL_TIM_PWM_Init
                0x0000000008003b60       0xfc ./Drivers/STM32F4xx_HAL_Driver/Src/stm32f4xx_hal_tim.o
                0x0000000008003b60                HAL_TIM_PWM_Init
 .text.HAL_TIM_PWM_Start
                0x0000000008003c5c       0xd0 ./Drivers/STM32F4xx_HAL_Driver/Src/stm32f4xx_hal_tim.o
                0x0000000008003c5c                HAL_TIM_PWM_Start
 .text.HAL_TIM_PWM_Stop
                0x0000000008003d2c       0x8c ./Drivers/STM32F4xx_HAL_Driver/Src/stm32f4xx_hal_tim.o
                0x0000000008003d2c                HAL_TIM_PWM_Stop
 .text.HAL_TIM_PWM_ConfigChannel
                0x0000000008003db8      0x220 ./Drivers/STM32F4xx_HAL_Driver/Src/stm32f4xx_hal_tim.o
                0x0000000008003db8                HAL_TIM_PWM_ConfigChannel
 .text.HAL_TIM_ConfigClockSource
                0x0000000008003fd8      0x160 ./Drivers/STM32F4xx_HAL_Driver/Src/stm32f4xx_hal_tim.o
                0x0000000008003fd8                HAL_TIM_ConfigClockSource
 .text.HAL_TIM_OC_DelayElapsedCallback
                0x0000000008004138        0x4 ./Drivers/STM32F4xx_HAL_Driver/Src/stm32f4xx_hal_tim.o
                0x0000000008004138                HAL_TIM_OC_DelayElapsedCallback
 .text.HAL_TIM_IC_CaptureCallback
                0x000000000800413c        0x4 ./Drivers/STM32F4xx_HAL_Driver/Src/stm32f4xx_hal_tim.o
                0x000000000800413c                HAL_TIM_IC_CaptureCallback
 .text.HAL_TIM_PWM_PulseFinishedCallback
                0x0000000008004140        0x4 ./Drivers/STM32F4xx_HAL_Driver/Src/stm32f4xx_hal_tim.o
                0x0000000008004140                HAL_TIM_PWM_PulseFinishedCallback
 .text.HAL_TIM_TriggerCallback
                0x0000000008004144        0x4 ./Drivers/STM32F4xx_HAL_Driver/Src/stm32f4xx_hal_tim.o
                0x0000000008004144                HAL_TIM_TriggerCallback
 .text.HAL_TIM_IRQHandler
                0x0000000008004148      0x154 ./Drivers/STM32F4xx_HAL_Driver/Src/stm32f4xx_hal_tim.o
                0x0000000008004148                HAL_TIM_IRQHandler
 .text.HAL_TIMEx_MasterConfigSynchronization
                0x000000000800429c       0x74 ./Drivers/STM32F4xx_HAL_Driver/Src/stm32f4xx_hal_tim_ex.o
                0x000000000800429c                HAL_TIMEx_MasterConfigSynchronization
 .text.HAL_TIMEx_CommutCallback
                0x0000000008004310        0x4 ./Drivers/STM32F4xx_HAL_Driver/Src/stm32f4xx_hal_tim_ex.o
                0x0000000008004310                HAL_TIMEx_CommutCallback
 .text.HAL_TIMEx_BreakCallback
                0x0000000008004314        0x4 ./Drivers/STM32F4xx_HAL_Driver/Src/stm32f4xx_hal_tim_ex.o
                0x0000000008004314                HAL_TIMEx_BreakCallback
 .text.USB_CoreInit
                0x0000000008004318      0x100 ./Drivers/STM32F4xx_HAL_Driver/Src/stm32f4xx_ll_usb.o
                0x0000000008004318                USB_CoreInit
 .text.USB_DisableGlobalInt
                0x0000000008004418       0x10 ./Drivers/STM32F4xx_HAL_Driver/Src/stm32f4xx_ll_usb.o
                0x0000000008004418                USB_DisableGlobalInt
 .text.USB_SetCurrentMode
                0x0000000008004428       0x70 ./Drivers/STM32F4xx_HAL_Driver/Src/stm32f4xx_ll_usb.o
                0x0000000008004428                USB_SetCurrentMode
 .text.USB_FlushTxFifo
                0x0000000008004498       0x34 ./Drivers/STM32F4xx_HAL_Driver/Src/stm32f4xx_ll_usb.o
                0x0000000008004498                USB_FlushTxFifo
 .text.USB_FlushRxFifo
                0x00000000080044cc       0x30 ./Drivers/STM32F4xx_HAL_Driver/Src/stm32f4xx_ll_usb.o
                0x00000000080044cc                USB_FlushRxFifo
 .text.USB_ReadPacket
                0x00000000080044fc       0x4c ./Drivers/STM32F4xx_HAL_Driver/Src/stm32f4xx_ll_usb.o
                0x00000000080044fc                USB_ReadPacket
 .text.USB_ReadInterrupts
                0x0000000008004548        0x8 ./Drivers/STM32F4xx_HAL_Driver/Src/stm32f4xx_ll_usb.o
                0x0000000008004548                USB_ReadInterrupts
 .text.USB_GetMode
                0x0000000008004550        0x8 ./Drivers/STM32F4xx_HAL_Driver/Src/stm32f4xx_ll_usb.o
                0x0000000008004550                USB_GetMode
 .text.USB_HostInit
                0x0000000008004558      0x110 ./Drivers/STM32F4xx_HAL_Driver/Src/stm32f4xx_ll_usb.o
                0x0000000008004558                USB_HostInit
 .text.USB_InitFSLSPClkSel
                0x0000000008004668       0x3c ./Drivers/STM32F4xx_HAL_Driver/Src/stm32f4xx_ll_usb.o
                0x0000000008004668                USB_InitFSLSPClkSel
 .text.USB_HC_ReadInterrupt
                0x00000000080046a4        0xc ./Drivers/STM32F4xx_HAL_Driver/Src/stm32f4xx_ll_usb.o
                0x00000000080046a4                USB_HC_ReadInterrupt
 .text.USB_HC_Halt
                0x00000000080046b0       0xcc ./Drivers/STM32F4xx_HAL_Driver/Src/stm32f4xx_ll_usb.o
                0x00000000080046b0                USB_HC_Halt
 .text.SysTick_Handler
                0x000000000800477c       0x1c ./Middlewares/Third_Party/FreeRTOS/Source/CMSIS_RTOS_V2/cmsis_os2.o
                0x000000000800477c                SysTick_Handler
 .text.osKernelInitialize
                0x0000000008004798       0x24 ./Middlewares/Third_Party/FreeRTOS/Source/CMSIS_RTOS_V2/cmsis_os2.o
                0x0000000008004798                osKernelInitialize
 .text.osKernelStart
                0x00000000080047bc       0x34 ./Middlewares/Third_Party/FreeRTOS/Source/CMSIS_RTOS_V2/cmsis_os2.o
                0x00000000080047bc                osKernelStart
 .text.osThreadNew
                0x00000000080047f0       0x98 ./Middlewares/Third_Party/FreeRTOS/Source/CMSIS_RTOS_V2/cmsis_os2.o
                0x00000000080047f0                osThreadNew
 .text.osDelay  0x0000000008004888       0x1c ./Middlewares/Third_Party/FreeRTOS/Source/CMSIS_RTOS_V2/cmsis_os2.o
                0x0000000008004888                osDelay
 .text.osMessageQueueNew
                0x00000000080048a4       0x74 ./Middlewares/Third_Party/FreeRTOS/Source/CMSIS_RTOS_V2/cmsis_os2.o
                0x00000000080048a4                osMessageQueueNew
 .text.vApplicationGetIdleTaskMemory
                0x0000000008004918       0x1c ./Middlewares/Third_Party/FreeRTOS/Source/CMSIS_RTOS_V2/cmsis_os2.o
                0x0000000008004918                vApplicationGetIdleTaskMemory
 .text.vApplicationGetTimerTaskMemory
                0x0000000008004934       0x20 ./Middlewares/Third_Party/FreeRTOS/Source/CMSIS_RTOS_V2/cmsis_os2.o
                0x0000000008004934                vApplicationGetTimerTaskMemory
 .text.vListInitialise
                0x0000000008004954       0x18 ./Middlewares/Third_Party/FreeRTOS/Source/list.o
                0x0000000008004954                vListInitialise
 .text.vListInitialiseItem
                0x000000000800496c        0x8 ./Middlewares/Third_Party/FreeRTOS/Source/list.o
                0x000000000800496c                vListInitialiseItem
 .text.vListInsertEnd
                0x0000000008004974       0x20 ./Middlewares/Third_Party/FreeRTOS/Source/list.o
                0x0000000008004974                vListInsertEnd
 .text.vListInsert
                0x0000000008004994       0x30 ./Middlewares/Third_Party/FreeRTOS/Source/list.o
                0x0000000008004994                vListInsert
 .text.uxListRemove
                0x00000000080049c4       0x28 ./Middlewares/Third_Party/FreeRTOS/Source/list.o
                0x00000000080049c4                uxListRemove
 .text.prvCopyDataToQueue
                0x00000000080049ec       0x7c ./Middlewares/Third_Party/FreeRTOS/Source/queue.o
 .text.xQueueGenericCreateStatic
                0x0000000008004a68       0xe4 ./Middlewares/Third_Party/FreeRTOS/Source/queue.o
                0x0000000008004a68                xQueueGenericCreateStatic
 .text.xQueueGenericCreate
                0x0000000008004b4c       0x84 ./Middlewares/Third_Party/FreeRTOS/Source/queue.o
                0x0000000008004b4c                xQueueGenericCreate
 .text.xQueueGenericSend
                0x0000000008004bd0      0x30c ./Middlewares/Third_Party/FreeRTOS/Source/queue.o
                0x0000000008004bd0                xQueueGenericSend
 .text.xQueueReceive
                0x0000000008004edc      0x308 ./Middlewares/Third_Party/FreeRTOS/Source/queue.o
                0x0000000008004edc                xQueueReceive
 .text.vQueueAddToRegistry
                0x00000000080051e4       0x54 ./Middlewares/Third_Party/FreeRTOS/Source/queue.o
                0x00000000080051e4                vQueueAddToRegistry
 .text.vQueueWaitForMessageRestricted
                0x0000000008005238       0xcc ./Middlewares/Third_Party/FreeRTOS/Source/queue.o
                0x0000000008005238                vQueueWaitForMessageRestricted
 .text.prvAddNewTaskToReadyList
                0x0000000008005304      0x114 ./Middlewares/Third_Party/FreeRTOS/Source/tasks.o
 .text.prvInitialiseNewTask.isra.0
                0x0000000008005418      0x154 ./Middlewares/Third_Party/FreeRTOS/Source/tasks.o
 .text.xTaskIncrementTick.part.0
                0x000000000800556c      0x148 ./Middlewares/Third_Party/FreeRTOS/Source/tasks.o
 .text.xTaskResumeAll.part.0
                0x00000000080056b4      0x134 ./Middlewares/Third_Party/FreeRTOS/Source/tasks.o
 .text.prvIdleTask
                0x00000000080057e8      0x154 ./Middlewares/Third_Party/FreeRTOS/Source/tasks.o
 .text.xTaskCreateStatic
                0x000000000800593c       0x70 ./Middlewares/Third_Party/FreeRTOS/Source/tasks.o
                0x000000000800593c                xTaskCreateStatic
 .text.xTaskCreate
                0x00000000080059ac       0x68 ./Middlewares/Third_Party/FreeRTOS/Source/tasks.o
                0x00000000080059ac                xTaskCreate
 .text.vTaskDelay
                0x0000000008005a14       0xac ./Middlewares/Third_Party/FreeRTOS/Source/tasks.o
                0x0000000008005a14                vTaskDelay
 .text.vTaskSuspend
                0x0000000008005ac0      0x154 ./Middlewares/Third_Party/FreeRTOS/Source/tasks.o
                0x0000000008005ac0                vTaskSuspend
 .text.vTaskResume
                0x0000000008005c14       0xa4 ./Middlewares/Third_Party/FreeRTOS/Source/tasks.o
                0x0000000008005c14                vTaskResume
 .text.xTaskResumeFromISR
                0x0000000008005cb8       0xbc ./Middlewares/Third_Party/FreeRTOS/Source/tasks.o
                0x0000000008005cb8                xTaskResumeFromISR
 .text.vTaskStartScheduler
                0x0000000008005d74       0xf0 ./Middlewares/Third_Party/FreeRTOS/Source/tasks.o
                0x0000000008005d74                vTaskStartScheduler
 .text.vTaskSuspendAll
                0x0000000008005e64       0x10 ./Middlewares/Third_Party/FreeRTOS/Source/tasks.o
                0x0000000008005e64                vTaskSuspendAll
 .text.xTaskResumeAll
                0x0000000008005e74       0x20 ./Middlewares/Third_Party/FreeRTOS/Source/tasks.o
                0x0000000008005e74                xTaskResumeAll
 .text.xTaskGetTickCount
                0x0000000008005e94        0xc ./Middlewares/Third_Party/FreeRTOS/Source/tasks.o
                0x0000000008005e94                xTaskGetTickCount
 .text.vTaskStepTick
                0x0000000008005ea0       0x30 ./Middlewares/Third_Party/FreeRTOS/Source/tasks.o
                0x0000000008005ea0                vTaskStepTick
 .text.xTaskIncrementTick
                0x0000000008005ed0       0x20 ./Middlewares/Third_Party/FreeRTOS/Source/tasks.o
                0x0000000008005ed0                xTaskIncrementTick
 .text.vTaskSwitchContext
                0x0000000008005ef0       0x94 ./Middlewares/Third_Party/FreeRTOS/Source/tasks.o
                0x0000000008005ef0                vTaskSwitchContext
 .text.vTaskPlaceOnEventList
                0x0000000008005f84       0x88 ./Middlewares/Third_Party/FreeRTOS/Source/tasks.o
                0x0000000008005f84                vTaskPlaceOnEventList
 .text.vTaskPlaceOnEventListRestricted
                0x000000000800600c       0x94 ./Middlewares/Third_Party/FreeRTOS/Source/tasks.o
                0x000000000800600c                vTaskPlaceOnEventListRestricted
 .text.xTaskRemoveFromEventList
                0x00000000080060a0       0xb8 ./Middlewares/Third_Party/FreeRTOS/Source/tasks.o
                0x00000000080060a0                xTaskRemoveFromEventList
 .text.vTaskInternalSetTimeOutState
                0x0000000008006158       0x18 ./Middlewares/Third_Party/FreeRTOS/Source/tasks.o
                0x0000000008006158                vTaskInternalSetTimeOutState
 .text.xTaskCheckForTimeOut
                0x0000000008006170       0x90 ./Middlewares/Third_Party/FreeRTOS/Source/tasks.o
                0x0000000008006170                xTaskCheckForTimeOut
 .text.vTaskMissedYield
                0x0000000008006200        0xc ./Middlewares/Third_Party/FreeRTOS/Source/tasks.o
                0x0000000008006200                vTaskMissedYield
 .text.eTaskConfirmSleepModeStatus
                0x000000000800620c       0x38 ./Middlewares/Third_Party/FreeRTOS/Source/tasks.o
                0x000000000800620c                eTaskConfirmSleepModeStatus
 .text.xTaskGetSchedulerState
                0x0000000008006244       0x20 ./Middlewares/Third_Party/FreeRTOS/Source/tasks.o
                0x0000000008006244                xTaskGetSchedulerState
 .text.xTaskPriorityDisinherit
                0x0000000008006264       0x8c ./Middlewares/Third_Party/FreeRTOS/Source/tasks.o
                0x0000000008006264                xTaskPriorityDisinherit
 .text.prvSwitchTimerLists
                0x00000000080062f0       0x9c ./Middlewares/Third_Party/FreeRTOS/Source/timers.o
 .text.prvTimerTask
                0x000000000800638c      0x294 ./Middlewares/Third_Party/FreeRTOS/Source/timers.o
 .text.xTimerCreateTimerTask
                0x0000000008006620       0xbc ./Middlewares/Third_Party/FreeRTOS/Source/timers.o
                0x0000000008006620                xTimerCreateTimerTask
 .text.prvPortStartFirstTask
                0x00000000080066dc       0x28 ./Middlewares/Third_Party/FreeRTOS/Source/portable/GCC/ARM_CM4F/port.o
 .text.vPortEnableVFP
                0x0000000008006704       0x14 ./Middlewares/Third_Party/FreeRTOS/Source/portable/GCC/ARM_CM4F/port.o
 .text.prvTaskExitError
                0x0000000008006718       0x40 ./Middlewares/Third_Party/FreeRTOS/Source/portable/GCC/ARM_CM4F/port.o
 .text.pxPortInitialiseStack
                0x0000000008006758       0x30 ./Middlewares/Third_Party/FreeRTOS/Source/portable/GCC/ARM_CM4F/port.o
                0x0000000008006758                pxPortInitialiseStack
 *fill*         0x0000000008006788        0x8 
 .text.SVC_Handler
                0x0000000008006790       0x24 ./Middlewares/Third_Party/FreeRTOS/Source/portable/GCC/ARM_CM4F/port.o
                0x0000000008006790                SVC_Handler
 .text.vPortEnterCritical
                0x00000000080067b4       0x44 ./Middlewares/Third_Party/FreeRTOS/Source/portable/GCC/ARM_CM4F/port.o
                0x00000000080067b4                vPortEnterCritical
 .text.vPortExitCritical
                0x00000000080067f8       0x28 ./Middlewares/Third_Party/FreeRTOS/Source/portable/GCC/ARM_CM4F/port.o
                0x00000000080067f8                vPortExitCritical
 .text.PendSV_Handler
                0x0000000008006820       0x64 ./Middlewares/Third_Party/FreeRTOS/Source/portable/GCC/ARM_CM4F/port.o
                0x0000000008006820                PendSV_Handler
 .text.xPortSysTickHandler
                0x0000000008006884       0x2c ./Middlewares/Third_Party/FreeRTOS/Source/portable/GCC/ARM_CM4F/port.o
                0x0000000008006884                xPortSysTickHandler
 .text.vPortSuppressTicksAndSleep
                0x00000000080068b0      0x128 ./Middlewares/Third_Party/FreeRTOS/Source/portable/GCC/ARM_CM4F/port.o
                0x00000000080068b0                vPortSuppressTicksAndSleep
 .text.vPortSetupTimerInterrupt
                0x00000000080069d8       0x60 ./Middlewares/Third_Party/FreeRTOS/Source/portable/GCC/ARM_CM4F/port.o
                0x00000000080069d8                vPortSetupTimerInterrupt
 .text.xPortStartScheduler
                0x0000000008006a38      0x138 ./Middlewares/Third_Party/FreeRTOS/Source/portable/GCC/ARM_CM4F/port.o
                0x0000000008006a38                xPortStartScheduler
 .text.vPortValidateInterruptPriority
                0x0000000008006b70       0x5c ./Middlewares/Third_Party/FreeRTOS/Source/portable/GCC/ARM_CM4F/port.o
                0x0000000008006b70                vPortValidateInterruptPriority
 .text.pvPortMalloc
                0x0000000008006bcc      0x174 ./Middlewares/Third_Party/FreeRTOS/Source/portable/MemMang/heap_4.o
                0x0000000008006bcc                pvPortMalloc
 .text.vPortFree
                0x0000000008006d40       0xbc ./Middlewares/Third_Party/FreeRTOS/Source/portable/MemMang/heap_4.o
                0x0000000008006d40                vPortFree
 .text.I2Cx_Init.part.0
                0x0000000008006dfc       0xbc ./STM32F411E-Discovery/stm32f411e_discovery.o
 .text.COMPASSACCELERO_IO_Init
                0x0000000008006eb8       0x54 ./STM32F411E-Discovery/stm32f411e_discovery.o
                0x0000000008006eb8                COMPASSACCELERO_IO_Init
 .text.COMPASSACCELERO_IO_ITConfig
                0x0000000008006f0c       0x54 ./STM32F411E-Discovery/stm32f411e_discovery.o
                0x0000000008006f0c                COMPASSACCELERO_IO_ITConfig
 .text.COMPASSACCELERO_IO_Write
                0x0000000008006f60       0x4c ./STM32F411E-Discovery/stm32f411e_discovery.o
                0x0000000008006f60                COMPASSACCELERO_IO_Write
 .text.COMPASSACCELERO_IO_Read
                0x0000000008006fac       0x54 ./STM32F411E-Discovery/stm32f411e_discovery.o
                0x0000000008006fac                COMPASSACCELERO_IO_Read
 .text.BSP_ACCELERO_Init
                0x0000000008007000       0x40 ./STM32F411E-Discovery/stm32f411e_discovery_accelerometer.o
                0x0000000008007000                BSP_ACCELERO_Init
 .text.BSP_ACCELERO_GetXYZ
                0x0000000008007040       0x30 ./STM32F411E-Discovery/stm32f411e_discovery_accelerometer.o
                0x0000000008007040                BSP_ACCELERO_GetXYZ
 .text.__errno  0x0000000008007070        0xc c:/st/stm32cubeide_1.7.0/stm32cubeide/plugins/com.st.stm32cube.ide.mcu.externaltools.gnu-tools-for-stm32.9-2020-q2-update.win32_2.0.0.202105311346/tools/bin/../lib/gcc/arm-none-eabi/9.3.1/../../../../arm-none-eabi/lib/thumb/v7e-m+fp/hard\libc_nano.a(lib_a-errno.o)
                0x0000000008007070                __errno
 .text.__libc_init_array
                0x000000000800707c       0x48 c:/st/stm32cubeide_1.7.0/stm32cubeide/plugins/com.st.stm32cube.ide.mcu.externaltools.gnu-tools-for-stm32.9-2020-q2-update.win32_2.0.0.202105311346/tools/bin/../lib/gcc/arm-none-eabi/9.3.1/../../../../arm-none-eabi/lib/thumb/v7e-m+fp/hard\libc_nano.a(lib_a-init.o)
                0x000000000800707c                __libc_init_array
 .text.__retarget_lock_acquire_recursive
                0x00000000080070c4        0x2 c:/st/stm32cubeide_1.7.0/stm32cubeide/plugins/com.st.stm32cube.ide.mcu.externaltools.gnu-tools-for-stm32.9-2020-q2-update.win32_2.0.0.202105311346/tools/bin/../lib/gcc/arm-none-eabi/9.3.1/../../../../arm-none-eabi/lib/thumb/v7e-m+fp/hard\libc_nano.a(lib_a-lock.o)
                0x00000000080070c4                __retarget_lock_acquire_recursive
 .text.__retarget_lock_release_recursive
                0x00000000080070c6        0x2 c:/st/stm32cubeide_1.7.0/stm32cubeide/plugins/com.st.stm32cube.ide.mcu.externaltools.gnu-tools-for-stm32.9-2020-q2-update.win32_2.0.0.202105311346/tools/bin/../lib/gcc/arm-none-eabi/9.3.1/../../../../arm-none-eabi/lib/thumb/v7e-m+fp/hard\libc_nano.a(lib_a-lock.o)
                0x00000000080070c6                __retarget_lock_release_recursive
 .text.memcpy   0x00000000080070c8       0x1c c:/st/stm32cubeide_1.7.0/stm32cubeide/plugins/com.st.stm32cube.ide.mcu.externaltools.gnu-tools-for-stm32.9-2020-q2-update.win32_2.0.0.202105311346/tools/bin/../lib/gcc/arm-none-eabi/9.3.1/../../../../arm-none-eabi/lib/thumb/v7e-m+fp/hard\libc_nano.a(lib_a-memcpy-stub.o)
                0x00000000080070c8                memcpy
 .text.memset   0x00000000080070e4       0x10 c:/st/stm32cubeide_1.7.0/stm32cubeide/plugins/com.st.stm32cube.ide.mcu.externaltools.gnu-tools-for-stm32.9-2020-q2-update.win32_2.0.0.202105311346/tools/bin/../lib/gcc/arm-none-eabi/9.3.1/../../../../arm-none-eabi/lib/thumb/v7e-m+fp/hard\libc_nano.a(lib_a-memset.o)
                0x00000000080070e4                memset
 .text._free_r  0x00000000080070f4       0xa0 c:/st/stm32cubeide_1.7.0/stm32cubeide/plugins/com.st.stm32cube.ide.mcu.externaltools.gnu-tools-for-stm32.9-2020-q2-update.win32_2.0.0.202105311346/tools/bin/../lib/gcc/arm-none-eabi/9.3.1/../../../../arm-none-eabi/lib/thumb/v7e-m+fp/hard\libc_nano.a(lib_a-nano-freer.o)
                0x00000000080070f4                _free_r
 .text.cleanup_glue
                0x0000000008007194       0x1a c:/st/stm32cubeide_1.7.0/stm32cubeide/plugins/com.st.stm32cube.ide.mcu.externaltools.gnu-tools-for-stm32.9-2020-q2-update.win32_2.0.0.202105311346/tools/bin/../lib/gcc/arm-none-eabi/9.3.1/../../../../arm-none-eabi/lib/thumb/v7e-m+fp/hard\libc_nano.a(lib_a-reent.o)
                0x0000000008007194                cleanup_glue
 *fill*         0x00000000080071ae        0x2 
 .text._reclaim_reent
                0x00000000080071b0       0xb8 c:/st/stm32cubeide_1.7.0/stm32cubeide/plugins/com.st.stm32cube.ide.mcu.externaltools.gnu-tools-for-stm32.9-2020-q2-update.win32_2.0.0.202105311346/tools/bin/../lib/gcc/arm-none-eabi/9.3.1/../../../../arm-none-eabi/lib/thumb/v7e-m+fp/hard\libc_nano.a(lib_a-reent.o)
                0x00000000080071b0                _reclaim_reent
 .text.__malloc_lock
                0x0000000008007268        0xc c:/st/stm32cubeide_1.7.0/stm32cubeide/plugins/com.st.stm32cube.ide.mcu.externaltools.gnu-tools-for-stm32.9-2020-q2-update.win32_2.0.0.202105311346/tools/bin/../lib/gcc/arm-none-eabi/9.3.1/../../../../arm-none-eabi/lib/thumb/v7e-m+fp/hard\libc_nano.a(lib_a-mlock.o)
                0x0000000008007268                __malloc_lock
 .text.__malloc_unlock
                0x0000000008007274        0xc c:/st/stm32cubeide_1.7.0/stm32cubeide/plugins/com.st.stm32cube.ide.mcu.externaltools.gnu-tools-for-stm32.9-2020-q2-update.win32_2.0.0.202105311346/tools/bin/../lib/gcc/arm-none-eabi/9.3.1/../../../../arm-none-eabi/lib/thumb/v7e-m+fp/hard\libc_nano.a(lib_a-mlock.o)
                0x0000000008007274                __malloc_unlock
 .text.sqrtf    0x0000000008007280       0x4c c:/st/stm32cubeide_1.7.0/stm32cubeide/plugins/com.st.stm32cube.ide.mcu.externaltools.gnu-tools-for-stm32.9-2020-q2-update.win32_2.0.0.202105311346/tools/bin/../lib/gcc/arm-none-eabi/9.3.1/../../../../arm-none-eabi/lib/thumb/v7e-m+fp/hard\libm.a(lib_a-wf_sqrt.o)
                0x0000000008007280                sqrtf
 .text.__ieee754_sqrtf
                0x00000000080072cc        0x6 c:/st/stm32cubeide_1.7.0/stm32cubeide/plugins/com.st.stm32cube.ide.mcu.externaltools.gnu-tools-for-stm32.9-2020-q2-update.win32_2.0.0.202105311346/tools/bin/../lib/gcc/arm-none-eabi/9.3.1/../../../../arm-none-eabi/lib/thumb/v7e-m+fp/hard\libm.a(lib_a-ef_sqrt.o)
                0x00000000080072cc                __ieee754_sqrtf
 *(.glue_7)
 .glue_7        0x00000000080072d2        0x0 linker stubs
 *(.glue_7t)
 .glue_7t       0x00000000080072d2        0x0 linker stubs
 *(.eh_frame)
 *fill*         0x00000000080072d2        0x2 
 .eh_frame      0x00000000080072d4        0x0 c:/st/stm32cubeide_1.7.0/stm32cubeide/plugins/com.st.stm32cube.ide.mcu.externaltools.gnu-tools-for-stm32.9-2020-q2-update.win32_2.0.0.202105311346/tools/bin/../lib/gcc/arm-none-eabi/9.3.1/thumb/v7e-m+fp/hard/crtbegin.o
 *(.init)
 .init          0x00000000080072d4        0x4 c:/st/stm32cubeide_1.7.0/stm32cubeide/plugins/com.st.stm32cube.ide.mcu.externaltools.gnu-tools-for-stm32.9-2020-q2-update.win32_2.0.0.202105311346/tools/bin/../lib/gcc/arm-none-eabi/9.3.1/thumb/v7e-m+fp/hard/crti.o
                0x00000000080072d4                _init
 .init          0x00000000080072d8        0x8 c:/st/stm32cubeide_1.7.0/stm32cubeide/plugins/com.st.stm32cube.ide.mcu.externaltools.gnu-tools-for-stm32.9-2020-q2-update.win32_2.0.0.202105311346/tools/bin/../lib/gcc/arm-none-eabi/9.3.1/thumb/v7e-m+fp/hard/crtn.o
 *(.fini)
 .fini          0x00000000080072e0        0x4 c:/st/stm32cubeide_1.7.0/stm32cubeide/plugins/com.st.stm32cube.ide.mcu.externaltools.gnu-tools-for-stm32.9-2020-q2-update.win32_2.0.0.202105311346/tools/bin/../lib/gcc/arm-none-eabi/9.3.1/thumb/v7e-m+fp/hard/crti.o
                0x00000000080072e0                _fini
 .fini          0x00000000080072e4        0x8 c:/st/stm32cubeide_1.7.0/stm32cubeide/plugins/com.st.stm32cube.ide.mcu.externaltools.gnu-tools-for-stm32.9-2020-q2-update.win32_2.0.0.202105311346/tools/bin/../lib/gcc/arm-none-eabi/9.3.1/thumb/v7e-m+fp/hard/crtn.o
                0x00000000080072ec                . = ALIGN (0x4)
                0x00000000080072ec                _etext = .

.vfp11_veneer   0x00000000080072ec        0x0
 .vfp11_veneer  0x00000000080072ec        0x0 linker stubs

.v4_bx          0x00000000080072ec        0x0
 .v4_bx         0x00000000080072ec        0x0 linker stubs

.iplt           0x00000000080072ec        0x0
 .iplt          0x00000000080072ec        0x0 c:/st/stm32cubeide_1.7.0/stm32cubeide/plugins/com.st.stm32cube.ide.mcu.externaltools.gnu-tools-for-stm32.9-2020-q2-update.win32_2.0.0.202105311346/tools/bin/../lib/gcc/arm-none-eabi/9.3.1/thumb/v7e-m+fp/hard/crtbegin.o

.rodata         0x00000000080072ec      0x204
                0x00000000080072ec                . = ALIGN (0x4)
 *(.rodata)
 *(.rodata*)
 .rodata.str1.4
                0x00000000080072ec       0x6c ./Core/Src/freertos.o
 .rodata.Button_Task_attributes
                0x0000000008007358       0x24 ./Core/Src/freertos.o
                0x0000000008007358                Button_Task_attributes
 .rodata.GeneralQueue_attributes
                0x000000000800737c       0x18 ./Core/Src/freertos.o
                0x000000000800737c                GeneralQueue_attributes
 .rodata.LED_TASK_attributes
                0x0000000008007394       0x24 ./Core/Src/freertos.o
                0x0000000008007394                LED_TASK_attributes
 .rodata.Process_Task_attributes
                0x00000000080073b8       0x24 ./Core/Src/freertos.o
                0x00000000080073b8                Process_Task_attributes
 .rodata.Sample_Task_attributes
                0x00000000080073dc       0x24 ./Core/Src/freertos.o
                0x00000000080073dc                Sample_Task_attributes
 .rodata.SamplesQueue_attributes
                0x0000000008007400       0x18 ./Core/Src/freertos.o
                0x0000000008007400                SamplesQueue_attributes
 .rodata.Toggle_Task_attributes
                0x0000000008007418       0x24 ./Core/Src/freertos.o
                0x0000000008007418                Toggle_Task_attributes
 .rodata.defaultTask_attributes
                0x000000000800743c       0x24 ./Core/Src/freertos.o
                0x000000000800743c                defaultTask_attributes
 .rodata.AHBPrescTable
                0x0000000008007460       0x10 ./Core/Src/system_stm32f4xx.o
                0x0000000008007460                AHBPrescTable
 .rodata.APBPrescTable
                0x0000000008007470        0x8 ./Core/Src/system_stm32f4xx.o
                0x0000000008007470                APBPrescTable
 .rodata.vTaskStartScheduler.str1.4
                0x0000000008007478        0x5 ./Middlewares/Third_Party/FreeRTOS/Source/tasks.o
 *fill*         0x000000000800747d        0x3 
 .rodata.xTimerCreateTimerTask.str1.4
                0x0000000008007480       0x10 ./Middlewares/Third_Party/FreeRTOS/Source/timers.o
 .rodata.__sf_fake_stderr
                0x0000000008007490       0x20 c:/st/stm32cubeide_1.7.0/stm32cubeide/plugins/com.st.stm32cube.ide.mcu.externaltools.gnu-tools-for-stm32.9-2020-q2-update.win32_2.0.0.202105311346/tools/bin/../lib/gcc/arm-none-eabi/9.3.1/../../../../arm-none-eabi/lib/thumb/v7e-m+fp/hard\libc_nano.a(lib_a-findfp.o)
                0x0000000008007490                __sf_fake_stderr
 .rodata.__sf_fake_stdin
                0x00000000080074b0       0x20 c:/st/stm32cubeide_1.7.0/stm32cubeide/plugins/com.st.stm32cube.ide.mcu.externaltools.gnu-tools-for-stm32.9-2020-q2-update.win32_2.0.0.202105311346/tools/bin/../lib/gcc/arm-none-eabi/9.3.1/../../../../arm-none-eabi/lib/thumb/v7e-m+fp/hard\libc_nano.a(lib_a-findfp.o)
                0x00000000080074b0                __sf_fake_stdin
 .rodata.__sf_fake_stdout
                0x00000000080074d0       0x20 c:/st/stm32cubeide_1.7.0/stm32cubeide/plugins/com.st.stm32cube.ide.mcu.externaltools.gnu-tools-for-stm32.9-2020-q2-update.win32_2.0.0.202105311346/tools/bin/../lib/gcc/arm-none-eabi/9.3.1/../../../../arm-none-eabi/lib/thumb/v7e-m+fp/hard\libc_nano.a(lib_a-findfp.o)
                0x00000000080074d0                __sf_fake_stdout
                0x00000000080074f0                . = ALIGN (0x4)

.ARM.extab      0x00000000080074f0        0x0
                0x00000000080074f0                . = ALIGN (0x4)
 *(.ARM.extab* .gnu.linkonce.armextab.*)
                0x00000000080074f0                . = ALIGN (0x4)

.ARM            0x00000000080074f0        0x8
                0x00000000080074f0                . = ALIGN (0x4)
                0x00000000080074f0                __exidx_start = .
 *(.ARM.exidx*)
 .ARM.exidx     0x00000000080074f0        0x8 c:/st/stm32cubeide_1.7.0/stm32cubeide/plugins/com.st.stm32cube.ide.mcu.externaltools.gnu-tools-for-stm32.9-2020-q2-update.win32_2.0.0.202105311346/tools/bin/../lib/gcc/arm-none-eabi/9.3.1/thumb/v7e-m+fp/hard\libgcc.a(_udivmoddi4.o)
                0x00000000080074f8                __exidx_end = .
                0x00000000080074f8                . = ALIGN (0x4)

.rel.dyn        0x00000000080074f8        0x0
 .rel.iplt      0x00000000080074f8        0x0 c:/st/stm32cubeide_1.7.0/stm32cubeide/plugins/com.st.stm32cube.ide.mcu.externaltools.gnu-tools-for-stm32.9-2020-q2-update.win32_2.0.0.202105311346/tools/bin/../lib/gcc/arm-none-eabi/9.3.1/thumb/v7e-m+fp/hard/crtbegin.o

.preinit_array  0x00000000080074f8        0x0
                0x00000000080074f8                . = ALIGN (0x4)
                0x00000000080074f8                PROVIDE (__preinit_array_start = .)
 *(.preinit_array*)
                0x00000000080074f8                PROVIDE (__preinit_array_end = .)
                0x00000000080074f8                . = ALIGN (0x4)

.init_array     0x00000000080074f8        0x4
                0x00000000080074f8                . = ALIGN (0x4)
                0x00000000080074f8                PROVIDE (__init_array_start = .)
 *(SORT_BY_NAME(.init_array.*))
 *(.init_array*)
 .init_array    0x00000000080074f8        0x4 c:/st/stm32cubeide_1.7.0/stm32cubeide/plugins/com.st.stm32cube.ide.mcu.externaltools.gnu-tools-for-stm32.9-2020-q2-update.win32_2.0.0.202105311346/tools/bin/../lib/gcc/arm-none-eabi/9.3.1/thumb/v7e-m+fp/hard/crtbegin.o
                0x00000000080074fc                PROVIDE (__init_array_end = .)
                0x00000000080074fc                . = ALIGN (0x4)

.fini_array     0x00000000080074fc        0x4
                0x00000000080074fc                . = ALIGN (0x4)
                [!provide]                        PROVIDE (__fini_array_start = .)
 *(SORT_BY_NAME(.fini_array.*))
 *(.fini_array*)
 .fini_array    0x00000000080074fc        0x4 c:/st/stm32cubeide_1.7.0/stm32cubeide/plugins/com.st.stm32cube.ide.mcu.externaltools.gnu-tools-for-stm32.9-2020-q2-update.win32_2.0.0.202105311346/tools/bin/../lib/gcc/arm-none-eabi/9.3.1/thumb/v7e-m+fp/hard/crtbegin.o
                [!provide]                        PROVIDE (__fini_array_end = .)
                0x0000000008007500                . = ALIGN (0x4)
                0x0000000008007500                _sidata = LOADADDR (.data)

.data           0x0000000020000000       0xe4 load address 0x0000000008007500
                0x0000000020000000                . = ALIGN (0x4)
                0x0000000020000000                _sdata = .
 *(.data)
 *(.data*)
 .data.Lsm303agrDrv
                0x0000000020000000       0x34 ./Components/lsm303agr/lsm303agr.o
                0x0000000020000000                Lsm303agrDrv
 .data.Lsm303dlhcDrv
                0x0000000020000034       0x34 ./Components/lsm303dlhc/lsm303dlhc.o
                0x0000000020000034                Lsm303dlhcDrv
 .data.SystemCoreClock
                0x0000000020000068        0x4 ./Core/Src/system_stm32f4xx.o
                0x0000000020000068                SystemCoreClock
 .data.uwTickFreq
                0x000000002000006c        0x1 ./Drivers/STM32F4xx_HAL_Driver/Src/stm32f4xx_hal.o
                0x000000002000006c                uwTickFreq
 *fill*         0x000000002000006d        0x3 
 .data.uwTickPrio
                0x0000000020000070        0x4 ./Drivers/STM32F4xx_HAL_Driver/Src/stm32f4xx_hal.o
                0x0000000020000070                uwTickPrio
 .data.uxCriticalNesting
                0x0000000020000074        0x4 ./Middlewares/Third_Party/FreeRTOS/Source/portable/GCC/ARM_CM4F/port.o
 .data.I2cxTimeout
                0x0000000020000078        0x4 ./STM32F411E-Discovery/stm32f411e_discovery.o
                0x0000000020000078                I2cxTimeout
 .data._impure_ptr
                0x000000002000007c        0x4 c:/st/stm32cubeide_1.7.0/stm32cubeide/plugins/com.st.stm32cube.ide.mcu.externaltools.gnu-tools-for-stm32.9-2020-q2-update.win32_2.0.0.202105311346/tools/bin/../lib/gcc/arm-none-eabi/9.3.1/../../../../arm-none-eabi/lib/thumb/v7e-m+fp/hard\libc_nano.a(lib_a-impure.o)
                0x000000002000007c                _impure_ptr
 .data.impure_data
                0x0000000020000080       0x60 c:/st/stm32cubeide_1.7.0/stm32cubeide/plugins/com.st.stm32cube.ide.mcu.externaltools.gnu-tools-for-stm32.9-2020-q2-update.win32_2.0.0.202105311346/tools/bin/../lib/gcc/arm-none-eabi/9.3.1/../../../../arm-none-eabi/lib/thumb/v7e-m+fp/hard\libc_nano.a(lib_a-impure.o)
 .data.__fdlib_version
                0x00000000200000e0        0x1 c:/st/stm32cubeide_1.7.0/stm32cubeide/plugins/com.st.stm32cube.ide.mcu.externaltools.gnu-tools-for-stm32.9-2020-q2-update.win32_2.0.0.202105311346/tools/bin/../lib/gcc/arm-none-eabi/9.3.1/../../../../arm-none-eabi/lib/thumb/v7e-m+fp/hard\libm.a(lib_a-s_lib_ver.o)
                0x00000000200000e0                __fdlib_version
 *(.RamFunc)
 *(.RamFunc*)
                0x00000000200000e4                . = ALIGN (0x4)
 *fill*         0x00000000200000e1        0x3 
                0x00000000200000e4                _edata = .

.igot.plt       0x00000000200000e4        0x0 load address 0x00000000080075e4
 .igot.plt      0x00000000200000e4        0x0 c:/st/stm32cubeide_1.7.0/stm32cubeide/plugins/com.st.stm32cube.ide.mcu.externaltools.gnu-tools-for-stm32.9-2020-q2-update.win32_2.0.0.202105311346/tools/bin/../lib/gcc/arm-none-eabi/9.3.1/thumb/v7e-m+fp/hard/crtbegin.o
                0x00000000200000e4                . = ALIGN (0x4)

.bss            0x00000000200000e4     0x4f94 load address 0x00000000080075e4
                0x00000000200000e4                _sbss = .
                0x00000000200000e4                __bss_start__ = _sbss
 *(.bss)
 .bss           0x00000000200000e4       0x1c c:/st/stm32cubeide_1.7.0/stm32cubeide/plugins/com.st.stm32cube.ide.mcu.externaltools.gnu-tools-for-stm32.9-2020-q2-update.win32_2.0.0.202105311346/tools/bin/../lib/gcc/arm-none-eabi/9.3.1/thumb/v7e-m+fp/hard/crtbegin.o
 *(.bss*)
 .bss.samples.12973
                0x0000000020000100        0x4 ./Core/Src/freertos.o
 .bss.Idle_Stack.10677
                0x0000000020000104      0x200 ./Middlewares/Third_Party/FreeRTOS/Source/CMSIS_RTOS_V2/cmsis_os2.o
 .bss.Idle_TCB.10676
                0x0000000020000304       0xbc ./Middlewares/Third_Party/FreeRTOS/Source/CMSIS_RTOS_V2/cmsis_os2.o
 .bss.KernelState
                0x00000000200003c0        0x4 ./Middlewares/Third_Party/FreeRTOS/Source/CMSIS_RTOS_V2/cmsis_os2.o
 .bss.Timer_Stack.10684
                0x00000000200003c4      0x400 ./Middlewares/Third_Party/FreeRTOS/Source/CMSIS_RTOS_V2/cmsis_os2.o
 .bss.Timer_TCB.10683
                0x00000000200007c4       0xbc ./Middlewares/Third_Party/FreeRTOS/Source/CMSIS_RTOS_V2/cmsis_os2.o
 .bss.pxCurrentTCB
                0x0000000020000880        0x4 ./Middlewares/Third_Party/FreeRTOS/Source/tasks.o
                0x0000000020000880                pxCurrentTCB
 .bss.pxDelayedTaskList
                0x0000000020000884        0x4 ./Middlewares/Third_Party/FreeRTOS/Source/tasks.o
 .bss.pxOverflowDelayedTaskList
                0x0000000020000888        0x4 ./Middlewares/Third_Party/FreeRTOS/Source/tasks.o
 .bss.pxReadyTasksLists
                0x000000002000088c      0x460 ./Middlewares/Third_Party/FreeRTOS/Source/tasks.o
 .bss.uxCurrentNumberOfTasks
                0x0000000020000cec        0x4 ./Middlewares/Third_Party/FreeRTOS/Source/tasks.o
 .bss.uxDeletedTasksWaitingCleanUp
                0x0000000020000cf0        0x4 ./Middlewares/Third_Party/FreeRTOS/Source/tasks.o
 .bss.uxSchedulerSuspended
                0x0000000020000cf4        0x4 ./Middlewares/Third_Party/FreeRTOS/Source/tasks.o
 .bss.uxTaskNumber
                0x0000000020000cf8        0x4 ./Middlewares/Third_Party/FreeRTOS/Source/tasks.o
 .bss.uxTopReadyPriority
                0x0000000020000cfc        0x4 ./Middlewares/Third_Party/FreeRTOS/Source/tasks.o
 .bss.xDelayedTaskList1
                0x0000000020000d00       0x14 ./Middlewares/Third_Party/FreeRTOS/Source/tasks.o
 .bss.xDelayedTaskList2
                0x0000000020000d14       0x14 ./Middlewares/Third_Party/FreeRTOS/Source/tasks.o
 .bss.xNextTaskUnblockTime
                0x0000000020000d28        0x4 ./Middlewares/Third_Party/FreeRTOS/Source/tasks.o
 .bss.xNumOfOverflows
                0x0000000020000d2c        0x4 ./Middlewares/Third_Party/FreeRTOS/Source/tasks.o
 .bss.xPendedTicks
                0x0000000020000d30        0x4 ./Middlewares/Third_Party/FreeRTOS/Source/tasks.o
 .bss.xPendingReadyList
                0x0000000020000d34       0x14 ./Middlewares/Third_Party/FreeRTOS/Source/tasks.o
 .bss.xSchedulerRunning
                0x0000000020000d48        0x4 ./Middlewares/Third_Party/FreeRTOS/Source/tasks.o
 .bss.xSuspendedTaskList
                0x0000000020000d4c       0x14 ./Middlewares/Third_Party/FreeRTOS/Source/tasks.o
 .bss.xTasksWaitingTermination
                0x0000000020000d60       0x14 ./Middlewares/Third_Party/FreeRTOS/Source/tasks.o
 .bss.xTickCount
                0x0000000020000d74        0x4 ./Middlewares/Third_Party/FreeRTOS/Source/tasks.o
 .bss.xYieldPending
                0x0000000020000d78        0x4 ./Middlewares/Third_Party/FreeRTOS/Source/tasks.o
 .bss.pxCurrentTimerList
                0x0000000020000d7c        0x4 ./Middlewares/Third_Party/FreeRTOS/Source/timers.o
 .bss.pxOverflowTimerList
                0x0000000020000d80        0x4 ./Middlewares/Third_Party/FreeRTOS/Source/timers.o
 .bss.ucStaticTimerQueueStorage.7065
                0x0000000020000d84       0xa0 ./Middlewares/Third_Party/FreeRTOS/Source/timers.o
 .bss.xActiveTimerList1
                0x0000000020000e24       0x14 ./Middlewares/Third_Party/FreeRTOS/Source/timers.o
 .bss.xActiveTimerList2
                0x0000000020000e38       0x14 ./Middlewares/Third_Party/FreeRTOS/Source/timers.o
 .bss.xLastTime.7014
                0x0000000020000e4c        0x4 ./Middlewares/Third_Party/FreeRTOS/Source/timers.o
 .bss.xStaticTimerQueue.7064
                0x0000000020000e50       0x50 ./Middlewares/Third_Party/FreeRTOS/Source/timers.o
 .bss.xTimerQueue
                0x0000000020000ea0        0x4 ./Middlewares/Third_Party/FreeRTOS/Source/timers.o
 .bss.xTimerTaskHandle
                0x0000000020000ea4        0x4 ./Middlewares/Third_Party/FreeRTOS/Source/timers.o
 .bss.ucMaxSysCallPriority
                0x0000000020000ea8        0x1 ./Middlewares/Third_Party/FreeRTOS/Source/portable/GCC/ARM_CM4F/port.o
 *fill*         0x0000000020000ea9        0x3 
 .bss.ulMaxPRIGROUPValue
                0x0000000020000eac        0x4 ./Middlewares/Third_Party/FreeRTOS/Source/portable/GCC/ARM_CM4F/port.o
 .bss.ulStoppedTimerCompensation
                0x0000000020000eb0        0x4 ./Middlewares/Third_Party/FreeRTOS/Source/portable/GCC/ARM_CM4F/port.o
 .bss.ulTimerCountsForOneTick
                0x0000000020000eb4        0x4 ./Middlewares/Third_Party/FreeRTOS/Source/portable/GCC/ARM_CM4F/port.o
 .bss.xMaximumPossibleSuppressedTicks
                0x0000000020000eb8        0x4 ./Middlewares/Third_Party/FreeRTOS/Source/portable/GCC/ARM_CM4F/port.o
 .bss.pxEnd     0x0000000020000ebc        0x4 ./Middlewares/Third_Party/FreeRTOS/Source/portable/MemMang/heap_4.o
 .bss.ucHeap    0x0000000020000ec0     0x3c00 ./Middlewares/Third_Party/FreeRTOS/Source/portable/MemMang/heap_4.o
 .bss.xBlockAllocatedBit
                0x0000000020004ac0        0x4 ./Middlewares/Third_Party/FreeRTOS/Source/portable/MemMang/heap_4.o
 .bss.xFreeBytesRemaining
                0x0000000020004ac4        0x4 ./Middlewares/Third_Party/FreeRTOS/Source/portable/MemMang/heap_4.o
 .bss.xMinimumEverFreeBytesRemaining
                0x0000000020004ac8        0x4 ./Middlewares/Third_Party/FreeRTOS/Source/portable/MemMang/heap_4.o
 .bss.xNumberOfSuccessfulAllocations
                0x0000000020004acc        0x4 ./Middlewares/Third_Party/FreeRTOS/Source/portable/MemMang/heap_4.o
 .bss.xNumberOfSuccessfulFrees
                0x0000000020004ad0        0x4 ./Middlewares/Third_Party/FreeRTOS/Source/portable/MemMang/heap_4.o
 .bss.xStart    0x0000000020004ad4        0x8 ./Middlewares/Third_Party/FreeRTOS/Source/portable/MemMang/heap_4.o
 .bss.I2cHandle
                0x0000000020004adc       0x54 ./STM32F411E-Discovery/stm32f411e_discovery.o
 .bss.AccelerometerDrv
                0x0000000020004b30        0x4 ./STM32F411E-Discovery/stm32f411e_discovery_accelerometer.o
 .bss.__malloc_free_list
                0x0000000020004b34        0x4 c:/st/stm32cubeide_1.7.0/stm32cubeide/plugins/com.st.stm32cube.ide.mcu.externaltools.gnu-tools-for-stm32.9-2020-q2-update.win32_2.0.0.202105311346/tools/bin/../lib/gcc/arm-none-eabi/9.3.1/../../../../arm-none-eabi/lib/thumb/v7e-m+fp/hard\libc_nano.a(lib_a-nano-mallocr.o)
                0x0000000020004b34                __malloc_free_list
 *(COMMON)
 COMMON         0x0000000020004b38       0x20 ./Core/Src/freertos.o
                0x0000000020004b38                SamplesQueueHandle
                0x0000000020004b3c                defaultTaskHandle
                0x0000000020004b40                GeneralQueueHandle
                0x0000000020004b44                LED_TASKHandle
                0x0000000020004b48                Button_TaskHandle
                0x0000000020004b4c                Process_TaskHandle
                0x0000000020004b50                Toggle_TaskHandle
                0x0000000020004b54                Sample_TaskHandle
 COMMON         0x0000000020004b58       0x54 ./Core/Src/i2c.o
                0x0000000020004b58                hi2c1
 COMMON         0x0000000020004bac       0x90 ./Core/Src/i2s.o
                0x0000000020004bac                hi2s2
                0x0000000020004bf4                hi2s3
 COMMON         0x0000000020004c3c       0x58 ./Core/Src/spi.o
                0x0000000020004c3c                hspi1
 COMMON         0x0000000020004c94       0x48 ./Core/Src/stm32f4xx_hal_timebase_tim.o
                0x0000000020004c94                htim1
 COMMON         0x0000000020004cdc       0x48 ./Core/Src/tim.o
                0x0000000020004cdc                htim4
 COMMON         0x0000000020004d24      0x304 ./Core/Src/usb_otg.o
                0x0000000020004d24                hhcd_USB_OTG_FS
 COMMON         0x0000000020005028        0x4 ./Drivers/STM32F4xx_HAL_Driver/Src/stm32f4xx_hal.o
                0x0000000020005028                uwTick
 COMMON         0x000000002000502c       0x40 ./Middlewares/Third_Party/FreeRTOS/Source/queue.o
                0x000000002000502c                xQueueRegistry
 COMMON         0x000000002000506c        0x9 c:/st/stm32cubeide_1.7.0/stm32cubeide/plugins/com.st.stm32cube.ide.mcu.externaltools.gnu-tools-for-stm32.9-2020-q2-update.win32_2.0.0.202105311346/tools/bin/../lib/gcc/arm-none-eabi/9.3.1/../../../../arm-none-eabi/lib/thumb/v7e-m+fp/hard\libc_nano.a(lib_a-lock.o)
                0x000000002000506c                __lock___atexit_recursive_mutex
                0x000000002000506d                __lock___arc4random_mutex
                0x000000002000506e                __lock___env_recursive_mutex
                0x000000002000506f                __lock___sinit_recursive_mutex
                0x0000000020005070                __lock___malloc_recursive_mutex
                0x0000000020005071                __lock___at_quick_exit_mutex
                0x0000000020005072                __lock___dd_hash_mutex
                0x0000000020005073                __lock___tz_mutex
                0x0000000020005074                __lock___sfp_recursive_mutex
                0x0000000020005078                . = ALIGN (0x4)
 *fill*         0x0000000020005075        0x3 
                0x0000000020005078                _ebss = .
                0x0000000020005078                __bss_end__ = _ebss

._user_heap_stack
                0x0000000020005078      0x600 load address 0x00000000080075e4
                0x0000000020005078                . = ALIGN (0x8)
                [!provide]                        PROVIDE (end = .)
                0x0000000020005078                PROVIDE (_end = .)
                0x0000000020005278                . = (. + _Min_Heap_Size)
 *fill*         0x0000000020005078      0x200 
                0x0000000020005678                . = (. + _Min_Stack_Size)
 *fill*         0x0000000020005278      0x400 
                0x0000000020005678                . = ALIGN (0x8)

/DISCARD/
 libc.a(*)
 libm.a(*)
 libgcc.a(*)

.ARM.attributes
                0x0000000000000000       0x30
 *(.ARM.attributes)
 .ARM.attributes
                0x0000000000000000       0x1e c:/st/stm32cubeide_1.7.0/stm32cubeide/plugins/com.st.stm32cube.ide.mcu.externaltools.gnu-tools-for-stm32.9-2020-q2-update.win32_2.0.0.202105311346/tools/bin/../lib/gcc/arm-none-eabi/9.3.1/thumb/v7e-m+fp/hard/crti.o
 .ARM.attributes
                0x000000000000001e       0x34 c:/st/stm32cubeide_1.7.0/stm32cubeide/plugins/com.st.stm32cube.ide.mcu.externaltools.gnu-tools-for-stm32.9-2020-q2-update.win32_2.0.0.202105311346/tools/bin/../lib/gcc/arm-none-eabi/9.3.1/thumb/v7e-m+fp/hard/crtbegin.o
 .ARM.attributes
                0x0000000000000052       0x34 ./Components/lsm303agr/lsm303agr.o
 .ARM.attributes
                0x0000000000000086       0x34 ./Components/lsm303dlhc/lsm303dlhc.o
 .ARM.attributes
                0x00000000000000ba       0x34 ./Core/Src/freertos.o
 .ARM.attributes
                0x00000000000000ee       0x34 ./Core/Src/gpio.o
 .ARM.attributes
                0x0000000000000122       0x34 ./Core/Src/i2c.o
 .ARM.attributes
                0x0000000000000156       0x34 ./Core/Src/i2s.o
 .ARM.attributes
                0x000000000000018a       0x34 ./Core/Src/main.o
 .ARM.attributes
                0x00000000000001be       0x34 ./Core/Src/spi.o
 .ARM.attributes
                0x00000000000001f2       0x34 ./Core/Src/stm32f4xx_hal_msp.o
 .ARM.attributes
                0x0000000000000226       0x34 ./Core/Src/stm32f4xx_hal_timebase_tim.o
 .ARM.attributes
                0x000000000000025a       0x34 ./Core/Src/stm32f4xx_it.o
 .ARM.attributes
                0x000000000000028e       0x34 ./Core/Src/system_stm32f4xx.o
 .ARM.attributes
                0x00000000000002c2       0x34 ./Core/Src/tim.o
 .ARM.attributes
                0x00000000000002f6       0x34 ./Core/Src/usb_otg.o
 .ARM.attributes
                0x000000000000032a       0x21 ./Core/Startup/startup_stm32f411vetx.o
 .ARM.attributes
                0x000000000000034b       0x34 ./Drivers/STM32F4xx_HAL_Driver/Src/stm32f4xx_hal.o
 .ARM.attributes
                0x000000000000037f       0x34 ./Drivers/STM32F4xx_HAL_Driver/Src/stm32f4xx_hal_cortex.o
 .ARM.attributes
                0x00000000000003b3       0x34 ./Drivers/STM32F4xx_HAL_Driver/Src/stm32f4xx_hal_gpio.o
 .ARM.attributes
                0x00000000000003e7       0x34 ./Drivers/STM32F4xx_HAL_Driver/Src/stm32f4xx_hal_hcd.o
 .ARM.attributes
                0x000000000000041b       0x34 ./Drivers/STM32F4xx_HAL_Driver/Src/stm32f4xx_hal_i2c.o
 .ARM.attributes
                0x000000000000044f       0x34 ./Drivers/STM32F4xx_HAL_Driver/Src/stm32f4xx_hal_i2s.o
 .ARM.attributes
                0x0000000000000483       0x34 ./Drivers/STM32F4xx_HAL_Driver/Src/stm32f4xx_hal_i2s_ex.o
 .ARM.attributes
                0x00000000000004b7       0x34 ./Drivers/STM32F4xx_HAL_Driver/Src/stm32f4xx_hal_rcc.o
 .ARM.attributes
                0x00000000000004eb       0x34 ./Drivers/STM32F4xx_HAL_Driver/Src/stm32f4xx_hal_rcc_ex.o
 .ARM.attributes
                0x000000000000051f       0x34 ./Drivers/STM32F4xx_HAL_Driver/Src/stm32f4xx_hal_spi.o
 .ARM.attributes
                0x0000000000000553       0x34 ./Drivers/STM32F4xx_HAL_Driver/Src/stm32f4xx_hal_tim.o
 .ARM.attributes
                0x0000000000000587       0x34 ./Drivers/STM32F4xx_HAL_Driver/Src/stm32f4xx_hal_tim_ex.o
 .ARM.attributes
                0x00000000000005bb       0x34 ./Drivers/STM32F4xx_HAL_Driver/Src/stm32f4xx_ll_usb.o
 .ARM.attributes
                0x00000000000005ef       0x34 ./Middlewares/Third_Party/FreeRTOS/Source/CMSIS_RTOS_V2/cmsis_os2.o
 .ARM.attributes
                0x0000000000000623       0x34 ./Middlewares/Third_Party/FreeRTOS/Source/list.o
 .ARM.attributes
                0x0000000000000657       0x34 ./Middlewares/Third_Party/FreeRTOS/Source/queue.o
 .ARM.attributes
                0x000000000000068b       0x34 ./Middlewares/Third_Party/FreeRTOS/Source/tasks.o
 .ARM.attributes
                0x00000000000006bf       0x34 ./Middlewares/Third_Party/FreeRTOS/Source/timers.o
 .ARM.attributes
                0x00000000000006f3       0x34 ./Middlewares/Third_Party/FreeRTOS/Source/portable/GCC/ARM_CM4F/port.o
 .ARM.attributes
                0x0000000000000727       0x34 ./Middlewares/Third_Party/FreeRTOS/Source/portable/MemMang/heap_4.o
 .ARM.attributes
                0x000000000000075b       0x34 ./STM32F411E-Discovery/stm32f411e_discovery.o
 .ARM.attributes
                0x000000000000078f       0x34 ./STM32F411E-Discovery/stm32f411e_discovery_accelerometer.o
 .ARM.attributes
                0x00000000000007c3       0x34 c:/st/stm32cubeide_1.7.0/stm32cubeide/plugins/com.st.stm32cube.ide.mcu.externaltools.gnu-tools-for-stm32.9-2020-q2-update.win32_2.0.0.202105311346/tools/bin/../lib/gcc/arm-none-eabi/9.3.1/../../../../arm-none-eabi/lib/thumb/v7e-m+fp/hard\libc_nano.a(lib_a-errno.o)
 .ARM.attributes
                0x00000000000007f7       0x34 c:/st/stm32cubeide_1.7.0/stm32cubeide/plugins/com.st.stm32cube.ide.mcu.externaltools.gnu-tools-for-stm32.9-2020-q2-update.win32_2.0.0.202105311346/tools/bin/../lib/gcc/arm-none-eabi/9.3.1/../../../../arm-none-eabi/lib/thumb/v7e-m+fp/hard\libc_nano.a(lib_a-findfp.o)
 .ARM.attributes
                0x000000000000082b       0x32 c:/st/stm32cubeide_1.7.0/stm32cubeide/plugins/com.st.stm32cube.ide.mcu.externaltools.gnu-tools-for-stm32.9-2020-q2-update.win32_2.0.0.202105311346/tools/bin/../lib/gcc/arm-none-eabi/9.3.1/../../../../arm-none-eabi/lib/thumb/v7e-m+fp/hard\libc_nano.a(lib_a-impure.o)
 .ARM.attributes
                0x000000000000085d       0x34 c:/st/stm32cubeide_1.7.0/stm32cubeide/plugins/com.st.stm32cube.ide.mcu.externaltools.gnu-tools-for-stm32.9-2020-q2-update.win32_2.0.0.202105311346/tools/bin/../lib/gcc/arm-none-eabi/9.3.1/../../../../arm-none-eabi/lib/thumb/v7e-m+fp/hard\libc_nano.a(lib_a-init.o)
 .ARM.attributes
                0x0000000000000891       0x34 c:/st/stm32cubeide_1.7.0/stm32cubeide/plugins/com.st.stm32cube.ide.mcu.externaltools.gnu-tools-for-stm32.9-2020-q2-update.win32_2.0.0.202105311346/tools/bin/../lib/gcc/arm-none-eabi/9.3.1/../../../../arm-none-eabi/lib/thumb/v7e-m+fp/hard\libc_nano.a(lib_a-lock.o)
 .ARM.attributes
                0x00000000000008c5       0x34 c:/st/stm32cubeide_1.7.0/stm32cubeide/plugins/com.st.stm32cube.ide.mcu.externaltools.gnu-tools-for-stm32.9-2020-q2-update.win32_2.0.0.202105311346/tools/bin/../lib/gcc/arm-none-eabi/9.3.1/../../../../arm-none-eabi/lib/thumb/v7e-m+fp/hard\libc_nano.a(lib_a-memcpy-stub.o)
 .ARM.attributes
                0x00000000000008f9       0x34 c:/st/stm32cubeide_1.7.0/stm32cubeide/plugins/com.st.stm32cube.ide.mcu.externaltools.gnu-tools-for-stm32.9-2020-q2-update.win32_2.0.0.202105311346/tools/bin/../lib/gcc/arm-none-eabi/9.3.1/../../../../arm-none-eabi/lib/thumb/v7e-m+fp/hard\libc_nano.a(lib_a-memset.o)
 .ARM.attributes
                0x000000000000092d       0x34 c:/st/stm32cubeide_1.7.0/stm32cubeide/plugins/com.st.stm32cube.ide.mcu.externaltools.gnu-tools-for-stm32.9-2020-q2-update.win32_2.0.0.202105311346/tools/bin/../lib/gcc/arm-none-eabi/9.3.1/../../../../arm-none-eabi/lib/thumb/v7e-m+fp/hard\libc_nano.a(lib_a-nano-freer.o)
 .ARM.attributes
                0x0000000000000961       0x34 c:/st/stm32cubeide_1.7.0/stm32cubeide/plugins/com.st.stm32cube.ide.mcu.externaltools.gnu-tools-for-stm32.9-2020-q2-update.win32_2.0.0.202105311346/tools/bin/../lib/gcc/arm-none-eabi/9.3.1/../../../../arm-none-eabi/lib/thumb/v7e-m+fp/hard\libc_nano.a(lib_a-nano-mallocr.o)
 .ARM.attributes
                0x0000000000000995       0x34 c:/st/stm32cubeide_1.7.0/stm32cubeide/plugins/com.st.stm32cube.ide.mcu.externaltools.gnu-tools-for-stm32.9-2020-q2-update.win32_2.0.0.202105311346/tools/bin/../lib/gcc/arm-none-eabi/9.3.1/../../../../arm-none-eabi/lib/thumb/v7e-m+fp/hard\libc_nano.a(lib_a-reent.o)
 .ARM.attributes
                0x00000000000009c9       0x34 c:/st/stm32cubeide_1.7.0/stm32cubeide/plugins/com.st.stm32cube.ide.mcu.externaltools.gnu-tools-for-stm32.9-2020-q2-update.win32_2.0.0.202105311346/tools/bin/../lib/gcc/arm-none-eabi/9.3.1/../../../../arm-none-eabi/lib/thumb/v7e-m+fp/hard\libc_nano.a(lib_a-mlock.o)
 .ARM.attributes
                0x00000000000009fd       0x34 c:/st/stm32cubeide_1.7.0/stm32cubeide/plugins/com.st.stm32cube.ide.mcu.externaltools.gnu-tools-for-stm32.9-2020-q2-update.win32_2.0.0.202105311346/tools/bin/../lib/gcc/arm-none-eabi/9.3.1/../../../../arm-none-eabi/lib/thumb/v7e-m+fp/hard\libm.a(lib_a-wf_sqrt.o)
 .ARM.attributes
                0x0000000000000a31       0x34 c:/st/stm32cubeide_1.7.0/stm32cubeide/plugins/com.st.stm32cube.ide.mcu.externaltools.gnu-tools-for-stm32.9-2020-q2-update.win32_2.0.0.202105311346/tools/bin/../lib/gcc/arm-none-eabi/9.3.1/../../../../arm-none-eabi/lib/thumb/v7e-m+fp/hard\libm.a(lib_a-ef_sqrt.o)
 .ARM.attributes
                0x0000000000000a65       0x32 c:/st/stm32cubeide_1.7.0/stm32cubeide/plugins/com.st.stm32cube.ide.mcu.externaltools.gnu-tools-for-stm32.9-2020-q2-update.win32_2.0.0.202105311346/tools/bin/../lib/gcc/arm-none-eabi/9.3.1/../../../../arm-none-eabi/lib/thumb/v7e-m+fp/hard\libm.a(lib_a-s_lib_ver.o)
 .ARM.attributes
                0x0000000000000a97       0x1e c:/st/stm32cubeide_1.7.0/stm32cubeide/plugins/com.st.stm32cube.ide.mcu.externaltools.gnu-tools-for-stm32.9-2020-q2-update.win32_2.0.0.202105311346/tools/bin/../lib/gcc/arm-none-eabi/9.3.1/thumb/v7e-m+fp/hard\libgcc.a(_aeabi_uldivmod.o)
 .ARM.attributes
                0x0000000000000ab5       0x34 c:/st/stm32cubeide_1.7.0/stm32cubeide/plugins/com.st.stm32cube.ide.mcu.externaltools.gnu-tools-for-stm32.9-2020-q2-update.win32_2.0.0.202105311346/tools/bin/../lib/gcc/arm-none-eabi/9.3.1/thumb/v7e-m+fp/hard\libgcc.a(_udivmoddi4.o)
 .ARM.attributes
                0x0000000000000ae9       0x1e c:/st/stm32cubeide_1.7.0/stm32cubeide/plugins/com.st.stm32cube.ide.mcu.externaltools.gnu-tools-for-stm32.9-2020-q2-update.win32_2.0.0.202105311346/tools/bin/../lib/gcc/arm-none-eabi/9.3.1/thumb/v7e-m+fp/hard\libgcc.a(_dvmd_tls.o)
 .ARM.attributes
                0x0000000000000b07       0x1e c:/st/stm32cubeide_1.7.0/stm32cubeide/plugins/com.st.stm32cube.ide.mcu.externaltools.gnu-tools-for-stm32.9-2020-q2-update.win32_2.0.0.202105311346/tools/bin/../lib/gcc/arm-none-eabi/9.3.1/thumb/v7e-m+fp/hard/crtn.o
OUTPUT(P3_SEMP.elf elf32-littlearm)
LOAD linker stubs
LOAD c:/st/stm32cubeide_1.7.0/stm32cubeide/plugins/com.st.stm32cube.ide.mcu.externaltools.gnu-tools-for-stm32.9-2020-q2-update.win32_2.0.0.202105311346/tools/bin/../lib/gcc/arm-none-eabi/9.3.1/../../../../arm-none-eabi/lib/thumb/v7e-m+fp/hard\libc.a
LOAD c:/st/stm32cubeide_1.7.0/stm32cubeide/plugins/com.st.stm32cube.ide.mcu.externaltools.gnu-tools-for-stm32.9-2020-q2-update.win32_2.0.0.202105311346/tools/bin/../lib/gcc/arm-none-eabi/9.3.1/../../../../arm-none-eabi/lib/thumb/v7e-m+fp/hard\libm.a
LOAD c:/st/stm32cubeide_1.7.0/stm32cubeide/plugins/com.st.stm32cube.ide.mcu.externaltools.gnu-tools-for-stm32.9-2020-q2-update.win32_2.0.0.202105311346/tools/bin/../lib/gcc/arm-none-eabi/9.3.1/thumb/v7e-m+fp/hard\libgcc.a

.debug_info     0x0000000000000000    0x39f4e
 .debug_info    0x0000000000000000      0xdd7 ./Components/lsm303agr/lsm303agr.o
 .debug_info    0x0000000000000dd7      0xd91 ./Components/lsm303dlhc/lsm303dlhc.o
 .debug_info    0x0000000000001b68     0x1d46 ./Core/Src/freertos.o
 .debug_info    0x00000000000038ae      0x887 ./Core/Src/gpio.o
 .debug_info    0x0000000000004135      0xb5f ./Core/Src/i2c.o
 .debug_info    0x0000000000004c94      0xc69 ./Core/Src/i2s.o
 .debug_info    0x00000000000058fd     0x254f ./Core/Src/main.o
 .debug_info    0x0000000000007e4c      0xb0c ./Core/Src/spi.o
 .debug_info    0x0000000000008958      0x5bd ./Core/Src/stm32f4xx_hal_msp.o
 .debug_info    0x0000000000008f15      0xcda ./Core/Src/stm32f4xx_hal_timebase_tim.o
 .debug_info    0x0000000000009bef      0xd16 ./Core/Src/stm32f4xx_it.o
 .debug_info    0x000000000000a905      0x5e9 ./Core/Src/system_stm32f4xx.o
 .debug_info    0x000000000000aeee      0xe14 ./Core/Src/tim.o
 .debug_info    0x000000000000bd02      0xd05 ./Core/Src/usb_otg.o
 .debug_info    0x000000000000ca07       0x22 ./Core/Startup/startup_stm32f411vetx.o
 .debug_info    0x000000000000ca29      0xa43 ./Drivers/STM32F4xx_HAL_Driver/Src/stm32f4xx_hal.o
 .debug_info    0x000000000000d46c     0x10c0 ./Drivers/STM32F4xx_HAL_Driver/Src/stm32f4xx_hal_cortex.o
 .debug_info    0x000000000000e52c      0x8ae ./Drivers/STM32F4xx_HAL_Driver/Src/stm32f4xx_hal_gpio.o
 .debug_info    0x000000000000edda     0x159f ./Drivers/STM32F4xx_HAL_Driver/Src/stm32f4xx_hal_hcd.o
 .debug_info    0x0000000000010379     0x4651 ./Drivers/STM32F4xx_HAL_Driver/Src/stm32f4xx_hal_i2c.o
 .debug_info    0x00000000000149ca     0x13ce ./Drivers/STM32F4xx_HAL_Driver/Src/stm32f4xx_hal_i2s.o
 .debug_info    0x0000000000015d98      0xfba ./Drivers/STM32F4xx_HAL_Driver/Src/stm32f4xx_hal_i2s_ex.o
 .debug_info    0x0000000000016d52      0xbf3 ./Drivers/STM32F4xx_HAL_Driver/Src/stm32f4xx_hal_rcc.o
 .debug_info    0x0000000000017945      0x7af ./Drivers/STM32F4xx_HAL_Driver/Src/stm32f4xx_hal_rcc_ex.o
 .debug_info    0x00000000000180f4     0x2750 ./Drivers/STM32F4xx_HAL_Driver/Src/stm32f4xx_hal_spi.o
 .debug_info    0x000000000001a844     0x50c5 ./Drivers/STM32F4xx_HAL_Driver/Src/stm32f4xx_hal_tim.o
 .debug_info    0x000000000001f909     0x1d0e ./Drivers/STM32F4xx_HAL_Driver/Src/stm32f4xx_hal_tim_ex.o
 .debug_info    0x0000000000021617     0x240c ./Drivers/STM32F4xx_HAL_Driver/Src/stm32f4xx_ll_usb.o
 .debug_info    0x0000000000023a23     0x54ee ./Middlewares/Third_Party/FreeRTOS/Source/CMSIS_RTOS_V2/cmsis_os2.o
 .debug_info    0x0000000000028f11      0xb95 ./Middlewares/Third_Party/FreeRTOS/Source/list.o
 .debug_info    0x0000000000029aa6     0x44ee ./Middlewares/Third_Party/FreeRTOS/Source/queue.o
 .debug_info    0x000000000002df94     0x4e80 ./Middlewares/Third_Party/FreeRTOS/Source/tasks.o
 .debug_info    0x0000000000032e14     0x2a54 ./Middlewares/Third_Party/FreeRTOS/Source/timers.o
 .debug_info    0x0000000000035868     0x102d ./Middlewares/Third_Party/FreeRTOS/Source/portable/GCC/ARM_CM4F/port.o
 .debug_info    0x0000000000036895      0xeee ./Middlewares/Third_Party/FreeRTOS/Source/portable/MemMang/heap_4.o
 .debug_info    0x0000000000037783     0x22d4 ./STM32F411E-Discovery/stm32f411e_discovery.o
 .debug_info    0x0000000000039a57      0x4f7 ./STM32F411E-Discovery/stm32f411e_discovery_accelerometer.o

.debug_abbrev   0x0000000000000000     0x6f87
 .debug_abbrev  0x0000000000000000      0x2b6 ./Components/lsm303agr/lsm303agr.o
 .debug_abbrev  0x00000000000002b6      0x2a3 ./Components/lsm303dlhc/lsm303dlhc.o
 .debug_abbrev  0x0000000000000559      0x44e ./Core/Src/freertos.o
 .debug_abbrev  0x00000000000009a7      0x1a3 ./Core/Src/gpio.o
 .debug_abbrev  0x0000000000000b4a      0x20a ./Core/Src/i2c.o
 .debug_abbrev  0x0000000000000d54      0x21a ./Core/Src/i2s.o
 .debug_abbrev  0x0000000000000f6e      0x34a ./Core/Src/main.o
 .debug_abbrev  0x00000000000012b8      0x1ff ./Core/Src/spi.o
 .debug_abbrev  0x00000000000014b7      0x157 ./Core/Src/stm32f4xx_hal_msp.o
 .debug_abbrev  0x000000000000160e      0x22b ./Core/Src/stm32f4xx_hal_timebase_tim.o
 .debug_abbrev  0x0000000000001839      0x24b ./Core/Src/stm32f4xx_it.o
 .debug_abbrev  0x0000000000001a84      0x14b ./Core/Src/system_stm32f4xx.o
 .debug_abbrev  0x0000000000001bcf      0x27c ./Core/Src/tim.o
 .debug_abbrev  0x0000000000001e4b      0x227 ./Core/Src/usb_otg.o
 .debug_abbrev  0x0000000000002072       0x12 ./Core/Startup/startup_stm32f411vetx.o
 .debug_abbrev  0x0000000000002084      0x2af ./Drivers/STM32F4xx_HAL_Driver/Src/stm32f4xx_hal.o
 .debug_abbrev  0x0000000000002333      0x389 ./Drivers/STM32F4xx_HAL_Driver/Src/stm32f4xx_hal_cortex.o
 .debug_abbrev  0x00000000000026bc      0x231 ./Drivers/STM32F4xx_HAL_Driver/Src/stm32f4xx_hal_gpio.o
 .debug_abbrev  0x00000000000028ed      0x361 ./Drivers/STM32F4xx_HAL_Driver/Src/stm32f4xx_hal_hcd.o
 .debug_abbrev  0x0000000000002c4e      0x432 ./Drivers/STM32F4xx_HAL_Driver/Src/stm32f4xx_hal_i2c.o
 .debug_abbrev  0x0000000000003080      0x34e ./Drivers/STM32F4xx_HAL_Driver/Src/stm32f4xx_hal_i2s.o
 .debug_abbrev  0x00000000000033ce      0x3b5 ./Drivers/STM32F4xx_HAL_Driver/Src/stm32f4xx_hal_i2s_ex.o
 .debug_abbrev  0x0000000000003783      0x318 ./Drivers/STM32F4xx_HAL_Driver/Src/stm32f4xx_hal_rcc.o
 .debug_abbrev  0x0000000000003a9b      0x19b ./Drivers/STM32F4xx_HAL_Driver/Src/stm32f4xx_hal_rcc_ex.o
 .debug_abbrev  0x0000000000003c36      0x398 ./Drivers/STM32F4xx_HAL_Driver/Src/stm32f4xx_hal_spi.o
 .debug_abbrev  0x0000000000003fce      0x3c9 ./Drivers/STM32F4xx_HAL_Driver/Src/stm32f4xx_hal_tim.o
 .debug_abbrev  0x0000000000004397      0x37e ./Drivers/STM32F4xx_HAL_Driver/Src/stm32f4xx_hal_tim_ex.o
 .debug_abbrev  0x0000000000004715      0x439 ./Drivers/STM32F4xx_HAL_Driver/Src/stm32f4xx_ll_usb.o
 .debug_abbrev  0x0000000000004b4e      0x610 ./Middlewares/Third_Party/FreeRTOS/Source/CMSIS_RTOS_V2/cmsis_os2.o
 .debug_abbrev  0x000000000000515e      0x20e ./Middlewares/Third_Party/FreeRTOS/Source/list.o
 .debug_abbrev  0x000000000000536c      0x4cf ./Middlewares/Third_Party/FreeRTOS/Source/queue.o
 .debug_abbrev  0x000000000000583b      0x575 ./Middlewares/Third_Party/FreeRTOS/Source/tasks.o
 .debug_abbrev  0x0000000000005db0      0x472 ./Middlewares/Third_Party/FreeRTOS/Source/timers.o
 .debug_abbrev  0x0000000000006222      0x402 ./Middlewares/Third_Party/FreeRTOS/Source/portable/GCC/ARM_CM4F/port.o
 .debug_abbrev  0x0000000000006624      0x3b0 ./Middlewares/Third_Party/FreeRTOS/Source/portable/MemMang/heap_4.o
 .debug_abbrev  0x00000000000069d4      0x405 ./STM32F411E-Discovery/stm32f411e_discovery.o
 .debug_abbrev  0x0000000000006dd9      0x1ae ./STM32F411E-Discovery/stm32f411e_discovery_accelerometer.o

.debug_loc      0x0000000000000000    0x28039
 .debug_loc     0x0000000000000000      0x92b ./Components/lsm303agr/lsm303agr.o
 .debug_loc     0x000000000000092b      0x92b ./Components/lsm303dlhc/lsm303dlhc.o
 .debug_loc     0x0000000000001256      0x35a ./Core/Src/freertos.o
 .debug_loc     0x00000000000015b0       0x4a ./Core/Src/i2c.o
 .debug_loc     0x00000000000015fa       0x84 ./Core/Src/i2s.o
 .debug_loc     0x000000000000167e       0x25 ./Core/Src/main.o
 .debug_loc     0x00000000000016a3       0x4a ./Core/Src/spi.o
 .debug_loc     0x00000000000016ed       0x88 ./Core/Src/stm32f4xx_hal_timebase_tim.o
 .debug_loc     0x0000000000001775      0x12f ./Core/Src/system_stm32f4xx.o
 .debug_loc     0x00000000000018a4       0x51 ./Core/Src/tim.o
 .debug_loc     0x00000000000018f5       0x4a ./Core/Src/usb_otg.o
 .debug_loc     0x000000000000193f      0x168 ./Drivers/STM32F4xx_HAL_Driver/Src/stm32f4xx_hal.o
 .debug_loc     0x0000000000001aa7      0x7a7 ./Drivers/STM32F4xx_HAL_Driver/Src/stm32f4xx_hal_cortex.o
 .debug_loc     0x000000000000224e      0x536 ./Drivers/STM32F4xx_HAL_Driver/Src/stm32f4xx_hal_gpio.o
 .debug_loc     0x0000000000002784      0xff2 ./Drivers/STM32F4xx_HAL_Driver/Src/stm32f4xx_hal_hcd.o
 .debug_loc     0x0000000000003776     0x5265 ./Drivers/STM32F4xx_HAL_Driver/Src/stm32f4xx_hal_i2c.o
 .debug_loc     0x00000000000089db     0x1321 ./Drivers/STM32F4xx_HAL_Driver/Src/stm32f4xx_hal_i2s.o
 .debug_loc     0x0000000000009cfc      0xc03 ./Drivers/STM32F4xx_HAL_Driver/Src/stm32f4xx_hal_i2s_ex.o
 .debug_loc     0x000000000000a8ff      0x516 ./Drivers/STM32F4xx_HAL_Driver/Src/stm32f4xx_hal_rcc.o
 .debug_loc     0x000000000000ae15      0x381 ./Drivers/STM32F4xx_HAL_Driver/Src/stm32f4xx_hal_rcc_ex.o
 .debug_loc     0x000000000000b196     0x2a00 ./Drivers/STM32F4xx_HAL_Driver/Src/stm32f4xx_hal_spi.o
 .debug_loc     0x000000000000db96     0x7906 ./Drivers/STM32F4xx_HAL_Driver/Src/stm32f4xx_hal_tim.o
 .debug_loc     0x000000000001549c     0x1a83 ./Drivers/STM32F4xx_HAL_Driver/Src/stm32f4xx_hal_tim_ex.o
 .debug_loc     0x0000000000016f1f     0x2dbf ./Drivers/STM32F4xx_HAL_Driver/Src/stm32f4xx_ll_usb.o
 .debug_loc     0x0000000000019cde     0x4946 ./Middlewares/Third_Party/FreeRTOS/Source/CMSIS_RTOS_V2/cmsis_os2.o
 .debug_loc     0x000000000001e624       0xbc ./Middlewares/Third_Party/FreeRTOS/Source/list.o
 .debug_loc     0x000000000001e6e0     0x30cc ./Middlewares/Third_Party/FreeRTOS/Source/queue.o
 .debug_loc     0x00000000000217ac     0x3cba ./Middlewares/Third_Party/FreeRTOS/Source/tasks.o
 .debug_loc     0x0000000000025466     0x18ca ./Middlewares/Third_Party/FreeRTOS/Source/timers.o
 .debug_loc     0x0000000000026d30      0x217 ./Middlewares/Third_Party/FreeRTOS/Source/portable/GCC/ARM_CM4F/port.o
 .debug_loc     0x0000000000026f47      0x71b ./Middlewares/Third_Party/FreeRTOS/Source/portable/MemMang/heap_4.o
 .debug_loc     0x0000000000027662      0x75b ./STM32F411E-Discovery/stm32f411e_discovery.o
 .debug_loc     0x0000000000027dbd      0x27c ./STM32F411E-Discovery/stm32f411e_discovery_accelerometer.o

.debug_aranges  0x0000000000000000     0x18f8
 .debug_aranges
                0x0000000000000000       0xb0 ./Components/lsm303agr/lsm303agr.o
 .debug_aranges
                0x00000000000000b0       0xb0 ./Components/lsm303dlhc/lsm303dlhc.o
 .debug_aranges
                0x0000000000000160       0x68 ./Core/Src/freertos.o
 .debug_aranges
                0x00000000000001c8       0x20 ./Core/Src/gpio.o
 .debug_aranges
                0x00000000000001e8       0x30 ./Core/Src/i2c.o
 .debug_aranges
                0x0000000000000218       0x38 ./Core/Src/i2s.o
 .debug_aranges
                0x0000000000000250       0x40 ./Core/Src/main.o
 .debug_aranges
                0x0000000000000290       0x30 ./Core/Src/spi.o
 .debug_aranges
                0x00000000000002c0       0x20 ./Core/Src/stm32f4xx_hal_msp.o
 .debug_aranges
                0x00000000000002e0       0x30 ./Core/Src/stm32f4xx_hal_timebase_tim.o
 .debug_aranges
                0x0000000000000310       0x60 ./Core/Src/stm32f4xx_it.o
 .debug_aranges
                0x0000000000000370       0x28 ./Core/Src/system_stm32f4xx.o
 .debug_aranges
                0x0000000000000398       0x38 ./Core/Src/tim.o
 .debug_aranges
                0x00000000000003d0       0x30 ./Core/Src/usb_otg.o
 .debug_aranges
                0x0000000000000400       0x28 ./Core/Startup/startup_stm32f411vetx.o
 .debug_aranges
                0x0000000000000428       0xe8 ./Drivers/STM32F4xx_HAL_Driver/Src/stm32f4xx_hal.o
 .debug_aranges
                0x0000000000000510       0xa8 ./Drivers/STM32F4xx_HAL_Driver/Src/stm32f4xx_hal_cortex.o
 .debug_aranges
                0x00000000000005b8       0x58 ./Drivers/STM32F4xx_HAL_Driver/Src/stm32f4xx_hal_gpio.o
 .debug_aranges
                0x0000000000000610       0xa8 ./Drivers/STM32F4xx_HAL_Driver/Src/stm32f4xx_hal_hcd.o
 .debug_aranges
                0x00000000000006b8      0x198 ./Drivers/STM32F4xx_HAL_Driver/Src/stm32f4xx_hal_i2c.o
 .debug_aranges
                0x0000000000000850       0xc0 ./Drivers/STM32F4xx_HAL_Driver/Src/stm32f4xx_hal_i2s.o
 .debug_aranges
                0x0000000000000910       0x58 ./Drivers/STM32F4xx_HAL_Driver/Src/stm32f4xx_hal_i2s_ex.o
 .debug_aranges
                0x0000000000000968       0x88 ./Drivers/STM32F4xx_HAL_Driver/Src/stm32f4xx_hal_rcc.o
 .debug_aranges
                0x00000000000009f0       0x50 ./Drivers/STM32F4xx_HAL_Driver/Src/stm32f4xx_hal_rcc_ex.o
 .debug_aranges
                0x0000000000000a40      0x178 ./Drivers/STM32F4xx_HAL_Driver/Src/stm32f4xx_hal_spi.o
 .debug_aranges
                0x0000000000000bb8      0x278 ./Drivers/STM32F4xx_HAL_Driver/Src/stm32f4xx_hal_tim.o
 .debug_aranges
                0x0000000000000e30      0x110 ./Drivers/STM32F4xx_HAL_Driver/Src/stm32f4xx_hal_tim_ex.o
 .debug_aranges
                0x0000000000000f40      0x190 ./Drivers/STM32F4xx_HAL_Driver/Src/stm32f4xx_ll_usb.o
 .debug_aranges
                0x00000000000010d0      0x268 ./Middlewares/Third_Party/FreeRTOS/Source/CMSIS_RTOS_V2/cmsis_os2.o
 .debug_aranges
                0x0000000000001338       0x40 ./Middlewares/Third_Party/FreeRTOS/Source/list.o
 .debug_aranges
                0x0000000000001378      0x120 ./Middlewares/Third_Party/FreeRTOS/Source/queue.o
 .debug_aranges
                0x0000000000001498      0x1f0 ./Middlewares/Third_Party/FreeRTOS/Source/tasks.o
 .debug_aranges
                0x0000000000001688       0xb0 ./Middlewares/Third_Party/FreeRTOS/Source/timers.o
 .debug_aranges
                0x0000000000001738       0x88 ./Middlewares/Third_Party/FreeRTOS/Source/portable/GCC/ARM_CM4F/port.o
 .debug_aranges
                0x00000000000017c0       0x48 ./Middlewares/Third_Party/FreeRTOS/Source/portable/MemMang/heap_4.o
 .debug_aranges
                0x0000000000001808       0xb8 ./STM32F411E-Discovery/stm32f411e_discovery.o
 .debug_aranges
                0x00000000000018c0       0x38 ./STM32F411E-Discovery/stm32f411e_discovery_accelerometer.o

.debug_ranges   0x0000000000000000     0x51a8
 .debug_ranges  0x0000000000000000       0xb8 ./Components/lsm303agr/lsm303agr.o
 .debug_ranges  0x00000000000000b8       0xb8 ./Components/lsm303dlhc/lsm303dlhc.o
 .debug_ranges  0x0000000000000170       0xc8 ./Core/Src/freertos.o
 .debug_ranges  0x0000000000000238       0x48 ./Core/Src/gpio.o
 .debug_ranges  0x0000000000000280       0x40 ./Core/Src/i2c.o
 .debug_ranges  0x00000000000002c0       0x78 ./Core/Src/i2s.o
 .debug_ranges  0x0000000000000338       0xd0 ./Core/Src/main.o
 .debug_ranges  0x0000000000000408       0x50 ./Core/Src/spi.o
 .debug_ranges  0x0000000000000458       0x40 ./Core/Src/stm32f4xx_hal_msp.o
 .debug_ranges  0x0000000000000498       0x48 ./Core/Src/stm32f4xx_hal_timebase_tim.o
 .debug_ranges  0x00000000000004e0       0x50 ./Core/Src/stm32f4xx_it.o
 .debug_ranges  0x0000000000000530       0x18 ./Core/Src/system_stm32f4xx.o
 .debug_ranges  0x0000000000000548       0x98 ./Core/Src/tim.o
 .debug_ranges  0x00000000000005e0       0x68 ./Core/Src/usb_otg.o
 .debug_ranges  0x0000000000000648       0x20 ./Core/Startup/startup_stm32f411vetx.o
 .debug_ranges  0x0000000000000668       0xd8 ./Drivers/STM32F4xx_HAL_Driver/Src/stm32f4xx_hal.o
 .debug_ranges  0x0000000000000740      0x1c0 ./Drivers/STM32F4xx_HAL_Driver/Src/stm32f4xx_hal_cortex.o
 .debug_ranges  0x0000000000000900       0x60 ./Drivers/STM32F4xx_HAL_Driver/Src/stm32f4xx_hal_gpio.o
 .debug_ranges  0x0000000000000960      0x190 ./Drivers/STM32F4xx_HAL_Driver/Src/stm32f4xx_hal_hcd.o
 .debug_ranges  0x0000000000000af0      0xdb0 ./Drivers/STM32F4xx_HAL_Driver/Src/stm32f4xx_hal_i2c.o
 .debug_ranges  0x00000000000018a0      0x210 ./Drivers/STM32F4xx_HAL_Driver/Src/stm32f4xx_hal_i2s.o
 .debug_ranges  0x0000000000001ab0      0x108 ./Drivers/STM32F4xx_HAL_Driver/Src/stm32f4xx_hal_i2s_ex.o
 .debug_ranges  0x0000000000001bb8      0x138 ./Drivers/STM32F4xx_HAL_Driver/Src/stm32f4xx_hal_rcc.o
 .debug_ranges  0x0000000000001cf0       0x58 ./Drivers/STM32F4xx_HAL_Driver/Src/stm32f4xx_hal_rcc_ex.o
 .debug_ranges  0x0000000000001d48      0x550 ./Drivers/STM32F4xx_HAL_Driver/Src/stm32f4xx_hal_spi.o
 .debug_ranges  0x0000000000002298      0x960 ./Drivers/STM32F4xx_HAL_Driver/Src/stm32f4xx_hal_tim.o
 .debug_ranges  0x0000000000002bf8      0x1b0 ./Drivers/STM32F4xx_HAL_Driver/Src/stm32f4xx_hal_tim_ex.o
 .debug_ranges  0x0000000000002da8      0x2b8 ./Drivers/STM32F4xx_HAL_Driver/Src/stm32f4xx_ll_usb.o
 .debug_ranges  0x0000000000003060      0x5c8 ./Middlewares/Third_Party/FreeRTOS/Source/CMSIS_RTOS_V2/cmsis_os2.o
 .debug_ranges  0x0000000000003628       0x30 ./Middlewares/Third_Party/FreeRTOS/Source/list.o
 .debug_ranges  0x0000000000003658      0x728 ./Middlewares/Third_Party/FreeRTOS/Source/queue.o
 .debug_ranges  0x0000000000003d80      0x860 ./Middlewares/Third_Party/FreeRTOS/Source/tasks.o
 .debug_ranges  0x00000000000045e0      0x348 ./Middlewares/Third_Party/FreeRTOS/Source/timers.o
 .debug_ranges  0x0000000000004928       0xc0 ./Middlewares/Third_Party/FreeRTOS/Source/portable/GCC/ARM_CM4F/port.o
 .debug_ranges  0x00000000000049e8       0x80 ./Middlewares/Third_Party/FreeRTOS/Source/portable/MemMang/heap_4.o
 .debug_ranges  0x0000000000004a68      0x718 ./STM32F411E-Discovery/stm32f411e_discovery.o
 .debug_ranges  0x0000000000005180       0x28 ./STM32F411E-Discovery/stm32f411e_discovery_accelerometer.o

.debug_macro    0x0000000000000000    0x1b9d2
 .debug_macro   0x0000000000000000       0x7c ./Components/lsm303agr/lsm303agr.o
 .debug_macro   0x000000000000007c      0x4b7 ./Components/lsm303agr/lsm303agr.o
 .debug_macro   0x0000000000000533       0x7c ./Components/lsm303dlhc/lsm303dlhc.o
 .debug_macro   0x00000000000005af      0x452 ./Components/lsm303dlhc/lsm303dlhc.o
 .debug_macro   0x0000000000000a01      0x425 ./Core/Src/freertos.o
 .debug_macro   0x0000000000000e26      0x174 ./Core/Src/freertos.o
 .debug_macro   0x0000000000000f9a      0x184 ./Core/Src/freertos.o
 .debug_macro   0x000000000000111e      0x15a ./Core/Src/freertos.o
 .debug_macro   0x0000000000001278       0xc9 ./Core/Src/freertos.o
 .debug_macro   0x0000000000001341       0x1c ./Core/Src/freertos.o
 .debug_macro   0x000000000000135d       0x26 ./Core/Src/freertos.o
 .debug_macro   0x0000000000001383       0x10 ./Core/Src/freertos.o
 .debug_macro   0x0000000000001393       0x35 ./Core/Src/freertos.o
 .debug_macro   0x00000000000013c8      0x4aa ./Core/Src/freertos.o
 .debug_macro   0x0000000000001872       0xb5 ./Core/Src/freertos.o
 .debug_macro   0x0000000000001927       0xaa ./Core/Src/freertos.o
 .debug_macro   0x00000000000019d1      0x2ad ./Core/Src/freertos.o
 .debug_macro   0x0000000000001c7e       0x2e ./Core/Src/freertos.o
 .debug_macro   0x0000000000001cac       0x28 ./Core/Src/freertos.o
 .debug_macro   0x0000000000001cd4       0x1c ./Core/Src/freertos.o
 .debug_macro   0x0000000000001cf0       0x22 ./Core/Src/freertos.o
 .debug_macro   0x0000000000001d12       0xdf ./Core/Src/freertos.o
 .debug_macro   0x0000000000001df1     0x102d ./Core/Src/freertos.o
 .debug_macro   0x0000000000002e1e      0x11f ./Core/Src/freertos.o
 .debug_macro   0x0000000000002f3d     0xb953 ./Core/Src/freertos.o
 .debug_macro   0x000000000000e890       0x6d ./Core/Src/freertos.o
 .debug_macro   0x000000000000e8fd     0x3666 ./Core/Src/freertos.o
 .debug_macro   0x0000000000011f63       0x5c ./Core/Src/freertos.o
 .debug_macro   0x0000000000011fbf      0x447 ./Core/Src/freertos.o
 .debug_macro   0x0000000000012406      0x9fe ./Core/Src/freertos.o
 .debug_macro   0x0000000000012e04      0x116 ./Core/Src/freertos.o
 .debug_macro   0x0000000000012f1a      0x11b ./Core/Src/freertos.o
 .debug_macro   0x0000000000013035       0xa5 ./Core/Src/freertos.o
 .debug_macro   0x00000000000130da      0x15f ./Core/Src/freertos.o
 .debug_macro   0x0000000000013239      0x287 ./Core/Src/freertos.o
 .debug_macro   0x00000000000134c0       0x5f ./Core/Src/freertos.o
 .debug_macro   0x000000000001351f      0x236 ./Core/Src/freertos.o
 .debug_macro   0x0000000000013755      0x132 ./Core/Src/freertos.o
 .debug_macro   0x0000000000013887      0x264 ./Core/Src/freertos.o
 .debug_macro   0x0000000000013aeb       0x2e ./Core/Src/freertos.o
 .debug_macro   0x0000000000013b19      0x1b5 ./Core/Src/freertos.o
 .debug_macro   0x0000000000013cce       0x22 ./Core/Src/freertos.o
 .debug_macro   0x0000000000013cf0       0xd6 ./Core/Src/freertos.o
 .debug_macro   0x0000000000013dc6      0x1a7 ./Core/Src/freertos.o
 .debug_macro   0x0000000000013f6d       0x46 ./Core/Src/freertos.o
 .debug_macro   0x0000000000013fb3       0x4a ./Core/Src/freertos.o
 .debug_macro   0x0000000000013ffd      0x11a ./Core/Src/freertos.o
 .debug_macro   0x0000000000014117       0x85 ./Core/Src/freertos.o
 .debug_macro   0x000000000001419c       0x89 ./Core/Src/freertos.o
 .debug_macro   0x0000000000014225      0x225 ./Core/Src/freertos.o
 .debug_macro   0x000000000001444a      0x8d1 ./Core/Src/freertos.o
 .debug_macro   0x0000000000014d1b       0x47 ./Core/Src/freertos.o
 .debug_macro   0x0000000000014d62      0x21e ./Core/Src/freertos.o
 .debug_macro   0x0000000000014f80       0x7c ./Core/Src/freertos.o
 .debug_macro   0x0000000000014ffc      0x126 ./Core/Src/freertos.o
 .debug_macro   0x0000000000015122      0x1a4 ./Core/Src/freertos.o
 .debug_macro   0x00000000000152c6       0x6c ./Core/Src/freertos.o
 .debug_macro   0x0000000000015332       0x74 ./Core/Src/freertos.o
 .debug_macro   0x00000000000153a6       0xdd ./Core/Src/freertos.o
 .debug_macro   0x0000000000015483      0x251 ./Core/Src/freertos.o
 .debug_macro   0x00000000000156d4       0x12 ./Core/Src/freertos.o
 .debug_macro   0x00000000000156e6       0x12 ./Core/Src/freertos.o
 .debug_macro   0x00000000000156f8      0x333 ./Core/Src/freertos.o
 .debug_macro   0x0000000000015a2b       0x10 ./Core/Src/freertos.o
 .debug_macro   0x0000000000015a3b       0x20 ./Core/Src/freertos.o
 .debug_macro   0x0000000000015a5b      0x1a9 ./Core/Src/freertos.o
 .debug_macro   0x0000000000015c04       0xd6 ./Core/Src/freertos.o
 .debug_macro   0x0000000000015cda       0x87 ./Core/Src/freertos.o
 .debug_macro   0x0000000000015d61      0x232 ./Core/Src/gpio.o
 .debug_macro   0x0000000000015f93      0x232 ./Core/Src/i2c.o
 .debug_macro   0x00000000000161c5      0x232 ./Core/Src/i2s.o
 .debug_macro   0x00000000000163f7      0x553 ./Core/Src/main.o
 .debug_macro   0x000000000001694a      0x184 ./Core/Src/main.o
 .debug_macro   0x0000000000016ace       0x66 ./Core/Src/main.o
 .debug_macro   0x0000000000016b34       0x1c ./Core/Src/main.o
 .debug_macro   0x0000000000016b50       0x16 ./Core/Src/main.o
 .debug_macro   0x0000000000016b66      0x51a ./Core/Src/main.o
 .debug_macro   0x0000000000017080       0xce ./Core/Src/main.o
 .debug_macro   0x000000000001714e       0x16 ./Core/Src/main.o
 .debug_macro   0x0000000000017164       0x10 ./Core/Src/main.o
 .debug_macro   0x0000000000017174       0x10 ./Core/Src/main.o
 .debug_macro   0x0000000000017184       0x35 ./Core/Src/main.o
 .debug_macro   0x00000000000171b9      0x189 ./Core/Src/main.o
 .debug_macro   0x0000000000017342       0x16 ./Core/Src/main.o
 .debug_macro   0x0000000000017358      0x232 ./Core/Src/spi.o
 .debug_macro   0x000000000001758a      0x228 ./Core/Src/stm32f4xx_hal_msp.o
 .debug_macro   0x00000000000177b2      0x219 ./Core/Src/stm32f4xx_hal_timebase_tim.o
 .debug_macro   0x00000000000179cb      0x232 ./Core/Src/stm32f4xx_it.o
 .debug_macro   0x0000000000017bfd      0x219 ./Core/Src/system_stm32f4xx.o
 .debug_macro   0x0000000000017e16      0x232 ./Core/Src/tim.o
 .debug_macro   0x0000000000018048      0x232 ./Core/Src/usb_otg.o
 .debug_macro   0x000000000001827a      0x279 ./Drivers/STM32F4xx_HAL_Driver/Src/stm32f4xx_hal.o
 .debug_macro   0x00000000000184f3      0x219 ./Drivers/STM32F4xx_HAL_Driver/Src/stm32f4xx_hal_cortex.o
 .debug_macro   0x000000000001870c      0x21f ./Drivers/STM32F4xx_HAL_Driver/Src/stm32f4xx_hal_gpio.o
 .debug_macro   0x000000000001892b      0x219 ./Drivers/STM32F4xx_HAL_Driver/Src/stm32f4xx_hal_hcd.o
 .debug_macro   0x0000000000018b44      0x260 ./Drivers/STM32F4xx_HAL_Driver/Src/stm32f4xx_hal_i2c.o
 .debug_macro   0x0000000000018da4      0x221 ./Drivers/STM32F4xx_HAL_Driver/Src/stm32f4xx_hal_i2s.o
 .debug_macro   0x0000000000018fc5      0x219 ./Drivers/STM32F4xx_HAL_Driver/Src/stm32f4xx_hal_i2s_ex.o
 .debug_macro   0x00000000000191de      0x23d ./Drivers/STM32F4xx_HAL_Driver/Src/stm32f4xx_hal_rcc.o
 .debug_macro   0x000000000001941b      0x219 ./Drivers/STM32F4xx_HAL_Driver/Src/stm32f4xx_hal_rcc_ex.o
 .debug_macro   0x0000000000019634      0x228 ./Drivers/STM32F4xx_HAL_Driver/Src/stm32f4xx_hal_spi.o
 .debug_macro   0x000000000001985c      0x21a ./Drivers/STM32F4xx_HAL_Driver/Src/stm32f4xx_hal_tim.o
 .debug_macro   0x0000000000019a76      0x219 ./Drivers/STM32F4xx_HAL_Driver/Src/stm32f4xx_hal_tim_ex.o
 .debug_macro   0x0000000000019c8f      0x219 ./Drivers/STM32F4xx_HAL_Driver/Src/stm32f4xx_ll_usb.o
 .debug_macro   0x0000000000019ea8      0x422 ./Middlewares/Third_Party/FreeRTOS/Source/CMSIS_RTOS_V2/cmsis_os2.o
 .debug_macro   0x000000000001a2ca       0x10 ./Middlewares/Third_Party/FreeRTOS/Source/CMSIS_RTOS_V2/cmsis_os2.o
 .debug_macro   0x000000000001a2da       0xd3 ./Middlewares/Third_Party/FreeRTOS/Source/CMSIS_RTOS_V2/cmsis_os2.o
 .debug_macro   0x000000000001a3ad       0x16 ./Middlewares/Third_Party/FreeRTOS/Source/CMSIS_RTOS_V2/cmsis_os2.o
 .debug_macro   0x000000000001a3c3       0x91 ./Middlewares/Third_Party/FreeRTOS/Source/CMSIS_RTOS_V2/cmsis_os2.o
 .debug_macro   0x000000000001a454       0x8d ./Middlewares/Third_Party/FreeRTOS/Source/CMSIS_RTOS_V2/cmsis_os2.o
 .debug_macro   0x000000000001a4e1       0x9a ./Middlewares/Third_Party/FreeRTOS/Source/CMSIS_RTOS_V2/cmsis_os2.o
 .debug_macro   0x000000000001a57b       0x22 ./Middlewares/Third_Party/FreeRTOS/Source/CMSIS_RTOS_V2/cmsis_os2.o
 .debug_macro   0x000000000001a59d       0x56 ./Middlewares/Third_Party/FreeRTOS/Source/CMSIS_RTOS_V2/cmsis_os2.o
 .debug_macro   0x000000000001a5f3      0x199 ./Middlewares/Third_Party/FreeRTOS/Source/list.o
 .debug_macro   0x000000000001a78c      0x228 ./Middlewares/Third_Party/FreeRTOS/Source/queue.o
 .debug_macro   0x000000000001a9b4       0x16 ./Middlewares/Third_Party/FreeRTOS/Source/queue.o
 .debug_macro   0x000000000001a9ca      0x291 ./Middlewares/Third_Party/FreeRTOS/Source/tasks.o
 .debug_macro   0x000000000001ac5b       0x10 ./Middlewares/Third_Party/FreeRTOS/Source/tasks.o
 .debug_macro   0x000000000001ac6b      0x1ee ./Middlewares/Third_Party/FreeRTOS/Source/timers.o
 .debug_macro   0x000000000001ae59       0x97 ./Middlewares/Third_Party/FreeRTOS/Source/timers.o
 .debug_macro   0x000000000001aef0      0x233 ./Middlewares/Third_Party/FreeRTOS/Source/portable/GCC/ARM_CM4F/port.o
 .debug_macro   0x000000000001b123      0x1c0 ./Middlewares/Third_Party/FreeRTOS/Source/portable/MemMang/heap_4.o
 .debug_macro   0x000000000001b2e3      0x246 ./STM32F411E-Discovery/stm32f411e_discovery.o
 .debug_macro   0x000000000001b529      0x24b ./STM32F411E-Discovery/stm32f411e_discovery.o
 .debug_macro   0x000000000001b774      0x25e ./STM32F411E-Discovery/stm32f411e_discovery_accelerometer.o

.debug_line     0x0000000000000000    0x35bcc
 .debug_line    0x0000000000000000      0x95d ./Components/lsm303agr/lsm303agr.o
 .debug_line    0x000000000000095d      0x961 ./Components/lsm303dlhc/lsm303dlhc.o
 .debug_line    0x00000000000012be      0xf61 ./Core/Src/freertos.o
 .debug_line    0x000000000000221f      0x81c ./Core/Src/gpio.o
 .debug_line    0x0000000000002a3b      0x838 ./Core/Src/i2c.o
 .debug_line    0x0000000000003273      0x9a4 ./Core/Src/i2s.o
 .debug_line    0x0000000000003c17      0xef7 ./Core/Src/main.o
 .debug_line    0x0000000000004b0e      0x846 ./Core/Src/spi.o
 .debug_line    0x0000000000005354      0x772 ./Core/Src/stm32f4xx_hal_msp.o
 .debug_line    0x0000000000005ac6      0x802 ./Core/Src/stm32f4xx_hal_timebase_tim.o
 .debug_line    0x00000000000062c8      0x854 ./Core/Src/stm32f4xx_it.o
 .debug_line    0x0000000000006b1c      0x7e7 ./Core/Src/system_stm32f4xx.o
 .debug_line    0x0000000000007303      0x93a ./Core/Src/tim.o
 .debug_line    0x0000000000007c3d      0x87e ./Core/Src/usb_otg.o
 .debug_line    0x00000000000084bb       0x88 ./Core/Startup/startup_stm32f411vetx.o
 .debug_line    0x0000000000008543      0xae7 ./Drivers/STM32F4xx_HAL_Driver/Src/stm32f4xx_hal.o
 .debug_line    0x000000000000902a      0xd8c ./Drivers/STM32F4xx_HAL_Driver/Src/stm32f4xx_hal_cortex.o
 .debug_line    0x0000000000009db6      0xcf1 ./Drivers/STM32F4xx_HAL_Driver/Src/stm32f4xx_hal_gpio.o
 .debug_line    0x000000000000aaa7     0x1624 ./Drivers/STM32F4xx_HAL_Driver/Src/stm32f4xx_hal_hcd.o
 .debug_line    0x000000000000c0cb     0x65ad ./Drivers/STM32F4xx_HAL_Driver/Src/stm32f4xx_hal_i2c.o
 .debug_line    0x0000000000012678     0x1a58 ./Drivers/STM32F4xx_HAL_Driver/Src/stm32f4xx_hal_i2s.o
 .debug_line    0x00000000000140d0     0x1382 ./Drivers/STM32F4xx_HAL_Driver/Src/stm32f4xx_hal_i2s_ex.o
 .debug_line    0x0000000000015452     0x112f ./Drivers/STM32F4xx_HAL_Driver/Src/stm32f4xx_hal_rcc.o
 .debug_line    0x0000000000016581      0xc90 ./Drivers/STM32F4xx_HAL_Driver/Src/stm32f4xx_hal_rcc_ex.o
 .debug_line    0x0000000000017211     0x33d7 ./Drivers/STM32F4xx_HAL_Driver/Src/stm32f4xx_hal_spi.o
 .debug_line    0x000000000001a5e8     0x6537 ./Drivers/STM32F4xx_HAL_Driver/Src/stm32f4xx_hal_tim.o
 .debug_line    0x0000000000020b1f     0x1f52 ./Drivers/STM32F4xx_HAL_Driver/Src/stm32f4xx_hal_tim_ex.o
 .debug_line    0x0000000000022a71     0x2ca5 ./Drivers/STM32F4xx_HAL_Driver/Src/stm32f4xx_ll_usb.o
 .debug_line    0x0000000000025716     0x323c ./Middlewares/Third_Party/FreeRTOS/Source/CMSIS_RTOS_V2/cmsis_os2.o
 .debug_line    0x0000000000028952      0x7cd ./Middlewares/Third_Party/FreeRTOS/Source/list.o
 .debug_line    0x000000000002911f     0x3965 ./Middlewares/Third_Party/FreeRTOS/Source/queue.o
 .debug_line    0x000000000002ca84     0x4428 ./Middlewares/Third_Party/FreeRTOS/Source/tasks.o
 .debug_line    0x0000000000030eac     0x16b2 ./Middlewares/Third_Party/FreeRTOS/Source/timers.o
 .debug_line    0x000000000003255e      0xe54 ./Middlewares/Third_Party/FreeRTOS/Source/portable/GCC/ARM_CM4F/port.o
 .debug_line    0x00000000000333b2      0xbec ./Middlewares/Third_Party/FreeRTOS/Source/portable/MemMang/heap_4.o
 .debug_line    0x0000000000033f9e     0x1279 ./STM32F411E-Discovery/stm32f411e_discovery.o
 .debug_line    0x0000000000035217      0x9b5 ./STM32F411E-Discovery/stm32f411e_discovery_accelerometer.o

.debug_str      0x0000000000000000    0xa603b
 .debug_str     0x0000000000000000     0x5760 ./Components/lsm303agr/lsm303agr.o
                                       0x5928 (size before relaxing)
 .debug_str     0x0000000000005760     0x1947 ./Components/lsm303dlhc/lsm303dlhc.o
                                       0x580a (size before relaxing)
 .debug_str     0x00000000000070a7    0x915d9 ./Core/Src/freertos.o
                                      0x985f4 (size before relaxing)
 .debug_str     0x0000000000098680      0x4fd ./Core/Src/gpio.o
                                      0x8ac06 (size before relaxing)
 .debug_str     0x0000000000098b7d      0x312 ./Core/Src/i2c.o
                                      0x8ad66 (size before relaxing)
 .debug_str     0x0000000000098e8f      0x203 ./Core/Src/i2s.o
                                      0x8acc1 (size before relaxing)
 .debug_str     0x0000000000099092     0x33ad ./Core/Src/main.o
                                      0x9a0a9 (size before relaxing)
 .debug_str     0x000000000009c43f       0x4b ./Core/Src/spi.o
                                      0x8acbe (size before relaxing)
 .debug_str     0x000000000009c48a       0x2c ./Core/Src/stm32f4xx_hal_msp.o
                                      0x8ab49 (size before relaxing)
 .debug_str     0x000000000009c4b6       0xfe ./Core/Src/stm32f4xx_hal_timebase_tim.o
                                      0x8aae2 (size before relaxing)
 .debug_str     0x000000000009c5b4      0x11c ./Core/Src/stm32f4xx_it.o
                                      0x8b061 (size before relaxing)
 .debug_str     0x000000000009c6d0       0xaf ./Core/Src/system_stm32f4xx.o
                                      0x8a131 (size before relaxing)
 .debug_str     0x000000000009c77f      0x1d8 ./Core/Src/tim.o
                                      0x8af52 (size before relaxing)
 .debug_str     0x000000000009c957       0x63 ./Core/Src/usb_otg.o
                                      0x8b093 (size before relaxing)
 .debug_str     0x000000000009c9ba       0x36 ./Core/Startup/startup_stm32f411vetx.o
                                         0x69 (size before relaxing)
 .debug_str     0x000000000009c9f0      0x547 ./Drivers/STM32F4xx_HAL_Driver/Src/stm32f4xx_hal.o
                                      0x8ab00 (size before relaxing)
 .debug_str     0x000000000009cf37      0x31d ./Drivers/STM32F4xx_HAL_Driver/Src/stm32f4xx_hal_cortex.o
                                      0x8a898 (size before relaxing)
 .debug_str     0x000000000009d254       0xe3 ./Drivers/STM32F4xx_HAL_Driver/Src/stm32f4xx_hal_gpio.o
                                      0x8a2d8 (size before relaxing)
 .debug_str     0x000000000009d337      0x4f9 ./Drivers/STM32F4xx_HAL_Driver/Src/stm32f4xx_hal_hcd.o
                                      0x8a914 (size before relaxing)
 .debug_str     0x000000000009d830      0xae5 ./Drivers/STM32F4xx_HAL_Driver/Src/stm32f4xx_hal_i2c.o
                                      0x8b10b (size before relaxing)
 .debug_str     0x000000000009e315      0x29d ./Drivers/STM32F4xx_HAL_Driver/Src/stm32f4xx_hal_i2s.o
                                      0x8a72e (size before relaxing)
 .debug_str     0x000000000009e5b2      0x1f1 ./Drivers/STM32F4xx_HAL_Driver/Src/stm32f4xx_hal_i2s_ex.o
                                      0x8a659 (size before relaxing)
 .debug_str     0x000000000009e7a3      0x1dd ./Drivers/STM32F4xx_HAL_Driver/Src/stm32f4xx_hal_rcc.o
                                      0x8a55a (size before relaxing)
 .debug_str     0x000000000009e980       0xf6 ./Drivers/STM32F4xx_HAL_Driver/Src/stm32f4xx_hal_rcc_ex.o
                                      0x8a2ca (size before relaxing)
 .debug_str     0x000000000009ea76      0x532 ./Drivers/STM32F4xx_HAL_Driver/Src/stm32f4xx_hal_spi.o
                                      0x8a9ff (size before relaxing)
 .debug_str     0x000000000009efa8      0xcd8 ./Drivers/STM32F4xx_HAL_Driver/Src/stm32f4xx_hal_tim.o
                                      0x8b4a1 (size before relaxing)
 .debug_str     0x000000000009fc80      0x4b0 ./Drivers/STM32F4xx_HAL_Driver/Src/stm32f4xx_hal_tim_ex.o
                                      0x8aca2 (size before relaxing)
 .debug_str     0x00000000000a0130      0x504 ./Drivers/STM32F4xx_HAL_Driver/Src/stm32f4xx_ll_usb.o
                                      0x8aa4a (size before relaxing)
 .debug_str     0x00000000000a0634     0x27a6 ./Middlewares/Third_Party/FreeRTOS/Source/CMSIS_RTOS_V2/cmsis_os2.o
                                      0x94cc3 (size before relaxing)
 .debug_str     0x00000000000a2dda      0x12d ./Middlewares/Third_Party/FreeRTOS/Source/list.o
                                       0xabb6 (size before relaxing)
 .debug_str     0x00000000000a2f07      0x889 ./Middlewares/Third_Party/FreeRTOS/Source/queue.o
                                       0xc707 (size before relaxing)
 .debug_str     0x00000000000a3790     0x1174 ./Middlewares/Third_Party/FreeRTOS/Source/tasks.o
                                       0xd2ee (size before relaxing)
 .debug_str     0x00000000000a4904      0x5af ./Middlewares/Third_Party/FreeRTOS/Source/timers.o
                                       0xcc31 (size before relaxing)
 .debug_str     0x00000000000a4eb3      0x841 ./Middlewares/Third_Party/FreeRTOS/Source/portable/GCC/ARM_CM4F/port.o
                                       0xa63e (size before relaxing)
 .debug_str     0x00000000000a56f4      0x324 ./Middlewares/Third_Party/FreeRTOS/Source/portable/MemMang/heap_4.o
                                       0xb4ed (size before relaxing)
 .debug_str     0x00000000000a5a18      0x429 ./STM32F411E-Discovery/stm32f411e_discovery.o
                                      0x8c114 (size before relaxing)
 .debug_str     0x00000000000a5e41      0x1fa ./STM32F411E-Discovery/stm32f411e_discovery_accelerometer.o
                                      0x8e1cc (size before relaxing)

.comment        0x0000000000000000       0x53
 .comment       0x0000000000000000       0x53 ./Components/lsm303agr/lsm303agr.o
                                         0x54 (size before relaxing)
 .comment       0x0000000000000053       0x54 ./Components/lsm303dlhc/lsm303dlhc.o
 .comment       0x0000000000000053       0x54 ./Core/Src/freertos.o
 .comment       0x0000000000000053       0x54 ./Core/Src/gpio.o
 .comment       0x0000000000000053       0x54 ./Core/Src/i2c.o
 .comment       0x0000000000000053       0x54 ./Core/Src/i2s.o
 .comment       0x0000000000000053       0x54 ./Core/Src/main.o
 .comment       0x0000000000000053       0x54 ./Core/Src/spi.o
 .comment       0x0000000000000053       0x54 ./Core/Src/stm32f4xx_hal_msp.o
 .comment       0x0000000000000053       0x54 ./Core/Src/stm32f4xx_hal_timebase_tim.o
 .comment       0x0000000000000053       0x54 ./Core/Src/stm32f4xx_it.o
 .comment       0x0000000000000053       0x54 ./Core/Src/system_stm32f4xx.o
 .comment       0x0000000000000053       0x54 ./Core/Src/tim.o
 .comment       0x0000000000000053       0x54 ./Core/Src/usb_otg.o
 .comment       0x0000000000000053       0x54 ./Drivers/STM32F4xx_HAL_Driver/Src/stm32f4xx_hal.o
 .comment       0x0000000000000053       0x54 ./Drivers/STM32F4xx_HAL_Driver/Src/stm32f4xx_hal_cortex.o
 .comment       0x0000000000000053       0x54 ./Drivers/STM32F4xx_HAL_Driver/Src/stm32f4xx_hal_gpio.o
 .comment       0x0000000000000053       0x54 ./Drivers/STM32F4xx_HAL_Driver/Src/stm32f4xx_hal_hcd.o
 .comment       0x0000000000000053       0x54 ./Drivers/STM32F4xx_HAL_Driver/Src/stm32f4xx_hal_i2c.o
 .comment       0x0000000000000053       0x54 ./Drivers/STM32F4xx_HAL_Driver/Src/stm32f4xx_hal_i2s.o
 .comment       0x0000000000000053       0x54 ./Drivers/STM32F4xx_HAL_Driver/Src/stm32f4xx_hal_i2s_ex.o
 .comment       0x0000000000000053       0x54 ./Drivers/STM32F4xx_HAL_Driver/Src/stm32f4xx_hal_rcc.o
 .comment       0x0000000000000053       0x54 ./Drivers/STM32F4xx_HAL_Driver/Src/stm32f4xx_hal_rcc_ex.o
 .comment       0x0000000000000053       0x54 ./Drivers/STM32F4xx_HAL_Driver/Src/stm32f4xx_hal_spi.o
 .comment       0x0000000000000053       0x54 ./Drivers/STM32F4xx_HAL_Driver/Src/stm32f4xx_hal_tim.o
 .comment       0x0000000000000053       0x54 ./Drivers/STM32F4xx_HAL_Driver/Src/stm32f4xx_hal_tim_ex.o
 .comment       0x0000000000000053       0x54 ./Drivers/STM32F4xx_HAL_Driver/Src/stm32f4xx_ll_usb.o
 .comment       0x0000000000000053       0x54 ./Middlewares/Third_Party/FreeRTOS/Source/CMSIS_RTOS_V2/cmsis_os2.o
 .comment       0x0000000000000053       0x54 ./Middlewares/Third_Party/FreeRTOS/Source/list.o
 .comment       0x0000000000000053       0x54 ./Middlewares/Third_Party/FreeRTOS/Source/queue.o
 .comment       0x0000000000000053       0x54 ./Middlewares/Third_Party/FreeRTOS/Source/tasks.o
 .comment       0x0000000000000053       0x54 ./Middlewares/Third_Party/FreeRTOS/Source/timers.o
 .comment       0x0000000000000053       0x54 ./Middlewares/Third_Party/FreeRTOS/Source/portable/GCC/ARM_CM4F/port.o
 .comment       0x0000000000000053       0x54 ./Middlewares/Third_Party/FreeRTOS/Source/portable/MemMang/heap_4.o
 .comment       0x0000000000000053       0x54 ./STM32F411E-Discovery/stm32f411e_discovery.o
 .comment       0x0000000000000053       0x54 ./STM32F411E-Discovery/stm32f411e_discovery_accelerometer.o

.debug_frame    0x0000000000000000     0x5e34
 .debug_frame   0x0000000000000000      0x240 ./Components/lsm303agr/lsm303agr.o
 .debug_frame   0x0000000000000240      0x240 ./Components/lsm303dlhc/lsm303dlhc.o
 .debug_frame   0x0000000000000480      0x128 ./Core/Src/freertos.o
 .debug_frame   0x00000000000005a8       0x38 ./Core/Src/gpio.o
 .debug_frame   0x00000000000005e0       0x70 ./Core/Src/i2c.o
 .debug_frame   0x0000000000000650       0x9c ./Core/Src/i2s.o
 .debug_frame   0x00000000000006ec       0x8c ./Core/Src/main.o
 .debug_frame   0x0000000000000778       0x64 ./Core/Src/spi.o
 .debug_frame   0x00000000000007dc       0x34 ./Core/Src/stm32f4xx_hal_msp.o
 .debug_frame   0x0000000000000810       0x58 ./Core/Src/stm32f4xx_hal_timebase_tim.o
 .debug_frame   0x0000000000000868       0xb0 ./Core/Src/stm32f4xx_it.o
 .debug_frame   0x0000000000000918       0x30 ./Core/Src/system_stm32f4xx.o
 .debug_frame   0x0000000000000948       0x8c ./Core/Src/tim.o
 .debug_frame   0x00000000000009d4       0x74 ./Core/Src/usb_otg.o
 .debug_frame   0x0000000000000a48      0x1f4 ./Drivers/STM32F4xx_HAL_Driver/Src/stm32f4xx_hal.o
 .debug_frame   0x0000000000000c3c      0x184 ./Drivers/STM32F4xx_HAL_Driver/Src/stm32f4xx_hal_cortex.o
 .debug_frame   0x0000000000000dc0       0xe0 ./Drivers/STM32F4xx_HAL_Driver/Src/stm32f4xx_hal_gpio.o
 .debug_frame   0x0000000000000ea0      0x23c ./Drivers/STM32F4xx_HAL_Driver/Src/stm32f4xx_hal_hcd.o
 .debug_frame   0x00000000000010dc      0x938 ./Drivers/STM32F4xx_HAL_Driver/Src/stm32f4xx_hal_i2c.o
 .debug_frame   0x0000000000001a14      0x344 ./Drivers/STM32F4xx_HAL_Driver/Src/stm32f4xx_hal_i2s.o
 .debug_frame   0x0000000000001d58      0x130 ./Drivers/STM32F4xx_HAL_Driver/Src/stm32f4xx_hal_i2s_ex.o
 .debug_frame   0x0000000000001e88      0x18c ./Drivers/STM32F4xx_HAL_Driver/Src/stm32f4xx_hal_rcc.o
 .debug_frame   0x0000000000002014       0xc8 ./Drivers/STM32F4xx_HAL_Driver/Src/stm32f4xx_hal_rcc_ex.o
 .debug_frame   0x00000000000020dc      0x63c ./Drivers/STM32F4xx_HAL_Driver/Src/stm32f4xx_hal_spi.o
 .debug_frame   0x0000000000002718      0xc84 ./Drivers/STM32F4xx_HAL_Driver/Src/stm32f4xx_hal_tim.o
 .debug_frame   0x000000000000339c      0x494 ./Drivers/STM32F4xx_HAL_Driver/Src/stm32f4xx_hal_tim_ex.o
 .debug_frame   0x0000000000003830      0x4fc ./Drivers/STM32F4xx_HAL_Driver/Src/stm32f4xx_ll_usb.o
 .debug_frame   0x0000000000003d2c      0x8b4 ./Middlewares/Third_Party/FreeRTOS/Source/CMSIS_RTOS_V2/cmsis_os2.o
 .debug_frame   0x00000000000045e0       0x88 ./Middlewares/Third_Party/FreeRTOS/Source/list.o
 .debug_frame   0x0000000000004668      0x40c ./Middlewares/Third_Party/FreeRTOS/Source/queue.o
 .debug_frame   0x0000000000004a74      0x7cc ./Middlewares/Third_Party/FreeRTOS/Source/tasks.o
 .debug_frame   0x0000000000005240      0x294 ./Middlewares/Third_Party/FreeRTOS/Source/timers.o
 .debug_frame   0x00000000000054d4      0x154 ./Middlewares/Third_Party/FreeRTOS/Source/portable/GCC/ARM_CM4F/port.o
 .debug_frame   0x0000000000005628       0xc4 ./Middlewares/Third_Party/FreeRTOS/Source/portable/MemMang/heap_4.o
 .debug_frame   0x00000000000056ec      0x2a4 ./STM32F411E-Discovery/stm32f411e_discovery.o
 .debug_frame   0x0000000000005990       0x68 ./STM32F411E-Discovery/stm32f411e_discovery_accelerometer.o
 .debug_frame   0x00000000000059f8       0x20 c:/st/stm32cubeide_1.7.0/stm32cubeide/plugins/com.st.stm32cube.ide.mcu.externaltools.gnu-tools-for-stm32.9-2020-q2-update.win32_2.0.0.202105311346/tools/bin/../lib/gcc/arm-none-eabi/9.3.1/../../../../arm-none-eabi/lib/thumb/v7e-m+fp/hard\libc_nano.a(lib_a-errno.o)
 .debug_frame   0x0000000000005a18      0x14c c:/st/stm32cubeide_1.7.0/stm32cubeide/plugins/com.st.stm32cube.ide.mcu.externaltools.gnu-tools-for-stm32.9-2020-q2-update.win32_2.0.0.202105311346/tools/bin/../lib/gcc/arm-none-eabi/9.3.1/../../../../arm-none-eabi/lib/thumb/v7e-m+fp/hard\libc_nano.a(lib_a-findfp.o)
 .debug_frame   0x0000000000005b64       0x2c c:/st/stm32cubeide_1.7.0/stm32cubeide/plugins/com.st.stm32cube.ide.mcu.externaltools.gnu-tools-for-stm32.9-2020-q2-update.win32_2.0.0.202105311346/tools/bin/../lib/gcc/arm-none-eabi/9.3.1/../../../../arm-none-eabi/lib/thumb/v7e-m+fp/hard\libc_nano.a(lib_a-init.o)
 .debug_frame   0x0000000000005b90       0xb0 c:/st/stm32cubeide_1.7.0/stm32cubeide/plugins/com.st.stm32cube.ide.mcu.externaltools.gnu-tools-for-stm32.9-2020-q2-update.win32_2.0.0.202105311346/tools/bin/../lib/gcc/arm-none-eabi/9.3.1/../../../../arm-none-eabi/lib/thumb/v7e-m+fp/hard\libc_nano.a(lib_a-lock.o)
 .debug_frame   0x0000000000005c40       0x28 c:/st/stm32cubeide_1.7.0/stm32cubeide/plugins/com.st.stm32cube.ide.mcu.externaltools.gnu-tools-for-stm32.9-2020-q2-update.win32_2.0.0.202105311346/tools/bin/../lib/gcc/arm-none-eabi/9.3.1/../../../../arm-none-eabi/lib/thumb/v7e-m+fp/hard\libc_nano.a(lib_a-memcpy-stub.o)
 .debug_frame   0x0000000000005c68       0x20 c:/st/stm32cubeide_1.7.0/stm32cubeide/plugins/com.st.stm32cube.ide.mcu.externaltools.gnu-tools-for-stm32.9-2020-q2-update.win32_2.0.0.202105311346/tools/bin/../lib/gcc/arm-none-eabi/9.3.1/../../../../arm-none-eabi/lib/thumb/v7e-m+fp/hard\libc_nano.a(lib_a-memset.o)
 .debug_frame   0x0000000000005c88       0x38 c:/st/stm32cubeide_1.7.0/stm32cubeide/plugins/com.st.stm32cube.ide.mcu.externaltools.gnu-tools-for-stm32.9-2020-q2-update.win32_2.0.0.202105311346/tools/bin/../lib/gcc/arm-none-eabi/9.3.1/../../../../arm-none-eabi/lib/thumb/v7e-m+fp/hard\libc_nano.a(lib_a-nano-freer.o)
 .debug_frame   0x0000000000005cc0       0x30 c:/st/stm32cubeide_1.7.0/stm32cubeide/plugins/com.st.stm32cube.ide.mcu.externaltools.gnu-tools-for-stm32.9-2020-q2-update.win32_2.0.0.202105311346/tools/bin/../lib/gcc/arm-none-eabi/9.3.1/../../../../arm-none-eabi/lib/thumb/v7e-m+fp/hard\libc_nano.a(lib_a-nano-mallocr.o)
 .debug_frame   0x0000000000005cf0       0x5c c:/st/stm32cubeide_1.7.0/stm32cubeide/plugins/com.st.stm32cube.ide.mcu.externaltools.gnu-tools-for-stm32.9-2020-q2-update.win32_2.0.0.202105311346/tools/bin/../lib/gcc/arm-none-eabi/9.3.1/../../../../arm-none-eabi/lib/thumb/v7e-m+fp/hard\libc_nano.a(lib_a-reent.o)
 .debug_frame   0x0000000000005d4c       0x30 c:/st/stm32cubeide_1.7.0/stm32cubeide/plugins/com.st.stm32cube.ide.mcu.externaltools.gnu-tools-for-stm32.9-2020-q2-update.win32_2.0.0.202105311346/tools/bin/../lib/gcc/arm-none-eabi/9.3.1/../../../../arm-none-eabi/lib/thumb/v7e-m+fp/hard\libc_nano.a(lib_a-mlock.o)
 .debug_frame   0x0000000000005d7c       0x38 c:/st/stm32cubeide_1.7.0/stm32cubeide/plugins/com.st.stm32cube.ide.mcu.externaltools.gnu-tools-for-stm32.9-2020-q2-update.win32_2.0.0.202105311346/tools/bin/../lib/gcc/arm-none-eabi/9.3.1/../../../../arm-none-eabi/lib/thumb/v7e-m+fp/hard\libm.a(lib_a-wf_sqrt.o)
 .debug_frame   0x0000000000005db4       0x20 c:/st/stm32cubeide_1.7.0/stm32cubeide/plugins/com.st.stm32cube.ide.mcu.externaltools.gnu-tools-for-stm32.9-2020-q2-update.win32_2.0.0.202105311346/tools/bin/../lib/gcc/arm-none-eabi/9.3.1/../../../../arm-none-eabi/lib/thumb/v7e-m+fp/hard\libm.a(lib_a-ef_sqrt.o)
 .debug_frame   0x0000000000005dd4       0x2c c:/st/stm32cubeide_1.7.0/stm32cubeide/plugins/com.st.stm32cube.ide.mcu.externaltools.gnu-tools-for-stm32.9-2020-q2-update.win32_2.0.0.202105311346/tools/bin/../lib/gcc/arm-none-eabi/9.3.1/thumb/v7e-m+fp/hard\libgcc.a(_aeabi_uldivmod.o)
 .debug_frame   0x0000000000005e00       0x34 c:/st/stm32cubeide_1.7.0/stm32cubeide/plugins/com.st.stm32cube.ide.mcu.externaltools.gnu-tools-for-stm32.9-2020-q2-update.win32_2.0.0.202105311346/tools/bin/../lib/gcc/arm-none-eabi/9.3.1/thumb/v7e-m+fp/hard\libgcc.a(_udivmoddi4.o)
